{
	"data": {
		"bytecode": {
			"linkReferences": {},
			"object": "60a06040526068805460ff60a01b1916600160a01b179055348015610022575f80fd5b506040516150063803806150068339810160408190526100419161015d565b7ff0c57e16840df040f15088dc2f81fe391c3923bec73e23a9662efc9c229c6a00805468010000000000000000810460ff1615906001600160401b03165f8115801561008a5750825b90505f826001600160401b031660011480156100a55750303b155b9050811580156100b3575080155b156100d15760405163f92ee8a960e01b815260040160405180910390fd5b84546001600160401b031916600117855583156100ff57845460ff60401b1916680100000000000000001785555b6001600160a01b038616608052831561015257845460ff60401b19168555604051600181527fc7f505b2f371ae2175ee4913f4499e1f2633a7b5936321eed1cdaeb6115181d29060200160405180910390a15b50505050505061018a565b5f6020828403121561016d575f80fd5b81516001600160a01b0381168114610183575f80fd5b9392505050565b608051614e486101be5f395f818161021a0152818161093a015281816109e4015281816115be01526141e70152614e485ff3fe60806040526004361061020a575f3560e01c8063938e3d7b11610113578063c34531531161009d578063d547741f1161006d578063d547741f14610731578063d68124c714610750578063e8a3d48514610764578063f7c618c114610785578063fd48ba17146107a4575f80fd5b8063c3453153146106a9578063ca15c873146106d6578063cb2ef6f7146106f5578063cb43b2dd14610712575f80fd5b8063983d95ce116100e3578063983d95ce14610611578063a0a8e46014610630578063a217fddf1461064b578063a32fa5b31461065e578063ac9650d81461067d575f80fd5b8063938e3d7b1461058b57806393ce5343146105aa57806394067045146105be578063961004d3146105f2575f80fd5b8063372500ab116101945780636a5ab6e5116101645780636a5ab6e51461047b57806372f702f31461049a5780639010d07c146104b95780639168ae72146104d857806391d148541461056c575f80fd5b8063372500ab146103da5780635357e916146103ee578063572b6c05146104255780636360106f1461045c575f80fd5b806316c621e0116101da57806316c621e01461033f57806323ef258014610352578063248a9ca3146103715780632f2ff15d1461039c57806336568abe146103bb575f80fd5b806301ffc9a7146102925780630e8b229b146102c65780630fbf0a93146102e8578063150b7a0214610307575f80fd5b3661028e57336001600160a01b037f0000000000000000000000000000000000000000000000000000000000000000161461028c5760405162461bcd60e51b815260206004820181905260248201527f63616c6c6572206e6f74206e617469766520746f6b656e20777261707065722e60448201526064015b60405180910390fd5b005b5f80fd5b34801561029d575f80fd5b506102b16102ac3660046145d6565b6107d2565b60405190151581526020015b60405180910390f35b3480156102d1575f80fd5b506102da610808565b6040519081526020016102bd565b3480156102f3575f80fd5b5061028c61030236600461463d565b61084d565b348015610312575f80fd5b50610326610321366004614691565b61086d565b6040516001600160e01b031990911681526020016102bd565b61028c61034d366004614724565b6108cf565b34801561035d575f80fd5b5061028c61036c366004614724565b610ad7565b34801561037c575f80fd5b506102da61038b366004614724565b5f9081526002602052604090205490565b3480156103a7575f80fd5b5061028c6103b636600461473b565b610bfb565b3480156103c6575f80fd5b5061028c6103d536600461473b565b610c72565b3480156103e5575f80fd5b5061028c610cb6565b3480156103f9575f80fd5b5061040d610408366004614724565b610cd2565b6040516001600160a01b0390911681526020016102bd565b348015610430575f80fd5b506102b161043f366004614765565b6001600160a01b03165f9081526004602052604090205460ff1690565b348015610467575f80fd5b5061028c610476366004614724565b610cfa565b348015610486575f80fd5b5061028c61049536600461482d565b610e1d565b3480156104a5575f80fd5b5060685461040d906001600160a01b031681565b3480156104c4575f80fd5b5061040d6104d3366004614949565b610f70565b3480156104e3575f80fd5b506105336104f2366004614765565b606c6020525f9081526040902080546001909101546001600160401b0380831692600160401b810490911691600160801b9091046001600160801b03169084565b604080516001600160401b0395861681529490931660208501526001600160801b039091169183019190915260608201526080016102bd565b348015610577575f80fd5b506102b161058636600461473b565b611059565b348015610596575f80fd5b5061028c6105a5366004614969565b611083565b3480156105b5575f80fd5b506070546102da565b3480156105c9575f80fd5b5061040d6105d8366004614724565b606d6020525f90815260409020546001600160a01b031681565b3480156105fd575f80fd5b506102da61060c366004614724565b6110b1565b34801561061c575f80fd5b5061028c61062b36600461463d565b6110d0565b34801561063b575f80fd5b50604051600181526020016102bd565b348015610656575f80fd5b506102da5f81565b348015610669575f80fd5b506102b161067836600461473b565b6110e2565b348015610688575f80fd5b5061069c61069736600461463d565b611136565b6040516102bd91906149c8565b3480156106b4575f80fd5b506106c86106c3366004614765565b6112a6565b6040516102bd929190614a2b565b3480156106e1575f80fd5b506102da6106f0366004614724565b6114cb565b348015610700575f80fd5b50674e46545374616b6560c01b6102da565b34801561071d575f80fd5b5061028c61072c366004614724565b611551565b34801561073c575f80fd5b5061028c61074b36600461473b565b61161f565b34801561075b575f80fd5b506102da611637565b34801561076f575f80fd5b5061077861167b565b6040516102bd9190614a77565b348015610790575f80fd5b50606f5461040d906001600160a01b031681565b3480156107af575f80fd5b506102b16107be366004614724565b606b6020525f908152604090205460ff1681565b5f6001600160e01b03198216630a85bd0160e11b148061080257506301ffc9a760e01b6001600160e01b03198316145b92915050565b5f606e5f6001606860159054906101000a90046001600160401b031661082e9190614a9d565b6001600160401b031681526020019081526020015f2060010154905090565b610855611706565b61085f828261175f565b6108696001603655565b5050565b6068545f90600160a01b900460ff166002146108bd5760405162461bcd60e51b815260206004820152600f60248201526e2234b932b1ba103a3930b739b332b960891b6044820152606401610283565b50630a85bd0160e11b95945050505050565b6108d7611706565b6108e35f6105866130ed565b6108ff5760405162461bcd60e51b815260040161028390614abc565b606f545f906001600160a01b031673eeeeeeeeeeeeeeeeeeeeeeeeeeeeeeeeeeeeeeee1461093857606f546001600160a01b031661095a565b7f00000000000000000000000000000000000000000000000000000000000000005b6040516370a0823160e01b81523060048201529091505f906001600160a01b038316906370a0823190602401602060405180830381865afa1580156109a1573d5f803e3d5ffd5b505050506040513d601f19601f820116820180604052508101906109c59190614ae4565b606f54909150610a08906001600160a01b03166109e06130ed565b30867f00000000000000000000000000000000000000000000000000000000000000006130fb565b6040516370a0823160e01b81523060048201525f9082906001600160a01b038516906370a0823190602401602060405180830381865afa158015610a4e573d5f803e3d5ffd5b505050506040513d601f19601f82011682018060405250810190610a729190614ae4565b610a7c9190614afb565b90508060705f828254610a8f9190614b0e565b90915550506040518181527ff9d14e57815939d300bc94720ede00c8c8e08d254ab28e2917ea46e149aa119b9060200160405180910390a1505050610ad46001603655565b50565b610adf613247565b610afb5760405162461bcd60e51b815260040161028390614abc565b5f606e5f6001606860159054906101000a90046001600160401b0316610b219190614a9d565b6001600160401b0316815260208082019290925260409081015f20815160808101835281548152600182015493810184905260028201549281019290925260030154606082015291508203610bac5760405162461bcd60e51b81526020600482015260116024820152702932bbb0b932103ab731b430b733b2b21760791b6044820152606401610283565b8051610bb89083613254565b602080820151604080519182529181018490527f243c4656edc72b2c7ec8575d464d955b2f42c1b205960c6c2fb7eecda5419cf691015b60405180910390a15050565b5f82815260026020526040902054610c139033613358565b5f8281526001602090815260408083206001600160a01b038516845290915290205460ff1615610c6857604051636a4e0b3560e11b81526001600160a01b038216600482015260248101839052604401610283565b61086982826133ac565b336001600160a01b03821614610cac576040516320b4e31160e11b81523360048201526001600160a01b0382166024820152604401610283565b61086982826133c0565b610cbe611706565b610cc6613416565b610cd06001603655565b565b606a8181548110610ce1575f80fd5b5f918252602090912001546001600160a01b0316905081565b610d02613247565b610d1e5760405162461bcd60e51b815260040161028390614abc565b5f606e5f6001606860159054906101000a90046001600160401b0316610d449190614a9d565b6001600160401b031681526020019081526020015f206040518060800160405290815f820154815260200160018201548152602001600282015481526020016003820154815250509050805f01518203610dd75760405162461bcd60e51b81526020600482015260146024820152732a34b6b296bab734ba103ab731b430b733b2b21760611b6044820152606401610283565b610de5828260200151613254565b805160408051918252602082018490527fd968de290ed68f978b9e4816f7d4be9ef46189fe8eeb3eeb86199e7229cf2de09101610bef565b7ff0c57e16840df040f15088dc2f81fe391c3923bec73e23a9662efc9c229c6a008054600160401b810460ff1615906001600160401b03165f81158015610e615750825b90505f826001600160401b03166001148015610e7c5750303b155b905081158015610e8a575080155b15610ea85760405163f92ee8a960e01b815260040160405180910390fd5b845467ffffffffffffffff191660011785558315610ed257845460ff60401b1916600160401b1785555b610edb8a6135d3565b606f80546001600160a01b0319166001600160a01b038b16179055610eff88613636565b610f098787613254565b610f128b6136b5565b610f1c5f8d6133ac565b8315610f6257845460ff60401b19168555604051600181527fc7f505b2f371ae2175ee4913f4499e1f2633a7b5936321eed1cdaeb6115181d29060200160405180910390a15b505050505050505050505050565b5f8281526003602052604081205481805b82811015611050575f8681526003602090815260408083208484526001019091529020546001600160a01b031615610ffb57848203610fe9575f8681526003602090815260408083209383526001909301905220546001600160a01b03169250610802915050565b610ff4600183614b0e565b915061103e565b611005865f611059565b801561102b57505f86815260036020908152604080832083805260020190915290205481145b1561103e5761103b600183614b0e565b91505b611049600182614b0e565b9050610f81565b50505092915050565b5f9182526001602090815260408084206001600160a01b0393909316845291905290205460ff1690565b61108b613247565b6110a857604051639f7f092560e01b815260040160405180910390fd5b610ad4816136b5565b606981815481106110c0575f80fd5b5f91825260209091200154905081565b6110d8611706565b61085f8282613780565b5f82815260016020908152604080832083805290915281205460ff1661112d57505f8281526001602090815260408083206001600160a01b038516845290915290205460ff16610802565b50600192915050565b6060816001600160401b038111156111505761115061477e565b60405190808252806020026020018201604052801561118357816020015b606081526020019060019003908161116e5790505b5090505f61118f6130ed565b9050336001600160a01b03821614155f5b8481101561105057811561121f576111fd308787848181106111c4576111c4614b21565b90506020028101906111d69190614b35565b866040516020016111e993929190614b77565b604051602081830303815290604052613bf8565b84828151811061120f5761120f614b21565b602002602001018190525061129e565b6112803087878481811061123557611235614b21565b90506020028101906112479190614b35565b8080601f0160208091040260200160405190810160405280939291908181526020018383808284375f92019190915250613bf892505050565b84828151811061129257611292614b21565b60200260200101819052505b6001016111a0565b60605f8060698054806020026020016040519081016040528092919081815260200182805480156112f457602002820191905f5260205f20905b8154815260200190600101908083116112e0575b505050505090505f81516001600160401b038111156113155761131561477e565b60405190808252806020026020018201604052801561133e578160200160208202803683370190505b5082519091505f805b828110156113f957876001600160a01b0316606d5f87848151811061136e5761136e614b21565b602002602001015181526020019081526020015f205f9054906101000a90046001600160a01b03166001600160a01b0316148482815181106113b2576113b2614b21565b6020026020010190151590811515815250508381815181106113d6576113d6614b21565b6020026020010151156113f1576113ee600183614b0e565b91505b600101611347565b50806001600160401b038111156114125761141261477e565b60405190808252806020026020018201604052801561143b578160200160208202803683370190505b5095505f805b838110156114b55784818151811061145b5761145b614b21565b6020026020010151156114ad5785818151811061147a5761147a614b21565b602002602001015188838151811061149457611494614b21565b60209081029190910101526114aa600183614b0e565b91505b600101611441565b506114bf88613c24565b95505050505050915091565b5f81815260036020526040812054815b8181101561152d575f8481526003602090815260408083208484526001019091529020546001600160a01b03161561151b57611518600184614b0e565b92505b611526600182614b0e565b90506114db565b50611538835f611059565b1561154b57611548600183614b0e565b91505b50919050565b611559611706565b6115655f6105866130ed565b6115815760405162461bcd60e51b815260040161028390614abc565b607054811161159d57806070546115989190614afb565b61159f565b5f5b607055606f546115e2906001600160a01b0316306115bb6130ed565b847f00000000000000000000000000000000000000000000000000000000000000006130fb565b6040518181527f37ff8766c704931c4283e470feb7c20ddcd8aa492746f74b30503709a0452acd9060200160405180910390a1610ad46001603655565b5f82815260026020526040902054610cac9033613358565b5f606e5f6001606860159054906101000a90046001600160401b031661165d9190614a9d565b6001600160401b031681526020019081526020015f205f0154905090565b5f805461168790614b9d565b80601f01602080910402602001604051908101604052809291908181526020018280546116b390614b9d565b80156116fe5780601f106116d5576101008083540402835291602001916116fe565b820191905f5260205f20905b8154815290600101906020018083116116e157829003601f168201915b505050505081565b6002603654036117585760405162461bcd60e51b815260206004820152601f60248201527f5265656e7472616e637947756172643a207265656e7472616e742063616c6c006044820152606401610283565b6002603655565b806001600160401b0381165f036117ab5760405162461bcd60e51b815260206004820152601060248201526f5374616b696e67203020746f6b656e7360801b6044820152606401610283565b600a816001600160401b0316106118045760405162461bcd60e51b815260206004820152601960248201527f4d6178696d756d20313020746f6b656e73206174206f6e6365000000000000006044820152606401610283565b6068546001600160a01b03165f606c8161181c613c9c565b6001600160a01b0316815260208101919091526040015f20546001600160401b031611156118595761185461184f613c9c565b613ca5565b611940565b606a611863613c9c565b81546001810183555f928352602083200180546001600160a01b0319166001600160a01b03929092169190911790554290606c9061189f613c9c565b6001600160a01b0316815260208101919091526040015f2080546001600160801b03928316600160801b0292169190911790556068546118f2906001906001600160401b03600160a81b90910416614a9d565b606c5f6118fd613c9c565b6001600160a01b0316815260208101919091526040015f2080546001600160401b0392909216600160401b0267ffffffffffffffff60401b199092169190911790555b5f80604051806150e0016040528060078152602001600f8152602001602b8152602001607b8152602001607d815260200160858152602001608d815260200160b8815260200160bf815260200160d2815260200160db815260200160dd815260200160de815260200160e981526020016101078152602001610116815260200161011981526020016101288152602001610144815260200161014c815260200161015781526020016101658152602001610169815260200161016a815260200161016d815260200161017a815260200161017b81526020016101a281526020016101a381526020016101a981526020016101ab81526020016101bb81526020016101c681526020016101e781526020016101eb81526020016101ec81526020016101f481526020016101ff8152602001610216815260200161021a81526020016102408152602001610249815260200161024e815260200161025b815260200161025d815260200161027f8152602001610287815260200161028b81526020016102a981526020016102c081526020016102d481526020016102dc81526020016102df81526020016102f88152602001610326815260200161032a81526020016103328152602001610335815260200161033e815260200161036b815260200161036c81526020016103778152602001610383815260200161039c815260200161039f81526020016103b881526020016103cc81526020016103d381526020016103ea81526020016103eb8152602001610433815260200161043481526020016104498152602001610455815260200161045e815260200161046181526020016104798152602001610499815260200161049e81526020016104b481526020016104c081526020016104c881526020016104de81526020016104ee8152602001610504815260200161051e8152602001610525815260200161053581526020016105368152602001610539815260200161054481526020016105468152602001610561815260200161056b815260200161056e815260200161057181526020016105728152602001610585815260200161059081526020016105a581526020016105bc81526020016105c781526020016105ce81526020016105d281526020016105d581526020016105ef815260200161062a81526020016106318152602001610637815260200161063d815260200161064681526020016106658152602001610669815260200161067b81526020016106808152602001610686815260200161068f8152602001610697815260200161069c81526020016106a181526020016106b581526020016106bd81526020016106d881526020016106e281526020016106ed815260200161073e8152602001610759815260200161078b81526020016107b181526020016107b981526020016107c181526020016107d181526020016107f0815260200161082281526020016108338152602001610850815260200161085381526020016108608152602001610865815260200161086f8152602001610872815260200161088a815260200161089681526020016108af81526020016108bb81526020016108c181526020016108ce81526020016108e181526020016108fe815260200161090081526020016109108152602001610913815260200161092f81526020016109338152602001610936815260200161093c8152602001610946815260200161094e815260200161095781526020016109598152602001610961815260200161096b815260200161096d815260200161096f815260200161097a81526020016109a181526020016109a581526020016109a881526020016109ad81526020016109b281526020016109bd81526020016109c081526020016109cc81526020016109dc81526020016109e081526020016109ee81526020016109f08152602001610a008152602001610a248152602001610a458152602001610a6b8152602001610a708152602001610a788152602001610a7b8152602001610a7d8152602001610a868152602001610a9c8152602001610ad98152602001610ae28152602001610b068152602001610b118152602001610b138152602001610b1c8152602001610b228152602001610b2d8152602001610b338152602001610b388152602001610b428152602001610b688152602001610b7f8152602001610b808152602001610b848152602001610ba68152602001610bbc8152602001610bd88152602001610bea8152602001610bec8152602001610c068152602001610c158152602001610c4e8152602001610c528152602001610c798152602001610c818152602001610cad8152602001610ce28152602001610cf38152602001610d1d8152602001610d2a8152602001610d2d8152602001610d4c8152602001610d4d8152602001610d5c8152602001610d828152602001610d848152602001610d858152602001610d8e8152602001610d958152602001610d9a8152602001610d9f8152602001610dba8152602001610dc58152602001610dd98152602001610de08152602001610e0d8152602001610e1a8152602001610e1f8152602001610e298152602001610e3c8152602001610e428152602001610e468152602001610e508152602001610e558152602001610e5f8152602001610e888152602001610e8d8152602001610eab8152602001610ec78152602001610ed68152602001610f198152602001610f1c8152602001610f528152602001610f5d8152602001610f718152602001610f7e8152602001610f828152602001610fa08152602001610fad8152602001610fc18152602001610fc38152602001610fce8152602001610fcf8152602001610fe98152602001610fec81526020016110078152602001611015815260200161101c8152602001611025815260200161102f8152602001611070815260200161107f81526020016110808152602001611093815260200161109e81526020016110ac81526020016110b381526020016110bd81526020016110d081526020016110d781526020016110e981526020016110f9815260200161110f815260200161111481526020016111158152602001611135815260200161113c815260200161113d815260200161114f8152602001611166815260200161116c815260200161116e8152602001611178815260200161117d815260200161118281526020016111918152602001611198815260200161119f81526020016111b881526020016111be8152602001611217815260200161124981526020016112648152602001611266815260200161126e8152602001611277815260200161127a815260200161129281526020016112a281526020016112a681526020016112c581526020016112cd81526020016112d581526020016112e381526020016112f881526020016112f9815260200161131e815260200161132f8152602001611330815260200161133581526020016113578152602001611368815260200161136c815260200161136f8152602001611376815260200161138f8152602001611399815260200161139a815260200161139f81526020016113ae81526020016113b081526020016113b481526020016113d281526020016113e981526020016113f481526020016113fd815260200161140881526020016114218152602001611444815260200161144f815260200161147c815260200161148b8152602001611498815260200161149f81526020016114b181526020016114c081526020016114c981526020016114dc81526020016114f88152602001611507815260200161151c815260200161153b815260200161153d815260200161154681526020016115518152602001611559815260200161155e8152602001611586815260200161158b81526020016115b381526020016115ba81526020016115bb815260200161161a815260200161161c81526020016116238152602001611626815260200161167481526020016116798152602001611682815260200161169081526020016116a581526020016116b781526020016116c081526020016116c481526020016116c981526020016116cf81526020016116da81526020016116e981526020016116fa81526020016116fd81526020016117048152602001611706815260200161170f8152602001611726815260200161172c8152602001611752815260200161175f8152602001611780815260200161178581526020016117cb81526020016117d281526020016117da81526020016117de81526020016117fe81526020016118018152602001611838815260200161187381526020016118868152602001611894815260200161189881526020016118bf81526020016118c181526020016118c581526020016118cb81526020016118e881526020016118f581526020016118f78152602001611904815260200161191681526020016119178152602001611919815260200161191f81526020016119278152602001611928815260200161192b8152602001611942815260200161194c8152602001611951815260200161196c8152602001611973815260200161198e81526020016119a681526020016119a881526020016119ae81526020016119b581526020016119b881526020016119d081526020016119d881526020016119f18152602001611a128152602001611a198152602001611a228152602001611a2c8152602001611a338152602001611a438152602001611a5a8152602001611a638152602001611a778152602001611a818152602001611a968152602001611a9c8152602001611aaa8152602001611aae8152602001611ae48152602001611ae68152602001611b0c8152602001611b1c8152602001611b208152602001611b298152602001611b2b8152602001611b548152602001611b608152602001611b688152602001611b6d8152602001611b768152602001611b818152602001611b858152602001611b938152602001611b9d8152602001611bb58152602001611bc28152602001611bc48152602001611bc58152602001611bd88152602001611bee8152602001611c008152602001611c078152602001611c238152602001611c548152602001611c608152602001611c678152602001611c6c8152602001611c818152602001611c888152602001611c8a8152602001611c8b8152602001611c9a8152602001611c9b8152602001611ca48152602001611cb78152602001611cce8152602001611cd88152602001611cd98152602001611d0b8152602001611d0e8152602001611d168152602001611d348152602001611d368152602001611d418152602001611d518152602001611d6b8152602001611d768152602001611d8f8152602001611da08152602001611da78152602001611dd98152602001611dec8152602001611e478152602001611e4c8152602001611e558152602001611e678152602001611e728152602001611e788152602001611e798152602001611e808152602001611e988152602001611eda8152602001611eea8152602001611ef18152602001611ef58152602001611efb8152602001611f048152602001611f0a8152602001611f188152602001611f208152602001611f218152602001611f248152602001611f258152602001611f3d8152602001611f458152602001611f5c8152602001611f698152602001611f888152602001611f898152602001611f9c8152602001611faf8152602001611feb8152602001611ffb8152602001612005815260200161203d815260200161203e815260200161204d815260200161206b815260200161207881526020016120858152602001612095815260200161209f81526020016120a081526020016120bd81526020016120de81526020016120f481526020016120fa8152602001612108815260200161210b815260200161210c81526020016121108152602001612115815260200161211d815260200161212381526020016121258152602001612130815260200161214c81526020016121688152602001612173815260200161218d815260200161218e815260200161219081526020016121948152602001612196815260200161219a81526020016121c281526020016121d281526020016121d58152602001612209815260200161220b815260200161220d815260200161220e81526020016122458152602001612255815260200161225d8152602001612268815260200161226f81526020016122718152602001612286815260200161228f81526020016122a381526020016122a581526020016122b681526020016122bd81526020016122be81526020016122e481526020016122ed81526020016122f4815260200161231c815260200161232b815260200161232d8152602001612347815260200161234a815260200161234c815260200161234e815260200161234f8152602001612358815260200161235a815260200161235c815260200161235f8152602001612387815260200161238e815260200161239581526020016123a981526020016123b581526020016123c281526020016123c381526020016123d581526020016123dc8152602001612408815260200161240f8152602001612417815260200161241c815260200161245381526020016124768152602001612479815260200161249581526020016124b181526020016124b581526020016124b981526020016124c181526020016124d181526020016124df81526020016124e781526020016124e981526020016124f681526020016124fd815260200161250681526020016125158152602001612520815260200161256d81526020016125748152602001612582815260200161258c815260200161259981526020016125a381526020016125ba81526020016125bc81526020016125c381526020016125e481526020016125ee81526020016125f58152602001612619815260200161261b8152602001612622815260200161262a815260200161263f815260200161265c8152602001612666815260200161269781526020016126a081526020016126a681526020016126e281526020016126ef81525090505f5b846001600160401b0316811015613025576068805460ff60a01b1916600160a11b1790555f5b610287811015612e1f57878783818110612dbc57612dbc614b21565b9050602002013583826102878110612dd657612dd6614b21565b602002015103612de95760019350612e1f565b612df4600187614a9d565b6001600160401b03168203612e17575f9350856001600160401b03169150612e1f565b600101612da0565b5082612e6d5760405162461bcd60e51b815260206004820152601860248201527f4e6f7420617574686f72697a656420746f6b656e7320494400000000000000006044820152606401610283565b836001600160a01b03166342842e0e612e84613c9c565b308a8a86818110612e9757612e97614b21565b6040516001600160e01b031960e088901b1681526001600160a01b039586166004820152949093166024850152506020909102013560448201526064015f604051808303815f87803b158015612eeb575f80fd5b505af1158015612efd573d5f803e3d5ffd5b50506068805460ff60a01b1916600160a01b17905550612f1d9050613c9c565b606d5f898985818110612f3257612f32614b21565b9050602002013581526020019081526020015f205f6101000a8154816001600160a01b0302191690836001600160a01b03160217905550606b5f888884818110612f7e57612f7e614b21565b602090810292909201358352508101919091526040015f205460ff16613015576001606b5f898985818110612fb557612fb5614b21565b9050602002013581526020019081526020015f205f6101000a81548160ff0219169083151502179055506069878783818110612ff357612ff3614b21565b83546001810185555f9485526020948590209190940292909201359190920155505b61301e81614bcf565b9050612d7a565b5083606c5f613032613c9c565b6001600160a01b0316815260208101919091526040015f90812080549091906130659084906001600160401b0316614be7565b92506101000a8154816001600160401b0302191690836001600160401b031602179055508585604051613099929190614c06565b60405180910390206130a9613c9c565b6001600160a01b03167f540cd34f06460fd67aeca9d19e0a56cd3a7c1cde8dc2263f265b68b2ef3495d260405160405180910390a3505050505050565b6001603655565b5f6130f6613d78565b905090565b81156132405773eeeeeeeeeeeeeeeeeeeeeeeeeeeeeeeeeeeeeeed196001600160a01b0386160161323457306001600160a01b0385160361319b57604051632e1a7d4d60e01b8152600481018390526001600160a01b03821690632e1a7d4d906024015f604051808303815f87803b158015613175575f80fd5b505af1158015613187573d5f803e3d5ffd5b50505050613196838383613da1565b613240565b306001600160a01b03841603613229573482146131d4576040516303e085f960e01b815234600482015260248101839052604401610283565b806001600160a01b031663d0e30db0836040518263ffffffff1660e01b81526004015f604051808303818588803b15801561320d575f80fd5b505af115801561321f573d5f803e3d5ffd5b5050505050613240565b613196838383613da1565b61324085858585613e64565b5050505050565b5f6130f6816105866130ed565b815f0361329a5760405162461bcd60e51b8152602060048201526014602482015273074696d652d756e69742063616e277420626520360641b6044820152606401610283565b60688054600160a81b90046001600160401b03169060019060156132be8385614be7565b82546001600160401b039182166101009390930a928302919092021990911617905550604080516080810182528481526020808201858152428385019081525f60608501818152878252606e909452949094209251835551600183015591516002820155905160039091015580156133535742606e5f61333f600185614afb565b815260208101919091526040015f20600301555b505050565b5f8281526001602090815260408083206001600160a01b038516845290915290205460ff166108695760405163043c588360e11b81526001600160a01b038216600482015260248101839052604401610283565b6133b68282613ebc565b6108698282613f18565b6133ca8282613f83565b5f8281526003602090815260408083206001600160a01b03851680855260028201808552838620805487526001909301855292852080546001600160a01b031916905584529152555050565b5f613427613422613c9c565b613fe4565b606c5f613432613c9c565b6001600160a01b03166001600160a01b031681526020019081526020015f206001015461345f9190614b0e565b9050805f0361349d5760405162461bcd60e51b815260206004820152600a6024820152694e6f207265776172647360b01b6044820152606401610283565b42606c5f6134a9613c9c565b6001600160a01b0316815260208101919091526040015f90812080546001600160801b03938416600160801b02931692909217909155606c816134ea613c9c565b6001600160a01b0316815260208101919091526040015f206001908101919091556068546135289190600160a81b90046001600160401b0316614a9d565b606c5f613533613c9c565b6001600160a01b0316815260208101919091526040015f2080546001600160401b0392909216600160401b0267ffffffffffffffff60401b19909216919091179055613586613580613c9c565b8261416a565b61358e613c9c565b6001600160a01b03167ffc30cddea38e2bf4d6ea7d3f9ed3b6ad7f176419f4963bd81318067a4aee73fe826040516135c891815260200190565b60405180910390a250565b6135db61420b565b5f5b815181101561086957600160045f8484815181106135fd576135fd614b21565b6020908102919091018101516001600160a01b031682528101919091526040015f20805460ff19169115159190911790556001016135dd565b61363e61420b565b613646614254565b6001600160a01b0381166136935760405162461bcd60e51b81526020600482015260146024820152730636f6c6c656374696f6e206164647265737320360641b6044820152606401610283565b606880546001600160a01b0319166001600160a01b0392909216919091179055565b5f8080546136c290614b9d565b80601f01602080910402602001604051908101604052809291908181526020018280546136ee90614b9d565b80156137395780601f1061371057610100808354040283529160200191613739565b820191905f5260205f20905b81548152906001019060200180831161371c57829003601f168201915b50505050509050815f908161374e9190614c71565b507fc9c7c3fe08b88b4df9d4d47ef47d2c43d55c025a0ba88ca442580ed9e7348a168183604051610bef929190614d2b565b5f606c5f61378c613c9c565b6001600160a01b0316815260208101919091526040015f908120546001600160401b039081169250839190821690036137fe5760405162461bcd60e51b81526020600482015260146024820152735769746864726177696e67203020746f6b656e7360601b6044820152606401610283565b806001600160401b03168210156138575760405162461bcd60e51b815260206004820152601c60248201527f5769746864726177696e67206d6f7265207468616e207374616b6564000000006044820152606401610283565b6068546001600160a01b031661386e61184f613c9c565b816001600160401b031683036139c4575f606a8054806020026020016040519081016040528092919081815260200182805480156138d357602002820191905f5260205f20905b81546001600160a01b031681526001909101906020018083116138b5575b505050505090505f5b81518110156139c1576138ed613c9c565b6001600160a01b031682828151811061390857613908614b21565b60200260200101516001600160a01b0316036139b957816001835161392d9190614afb565b8151811061393d5761393d614b21565b6020026020010151606a828154811061395857613958614b21565b905f5260205f20015f6101000a8154816001600160a01b0302191690836001600160a01b03160217905550606a80548061399457613994614d58565b5f8281526020902081015f1990810180546001600160a01b03191690550190556139c1565b6001016138dc565b50505b81606c5f6139d0613c9c565b6001600160a01b0316815260208101919091526040015f9081208054909190613a039084906001600160401b0316614a9d565b92506101000a8154816001600160401b0302191690836001600160401b031602179055505f5b826001600160401b0316811015613b9b57613a42613c9c565b6001600160a01b0316606d5f888885818110613a6057613a60614b21565b602090810292909201358352508101919091526040015f20546001600160a01b031614613abc5760405162461bcd60e51b815260206004820152600a6024820152692737ba1039ba30b5b2b960b11b6044820152606401610283565b5f606d5f888885818110613ad257613ad2614b21565b602090810292909201358352508101919091526040015f2080546001600160a01b0319166001600160a01b0392831617905582166342842e0e30613b14613c9c565b898986818110613b2657613b26614b21565b6040516001600160e01b031960e088901b1681526001600160a01b039586166004820152949093166024850152506020909102013560448201526064015f604051808303815f87803b158015613b7a575f80fd5b505af1158015613b8c573d5f803e3d5ffd5b50505050806001019050613a29565b508484604051613bac929190614c06565b6040518091039020613bbc613c9c565b6001600160a01b03167f09ba0ae49142860d7eec1f3ce54722d70b60910facbe018cccb1099e4e84755c60405160405180910390a35050505050565b6060613c1d8383604051806060016040528060278152602001614dec60279139614264565b9392505050565b6001600160a01b0381165f908152606c60205260408120546001600160401b03168103613c6957506001600160a01b03165f908152606c602052604090206001015490565b613c7282613fe4565b6001600160a01b0383165f908152606c60205260409020600101546108029190614b0e565b919050565b5f6130f66130ed565b5f613caf82613fe4565b6001600160a01b0383165f908152606c6020526040812060010180549293508392909190613cde908490614b0e565b90915550506001600160a01b0382165f908152606c6020526040902080546001600160801b03428116600160801b029116179055606854613d32906001906001600160401b03600160a81b90910416614a9d565b6001600160a01b039092165f908152606c6020526040902080546001600160401b0393909316600160401b0267ffffffffffffffff60401b199093169290921790915550565b335f9081526004602052604081205460ff1615613d9c575060131936013560601c90565b503390565b5f836001600160a01b0316836040515f6040518083038185875af1925050503d805f8114613dea576040519150601f19603f3d011682016040523d82523d5f602084013e613def565b606091505b5050905080613e5e57816001600160a01b031663d0e30db0846040518263ffffffff1660e01b81526004015f604051808303818588803b158015613e31575f80fd5b505af1158015613e43573d5f803e3d5ffd5b50613e5e935050506001600160a01b038416905085856142d8565b50505050565b816001600160a01b0316836001600160a01b03160315613e5e57306001600160a01b03841603613ea757613ea26001600160a01b03851683836142d8565b613e5e565b613e5e6001600160a01b03851684848461433b565b5f8281526001602081815260408084206001600160a01b0386168086529252808420805460ff19169093179092559051339285917f2f8788117e7eff1d82e926ec794901d17c78024a50270940304540a733656f0d9190a45050565b5f82815260036020526040812080549160019190613f368385614b0e565b90915550505f92835260036020908152604080852083865260018101835281862080546001600160a01b039096166001600160a01b03199096168617905593855260029093019052912055565b613f8d8282613358565b5f8281526001602090815260408083206001600160a01b0385168085529252808320805460ff1916905551339285917ff6391f5c32d9c69d2a47ea670b442974b53935d1edc7fd64eb21e047a839171b9190a45050565b6001600160a01b0381165f908152606c60209081526040808320815160808101835281546001600160401b038082168352600160401b82048116958301869052600160801b9091046001600160801b0316938201939093526001909101546060820152606854909291600160a81b90910416815b81811015614161575f818152606e60209081526040808320815160808101835281548152600182015493810193909352600281015491830191909152600301546060820152908483036140b85785604001516001600160801b03166140be565b81604001515b90505f82606001515f036140d257426140d8565b82606001515b90505f8061410c895f01516001600160401b031685856140f89190614afb565b6141029190614d6c565b8660200151614373565b915091505f8061412a8c885f0151856141259190614d97565b6143ba565b915091508380156141385750815b614142578b614144565b805b9b505050505050505060018161415a9190614b0e565b9050614058565b50505050919050565b6070548111156141bc5760405162461bcd60e51b815260206004820152601860248201527f4e6f7420656e6f7567682072657761726420746f6b656e7300000000000000006044820152606401610283565b8060705f8282546141cd9190614afb565b9091555050606f54610869906001600160a01b03163084847f00000000000000000000000000000000000000000000000000000000000000006130fb565b7ff0c57e16840df040f15088dc2f81fe391c3923bec73e23a9662efc9c229c6a0054600160401b900460ff16610cd057604051631afcd79f60e31b815260040160405180910390fd5b61425c61420b565b610cd06143d3565b60605f80856001600160a01b0316856040516142809190614db6565b5f60405180830381855af49150503d805f81146142b8576040519150601f19603f3d011682016040523d82523d5f602084013e6142bd565b606091505b50915091506142ce868383876143db565b9695505050505050565b6040516001600160a01b03831660248201526044810182905261335390849063a9059cbb60e01b906064015b60408051601f198184030181529190526020810180516001600160e01b03166001600160e01b03199093169290921790915261445b565b6040516001600160a01b0380851660248301528316604482015260648101829052613e5e9085906323b872dd60e01b90608401614304565b5f80835f036143875750600190505f6143b3565b8383028385828161439a5761439a614d83565b04146143ac575f8092509250506143b3565b6001925090505b9250929050565b5f80838301848110156143ac575f8092509250506143b3565b6130e661420b565b606083156144495782515f03614442576001600160a01b0385163b6144425760405162461bcd60e51b815260206004820152601d60248201527f416464726573733a2063616c6c20746f206e6f6e2d636f6e74726163740000006044820152606401610283565b5081614453565b614453838361452c565b949350505050565b5f6144af826040518060400160405280602081526020017f5361666545524332303a206c6f772d6c6576656c2063616c6c206661696c6564815250856001600160a01b03166145569092919063ffffffff16565b80519091501561335357808060200190518101906144cd9190614dcc565b6133535760405162461bcd60e51b815260206004820152602a60248201527f5361666545524332303a204552433230206f7065726174696f6e20646964206e6044820152691bdd081cdd58d8d9595960b21b6064820152608401610283565b81511561453c5781518083602001fd5b8060405162461bcd60e51b81526004016102839190614a77565b606061445384845f85855f80866001600160a01b0316858760405161457b9190614db6565b5f6040518083038185875af1925050503d805f81146145b5576040519150601f19603f3d011682016040523d82523d5f602084013e6145ba565b606091505b50915091506145cb878383876143db565b979650505050505050565b5f602082840312156145e6575f80fd5b81356001600160e01b031981168114613c1d575f80fd5b5f8083601f84011261460d575f80fd5b5081356001600160401b03811115614623575f80fd5b6020830191508360208260051b85010111156143b3575f80fd5b5f806020838503121561464e575f80fd5b82356001600160401b03811115614663575f80fd5b61466f858286016145fd565b90969095509350505050565b80356001600160a01b0381168114613c97575f80fd5b5f805f805f608086880312156146a5575f80fd5b6146ae8661467b565b94506146bc6020870161467b565b93506040860135925060608601356001600160401b038111156146dd575f80fd5b8601601f810188136146ed575f80fd5b80356001600160401b03811115614702575f80fd5b886020828401011115614713575f80fd5b959894975092955050506020019190565b5f60208284031215614734575f80fd5b5035919050565b5f806040838503121561474c575f80fd5b8235915061475c6020840161467b565b90509250929050565b5f60208284031215614775575f80fd5b613c1d8261467b565b634e487b7160e01b5f52604160045260245ffd5b604051601f8201601f191681016001600160401b03811182821017156147ba576147ba61477e565b604052919050565b5f82601f8301126147d1575f80fd5b81356001600160401b038111156147ea576147ea61477e565b6147fd601f8201601f1916602001614792565b818152846020838601011115614811575f80fd5b816020850160208301375f918101602001919091529392505050565b5f805f805f805f60e0888a031215614843575f80fd5b61484c8861467b565b965060208801356001600160401b03811115614866575f80fd5b6148728a828b016147c2565b96505060408801356001600160401b0381111561488d575f80fd5b8801601f81018a1361489d575f80fd5b80356001600160401b038111156148b6576148b661477e565b8060051b6148c660208201614792565b9182526020818401810192908101908d8411156148e1575f80fd5b6020850194505b8385101561490a576148f98561467b565b8252602094850194909101906148e8565b809950505050505061491e6060890161467b565b935061492c6080890161467b565b9699959850939692959460a0840135945060c09093013592915050565b5f806040838503121561495a575f80fd5b50508035926020909101359150565b5f60208284031215614979575f80fd5b81356001600160401b0381111561498e575f80fd5b614453848285016147c2565b5f81518084528060208401602086015e5f602082860101526020601f19601f83011685010191505092915050565b5f602082016020835280845180835260408501915060408160051b8601019250602086015f5b82811015614a1f57603f19878603018452614a0a85835161499a565b945060209384019391909101906001016149ee565b50929695505050505050565b604080825283519082018190525f9060208501906060840190835b81811015614a64578351835260209384019390920191600101614a46565b5050602093909301939093525092915050565b602081525f613c1d602083018461499a565b634e487b7160e01b5f52601160045260245ffd5b6001600160401b03828116828216039081111561080257610802614a89565b6020808252600e908201526d139bdd08185d5d1a1bdc9a5e995960921b604082015260600190565b5f60208284031215614af4575f80fd5b5051919050565b8181038181111561080257610802614a89565b8082018082111561080257610802614a89565b634e487b7160e01b5f52603260045260245ffd5b5f808335601e19843603018112614b4a575f80fd5b8301803591506001600160401b03821115614b63575f80fd5b6020019150368190038213156143b3575f80fd5b8284823760609190911b6bffffffffffffffffffffffff19169101908152601401919050565b600181811c90821680614bb157607f821691505b60208210810361154b57634e487b7160e01b5f52602260045260245ffd5b5f60018201614be057614be0614a89565b5060010190565b6001600160401b03818116838216019081111561080257610802614a89565b5f6001600160fb1b03831115614c1a575f80fd5b8260051b80858437919091019392505050565b601f82111561335357805f5260205f20601f840160051c81016020851015614c525750805b601f840160051c820191505b81811015613240575f8155600101614c5e565b81516001600160401b03811115614c8a57614c8a61477e565b614c9e81614c988454614b9d565b84614c2d565b6020601f821160018114614cd0575f8315614cb95750848201515b5f19600385901b1c1916600184901b178455613240565b5f84815260208120601f198516915b82811015614cff5787850151825560209485019460019092019101614cdf565b5084821015614d1c57868401515f19600387901b60f8161c191681555b50505050600190811b01905550565b604081525f614d3d604083018561499a565b8281036020840152614d4f818561499a565b95945050505050565b634e487b7160e01b5f52603160045260245ffd5b808202811582820484141761080257610802614a89565b634e487b7160e01b5f52601260045260245ffd5b5f82614db157634e487b7160e01b5f52601260045260245ffd5b500490565b5f82518060208501845e5f920191825250919050565b5f60208284031215614ddc575f80fd5b81518015158114613c1d575f80fdfe416464726573733a206c6f772d6c6576656c2064656c65676174652063616c6c206661696c6564a2646970667358221220f2ba193f18a4ffa0808086a880a32182a369451ecfdea9cce1461b76db6a250d64736f6c634300081a0033",
			"opcodes": "PUSH1 0xA0 PUSH1 0x40 MSTORE PUSH1 0x68 DUP1 SLOAD PUSH1 0xFF PUSH1 0xA0 SHL NOT AND PUSH1 0x1 PUSH1 0xA0 SHL OR SWAP1 SSTORE CALLVALUE DUP1 ISZERO PUSH2 0x22 JUMPI PUSH0 DUP1 REVERT JUMPDEST POP PUSH1 0x40 MLOAD PUSH2 0x5006 CODESIZE SUB DUP1 PUSH2 0x5006 DUP4 CODECOPY DUP2 ADD PUSH1 0x40 DUP2 SWAP1 MSTORE PUSH2 0x41 SWAP2 PUSH2 0x15D JUMP JUMPDEST PUSH32 0xF0C57E16840DF040F15088DC2F81FE391C3923BEC73E23A9662EFC9C229C6A00 DUP1 SLOAD PUSH9 0x10000000000000000 DUP2 DIV PUSH1 0xFF AND ISZERO SWAP1 PUSH1 0x1 PUSH1 0x1 PUSH1 0x40 SHL SUB AND PUSH0 DUP2 ISZERO DUP1 ISZERO PUSH2 0x8A JUMPI POP DUP3 JUMPDEST SWAP1 POP PUSH0 DUP3 PUSH1 0x1 PUSH1 0x1 PUSH1 0x40 SHL SUB AND PUSH1 0x1 EQ DUP1 ISZERO PUSH2 0xA5 JUMPI POP ADDRESS EXTCODESIZE ISZERO JUMPDEST SWAP1 POP DUP2 ISZERO DUP1 ISZERO PUSH2 0xB3 JUMPI POP DUP1 ISZERO JUMPDEST ISZERO PUSH2 0xD1 JUMPI PUSH1 0x40 MLOAD PUSH4 0xF92EE8A9 PUSH1 0xE0 SHL DUP2 MSTORE PUSH1 0x4 ADD PUSH1 0x40 MLOAD DUP1 SWAP2 SUB SWAP1 REVERT JUMPDEST DUP5 SLOAD PUSH1 0x1 PUSH1 0x1 PUSH1 0x40 SHL SUB NOT AND PUSH1 0x1 OR DUP6 SSTORE DUP4 ISZERO PUSH2 0xFF JUMPI DUP5 SLOAD PUSH1 0xFF PUSH1 0x40 SHL NOT AND PUSH9 0x10000000000000000 OR DUP6 SSTORE JUMPDEST PUSH1 0x1 PUSH1 0x1 PUSH1 0xA0 SHL SUB DUP7 AND PUSH1 0x80 MSTORE DUP4 ISZERO PUSH2 0x152 JUMPI DUP5 SLOAD PUSH1 0xFF PUSH1 0x40 SHL NOT AND DUP6 SSTORE PUSH1 0x40 MLOAD PUSH1 0x1 DUP2 MSTORE PUSH32 0xC7F505B2F371AE2175EE4913F4499E1F2633A7B5936321EED1CDAEB6115181D2 SWAP1 PUSH1 0x20 ADD PUSH1 0x40 MLOAD DUP1 SWAP2 SUB SWAP1 LOG1 JUMPDEST POP POP POP POP POP POP PUSH2 0x18A JUMP JUMPDEST PUSH0 PUSH1 0x20 DUP3 DUP5 SUB SLT ISZERO PUSH2 0x16D JUMPI PUSH0 DUP1 REVERT JUMPDEST DUP2 MLOAD PUSH1 0x1 PUSH1 0x1 PUSH1 0xA0 SHL SUB DUP2 AND DUP2 EQ PUSH2 0x183 JUMPI PUSH0 DUP1 REVERT JUMPDEST SWAP4 SWAP3 POP POP POP JUMP JUMPDEST PUSH1 0x80 MLOAD PUSH2 0x4E48 PUSH2 0x1BE PUSH0 CODECOPY PUSH0 DUP2 DUP2 PUSH2 0x21A ADD MSTORE DUP2 DUP2 PUSH2 0x93A ADD MSTORE DUP2 DUP2 PUSH2 0x9E4 ADD MSTORE DUP2 DUP2 PUSH2 0x15BE ADD MSTORE PUSH2 0x41E7 ADD MSTORE PUSH2 0x4E48 PUSH0 RETURN INVALID PUSH1 0x80 PUSH1 0x40 MSTORE PUSH1 0x4 CALLDATASIZE LT PUSH2 0x20A JUMPI PUSH0 CALLDATALOAD PUSH1 0xE0 SHR DUP1 PUSH4 0x938E3D7B GT PUSH2 0x113 JUMPI DUP1 PUSH4 0xC3453153 GT PUSH2 0x9D JUMPI DUP1 PUSH4 0xD547741F GT PUSH2 0x6D JUMPI DUP1 PUSH4 0xD547741F EQ PUSH2 0x731 JUMPI DUP1 PUSH4 0xD68124C7 EQ PUSH2 0x750 JUMPI DUP1 PUSH4 0xE8A3D485 EQ PUSH2 0x764 JUMPI DUP1 PUSH4 0xF7C618C1 EQ PUSH2 0x785 JUMPI DUP1 PUSH4 0xFD48BA17 EQ PUSH2 0x7A4 JUMPI PUSH0 DUP1 REVERT JUMPDEST DUP1 PUSH4 0xC3453153 EQ PUSH2 0x6A9 JUMPI DUP1 PUSH4 0xCA15C873 EQ PUSH2 0x6D6 JUMPI DUP1 PUSH4 0xCB2EF6F7 EQ PUSH2 0x6F5 JUMPI DUP1 PUSH4 0xCB43B2DD EQ PUSH2 0x712 JUMPI PUSH0 DUP1 REVERT JUMPDEST DUP1 PUSH4 0x983D95CE GT PUSH2 0xE3 JUMPI DUP1 PUSH4 0x983D95CE EQ PUSH2 0x611 JUMPI DUP1 PUSH4 0xA0A8E460 EQ PUSH2 0x630 JUMPI DUP1 PUSH4 0xA217FDDF EQ PUSH2 0x64B JUMPI DUP1 PUSH4 0xA32FA5B3 EQ PUSH2 0x65E JUMPI DUP1 PUSH4 0xAC9650D8 EQ PUSH2 0x67D JUMPI PUSH0 DUP1 REVERT JUMPDEST DUP1 PUSH4 0x938E3D7B EQ PUSH2 0x58B JUMPI DUP1 PUSH4 0x93CE5343 EQ PUSH2 0x5AA JUMPI DUP1 PUSH4 0x94067045 EQ PUSH2 0x5BE JUMPI DUP1 PUSH4 0x961004D3 EQ PUSH2 0x5F2 JUMPI PUSH0 DUP1 REVERT JUMPDEST DUP1 PUSH4 0x372500AB GT PUSH2 0x194 JUMPI DUP1 PUSH4 0x6A5AB6E5 GT PUSH2 0x164 JUMPI DUP1 PUSH4 0x6A5AB6E5 EQ PUSH2 0x47B JUMPI DUP1 PUSH4 0x72F702F3 EQ PUSH2 0x49A JUMPI DUP1 PUSH4 0x9010D07C EQ PUSH2 0x4B9 JUMPI DUP1 PUSH4 0x9168AE72 EQ PUSH2 0x4D8 JUMPI DUP1 PUSH4 0x91D14854 EQ PUSH2 0x56C JUMPI PUSH0 DUP1 REVERT JUMPDEST DUP1 PUSH4 0x372500AB EQ PUSH2 0x3DA JUMPI DUP1 PUSH4 0x5357E916 EQ PUSH2 0x3EE JUMPI DUP1 PUSH4 0x572B6C05 EQ PUSH2 0x425 JUMPI DUP1 PUSH4 0x6360106F EQ PUSH2 0x45C JUMPI PUSH0 DUP1 REVERT JUMPDEST DUP1 PUSH4 0x16C621E0 GT PUSH2 0x1DA JUMPI DUP1 PUSH4 0x16C621E0 EQ PUSH2 0x33F JUMPI DUP1 PUSH4 0x23EF2580 EQ PUSH2 0x352 JUMPI DUP1 PUSH4 0x248A9CA3 EQ PUSH2 0x371 JUMPI DUP1 PUSH4 0x2F2FF15D EQ PUSH2 0x39C JUMPI DUP1 PUSH4 0x36568ABE EQ PUSH2 0x3BB JUMPI PUSH0 DUP1 REVERT JUMPDEST DUP1 PUSH4 0x1FFC9A7 EQ PUSH2 0x292 JUMPI DUP1 PUSH4 0xE8B229B EQ PUSH2 0x2C6 JUMPI DUP1 PUSH4 0xFBF0A93 EQ PUSH2 0x2E8 JUMPI DUP1 PUSH4 0x150B7A02 EQ PUSH2 0x307 JUMPI PUSH0 DUP1 REVERT JUMPDEST CALLDATASIZE PUSH2 0x28E JUMPI CALLER PUSH1 0x1 PUSH1 0x1 PUSH1 0xA0 SHL SUB PUSH32 0x0 AND EQ PUSH2 0x28C JUMPI PUSH1 0x40 MLOAD PUSH3 0x461BCD PUSH1 0xE5 SHL DUP2 MSTORE PUSH1 0x20 PUSH1 0x4 DUP3 ADD DUP2 SWAP1 MSTORE PUSH1 0x24 DUP3 ADD MSTORE PUSH32 0x63616C6C6572206E6F74206E617469766520746F6B656E20777261707065722E PUSH1 0x44 DUP3 ADD MSTORE PUSH1 0x64 ADD JUMPDEST PUSH1 0x40 MLOAD DUP1 SWAP2 SUB SWAP1 REVERT JUMPDEST STOP JUMPDEST PUSH0 DUP1 REVERT JUMPDEST CALLVALUE DUP1 ISZERO PUSH2 0x29D JUMPI PUSH0 DUP1 REVERT JUMPDEST POP PUSH2 0x2B1 PUSH2 0x2AC CALLDATASIZE PUSH1 0x4 PUSH2 0x45D6 JUMP JUMPDEST PUSH2 0x7D2 JUMP JUMPDEST PUSH1 0x40 MLOAD SWAP1 ISZERO ISZERO DUP2 MSTORE PUSH1 0x20 ADD JUMPDEST PUSH1 0x40 MLOAD DUP1 SWAP2 SUB SWAP1 RETURN JUMPDEST CALLVALUE DUP1 ISZERO PUSH2 0x2D1 JUMPI PUSH0 DUP1 REVERT JUMPDEST POP PUSH2 0x2DA PUSH2 0x808 JUMP JUMPDEST PUSH1 0x40 MLOAD SWAP1 DUP2 MSTORE PUSH1 0x20 ADD PUSH2 0x2BD JUMP JUMPDEST CALLVALUE DUP1 ISZERO PUSH2 0x2F3 JUMPI PUSH0 DUP1 REVERT JUMPDEST POP PUSH2 0x28C PUSH2 0x302 CALLDATASIZE PUSH1 0x4 PUSH2 0x463D JUMP JUMPDEST PUSH2 0x84D JUMP JUMPDEST CALLVALUE DUP1 ISZERO PUSH2 0x312 JUMPI PUSH0 DUP1 REVERT JUMPDEST POP PUSH2 0x326 PUSH2 0x321 CALLDATASIZE PUSH1 0x4 PUSH2 0x4691 JUMP JUMPDEST PUSH2 0x86D JUMP JUMPDEST PUSH1 0x40 MLOAD PUSH1 0x1 PUSH1 0x1 PUSH1 0xE0 SHL SUB NOT SWAP1 SWAP2 AND DUP2 MSTORE PUSH1 0x20 ADD PUSH2 0x2BD JUMP JUMPDEST PUSH2 0x28C PUSH2 0x34D CALLDATASIZE PUSH1 0x4 PUSH2 0x4724 JUMP JUMPDEST PUSH2 0x8CF JUMP JUMPDEST CALLVALUE DUP1 ISZERO PUSH2 0x35D JUMPI PUSH0 DUP1 REVERT JUMPDEST POP PUSH2 0x28C PUSH2 0x36C CALLDATASIZE PUSH1 0x4 PUSH2 0x4724 JUMP JUMPDEST PUSH2 0xAD7 JUMP JUMPDEST CALLVALUE DUP1 ISZERO PUSH2 0x37C JUMPI PUSH0 DUP1 REVERT JUMPDEST POP PUSH2 0x2DA PUSH2 0x38B CALLDATASIZE PUSH1 0x4 PUSH2 0x4724 JUMP JUMPDEST PUSH0 SWAP1 DUP2 MSTORE PUSH1 0x2 PUSH1 0x20 MSTORE PUSH1 0x40 SWAP1 KECCAK256 SLOAD SWAP1 JUMP JUMPDEST CALLVALUE DUP1 ISZERO PUSH2 0x3A7 JUMPI PUSH0 DUP1 REVERT JUMPDEST POP PUSH2 0x28C PUSH2 0x3B6 CALLDATASIZE PUSH1 0x4 PUSH2 0x473B JUMP JUMPDEST PUSH2 0xBFB JUMP JUMPDEST CALLVALUE DUP1 ISZERO PUSH2 0x3C6 JUMPI PUSH0 DUP1 REVERT JUMPDEST POP PUSH2 0x28C PUSH2 0x3D5 CALLDATASIZE PUSH1 0x4 PUSH2 0x473B JUMP JUMPDEST PUSH2 0xC72 JUMP JUMPDEST CALLVALUE DUP1 ISZERO PUSH2 0x3E5 JUMPI PUSH0 DUP1 REVERT JUMPDEST POP PUSH2 0x28C PUSH2 0xCB6 JUMP JUMPDEST CALLVALUE DUP1 ISZERO PUSH2 0x3F9 JUMPI PUSH0 DUP1 REVERT JUMPDEST POP PUSH2 0x40D PUSH2 0x408 CALLDATASIZE PUSH1 0x4 PUSH2 0x4724 JUMP JUMPDEST PUSH2 0xCD2 JUMP JUMPDEST PUSH1 0x40 MLOAD PUSH1 0x1 PUSH1 0x1 PUSH1 0xA0 SHL SUB SWAP1 SWAP2 AND DUP2 MSTORE PUSH1 0x20 ADD PUSH2 0x2BD JUMP JUMPDEST CALLVALUE DUP1 ISZERO PUSH2 0x430 JUMPI PUSH0 DUP1 REVERT JUMPDEST POP PUSH2 0x2B1 PUSH2 0x43F CALLDATASIZE PUSH1 0x4 PUSH2 0x4765 JUMP JUMPDEST PUSH1 0x1 PUSH1 0x1 PUSH1 0xA0 SHL SUB AND PUSH0 SWAP1 DUP2 MSTORE PUSH1 0x4 PUSH1 0x20 MSTORE PUSH1 0x40 SWAP1 KECCAK256 SLOAD PUSH1 0xFF AND SWAP1 JUMP JUMPDEST CALLVALUE DUP1 ISZERO PUSH2 0x467 JUMPI PUSH0 DUP1 REVERT JUMPDEST POP PUSH2 0x28C PUSH2 0x476 CALLDATASIZE PUSH1 0x4 PUSH2 0x4724 JUMP JUMPDEST PUSH2 0xCFA JUMP JUMPDEST CALLVALUE DUP1 ISZERO PUSH2 0x486 JUMPI PUSH0 DUP1 REVERT JUMPDEST POP PUSH2 0x28C PUSH2 0x495 CALLDATASIZE PUSH1 0x4 PUSH2 0x482D JUMP JUMPDEST PUSH2 0xE1D JUMP JUMPDEST CALLVALUE DUP1 ISZERO PUSH2 0x4A5 JUMPI PUSH0 DUP1 REVERT JUMPDEST POP PUSH1 0x68 SLOAD PUSH2 0x40D SWAP1 PUSH1 0x1 PUSH1 0x1 PUSH1 0xA0 SHL SUB AND DUP2 JUMP JUMPDEST CALLVALUE DUP1 ISZERO PUSH2 0x4C4 JUMPI PUSH0 DUP1 REVERT JUMPDEST POP PUSH2 0x40D PUSH2 0x4D3 CALLDATASIZE PUSH1 0x4 PUSH2 0x4949 JUMP JUMPDEST PUSH2 0xF70 JUMP JUMPDEST CALLVALUE DUP1 ISZERO PUSH2 0x4E3 JUMPI PUSH0 DUP1 REVERT JUMPDEST POP PUSH2 0x533 PUSH2 0x4F2 CALLDATASIZE PUSH1 0x4 PUSH2 0x4765 JUMP JUMPDEST PUSH1 0x6C PUSH1 0x20 MSTORE PUSH0 SWAP1 DUP2 MSTORE PUSH1 0x40 SWAP1 KECCAK256 DUP1 SLOAD PUSH1 0x1 SWAP1 SWAP2 ADD SLOAD PUSH1 0x1 PUSH1 0x1 PUSH1 0x40 SHL SUB DUP1 DUP4 AND SWAP3 PUSH1 0x1 PUSH1 0x40 SHL DUP2 DIV SWAP1 SWAP2 AND SWAP2 PUSH1 0x1 PUSH1 0x80 SHL SWAP1 SWAP2 DIV PUSH1 0x1 PUSH1 0x1 PUSH1 0x80 SHL SUB AND SWAP1 DUP5 JUMP JUMPDEST PUSH1 0x40 DUP1 MLOAD PUSH1 0x1 PUSH1 0x1 PUSH1 0x40 SHL SUB SWAP6 DUP7 AND DUP2 MSTORE SWAP5 SWAP1 SWAP4 AND PUSH1 0x20 DUP6 ADD MSTORE PUSH1 0x1 PUSH1 0x1 PUSH1 0x80 SHL SUB SWAP1 SWAP2 AND SWAP2 DUP4 ADD SWAP2 SWAP1 SWAP2 MSTORE PUSH1 0x60 DUP3 ADD MSTORE PUSH1 0x80 ADD PUSH2 0x2BD JUMP JUMPDEST CALLVALUE DUP1 ISZERO PUSH2 0x577 JUMPI PUSH0 DUP1 REVERT JUMPDEST POP PUSH2 0x2B1 PUSH2 0x586 CALLDATASIZE PUSH1 0x4 PUSH2 0x473B JUMP JUMPDEST PUSH2 0x1059 JUMP JUMPDEST CALLVALUE DUP1 ISZERO PUSH2 0x596 JUMPI PUSH0 DUP1 REVERT JUMPDEST POP PUSH2 0x28C PUSH2 0x5A5 CALLDATASIZE PUSH1 0x4 PUSH2 0x4969 JUMP JUMPDEST PUSH2 0x1083 JUMP JUMPDEST CALLVALUE DUP1 ISZERO PUSH2 0x5B5 JUMPI PUSH0 DUP1 REVERT JUMPDEST POP PUSH1 0x70 SLOAD PUSH2 0x2DA JUMP JUMPDEST CALLVALUE DUP1 ISZERO PUSH2 0x5C9 JUMPI PUSH0 DUP1 REVERT JUMPDEST POP PUSH2 0x40D PUSH2 0x5D8 CALLDATASIZE PUSH1 0x4 PUSH2 0x4724 JUMP JUMPDEST PUSH1 0x6D PUSH1 0x20 MSTORE PUSH0 SWAP1 DUP2 MSTORE PUSH1 0x40 SWAP1 KECCAK256 SLOAD PUSH1 0x1 PUSH1 0x1 PUSH1 0xA0 SHL SUB AND DUP2 JUMP JUMPDEST CALLVALUE DUP1 ISZERO PUSH2 0x5FD JUMPI PUSH0 DUP1 REVERT JUMPDEST POP PUSH2 0x2DA PUSH2 0x60C CALLDATASIZE PUSH1 0x4 PUSH2 0x4724 JUMP JUMPDEST PUSH2 0x10B1 JUMP JUMPDEST CALLVALUE DUP1 ISZERO PUSH2 0x61C JUMPI PUSH0 DUP1 REVERT JUMPDEST POP PUSH2 0x28C PUSH2 0x62B CALLDATASIZE PUSH1 0x4 PUSH2 0x463D JUMP JUMPDEST PUSH2 0x10D0 JUMP JUMPDEST CALLVALUE DUP1 ISZERO PUSH2 0x63B JUMPI PUSH0 DUP1 REVERT JUMPDEST POP PUSH1 0x40 MLOAD PUSH1 0x1 DUP2 MSTORE PUSH1 0x20 ADD PUSH2 0x2BD JUMP JUMPDEST CALLVALUE DUP1 ISZERO PUSH2 0x656 JUMPI PUSH0 DUP1 REVERT JUMPDEST POP PUSH2 0x2DA PUSH0 DUP2 JUMP JUMPDEST CALLVALUE DUP1 ISZERO PUSH2 0x669 JUMPI PUSH0 DUP1 REVERT JUMPDEST POP PUSH2 0x2B1 PUSH2 0x678 CALLDATASIZE PUSH1 0x4 PUSH2 0x473B JUMP JUMPDEST PUSH2 0x10E2 JUMP JUMPDEST CALLVALUE DUP1 ISZERO PUSH2 0x688 JUMPI PUSH0 DUP1 REVERT JUMPDEST POP PUSH2 0x69C PUSH2 0x697 CALLDATASIZE PUSH1 0x4 PUSH2 0x463D JUMP JUMPDEST PUSH2 0x1136 JUMP JUMPDEST PUSH1 0x40 MLOAD PUSH2 0x2BD SWAP2 SWAP1 PUSH2 0x49C8 JUMP JUMPDEST CALLVALUE DUP1 ISZERO PUSH2 0x6B4 JUMPI PUSH0 DUP1 REVERT JUMPDEST POP PUSH2 0x6C8 PUSH2 0x6C3 CALLDATASIZE PUSH1 0x4 PUSH2 0x4765 JUMP JUMPDEST PUSH2 0x12A6 JUMP JUMPDEST PUSH1 0x40 MLOAD PUSH2 0x2BD SWAP3 SWAP2 SWAP1 PUSH2 0x4A2B JUMP JUMPDEST CALLVALUE DUP1 ISZERO PUSH2 0x6E1 JUMPI PUSH0 DUP1 REVERT JUMPDEST POP PUSH2 0x2DA PUSH2 0x6F0 CALLDATASIZE PUSH1 0x4 PUSH2 0x4724 JUMP JUMPDEST PUSH2 0x14CB JUMP JUMPDEST CALLVALUE DUP1 ISZERO PUSH2 0x700 JUMPI PUSH0 DUP1 REVERT JUMPDEST POP PUSH8 0x4E46545374616B65 PUSH1 0xC0 SHL PUSH2 0x2DA JUMP JUMPDEST CALLVALUE DUP1 ISZERO PUSH2 0x71D JUMPI PUSH0 DUP1 REVERT JUMPDEST POP PUSH2 0x28C PUSH2 0x72C CALLDATASIZE PUSH1 0x4 PUSH2 0x4724 JUMP JUMPDEST PUSH2 0x1551 JUMP JUMPDEST CALLVALUE DUP1 ISZERO PUSH2 0x73C JUMPI PUSH0 DUP1 REVERT JUMPDEST POP PUSH2 0x28C PUSH2 0x74B CALLDATASIZE PUSH1 0x4 PUSH2 0x473B JUMP JUMPDEST PUSH2 0x161F JUMP JUMPDEST CALLVALUE DUP1 ISZERO PUSH2 0x75B JUMPI PUSH0 DUP1 REVERT JUMPDEST POP PUSH2 0x2DA PUSH2 0x1637 JUMP JUMPDEST CALLVALUE DUP1 ISZERO PUSH2 0x76F JUMPI PUSH0 DUP1 REVERT JUMPDEST POP PUSH2 0x778 PUSH2 0x167B JUMP JUMPDEST PUSH1 0x40 MLOAD PUSH2 0x2BD SWAP2 SWAP1 PUSH2 0x4A77 JUMP JUMPDEST CALLVALUE DUP1 ISZERO PUSH2 0x790 JUMPI PUSH0 DUP1 REVERT JUMPDEST POP PUSH1 0x6F SLOAD PUSH2 0x40D SWAP1 PUSH1 0x1 PUSH1 0x1 PUSH1 0xA0 SHL SUB AND DUP2 JUMP JUMPDEST CALLVALUE DUP1 ISZERO PUSH2 0x7AF JUMPI PUSH0 DUP1 REVERT JUMPDEST POP PUSH2 0x2B1 PUSH2 0x7BE CALLDATASIZE PUSH1 0x4 PUSH2 0x4724 JUMP JUMPDEST PUSH1 0x6B PUSH1 0x20 MSTORE PUSH0 SWAP1 DUP2 MSTORE PUSH1 0x40 SWAP1 KECCAK256 SLOAD PUSH1 0xFF AND DUP2 JUMP JUMPDEST PUSH0 PUSH1 0x1 PUSH1 0x1 PUSH1 0xE0 SHL SUB NOT DUP3 AND PUSH4 0xA85BD01 PUSH1 0xE1 SHL EQ DUP1 PUSH2 0x802 JUMPI POP PUSH4 0x1FFC9A7 PUSH1 0xE0 SHL PUSH1 0x1 PUSH1 0x1 PUSH1 0xE0 SHL SUB NOT DUP4 AND EQ JUMPDEST SWAP3 SWAP2 POP POP JUMP JUMPDEST PUSH0 PUSH1 0x6E PUSH0 PUSH1 0x1 PUSH1 0x68 PUSH1 0x15 SWAP1 SLOAD SWAP1 PUSH2 0x100 EXP SWAP1 DIV PUSH1 0x1 PUSH1 0x1 PUSH1 0x40 SHL SUB AND PUSH2 0x82E SWAP2 SWAP1 PUSH2 0x4A9D JUMP JUMPDEST PUSH1 0x1 PUSH1 0x1 PUSH1 0x40 SHL SUB AND DUP2 MSTORE PUSH1 0x20 ADD SWAP1 DUP2 MSTORE PUSH1 0x20 ADD PUSH0 KECCAK256 PUSH1 0x1 ADD SLOAD SWAP1 POP SWAP1 JUMP JUMPDEST PUSH2 0x855 PUSH2 0x1706 JUMP JUMPDEST PUSH2 0x85F DUP3 DUP3 PUSH2 0x175F JUMP JUMPDEST PUSH2 0x869 PUSH1 0x1 PUSH1 0x36 SSTORE JUMP JUMPDEST POP POP JUMP JUMPDEST PUSH1 0x68 SLOAD PUSH0 SWAP1 PUSH1 0x1 PUSH1 0xA0 SHL SWAP1 DIV PUSH1 0xFF AND PUSH1 0x2 EQ PUSH2 0x8BD JUMPI PUSH1 0x40 MLOAD PUSH3 0x461BCD PUSH1 0xE5 SHL DUP2 MSTORE PUSH1 0x20 PUSH1 0x4 DUP3 ADD MSTORE PUSH1 0xF PUSH1 0x24 DUP3 ADD MSTORE PUSH15 0x2234B932B1BA103A3930B739B332B9 PUSH1 0x89 SHL PUSH1 0x44 DUP3 ADD MSTORE PUSH1 0x64 ADD PUSH2 0x283 JUMP JUMPDEST POP PUSH4 0xA85BD01 PUSH1 0xE1 SHL SWAP6 SWAP5 POP POP POP POP POP JUMP JUMPDEST PUSH2 0x8D7 PUSH2 0x1706 JUMP JUMPDEST PUSH2 0x8E3 PUSH0 PUSH2 0x586 PUSH2 0x30ED JUMP JUMPDEST PUSH2 0x8FF JUMPI PUSH1 0x40 MLOAD PUSH3 0x461BCD PUSH1 0xE5 SHL DUP2 MSTORE PUSH1 0x4 ADD PUSH2 0x283 SWAP1 PUSH2 0x4ABC JUMP JUMPDEST PUSH1 0x6F SLOAD PUSH0 SWAP1 PUSH1 0x1 PUSH1 0x1 PUSH1 0xA0 SHL SUB AND PUSH20 0xEEEEEEEEEEEEEEEEEEEEEEEEEEEEEEEEEEEEEEEE EQ PUSH2 0x938 JUMPI PUSH1 0x6F SLOAD PUSH1 0x1 PUSH1 0x1 PUSH1 0xA0 SHL SUB AND PUSH2 0x95A JUMP JUMPDEST PUSH32 0x0 JUMPDEST PUSH1 0x40 MLOAD PUSH4 0x70A08231 PUSH1 0xE0 SHL DUP2 MSTORE ADDRESS PUSH1 0x4 DUP3 ADD MSTORE SWAP1 SWAP2 POP PUSH0 SWAP1 PUSH1 0x1 PUSH1 0x1 PUSH1 0xA0 SHL SUB DUP4 AND SWAP1 PUSH4 0x70A08231 SWAP1 PUSH1 0x24 ADD PUSH1 0x20 PUSH1 0x40 MLOAD DUP1 DUP4 SUB DUP2 DUP7 GAS STATICCALL ISZERO DUP1 ISZERO PUSH2 0x9A1 JUMPI RETURNDATASIZE PUSH0 DUP1 RETURNDATACOPY RETURNDATASIZE PUSH0 REVERT JUMPDEST POP POP POP POP PUSH1 0x40 MLOAD RETURNDATASIZE PUSH1 0x1F NOT PUSH1 0x1F DUP3 ADD AND DUP3 ADD DUP1 PUSH1 0x40 MSTORE POP DUP2 ADD SWAP1 PUSH2 0x9C5 SWAP2 SWAP1 PUSH2 0x4AE4 JUMP JUMPDEST PUSH1 0x6F SLOAD SWAP1 SWAP2 POP PUSH2 0xA08 SWAP1 PUSH1 0x1 PUSH1 0x1 PUSH1 0xA0 SHL SUB AND PUSH2 0x9E0 PUSH2 0x30ED JUMP JUMPDEST ADDRESS DUP7 PUSH32 0x0 PUSH2 0x30FB JUMP JUMPDEST PUSH1 0x40 MLOAD PUSH4 0x70A08231 PUSH1 0xE0 SHL DUP2 MSTORE ADDRESS PUSH1 0x4 DUP3 ADD MSTORE PUSH0 SWAP1 DUP3 SWAP1 PUSH1 0x1 PUSH1 0x1 PUSH1 0xA0 SHL SUB DUP6 AND SWAP1 PUSH4 0x70A08231 SWAP1 PUSH1 0x24 ADD PUSH1 0x20 PUSH1 0x40 MLOAD DUP1 DUP4 SUB DUP2 DUP7 GAS STATICCALL ISZERO DUP1 ISZERO PUSH2 0xA4E JUMPI RETURNDATASIZE PUSH0 DUP1 RETURNDATACOPY RETURNDATASIZE PUSH0 REVERT JUMPDEST POP POP POP POP PUSH1 0x40 MLOAD RETURNDATASIZE PUSH1 0x1F NOT PUSH1 0x1F DUP3 ADD AND DUP3 ADD DUP1 PUSH1 0x40 MSTORE POP DUP2 ADD SWAP1 PUSH2 0xA72 SWAP2 SWAP1 PUSH2 0x4AE4 JUMP JUMPDEST PUSH2 0xA7C SWAP2 SWAP1 PUSH2 0x4AFB JUMP JUMPDEST SWAP1 POP DUP1 PUSH1 0x70 PUSH0 DUP3 DUP3 SLOAD PUSH2 0xA8F SWAP2 SWAP1 PUSH2 0x4B0E JUMP JUMPDEST SWAP1 SWAP2 SSTORE POP POP PUSH1 0x40 MLOAD DUP2 DUP2 MSTORE PUSH32 0xF9D14E57815939D300BC94720EDE00C8C8E08D254AB28E2917EA46E149AA119B SWAP1 PUSH1 0x20 ADD PUSH1 0x40 MLOAD DUP1 SWAP2 SUB SWAP1 LOG1 POP POP POP PUSH2 0xAD4 PUSH1 0x1 PUSH1 0x36 SSTORE JUMP JUMPDEST POP JUMP JUMPDEST PUSH2 0xADF PUSH2 0x3247 JUMP JUMPDEST PUSH2 0xAFB JUMPI PUSH1 0x40 MLOAD PUSH3 0x461BCD PUSH1 0xE5 SHL DUP2 MSTORE PUSH1 0x4 ADD PUSH2 0x283 SWAP1 PUSH2 0x4ABC JUMP JUMPDEST PUSH0 PUSH1 0x6E PUSH0 PUSH1 0x1 PUSH1 0x68 PUSH1 0x15 SWAP1 SLOAD SWAP1 PUSH2 0x100 EXP SWAP1 DIV PUSH1 0x1 PUSH1 0x1 PUSH1 0x40 SHL SUB AND PUSH2 0xB21 SWAP2 SWAP1 PUSH2 0x4A9D JUMP JUMPDEST PUSH1 0x1 PUSH1 0x1 PUSH1 0x40 SHL SUB AND DUP2 MSTORE PUSH1 0x20 DUP1 DUP3 ADD SWAP3 SWAP1 SWAP3 MSTORE PUSH1 0x40 SWAP1 DUP2 ADD PUSH0 KECCAK256 DUP2 MLOAD PUSH1 0x80 DUP2 ADD DUP4 MSTORE DUP2 SLOAD DUP2 MSTORE PUSH1 0x1 DUP3 ADD SLOAD SWAP4 DUP2 ADD DUP5 SWAP1 MSTORE PUSH1 0x2 DUP3 ADD SLOAD SWAP3 DUP2 ADD SWAP3 SWAP1 SWAP3 MSTORE PUSH1 0x3 ADD SLOAD PUSH1 0x60 DUP3 ADD MSTORE SWAP2 POP DUP3 SUB PUSH2 0xBAC JUMPI PUSH1 0x40 MLOAD PUSH3 0x461BCD PUSH1 0xE5 SHL DUP2 MSTORE PUSH1 0x20 PUSH1 0x4 DUP3 ADD MSTORE PUSH1 0x11 PUSH1 0x24 DUP3 ADD MSTORE PUSH17 0x2932BBB0B932103AB731B430B733B2B217 PUSH1 0x79 SHL PUSH1 0x44 DUP3 ADD MSTORE PUSH1 0x64 ADD PUSH2 0x283 JUMP JUMPDEST DUP1 MLOAD PUSH2 0xBB8 SWAP1 DUP4 PUSH2 0x3254 JUMP JUMPDEST PUSH1 0x20 DUP1 DUP3 ADD MLOAD PUSH1 0x40 DUP1 MLOAD SWAP2 DUP3 MSTORE SWAP2 DUP2 ADD DUP5 SWAP1 MSTORE PUSH32 0x243C4656EDC72B2C7EC8575D464D955B2F42C1B205960C6C2FB7EECDA5419CF6 SWAP2 ADD JUMPDEST PUSH1 0x40 MLOAD DUP1 SWAP2 SUB SWAP1 LOG1 POP POP JUMP JUMPDEST PUSH0 DUP3 DUP2 MSTORE PUSH1 0x2 PUSH1 0x20 MSTORE PUSH1 0x40 SWAP1 KECCAK256 SLOAD PUSH2 0xC13 SWAP1 CALLER PUSH2 0x3358 JUMP JUMPDEST PUSH0 DUP3 DUP2 MSTORE PUSH1 0x1 PUSH1 0x20 SWAP1 DUP2 MSTORE PUSH1 0x40 DUP1 DUP4 KECCAK256 PUSH1 0x1 PUSH1 0x1 PUSH1 0xA0 SHL SUB DUP6 AND DUP5 MSTORE SWAP1 SWAP2 MSTORE SWAP1 KECCAK256 SLOAD PUSH1 0xFF AND ISZERO PUSH2 0xC68 JUMPI PUSH1 0x40 MLOAD PUSH4 0x6A4E0B35 PUSH1 0xE1 SHL DUP2 MSTORE PUSH1 0x1 PUSH1 0x1 PUSH1 0xA0 SHL SUB DUP3 AND PUSH1 0x4 DUP3 ADD MSTORE PUSH1 0x24 DUP2 ADD DUP4 SWAP1 MSTORE PUSH1 0x44 ADD PUSH2 0x283 JUMP JUMPDEST PUSH2 0x869 DUP3 DUP3 PUSH2 0x33AC JUMP JUMPDEST CALLER PUSH1 0x1 PUSH1 0x1 PUSH1 0xA0 SHL SUB DUP3 AND EQ PUSH2 0xCAC JUMPI PUSH1 0x40 MLOAD PUSH4 0x20B4E311 PUSH1 0xE1 SHL DUP2 MSTORE CALLER PUSH1 0x4 DUP3 ADD MSTORE PUSH1 0x1 PUSH1 0x1 PUSH1 0xA0 SHL SUB DUP3 AND PUSH1 0x24 DUP3 ADD MSTORE PUSH1 0x44 ADD PUSH2 0x283 JUMP JUMPDEST PUSH2 0x869 DUP3 DUP3 PUSH2 0x33C0 JUMP JUMPDEST PUSH2 0xCBE PUSH2 0x1706 JUMP JUMPDEST PUSH2 0xCC6 PUSH2 0x3416 JUMP JUMPDEST PUSH2 0xCD0 PUSH1 0x1 PUSH1 0x36 SSTORE JUMP JUMPDEST JUMP JUMPDEST PUSH1 0x6A DUP2 DUP2 SLOAD DUP2 LT PUSH2 0xCE1 JUMPI PUSH0 DUP1 REVERT JUMPDEST PUSH0 SWAP2 DUP3 MSTORE PUSH1 0x20 SWAP1 SWAP2 KECCAK256 ADD SLOAD PUSH1 0x1 PUSH1 0x1 PUSH1 0xA0 SHL SUB AND SWAP1 POP DUP2 JUMP JUMPDEST PUSH2 0xD02 PUSH2 0x3247 JUMP JUMPDEST PUSH2 0xD1E JUMPI PUSH1 0x40 MLOAD PUSH3 0x461BCD PUSH1 0xE5 SHL DUP2 MSTORE PUSH1 0x4 ADD PUSH2 0x283 SWAP1 PUSH2 0x4ABC JUMP JUMPDEST PUSH0 PUSH1 0x6E PUSH0 PUSH1 0x1 PUSH1 0x68 PUSH1 0x15 SWAP1 SLOAD SWAP1 PUSH2 0x100 EXP SWAP1 DIV PUSH1 0x1 PUSH1 0x1 PUSH1 0x40 SHL SUB AND PUSH2 0xD44 SWAP2 SWAP1 PUSH2 0x4A9D JUMP JUMPDEST PUSH1 0x1 PUSH1 0x1 PUSH1 0x40 SHL SUB AND DUP2 MSTORE PUSH1 0x20 ADD SWAP1 DUP2 MSTORE PUSH1 0x20 ADD PUSH0 KECCAK256 PUSH1 0x40 MLOAD DUP1 PUSH1 0x80 ADD PUSH1 0x40 MSTORE SWAP1 DUP2 PUSH0 DUP3 ADD SLOAD DUP2 MSTORE PUSH1 0x20 ADD PUSH1 0x1 DUP3 ADD SLOAD DUP2 MSTORE PUSH1 0x20 ADD PUSH1 0x2 DUP3 ADD SLOAD DUP2 MSTORE PUSH1 0x20 ADD PUSH1 0x3 DUP3 ADD SLOAD DUP2 MSTORE POP POP SWAP1 POP DUP1 PUSH0 ADD MLOAD DUP3 SUB PUSH2 0xDD7 JUMPI PUSH1 0x40 MLOAD PUSH3 0x461BCD PUSH1 0xE5 SHL DUP2 MSTORE PUSH1 0x20 PUSH1 0x4 DUP3 ADD MSTORE PUSH1 0x14 PUSH1 0x24 DUP3 ADD MSTORE PUSH20 0x2A34B6B296BAB734BA103AB731B430B733B2B217 PUSH1 0x61 SHL PUSH1 0x44 DUP3 ADD MSTORE PUSH1 0x64 ADD PUSH2 0x283 JUMP JUMPDEST PUSH2 0xDE5 DUP3 DUP3 PUSH1 0x20 ADD MLOAD PUSH2 0x3254 JUMP JUMPDEST DUP1 MLOAD PUSH1 0x40 DUP1 MLOAD SWAP2 DUP3 MSTORE PUSH1 0x20 DUP3 ADD DUP5 SWAP1 MSTORE PUSH32 0xD968DE290ED68F978B9E4816F7D4BE9EF46189FE8EEB3EEB86199E7229CF2DE0 SWAP2 ADD PUSH2 0xBEF JUMP JUMPDEST PUSH32 0xF0C57E16840DF040F15088DC2F81FE391C3923BEC73E23A9662EFC9C229C6A00 DUP1 SLOAD PUSH1 0x1 PUSH1 0x40 SHL DUP2 DIV PUSH1 0xFF AND ISZERO SWAP1 PUSH1 0x1 PUSH1 0x1 PUSH1 0x40 SHL SUB AND PUSH0 DUP2 ISZERO DUP1 ISZERO PUSH2 0xE61 JUMPI POP DUP3 JUMPDEST SWAP1 POP PUSH0 DUP3 PUSH1 0x1 PUSH1 0x1 PUSH1 0x40 SHL SUB AND PUSH1 0x1 EQ DUP1 ISZERO PUSH2 0xE7C JUMPI POP ADDRESS EXTCODESIZE ISZERO JUMPDEST SWAP1 POP DUP2 ISZERO DUP1 ISZERO PUSH2 0xE8A JUMPI POP DUP1 ISZERO JUMPDEST ISZERO PUSH2 0xEA8 JUMPI PUSH1 0x40 MLOAD PUSH4 0xF92EE8A9 PUSH1 0xE0 SHL DUP2 MSTORE PUSH1 0x4 ADD PUSH1 0x40 MLOAD DUP1 SWAP2 SUB SWAP1 REVERT JUMPDEST DUP5 SLOAD PUSH8 0xFFFFFFFFFFFFFFFF NOT AND PUSH1 0x1 OR DUP6 SSTORE DUP4 ISZERO PUSH2 0xED2 JUMPI DUP5 SLOAD PUSH1 0xFF PUSH1 0x40 SHL NOT AND PUSH1 0x1 PUSH1 0x40 SHL OR DUP6 SSTORE JUMPDEST PUSH2 0xEDB DUP11 PUSH2 0x35D3 JUMP JUMPDEST PUSH1 0x6F DUP1 SLOAD PUSH1 0x1 PUSH1 0x1 PUSH1 0xA0 SHL SUB NOT AND PUSH1 0x1 PUSH1 0x1 PUSH1 0xA0 SHL SUB DUP12 AND OR SWAP1 SSTORE PUSH2 0xEFF DUP9 PUSH2 0x3636 JUMP JUMPDEST PUSH2 0xF09 DUP8 DUP8 PUSH2 0x3254 JUMP JUMPDEST PUSH2 0xF12 DUP12 PUSH2 0x36B5 JUMP JUMPDEST PUSH2 0xF1C PUSH0 DUP14 PUSH2 0x33AC JUMP JUMPDEST DUP4 ISZERO PUSH2 0xF62 JUMPI DUP5 SLOAD PUSH1 0xFF PUSH1 0x40 SHL NOT AND DUP6 SSTORE PUSH1 0x40 MLOAD PUSH1 0x1 DUP2 MSTORE PUSH32 0xC7F505B2F371AE2175EE4913F4499E1F2633A7B5936321EED1CDAEB6115181D2 SWAP1 PUSH1 0x20 ADD PUSH1 0x40 MLOAD DUP1 SWAP2 SUB SWAP1 LOG1 JUMPDEST POP POP POP POP POP POP POP POP POP POP POP POP JUMP JUMPDEST PUSH0 DUP3 DUP2 MSTORE PUSH1 0x3 PUSH1 0x20 MSTORE PUSH1 0x40 DUP2 KECCAK256 SLOAD DUP2 DUP1 JUMPDEST DUP3 DUP2 LT ISZERO PUSH2 0x1050 JUMPI PUSH0 DUP7 DUP2 MSTORE PUSH1 0x3 PUSH1 0x20 SWAP1 DUP2 MSTORE PUSH1 0x40 DUP1 DUP4 KECCAK256 DUP5 DUP5 MSTORE PUSH1 0x1 ADD SWAP1 SWAP2 MSTORE SWAP1 KECCAK256 SLOAD PUSH1 0x1 PUSH1 0x1 PUSH1 0xA0 SHL SUB AND ISZERO PUSH2 0xFFB JUMPI DUP5 DUP3 SUB PUSH2 0xFE9 JUMPI PUSH0 DUP7 DUP2 MSTORE PUSH1 0x3 PUSH1 0x20 SWAP1 DUP2 MSTORE PUSH1 0x40 DUP1 DUP4 KECCAK256 SWAP4 DUP4 MSTORE PUSH1 0x1 SWAP1 SWAP4 ADD SWAP1 MSTORE KECCAK256 SLOAD PUSH1 0x1 PUSH1 0x1 PUSH1 0xA0 SHL SUB AND SWAP3 POP PUSH2 0x802 SWAP2 POP POP JUMP JUMPDEST PUSH2 0xFF4 PUSH1 0x1 DUP4 PUSH2 0x4B0E JUMP JUMPDEST SWAP2 POP PUSH2 0x103E JUMP JUMPDEST PUSH2 0x1005 DUP7 PUSH0 PUSH2 0x1059 JUMP JUMPDEST DUP1 ISZERO PUSH2 0x102B JUMPI POP PUSH0 DUP7 DUP2 MSTORE PUSH1 0x3 PUSH1 0x20 SWAP1 DUP2 MSTORE PUSH1 0x40 DUP1 DUP4 KECCAK256 DUP4 DUP1 MSTORE PUSH1 0x2 ADD SWAP1 SWAP2 MSTORE SWAP1 KECCAK256 SLOAD DUP2 EQ JUMPDEST ISZERO PUSH2 0x103E JUMPI PUSH2 0x103B PUSH1 0x1 DUP4 PUSH2 0x4B0E JUMP JUMPDEST SWAP2 POP JUMPDEST PUSH2 0x1049 PUSH1 0x1 DUP3 PUSH2 0x4B0E JUMP JUMPDEST SWAP1 POP PUSH2 0xF81 JUMP JUMPDEST POP POP POP SWAP3 SWAP2 POP POP JUMP JUMPDEST PUSH0 SWAP2 DUP3 MSTORE PUSH1 0x1 PUSH1 0x20 SWAP1 DUP2 MSTORE PUSH1 0x40 DUP1 DUP5 KECCAK256 PUSH1 0x1 PUSH1 0x1 PUSH1 0xA0 SHL SUB SWAP4 SWAP1 SWAP4 AND DUP5 MSTORE SWAP2 SWAP1 MSTORE SWAP1 KECCAK256 SLOAD PUSH1 0xFF AND SWAP1 JUMP JUMPDEST PUSH2 0x108B PUSH2 0x3247 JUMP JUMPDEST PUSH2 0x10A8 JUMPI PUSH1 0x40 MLOAD PUSH4 0x9F7F0925 PUSH1 0xE0 SHL DUP2 MSTORE PUSH1 0x4 ADD PUSH1 0x40 MLOAD DUP1 SWAP2 SUB SWAP1 REVERT JUMPDEST PUSH2 0xAD4 DUP2 PUSH2 0x36B5 JUMP JUMPDEST PUSH1 0x69 DUP2 DUP2 SLOAD DUP2 LT PUSH2 0x10C0 JUMPI PUSH0 DUP1 REVERT JUMPDEST PUSH0 SWAP2 DUP3 MSTORE PUSH1 0x20 SWAP1 SWAP2 KECCAK256 ADD SLOAD SWAP1 POP DUP2 JUMP JUMPDEST PUSH2 0x10D8 PUSH2 0x1706 JUMP JUMPDEST PUSH2 0x85F DUP3 DUP3 PUSH2 0x3780 JUMP JUMPDEST PUSH0 DUP3 DUP2 MSTORE PUSH1 0x1 PUSH1 0x20 SWAP1 DUP2 MSTORE PUSH1 0x40 DUP1 DUP4 KECCAK256 DUP4 DUP1 MSTORE SWAP1 SWAP2 MSTORE DUP2 KECCAK256 SLOAD PUSH1 0xFF AND PUSH2 0x112D JUMPI POP PUSH0 DUP3 DUP2 MSTORE PUSH1 0x1 PUSH1 0x20 SWAP1 DUP2 MSTORE PUSH1 0x40 DUP1 DUP4 KECCAK256 PUSH1 0x1 PUSH1 0x1 PUSH1 0xA0 SHL SUB DUP6 AND DUP5 MSTORE SWAP1 SWAP2 MSTORE SWAP1 KECCAK256 SLOAD PUSH1 0xFF AND PUSH2 0x802 JUMP JUMPDEST POP PUSH1 0x1 SWAP3 SWAP2 POP POP JUMP JUMPDEST PUSH1 0x60 DUP2 PUSH1 0x1 PUSH1 0x1 PUSH1 0x40 SHL SUB DUP2 GT ISZERO PUSH2 0x1150 JUMPI PUSH2 0x1150 PUSH2 0x477E JUMP JUMPDEST PUSH1 0x40 MLOAD SWAP1 DUP1 DUP3 MSTORE DUP1 PUSH1 0x20 MUL PUSH1 0x20 ADD DUP3 ADD PUSH1 0x40 MSTORE DUP1 ISZERO PUSH2 0x1183 JUMPI DUP2 PUSH1 0x20 ADD JUMPDEST PUSH1 0x60 DUP2 MSTORE PUSH1 0x20 ADD SWAP1 PUSH1 0x1 SWAP1 SUB SWAP1 DUP2 PUSH2 0x116E JUMPI SWAP1 POP JUMPDEST POP SWAP1 POP PUSH0 PUSH2 0x118F PUSH2 0x30ED JUMP JUMPDEST SWAP1 POP CALLER PUSH1 0x1 PUSH1 0x1 PUSH1 0xA0 SHL SUB DUP3 AND EQ ISZERO PUSH0 JUMPDEST DUP5 DUP2 LT ISZERO PUSH2 0x1050 JUMPI DUP2 ISZERO PUSH2 0x121F JUMPI PUSH2 0x11FD ADDRESS DUP8 DUP8 DUP5 DUP2 DUP2 LT PUSH2 0x11C4 JUMPI PUSH2 0x11C4 PUSH2 0x4B21 JUMP JUMPDEST SWAP1 POP PUSH1 0x20 MUL DUP2 ADD SWAP1 PUSH2 0x11D6 SWAP2 SWAP1 PUSH2 0x4B35 JUMP JUMPDEST DUP7 PUSH1 0x40 MLOAD PUSH1 0x20 ADD PUSH2 0x11E9 SWAP4 SWAP3 SWAP2 SWAP1 PUSH2 0x4B77 JUMP JUMPDEST PUSH1 0x40 MLOAD PUSH1 0x20 DUP2 DUP4 SUB SUB DUP2 MSTORE SWAP1 PUSH1 0x40 MSTORE PUSH2 0x3BF8 JUMP JUMPDEST DUP5 DUP3 DUP2 MLOAD DUP2 LT PUSH2 0x120F JUMPI PUSH2 0x120F PUSH2 0x4B21 JUMP JUMPDEST PUSH1 0x20 MUL PUSH1 0x20 ADD ADD DUP2 SWAP1 MSTORE POP PUSH2 0x129E JUMP JUMPDEST PUSH2 0x1280 ADDRESS DUP8 DUP8 DUP5 DUP2 DUP2 LT PUSH2 0x1235 JUMPI PUSH2 0x1235 PUSH2 0x4B21 JUMP JUMPDEST SWAP1 POP PUSH1 0x20 MUL DUP2 ADD SWAP1 PUSH2 0x1247 SWAP2 SWAP1 PUSH2 0x4B35 JUMP JUMPDEST DUP1 DUP1 PUSH1 0x1F ADD PUSH1 0x20 DUP1 SWAP2 DIV MUL PUSH1 0x20 ADD PUSH1 0x40 MLOAD SWAP1 DUP2 ADD PUSH1 0x40 MSTORE DUP1 SWAP4 SWAP3 SWAP2 SWAP1 DUP2 DUP2 MSTORE PUSH1 0x20 ADD DUP4 DUP4 DUP1 DUP3 DUP5 CALLDATACOPY PUSH0 SWAP3 ADD SWAP2 SWAP1 SWAP2 MSTORE POP PUSH2 0x3BF8 SWAP3 POP POP POP JUMP JUMPDEST DUP5 DUP3 DUP2 MLOAD DUP2 LT PUSH2 0x1292 JUMPI PUSH2 0x1292 PUSH2 0x4B21 JUMP JUMPDEST PUSH1 0x20 MUL PUSH1 0x20 ADD ADD DUP2 SWAP1 MSTORE POP JUMPDEST PUSH1 0x1 ADD PUSH2 0x11A0 JUMP JUMPDEST PUSH1 0x60 PUSH0 DUP1 PUSH1 0x69 DUP1 SLOAD DUP1 PUSH1 0x20 MUL PUSH1 0x20 ADD PUSH1 0x40 MLOAD SWAP1 DUP2 ADD PUSH1 0x40 MSTORE DUP1 SWAP3 SWAP2 SWAP1 DUP2 DUP2 MSTORE PUSH1 0x20 ADD DUP3 DUP1 SLOAD DUP1 ISZERO PUSH2 0x12F4 JUMPI PUSH1 0x20 MUL DUP3 ADD SWAP2 SWAP1 PUSH0 MSTORE PUSH1 0x20 PUSH0 KECCAK256 SWAP1 JUMPDEST DUP2 SLOAD DUP2 MSTORE PUSH1 0x20 ADD SWAP1 PUSH1 0x1 ADD SWAP1 DUP1 DUP4 GT PUSH2 0x12E0 JUMPI JUMPDEST POP POP POP POP POP SWAP1 POP PUSH0 DUP2 MLOAD PUSH1 0x1 PUSH1 0x1 PUSH1 0x40 SHL SUB DUP2 GT ISZERO PUSH2 0x1315 JUMPI PUSH2 0x1315 PUSH2 0x477E JUMP JUMPDEST PUSH1 0x40 MLOAD SWAP1 DUP1 DUP3 MSTORE DUP1 PUSH1 0x20 MUL PUSH1 0x20 ADD DUP3 ADD PUSH1 0x40 MSTORE DUP1 ISZERO PUSH2 0x133E JUMPI DUP2 PUSH1 0x20 ADD PUSH1 0x20 DUP3 MUL DUP1 CALLDATASIZE DUP4 CALLDATACOPY ADD SWAP1 POP JUMPDEST POP DUP3 MLOAD SWAP1 SWAP2 POP PUSH0 DUP1 JUMPDEST DUP3 DUP2 LT ISZERO PUSH2 0x13F9 JUMPI DUP8 PUSH1 0x1 PUSH1 0x1 PUSH1 0xA0 SHL SUB AND PUSH1 0x6D PUSH0 DUP8 DUP5 DUP2 MLOAD DUP2 LT PUSH2 0x136E JUMPI PUSH2 0x136E PUSH2 0x4B21 JUMP JUMPDEST PUSH1 0x20 MUL PUSH1 0x20 ADD ADD MLOAD DUP2 MSTORE PUSH1 0x20 ADD SWAP1 DUP2 MSTORE PUSH1 0x20 ADD PUSH0 KECCAK256 PUSH0 SWAP1 SLOAD SWAP1 PUSH2 0x100 EXP SWAP1 DIV PUSH1 0x1 PUSH1 0x1 PUSH1 0xA0 SHL SUB AND PUSH1 0x1 PUSH1 0x1 PUSH1 0xA0 SHL SUB AND EQ DUP5 DUP3 DUP2 MLOAD DUP2 LT PUSH2 0x13B2 JUMPI PUSH2 0x13B2 PUSH2 0x4B21 JUMP JUMPDEST PUSH1 0x20 MUL PUSH1 0x20 ADD ADD SWAP1 ISZERO ISZERO SWAP1 DUP2 ISZERO ISZERO DUP2 MSTORE POP POP DUP4 DUP2 DUP2 MLOAD DUP2 LT PUSH2 0x13D6 JUMPI PUSH2 0x13D6 PUSH2 0x4B21 JUMP JUMPDEST PUSH1 0x20 MUL PUSH1 0x20 ADD ADD MLOAD ISZERO PUSH2 0x13F1 JUMPI PUSH2 0x13EE PUSH1 0x1 DUP4 PUSH2 0x4B0E JUMP JUMPDEST SWAP2 POP JUMPDEST PUSH1 0x1 ADD PUSH2 0x1347 JUMP JUMPDEST POP DUP1 PUSH1 0x1 PUSH1 0x1 PUSH1 0x40 SHL SUB DUP2 GT ISZERO PUSH2 0x1412 JUMPI PUSH2 0x1412 PUSH2 0x477E JUMP JUMPDEST PUSH1 0x40 MLOAD SWAP1 DUP1 DUP3 MSTORE DUP1 PUSH1 0x20 MUL PUSH1 0x20 ADD DUP3 ADD PUSH1 0x40 MSTORE DUP1 ISZERO PUSH2 0x143B JUMPI DUP2 PUSH1 0x20 ADD PUSH1 0x20 DUP3 MUL DUP1 CALLDATASIZE DUP4 CALLDATACOPY ADD SWAP1 POP JUMPDEST POP SWAP6 POP PUSH0 DUP1 JUMPDEST DUP4 DUP2 LT ISZERO PUSH2 0x14B5 JUMPI DUP5 DUP2 DUP2 MLOAD DUP2 LT PUSH2 0x145B JUMPI PUSH2 0x145B PUSH2 0x4B21 JUMP JUMPDEST PUSH1 0x20 MUL PUSH1 0x20 ADD ADD MLOAD ISZERO PUSH2 0x14AD JUMPI DUP6 DUP2 DUP2 MLOAD DUP2 LT PUSH2 0x147A JUMPI PUSH2 0x147A PUSH2 0x4B21 JUMP JUMPDEST PUSH1 0x20 MUL PUSH1 0x20 ADD ADD MLOAD DUP9 DUP4 DUP2 MLOAD DUP2 LT PUSH2 0x1494 JUMPI PUSH2 0x1494 PUSH2 0x4B21 JUMP JUMPDEST PUSH1 0x20 SWAP1 DUP2 MUL SWAP2 SWAP1 SWAP2 ADD ADD MSTORE PUSH2 0x14AA PUSH1 0x1 DUP4 PUSH2 0x4B0E JUMP JUMPDEST SWAP2 POP JUMPDEST PUSH1 0x1 ADD PUSH2 0x1441 JUMP JUMPDEST POP PUSH2 0x14BF DUP9 PUSH2 0x3C24 JUMP JUMPDEST SWAP6 POP POP POP POP POP POP SWAP2 POP SWAP2 JUMP JUMPDEST PUSH0 DUP2 DUP2 MSTORE PUSH1 0x3 PUSH1 0x20 MSTORE PUSH1 0x40 DUP2 KECCAK256 SLOAD DUP2 JUMPDEST DUP2 DUP2 LT ISZERO PUSH2 0x152D JUMPI PUSH0 DUP5 DUP2 MSTORE PUSH1 0x3 PUSH1 0x20 SWAP1 DUP2 MSTORE PUSH1 0x40 DUP1 DUP4 KECCAK256 DUP5 DUP5 MSTORE PUSH1 0x1 ADD SWAP1 SWAP2 MSTORE SWAP1 KECCAK256 SLOAD PUSH1 0x1 PUSH1 0x1 PUSH1 0xA0 SHL SUB AND ISZERO PUSH2 0x151B JUMPI PUSH2 0x1518 PUSH1 0x1 DUP5 PUSH2 0x4B0E JUMP JUMPDEST SWAP3 POP JUMPDEST PUSH2 0x1526 PUSH1 0x1 DUP3 PUSH2 0x4B0E JUMP JUMPDEST SWAP1 POP PUSH2 0x14DB JUMP JUMPDEST POP PUSH2 0x1538 DUP4 PUSH0 PUSH2 0x1059 JUMP JUMPDEST ISZERO PUSH2 0x154B JUMPI PUSH2 0x1548 PUSH1 0x1 DUP4 PUSH2 0x4B0E JUMP JUMPDEST SWAP2 POP JUMPDEST POP SWAP2 SWAP1 POP JUMP JUMPDEST PUSH2 0x1559 PUSH2 0x1706 JUMP JUMPDEST PUSH2 0x1565 PUSH0 PUSH2 0x586 PUSH2 0x30ED JUMP JUMPDEST PUSH2 0x1581 JUMPI PUSH1 0x40 MLOAD PUSH3 0x461BCD PUSH1 0xE5 SHL DUP2 MSTORE PUSH1 0x4 ADD PUSH2 0x283 SWAP1 PUSH2 0x4ABC JUMP JUMPDEST PUSH1 0x70 SLOAD DUP2 GT PUSH2 0x159D JUMPI DUP1 PUSH1 0x70 SLOAD PUSH2 0x1598 SWAP2 SWAP1 PUSH2 0x4AFB JUMP JUMPDEST PUSH2 0x159F JUMP JUMPDEST PUSH0 JUMPDEST PUSH1 0x70 SSTORE PUSH1 0x6F SLOAD PUSH2 0x15E2 SWAP1 PUSH1 0x1 PUSH1 0x1 PUSH1 0xA0 SHL SUB AND ADDRESS PUSH2 0x15BB PUSH2 0x30ED JUMP JUMPDEST DUP5 PUSH32 0x0 PUSH2 0x30FB JUMP JUMPDEST PUSH1 0x40 MLOAD DUP2 DUP2 MSTORE PUSH32 0x37FF8766C704931C4283E470FEB7C20DDCD8AA492746F74B30503709A0452ACD SWAP1 PUSH1 0x20 ADD PUSH1 0x40 MLOAD DUP1 SWAP2 SUB SWAP1 LOG1 PUSH2 0xAD4 PUSH1 0x1 PUSH1 0x36 SSTORE JUMP JUMPDEST PUSH0 DUP3 DUP2 MSTORE PUSH1 0x2 PUSH1 0x20 MSTORE PUSH1 0x40 SWAP1 KECCAK256 SLOAD PUSH2 0xCAC SWAP1 CALLER PUSH2 0x3358 JUMP JUMPDEST PUSH0 PUSH1 0x6E PUSH0 PUSH1 0x1 PUSH1 0x68 PUSH1 0x15 SWAP1 SLOAD SWAP1 PUSH2 0x100 EXP SWAP1 DIV PUSH1 0x1 PUSH1 0x1 PUSH1 0x40 SHL SUB AND PUSH2 0x165D SWAP2 SWAP1 PUSH2 0x4A9D JUMP JUMPDEST PUSH1 0x1 PUSH1 0x1 PUSH1 0x40 SHL SUB AND DUP2 MSTORE PUSH1 0x20 ADD SWAP1 DUP2 MSTORE PUSH1 0x20 ADD PUSH0 KECCAK256 PUSH0 ADD SLOAD SWAP1 POP SWAP1 JUMP JUMPDEST PUSH0 DUP1 SLOAD PUSH2 0x1687 SWAP1 PUSH2 0x4B9D JUMP JUMPDEST DUP1 PUSH1 0x1F ADD PUSH1 0x20 DUP1 SWAP2 DIV MUL PUSH1 0x20 ADD PUSH1 0x40 MLOAD SWAP1 DUP2 ADD PUSH1 0x40 MSTORE DUP1 SWAP3 SWAP2 SWAP1 DUP2 DUP2 MSTORE PUSH1 0x20 ADD DUP3 DUP1 SLOAD PUSH2 0x16B3 SWAP1 PUSH2 0x4B9D JUMP JUMPDEST DUP1 ISZERO PUSH2 0x16FE JUMPI DUP1 PUSH1 0x1F LT PUSH2 0x16D5 JUMPI PUSH2 0x100 DUP1 DUP4 SLOAD DIV MUL DUP4 MSTORE SWAP2 PUSH1 0x20 ADD SWAP2 PUSH2 0x16FE JUMP JUMPDEST DUP3 ADD SWAP2 SWAP1 PUSH0 MSTORE PUSH1 0x20 PUSH0 KECCAK256 SWAP1 JUMPDEST DUP2 SLOAD DUP2 MSTORE SWAP1 PUSH1 0x1 ADD SWAP1 PUSH1 0x20 ADD DUP1 DUP4 GT PUSH2 0x16E1 JUMPI DUP3 SWAP1 SUB PUSH1 0x1F AND DUP3 ADD SWAP2 JUMPDEST POP POP POP POP POP DUP2 JUMP JUMPDEST PUSH1 0x2 PUSH1 0x36 SLOAD SUB PUSH2 0x1758 JUMPI PUSH1 0x40 MLOAD PUSH3 0x461BCD PUSH1 0xE5 SHL DUP2 MSTORE PUSH1 0x20 PUSH1 0x4 DUP3 ADD MSTORE PUSH1 0x1F PUSH1 0x24 DUP3 ADD MSTORE PUSH32 0x5265656E7472616E637947756172643A207265656E7472616E742063616C6C00 PUSH1 0x44 DUP3 ADD MSTORE PUSH1 0x64 ADD PUSH2 0x283 JUMP JUMPDEST PUSH1 0x2 PUSH1 0x36 SSTORE JUMP JUMPDEST DUP1 PUSH1 0x1 PUSH1 0x1 PUSH1 0x40 SHL SUB DUP2 AND PUSH0 SUB PUSH2 0x17AB JUMPI PUSH1 0x40 MLOAD PUSH3 0x461BCD PUSH1 0xE5 SHL DUP2 MSTORE PUSH1 0x20 PUSH1 0x4 DUP3 ADD MSTORE PUSH1 0x10 PUSH1 0x24 DUP3 ADD MSTORE PUSH16 0x5374616B696E67203020746F6B656E73 PUSH1 0x80 SHL PUSH1 0x44 DUP3 ADD MSTORE PUSH1 0x64 ADD PUSH2 0x283 JUMP JUMPDEST PUSH1 0xA DUP2 PUSH1 0x1 PUSH1 0x1 PUSH1 0x40 SHL SUB AND LT PUSH2 0x1804 JUMPI PUSH1 0x40 MLOAD PUSH3 0x461BCD PUSH1 0xE5 SHL DUP2 MSTORE PUSH1 0x20 PUSH1 0x4 DUP3 ADD MSTORE PUSH1 0x19 PUSH1 0x24 DUP3 ADD MSTORE PUSH32 0x4D6178696D756D20313020746F6B656E73206174206F6E636500000000000000 PUSH1 0x44 DUP3 ADD MSTORE PUSH1 0x64 ADD PUSH2 0x283 JUMP JUMPDEST PUSH1 0x68 SLOAD PUSH1 0x1 PUSH1 0x1 PUSH1 0xA0 SHL SUB AND PUSH0 PUSH1 0x6C DUP2 PUSH2 0x181C PUSH2 0x3C9C JUMP JUMPDEST PUSH1 0x1 PUSH1 0x1 PUSH1 0xA0 SHL SUB AND DUP2 MSTORE PUSH1 0x20 DUP2 ADD SWAP2 SWAP1 SWAP2 MSTORE PUSH1 0x40 ADD PUSH0 KECCAK256 SLOAD PUSH1 0x1 PUSH1 0x1 PUSH1 0x40 SHL SUB AND GT ISZERO PUSH2 0x1859 JUMPI PUSH2 0x1854 PUSH2 0x184F PUSH2 0x3C9C JUMP JUMPDEST PUSH2 0x3CA5 JUMP JUMPDEST PUSH2 0x1940 JUMP JUMPDEST PUSH1 0x6A PUSH2 0x1863 PUSH2 0x3C9C JUMP JUMPDEST DUP2 SLOAD PUSH1 0x1 DUP2 ADD DUP4 SSTORE PUSH0 SWAP3 DUP4 MSTORE PUSH1 0x20 DUP4 KECCAK256 ADD DUP1 SLOAD PUSH1 0x1 PUSH1 0x1 PUSH1 0xA0 SHL SUB NOT AND PUSH1 0x1 PUSH1 0x1 PUSH1 0xA0 SHL SUB SWAP3 SWAP1 SWAP3 AND SWAP2 SWAP1 SWAP2 OR SWAP1 SSTORE TIMESTAMP SWAP1 PUSH1 0x6C SWAP1 PUSH2 0x189F PUSH2 0x3C9C JUMP JUMPDEST PUSH1 0x1 PUSH1 0x1 PUSH1 0xA0 SHL SUB AND DUP2 MSTORE PUSH1 0x20 DUP2 ADD SWAP2 SWAP1 SWAP2 MSTORE PUSH1 0x40 ADD PUSH0 KECCAK256 DUP1 SLOAD PUSH1 0x1 PUSH1 0x1 PUSH1 0x80 SHL SUB SWAP3 DUP4 AND PUSH1 0x1 PUSH1 0x80 SHL MUL SWAP3 AND SWAP2 SWAP1 SWAP2 OR SWAP1 SSTORE PUSH1 0x68 SLOAD PUSH2 0x18F2 SWAP1 PUSH1 0x1 SWAP1 PUSH1 0x1 PUSH1 0x1 PUSH1 0x40 SHL SUB PUSH1 0x1 PUSH1 0xA8 SHL SWAP1 SWAP2 DIV AND PUSH2 0x4A9D JUMP JUMPDEST PUSH1 0x6C PUSH0 PUSH2 0x18FD PUSH2 0x3C9C JUMP JUMPDEST PUSH1 0x1 PUSH1 0x1 PUSH1 0xA0 SHL SUB AND DUP2 MSTORE PUSH1 0x20 DUP2 ADD SWAP2 SWAP1 SWAP2 MSTORE PUSH1 0x40 ADD PUSH0 KECCAK256 DUP1 SLOAD PUSH1 0x1 PUSH1 0x1 PUSH1 0x40 SHL SUB SWAP3 SWAP1 SWAP3 AND PUSH1 0x1 PUSH1 0x40 SHL MUL PUSH8 0xFFFFFFFFFFFFFFFF PUSH1 0x40 SHL NOT SWAP1 SWAP3 AND SWAP2 SWAP1 SWAP2 OR SWAP1 SSTORE JUMPDEST PUSH0 DUP1 PUSH1 0x40 MLOAD DUP1 PUSH2 0x50E0 ADD PUSH1 0x40 MSTORE DUP1 PUSH1 0x7 DUP2 MSTORE PUSH1 0x20 ADD PUSH1 0xF DUP2 MSTORE PUSH1 0x20 ADD PUSH1 0x2B DUP2 MSTORE PUSH1 0x20 ADD PUSH1 0x7B DUP2 MSTORE PUSH1 0x20 ADD PUSH1 0x7D DUP2 MSTORE PUSH1 0x20 ADD PUSH1 0x85 DUP2 MSTORE PUSH1 0x20 ADD PUSH1 0x8D DUP2 MSTORE PUSH1 0x20 ADD PUSH1 0xB8 DUP2 MSTORE PUSH1 0x20 ADD PUSH1 0xBF DUP2 MSTORE PUSH1 0x20 ADD PUSH1 0xD2 DUP2 MSTORE PUSH1 0x20 ADD PUSH1 0xDB DUP2 MSTORE PUSH1 0x20 ADD PUSH1 0xDD DUP2 MSTORE PUSH1 0x20 ADD PUSH1 0xDE DUP2 MSTORE PUSH1 0x20 ADD PUSH1 0xE9 DUP2 MSTORE PUSH1 0x20 ADD PUSH2 0x107 DUP2 MSTORE PUSH1 0x20 ADD PUSH2 0x116 DUP2 MSTORE PUSH1 0x20 ADD PUSH2 0x119 DUP2 MSTORE PUSH1 0x20 ADD PUSH2 0x128 DUP2 MSTORE PUSH1 0x20 ADD PUSH2 0x144 DUP2 MSTORE PUSH1 0x20 ADD PUSH2 0x14C DUP2 MSTORE PUSH1 0x20 ADD PUSH2 0x157 DUP2 MSTORE PUSH1 0x20 ADD PUSH2 0x165 DUP2 MSTORE PUSH1 0x20 ADD PUSH2 0x169 DUP2 MSTORE PUSH1 0x20 ADD PUSH2 0x16A DUP2 MSTORE PUSH1 0x20 ADD PUSH2 0x16D DUP2 MSTORE PUSH1 0x20 ADD PUSH2 0x17A DUP2 MSTORE PUSH1 0x20 ADD PUSH2 0x17B DUP2 MSTORE PUSH1 0x20 ADD PUSH2 0x1A2 DUP2 MSTORE PUSH1 0x20 ADD PUSH2 0x1A3 DUP2 MSTORE PUSH1 0x20 ADD PUSH2 0x1A9 DUP2 MSTORE PUSH1 0x20 ADD PUSH2 0x1AB DUP2 MSTORE PUSH1 0x20 ADD PUSH2 0x1BB DUP2 MSTORE PUSH1 0x20 ADD PUSH2 0x1C6 DUP2 MSTORE PUSH1 0x20 ADD PUSH2 0x1E7 DUP2 MSTORE PUSH1 0x20 ADD PUSH2 0x1EB DUP2 MSTORE PUSH1 0x20 ADD PUSH2 0x1EC DUP2 MSTORE PUSH1 0x20 ADD PUSH2 0x1F4 DUP2 MSTORE PUSH1 0x20 ADD PUSH2 0x1FF DUP2 MSTORE PUSH1 0x20 ADD PUSH2 0x216 DUP2 MSTORE PUSH1 0x20 ADD PUSH2 0x21A DUP2 MSTORE PUSH1 0x20 ADD PUSH2 0x240 DUP2 MSTORE PUSH1 0x20 ADD PUSH2 0x249 DUP2 MSTORE PUSH1 0x20 ADD PUSH2 0x24E DUP2 MSTORE PUSH1 0x20 ADD PUSH2 0x25B DUP2 MSTORE PUSH1 0x20 ADD PUSH2 0x25D DUP2 MSTORE PUSH1 0x20 ADD PUSH2 0x27F DUP2 MSTORE PUSH1 0x20 ADD PUSH2 0x287 DUP2 MSTORE PUSH1 0x20 ADD PUSH2 0x28B DUP2 MSTORE PUSH1 0x20 ADD PUSH2 0x2A9 DUP2 MSTORE PUSH1 0x20 ADD PUSH2 0x2C0 DUP2 MSTORE PUSH1 0x20 ADD PUSH2 0x2D4 DUP2 MSTORE PUSH1 0x20 ADD PUSH2 0x2DC DUP2 MSTORE PUSH1 0x20 ADD PUSH2 0x2DF DUP2 MSTORE PUSH1 0x20 ADD PUSH2 0x2F8 DUP2 MSTORE PUSH1 0x20 ADD PUSH2 0x326 DUP2 MSTORE PUSH1 0x20 ADD PUSH2 0x32A DUP2 MSTORE PUSH1 0x20 ADD PUSH2 0x332 DUP2 MSTORE PUSH1 0x20 ADD PUSH2 0x335 DUP2 MSTORE PUSH1 0x20 ADD PUSH2 0x33E DUP2 MSTORE PUSH1 0x20 ADD PUSH2 0x36B DUP2 MSTORE PUSH1 0x20 ADD PUSH2 0x36C DUP2 MSTORE PUSH1 0x20 ADD PUSH2 0x377 DUP2 MSTORE PUSH1 0x20 ADD PUSH2 0x383 DUP2 MSTORE PUSH1 0x20 ADD PUSH2 0x39C DUP2 MSTORE PUSH1 0x20 ADD PUSH2 0x39F DUP2 MSTORE PUSH1 0x20 ADD PUSH2 0x3B8 DUP2 MSTORE PUSH1 0x20 ADD PUSH2 0x3CC DUP2 MSTORE PUSH1 0x20 ADD PUSH2 0x3D3 DUP2 MSTORE PUSH1 0x20 ADD PUSH2 0x3EA DUP2 MSTORE PUSH1 0x20 ADD PUSH2 0x3EB DUP2 MSTORE PUSH1 0x20 ADD PUSH2 0x433 DUP2 MSTORE PUSH1 0x20 ADD PUSH2 0x434 DUP2 MSTORE PUSH1 0x20 ADD PUSH2 0x449 DUP2 MSTORE PUSH1 0x20 ADD PUSH2 0x455 DUP2 MSTORE PUSH1 0x20 ADD PUSH2 0x45E DUP2 MSTORE PUSH1 0x20 ADD PUSH2 0x461 DUP2 MSTORE PUSH1 0x20 ADD PUSH2 0x479 DUP2 MSTORE PUSH1 0x20 ADD PUSH2 0x499 DUP2 MSTORE PUSH1 0x20 ADD PUSH2 0x49E DUP2 MSTORE PUSH1 0x20 ADD PUSH2 0x4B4 DUP2 MSTORE PUSH1 0x20 ADD PUSH2 0x4C0 DUP2 MSTORE PUSH1 0x20 ADD PUSH2 0x4C8 DUP2 MSTORE PUSH1 0x20 ADD PUSH2 0x4DE DUP2 MSTORE PUSH1 0x20 ADD PUSH2 0x4EE DUP2 MSTORE PUSH1 0x20 ADD PUSH2 0x504 DUP2 MSTORE PUSH1 0x20 ADD PUSH2 0x51E DUP2 MSTORE PUSH1 0x20 ADD PUSH2 0x525 DUP2 MSTORE PUSH1 0x20 ADD PUSH2 0x535 DUP2 MSTORE PUSH1 0x20 ADD PUSH2 0x536 DUP2 MSTORE PUSH1 0x20 ADD PUSH2 0x539 DUP2 MSTORE PUSH1 0x20 ADD PUSH2 0x544 DUP2 MSTORE PUSH1 0x20 ADD PUSH2 0x546 DUP2 MSTORE PUSH1 0x20 ADD PUSH2 0x561 DUP2 MSTORE PUSH1 0x20 ADD PUSH2 0x56B DUP2 MSTORE PUSH1 0x20 ADD PUSH2 0x56E DUP2 MSTORE PUSH1 0x20 ADD PUSH2 0x571 DUP2 MSTORE PUSH1 0x20 ADD PUSH2 0x572 DUP2 MSTORE PUSH1 0x20 ADD PUSH2 0x585 DUP2 MSTORE PUSH1 0x20 ADD PUSH2 0x590 DUP2 MSTORE PUSH1 0x20 ADD PUSH2 0x5A5 DUP2 MSTORE PUSH1 0x20 ADD PUSH2 0x5BC DUP2 MSTORE PUSH1 0x20 ADD PUSH2 0x5C7 DUP2 MSTORE PUSH1 0x20 ADD PUSH2 0x5CE DUP2 MSTORE PUSH1 0x20 ADD PUSH2 0x5D2 DUP2 MSTORE PUSH1 0x20 ADD PUSH2 0x5D5 DUP2 MSTORE PUSH1 0x20 ADD PUSH2 0x5EF DUP2 MSTORE PUSH1 0x20 ADD PUSH2 0x62A DUP2 MSTORE PUSH1 0x20 ADD PUSH2 0x631 DUP2 MSTORE PUSH1 0x20 ADD PUSH2 0x637 DUP2 MSTORE PUSH1 0x20 ADD PUSH2 0x63D DUP2 MSTORE PUSH1 0x20 ADD PUSH2 0x646 DUP2 MSTORE PUSH1 0x20 ADD PUSH2 0x665 DUP2 MSTORE PUSH1 0x20 ADD PUSH2 0x669 DUP2 MSTORE PUSH1 0x20 ADD PUSH2 0x67B DUP2 MSTORE PUSH1 0x20 ADD PUSH2 0x680 DUP2 MSTORE PUSH1 0x20 ADD PUSH2 0x686 DUP2 MSTORE PUSH1 0x20 ADD PUSH2 0x68F DUP2 MSTORE PUSH1 0x20 ADD PUSH2 0x697 DUP2 MSTORE PUSH1 0x20 ADD PUSH2 0x69C DUP2 MSTORE PUSH1 0x20 ADD PUSH2 0x6A1 DUP2 MSTORE PUSH1 0x20 ADD PUSH2 0x6B5 DUP2 MSTORE PUSH1 0x20 ADD PUSH2 0x6BD DUP2 MSTORE PUSH1 0x20 ADD PUSH2 0x6D8 DUP2 MSTORE PUSH1 0x20 ADD PUSH2 0x6E2 DUP2 MSTORE PUSH1 0x20 ADD PUSH2 0x6ED DUP2 MSTORE PUSH1 0x20 ADD PUSH2 0x73E DUP2 MSTORE PUSH1 0x20 ADD PUSH2 0x759 DUP2 MSTORE PUSH1 0x20 ADD PUSH2 0x78B DUP2 MSTORE PUSH1 0x20 ADD PUSH2 0x7B1 DUP2 MSTORE PUSH1 0x20 ADD PUSH2 0x7B9 DUP2 MSTORE PUSH1 0x20 ADD PUSH2 0x7C1 DUP2 MSTORE PUSH1 0x20 ADD PUSH2 0x7D1 DUP2 MSTORE PUSH1 0x20 ADD PUSH2 0x7F0 DUP2 MSTORE PUSH1 0x20 ADD PUSH2 0x822 DUP2 MSTORE PUSH1 0x20 ADD PUSH2 0x833 DUP2 MSTORE PUSH1 0x20 ADD PUSH2 0x850 DUP2 MSTORE PUSH1 0x20 ADD PUSH2 0x853 DUP2 MSTORE PUSH1 0x20 ADD PUSH2 0x860 DUP2 MSTORE PUSH1 0x20 ADD PUSH2 0x865 DUP2 MSTORE PUSH1 0x20 ADD PUSH2 0x86F DUP2 MSTORE PUSH1 0x20 ADD PUSH2 0x872 DUP2 MSTORE PUSH1 0x20 ADD PUSH2 0x88A DUP2 MSTORE PUSH1 0x20 ADD PUSH2 0x896 DUP2 MSTORE PUSH1 0x20 ADD PUSH2 0x8AF DUP2 MSTORE PUSH1 0x20 ADD PUSH2 0x8BB DUP2 MSTORE PUSH1 0x20 ADD PUSH2 0x8C1 DUP2 MSTORE PUSH1 0x20 ADD PUSH2 0x8CE DUP2 MSTORE PUSH1 0x20 ADD PUSH2 0x8E1 DUP2 MSTORE PUSH1 0x20 ADD PUSH2 0x8FE DUP2 MSTORE PUSH1 0x20 ADD PUSH2 0x900 DUP2 MSTORE PUSH1 0x20 ADD PUSH2 0x910 DUP2 MSTORE PUSH1 0x20 ADD PUSH2 0x913 DUP2 MSTORE PUSH1 0x20 ADD PUSH2 0x92F DUP2 MSTORE PUSH1 0x20 ADD PUSH2 0x933 DUP2 MSTORE PUSH1 0x20 ADD PUSH2 0x936 DUP2 MSTORE PUSH1 0x20 ADD PUSH2 0x93C DUP2 MSTORE PUSH1 0x20 ADD PUSH2 0x946 DUP2 MSTORE PUSH1 0x20 ADD PUSH2 0x94E DUP2 MSTORE PUSH1 0x20 ADD PUSH2 0x957 DUP2 MSTORE PUSH1 0x20 ADD PUSH2 0x959 DUP2 MSTORE PUSH1 0x20 ADD PUSH2 0x961 DUP2 MSTORE PUSH1 0x20 ADD PUSH2 0x96B DUP2 MSTORE PUSH1 0x20 ADD PUSH2 0x96D DUP2 MSTORE PUSH1 0x20 ADD PUSH2 0x96F DUP2 MSTORE PUSH1 0x20 ADD PUSH2 0x97A DUP2 MSTORE PUSH1 0x20 ADD PUSH2 0x9A1 DUP2 MSTORE PUSH1 0x20 ADD PUSH2 0x9A5 DUP2 MSTORE PUSH1 0x20 ADD PUSH2 0x9A8 DUP2 MSTORE PUSH1 0x20 ADD PUSH2 0x9AD DUP2 MSTORE PUSH1 0x20 ADD PUSH2 0x9B2 DUP2 MSTORE PUSH1 0x20 ADD PUSH2 0x9BD DUP2 MSTORE PUSH1 0x20 ADD PUSH2 0x9C0 DUP2 MSTORE PUSH1 0x20 ADD PUSH2 0x9CC DUP2 MSTORE PUSH1 0x20 ADD PUSH2 0x9DC DUP2 MSTORE PUSH1 0x20 ADD PUSH2 0x9E0 DUP2 MSTORE PUSH1 0x20 ADD PUSH2 0x9EE DUP2 MSTORE PUSH1 0x20 ADD PUSH2 0x9F0 DUP2 MSTORE PUSH1 0x20 ADD PUSH2 0xA00 DUP2 MSTORE PUSH1 0x20 ADD PUSH2 0xA24 DUP2 MSTORE PUSH1 0x20 ADD PUSH2 0xA45 DUP2 MSTORE PUSH1 0x20 ADD PUSH2 0xA6B DUP2 MSTORE PUSH1 0x20 ADD PUSH2 0xA70 DUP2 MSTORE PUSH1 0x20 ADD PUSH2 0xA78 DUP2 MSTORE PUSH1 0x20 ADD PUSH2 0xA7B DUP2 MSTORE PUSH1 0x20 ADD PUSH2 0xA7D DUP2 MSTORE PUSH1 0x20 ADD PUSH2 0xA86 DUP2 MSTORE PUSH1 0x20 ADD PUSH2 0xA9C DUP2 MSTORE PUSH1 0x20 ADD PUSH2 0xAD9 DUP2 MSTORE PUSH1 0x20 ADD PUSH2 0xAE2 DUP2 MSTORE PUSH1 0x20 ADD PUSH2 0xB06 DUP2 MSTORE PUSH1 0x20 ADD PUSH2 0xB11 DUP2 MSTORE PUSH1 0x20 ADD PUSH2 0xB13 DUP2 MSTORE PUSH1 0x20 ADD PUSH2 0xB1C DUP2 MSTORE PUSH1 0x20 ADD PUSH2 0xB22 DUP2 MSTORE PUSH1 0x20 ADD PUSH2 0xB2D DUP2 MSTORE PUSH1 0x20 ADD PUSH2 0xB33 DUP2 MSTORE PUSH1 0x20 ADD PUSH2 0xB38 DUP2 MSTORE PUSH1 0x20 ADD PUSH2 0xB42 DUP2 MSTORE PUSH1 0x20 ADD PUSH2 0xB68 DUP2 MSTORE PUSH1 0x20 ADD PUSH2 0xB7F DUP2 MSTORE PUSH1 0x20 ADD PUSH2 0xB80 DUP2 MSTORE PUSH1 0x20 ADD PUSH2 0xB84 DUP2 MSTORE PUSH1 0x20 ADD PUSH2 0xBA6 DUP2 MSTORE PUSH1 0x20 ADD PUSH2 0xBBC DUP2 MSTORE PUSH1 0x20 ADD PUSH2 0xBD8 DUP2 MSTORE PUSH1 0x20 ADD PUSH2 0xBEA DUP2 MSTORE PUSH1 0x20 ADD PUSH2 0xBEC DUP2 MSTORE PUSH1 0x20 ADD PUSH2 0xC06 DUP2 MSTORE PUSH1 0x20 ADD PUSH2 0xC15 DUP2 MSTORE PUSH1 0x20 ADD PUSH2 0xC4E DUP2 MSTORE PUSH1 0x20 ADD PUSH2 0xC52 DUP2 MSTORE PUSH1 0x20 ADD PUSH2 0xC79 DUP2 MSTORE PUSH1 0x20 ADD PUSH2 0xC81 DUP2 MSTORE PUSH1 0x20 ADD PUSH2 0xCAD DUP2 MSTORE PUSH1 0x20 ADD PUSH2 0xCE2 DUP2 MSTORE PUSH1 0x20 ADD PUSH2 0xCF3 DUP2 MSTORE PUSH1 0x20 ADD PUSH2 0xD1D DUP2 MSTORE PUSH1 0x20 ADD PUSH2 0xD2A DUP2 MSTORE PUSH1 0x20 ADD PUSH2 0xD2D DUP2 MSTORE PUSH1 0x20 ADD PUSH2 0xD4C DUP2 MSTORE PUSH1 0x20 ADD PUSH2 0xD4D DUP2 MSTORE PUSH1 0x20 ADD PUSH2 0xD5C DUP2 MSTORE PUSH1 0x20 ADD PUSH2 0xD82 DUP2 MSTORE PUSH1 0x20 ADD PUSH2 0xD84 DUP2 MSTORE PUSH1 0x20 ADD PUSH2 0xD85 DUP2 MSTORE PUSH1 0x20 ADD PUSH2 0xD8E DUP2 MSTORE PUSH1 0x20 ADD PUSH2 0xD95 DUP2 MSTORE PUSH1 0x20 ADD PUSH2 0xD9A DUP2 MSTORE PUSH1 0x20 ADD PUSH2 0xD9F DUP2 MSTORE PUSH1 0x20 ADD PUSH2 0xDBA DUP2 MSTORE PUSH1 0x20 ADD PUSH2 0xDC5 DUP2 MSTORE PUSH1 0x20 ADD PUSH2 0xDD9 DUP2 MSTORE PUSH1 0x20 ADD PUSH2 0xDE0 DUP2 MSTORE PUSH1 0x20 ADD PUSH2 0xE0D DUP2 MSTORE PUSH1 0x20 ADD PUSH2 0xE1A DUP2 MSTORE PUSH1 0x20 ADD PUSH2 0xE1F DUP2 MSTORE PUSH1 0x20 ADD PUSH2 0xE29 DUP2 MSTORE PUSH1 0x20 ADD PUSH2 0xE3C DUP2 MSTORE PUSH1 0x20 ADD PUSH2 0xE42 DUP2 MSTORE PUSH1 0x20 ADD PUSH2 0xE46 DUP2 MSTORE PUSH1 0x20 ADD PUSH2 0xE50 DUP2 MSTORE PUSH1 0x20 ADD PUSH2 0xE55 DUP2 MSTORE PUSH1 0x20 ADD PUSH2 0xE5F DUP2 MSTORE PUSH1 0x20 ADD PUSH2 0xE88 DUP2 MSTORE PUSH1 0x20 ADD PUSH2 0xE8D DUP2 MSTORE PUSH1 0x20 ADD PUSH2 0xEAB DUP2 MSTORE PUSH1 0x20 ADD PUSH2 0xEC7 DUP2 MSTORE PUSH1 0x20 ADD PUSH2 0xED6 DUP2 MSTORE PUSH1 0x20 ADD PUSH2 0xF19 DUP2 MSTORE PUSH1 0x20 ADD PUSH2 0xF1C DUP2 MSTORE PUSH1 0x20 ADD PUSH2 0xF52 DUP2 MSTORE PUSH1 0x20 ADD PUSH2 0xF5D DUP2 MSTORE PUSH1 0x20 ADD PUSH2 0xF71 DUP2 MSTORE PUSH1 0x20 ADD PUSH2 0xF7E DUP2 MSTORE PUSH1 0x20 ADD PUSH2 0xF82 DUP2 MSTORE PUSH1 0x20 ADD PUSH2 0xFA0 DUP2 MSTORE PUSH1 0x20 ADD PUSH2 0xFAD DUP2 MSTORE PUSH1 0x20 ADD PUSH2 0xFC1 DUP2 MSTORE PUSH1 0x20 ADD PUSH2 0xFC3 DUP2 MSTORE PUSH1 0x20 ADD PUSH2 0xFCE DUP2 MSTORE PUSH1 0x20 ADD PUSH2 0xFCF DUP2 MSTORE PUSH1 0x20 ADD PUSH2 0xFE9 DUP2 MSTORE PUSH1 0x20 ADD PUSH2 0xFEC DUP2 MSTORE PUSH1 0x20 ADD PUSH2 0x1007 DUP2 MSTORE PUSH1 0x20 ADD PUSH2 0x1015 DUP2 MSTORE PUSH1 0x20 ADD PUSH2 0x101C DUP2 MSTORE PUSH1 0x20 ADD PUSH2 0x1025 DUP2 MSTORE PUSH1 0x20 ADD PUSH2 0x102F DUP2 MSTORE PUSH1 0x20 ADD PUSH2 0x1070 DUP2 MSTORE PUSH1 0x20 ADD PUSH2 0x107F DUP2 MSTORE PUSH1 0x20 ADD PUSH2 0x1080 DUP2 MSTORE PUSH1 0x20 ADD PUSH2 0x1093 DUP2 MSTORE PUSH1 0x20 ADD PUSH2 0x109E DUP2 MSTORE PUSH1 0x20 ADD PUSH2 0x10AC DUP2 MSTORE PUSH1 0x20 ADD PUSH2 0x10B3 DUP2 MSTORE PUSH1 0x20 ADD PUSH2 0x10BD DUP2 MSTORE PUSH1 0x20 ADD PUSH2 0x10D0 DUP2 MSTORE PUSH1 0x20 ADD PUSH2 0x10D7 DUP2 MSTORE PUSH1 0x20 ADD PUSH2 0x10E9 DUP2 MSTORE PUSH1 0x20 ADD PUSH2 0x10F9 DUP2 MSTORE PUSH1 0x20 ADD PUSH2 0x110F DUP2 MSTORE PUSH1 0x20 ADD PUSH2 0x1114 DUP2 MSTORE PUSH1 0x20 ADD PUSH2 0x1115 DUP2 MSTORE PUSH1 0x20 ADD PUSH2 0x1135 DUP2 MSTORE PUSH1 0x20 ADD PUSH2 0x113C DUP2 MSTORE PUSH1 0x20 ADD PUSH2 0x113D DUP2 MSTORE PUSH1 0x20 ADD PUSH2 0x114F DUP2 MSTORE PUSH1 0x20 ADD PUSH2 0x1166 DUP2 MSTORE PUSH1 0x20 ADD PUSH2 0x116C DUP2 MSTORE PUSH1 0x20 ADD PUSH2 0x116E DUP2 MSTORE PUSH1 0x20 ADD PUSH2 0x1178 DUP2 MSTORE PUSH1 0x20 ADD PUSH2 0x117D DUP2 MSTORE PUSH1 0x20 ADD PUSH2 0x1182 DUP2 MSTORE PUSH1 0x20 ADD PUSH2 0x1191 DUP2 MSTORE PUSH1 0x20 ADD PUSH2 0x1198 DUP2 MSTORE PUSH1 0x20 ADD PUSH2 0x119F DUP2 MSTORE PUSH1 0x20 ADD PUSH2 0x11B8 DUP2 MSTORE PUSH1 0x20 ADD PUSH2 0x11BE DUP2 MSTORE PUSH1 0x20 ADD PUSH2 0x1217 DUP2 MSTORE PUSH1 0x20 ADD PUSH2 0x1249 DUP2 MSTORE PUSH1 0x20 ADD PUSH2 0x1264 DUP2 MSTORE PUSH1 0x20 ADD PUSH2 0x1266 DUP2 MSTORE PUSH1 0x20 ADD PUSH2 0x126E DUP2 MSTORE PUSH1 0x20 ADD PUSH2 0x1277 DUP2 MSTORE PUSH1 0x20 ADD PUSH2 0x127A DUP2 MSTORE PUSH1 0x20 ADD PUSH2 0x1292 DUP2 MSTORE PUSH1 0x20 ADD PUSH2 0x12A2 DUP2 MSTORE PUSH1 0x20 ADD PUSH2 0x12A6 DUP2 MSTORE PUSH1 0x20 ADD PUSH2 0x12C5 DUP2 MSTORE PUSH1 0x20 ADD PUSH2 0x12CD DUP2 MSTORE PUSH1 0x20 ADD PUSH2 0x12D5 DUP2 MSTORE PUSH1 0x20 ADD PUSH2 0x12E3 DUP2 MSTORE PUSH1 0x20 ADD PUSH2 0x12F8 DUP2 MSTORE PUSH1 0x20 ADD PUSH2 0x12F9 DUP2 MSTORE PUSH1 0x20 ADD PUSH2 0x131E DUP2 MSTORE PUSH1 0x20 ADD PUSH2 0x132F DUP2 MSTORE PUSH1 0x20 ADD PUSH2 0x1330 DUP2 MSTORE PUSH1 0x20 ADD PUSH2 0x1335 DUP2 MSTORE PUSH1 0x20 ADD PUSH2 0x1357 DUP2 MSTORE PUSH1 0x20 ADD PUSH2 0x1368 DUP2 MSTORE PUSH1 0x20 ADD PUSH2 0x136C DUP2 MSTORE PUSH1 0x20 ADD PUSH2 0x136F DUP2 MSTORE PUSH1 0x20 ADD PUSH2 0x1376 DUP2 MSTORE PUSH1 0x20 ADD PUSH2 0x138F DUP2 MSTORE PUSH1 0x20 ADD PUSH2 0x1399 DUP2 MSTORE PUSH1 0x20 ADD PUSH2 0x139A DUP2 MSTORE PUSH1 0x20 ADD PUSH2 0x139F DUP2 MSTORE PUSH1 0x20 ADD PUSH2 0x13AE DUP2 MSTORE PUSH1 0x20 ADD PUSH2 0x13B0 DUP2 MSTORE PUSH1 0x20 ADD PUSH2 0x13B4 DUP2 MSTORE PUSH1 0x20 ADD PUSH2 0x13D2 DUP2 MSTORE PUSH1 0x20 ADD PUSH2 0x13E9 DUP2 MSTORE PUSH1 0x20 ADD PUSH2 0x13F4 DUP2 MSTORE PUSH1 0x20 ADD PUSH2 0x13FD DUP2 MSTORE PUSH1 0x20 ADD PUSH2 0x1408 DUP2 MSTORE PUSH1 0x20 ADD PUSH2 0x1421 DUP2 MSTORE PUSH1 0x20 ADD PUSH2 0x1444 DUP2 MSTORE PUSH1 0x20 ADD PUSH2 0x144F DUP2 MSTORE PUSH1 0x20 ADD PUSH2 0x147C DUP2 MSTORE PUSH1 0x20 ADD PUSH2 0x148B DUP2 MSTORE PUSH1 0x20 ADD PUSH2 0x1498 DUP2 MSTORE PUSH1 0x20 ADD PUSH2 0x149F DUP2 MSTORE PUSH1 0x20 ADD PUSH2 0x14B1 DUP2 MSTORE PUSH1 0x20 ADD PUSH2 0x14C0 DUP2 MSTORE PUSH1 0x20 ADD PUSH2 0x14C9 DUP2 MSTORE PUSH1 0x20 ADD PUSH2 0x14DC DUP2 MSTORE PUSH1 0x20 ADD PUSH2 0x14F8 DUP2 MSTORE PUSH1 0x20 ADD PUSH2 0x1507 DUP2 MSTORE PUSH1 0x20 ADD PUSH2 0x151C DUP2 MSTORE PUSH1 0x20 ADD PUSH2 0x153B DUP2 MSTORE PUSH1 0x20 ADD PUSH2 0x153D DUP2 MSTORE PUSH1 0x20 ADD PUSH2 0x1546 DUP2 MSTORE PUSH1 0x20 ADD PUSH2 0x1551 DUP2 MSTORE PUSH1 0x20 ADD PUSH2 0x1559 DUP2 MSTORE PUSH1 0x20 ADD PUSH2 0x155E DUP2 MSTORE PUSH1 0x20 ADD PUSH2 0x1586 DUP2 MSTORE PUSH1 0x20 ADD PUSH2 0x158B DUP2 MSTORE PUSH1 0x20 ADD PUSH2 0x15B3 DUP2 MSTORE PUSH1 0x20 ADD PUSH2 0x15BA DUP2 MSTORE PUSH1 0x20 ADD PUSH2 0x15BB DUP2 MSTORE PUSH1 0x20 ADD PUSH2 0x161A DUP2 MSTORE PUSH1 0x20 ADD PUSH2 0x161C DUP2 MSTORE PUSH1 0x20 ADD PUSH2 0x1623 DUP2 MSTORE PUSH1 0x20 ADD PUSH2 0x1626 DUP2 MSTORE PUSH1 0x20 ADD PUSH2 0x1674 DUP2 MSTORE PUSH1 0x20 ADD PUSH2 0x1679 DUP2 MSTORE PUSH1 0x20 ADD PUSH2 0x1682 DUP2 MSTORE PUSH1 0x20 ADD PUSH2 0x1690 DUP2 MSTORE PUSH1 0x20 ADD PUSH2 0x16A5 DUP2 MSTORE PUSH1 0x20 ADD PUSH2 0x16B7 DUP2 MSTORE PUSH1 0x20 ADD PUSH2 0x16C0 DUP2 MSTORE PUSH1 0x20 ADD PUSH2 0x16C4 DUP2 MSTORE PUSH1 0x20 ADD PUSH2 0x16C9 DUP2 MSTORE PUSH1 0x20 ADD PUSH2 0x16CF DUP2 MSTORE PUSH1 0x20 ADD PUSH2 0x16DA DUP2 MSTORE PUSH1 0x20 ADD PUSH2 0x16E9 DUP2 MSTORE PUSH1 0x20 ADD PUSH2 0x16FA DUP2 MSTORE PUSH1 0x20 ADD PUSH2 0x16FD DUP2 MSTORE PUSH1 0x20 ADD PUSH2 0x1704 DUP2 MSTORE PUSH1 0x20 ADD PUSH2 0x1706 DUP2 MSTORE PUSH1 0x20 ADD PUSH2 0x170F DUP2 MSTORE PUSH1 0x20 ADD PUSH2 0x1726 DUP2 MSTORE PUSH1 0x20 ADD PUSH2 0x172C DUP2 MSTORE PUSH1 0x20 ADD PUSH2 0x1752 DUP2 MSTORE PUSH1 0x20 ADD PUSH2 0x175F DUP2 MSTORE PUSH1 0x20 ADD PUSH2 0x1780 DUP2 MSTORE PUSH1 0x20 ADD PUSH2 0x1785 DUP2 MSTORE PUSH1 0x20 ADD PUSH2 0x17CB DUP2 MSTORE PUSH1 0x20 ADD PUSH2 0x17D2 DUP2 MSTORE PUSH1 0x20 ADD PUSH2 0x17DA DUP2 MSTORE PUSH1 0x20 ADD PUSH2 0x17DE DUP2 MSTORE PUSH1 0x20 ADD PUSH2 0x17FE DUP2 MSTORE PUSH1 0x20 ADD PUSH2 0x1801 DUP2 MSTORE PUSH1 0x20 ADD PUSH2 0x1838 DUP2 MSTORE PUSH1 0x20 ADD PUSH2 0x1873 DUP2 MSTORE PUSH1 0x20 ADD PUSH2 0x1886 DUP2 MSTORE PUSH1 0x20 ADD PUSH2 0x1894 DUP2 MSTORE PUSH1 0x20 ADD PUSH2 0x1898 DUP2 MSTORE PUSH1 0x20 ADD PUSH2 0x18BF DUP2 MSTORE PUSH1 0x20 ADD PUSH2 0x18C1 DUP2 MSTORE PUSH1 0x20 ADD PUSH2 0x18C5 DUP2 MSTORE PUSH1 0x20 ADD PUSH2 0x18CB DUP2 MSTORE PUSH1 0x20 ADD PUSH2 0x18E8 DUP2 MSTORE PUSH1 0x20 ADD PUSH2 0x18F5 DUP2 MSTORE PUSH1 0x20 ADD PUSH2 0x18F7 DUP2 MSTORE PUSH1 0x20 ADD PUSH2 0x1904 DUP2 MSTORE PUSH1 0x20 ADD PUSH2 0x1916 DUP2 MSTORE PUSH1 0x20 ADD PUSH2 0x1917 DUP2 MSTORE PUSH1 0x20 ADD PUSH2 0x1919 DUP2 MSTORE PUSH1 0x20 ADD PUSH2 0x191F DUP2 MSTORE PUSH1 0x20 ADD PUSH2 0x1927 DUP2 MSTORE PUSH1 0x20 ADD PUSH2 0x1928 DUP2 MSTORE PUSH1 0x20 ADD PUSH2 0x192B DUP2 MSTORE PUSH1 0x20 ADD PUSH2 0x1942 DUP2 MSTORE PUSH1 0x20 ADD PUSH2 0x194C DUP2 MSTORE PUSH1 0x20 ADD PUSH2 0x1951 DUP2 MSTORE PUSH1 0x20 ADD PUSH2 0x196C DUP2 MSTORE PUSH1 0x20 ADD PUSH2 0x1973 DUP2 MSTORE PUSH1 0x20 ADD PUSH2 0x198E DUP2 MSTORE PUSH1 0x20 ADD PUSH2 0x19A6 DUP2 MSTORE PUSH1 0x20 ADD PUSH2 0x19A8 DUP2 MSTORE PUSH1 0x20 ADD PUSH2 0x19AE DUP2 MSTORE PUSH1 0x20 ADD PUSH2 0x19B5 DUP2 MSTORE PUSH1 0x20 ADD PUSH2 0x19B8 DUP2 MSTORE PUSH1 0x20 ADD PUSH2 0x19D0 DUP2 MSTORE PUSH1 0x20 ADD PUSH2 0x19D8 DUP2 MSTORE PUSH1 0x20 ADD PUSH2 0x19F1 DUP2 MSTORE PUSH1 0x20 ADD PUSH2 0x1A12 DUP2 MSTORE PUSH1 0x20 ADD PUSH2 0x1A19 DUP2 MSTORE PUSH1 0x20 ADD PUSH2 0x1A22 DUP2 MSTORE PUSH1 0x20 ADD PUSH2 0x1A2C DUP2 MSTORE PUSH1 0x20 ADD PUSH2 0x1A33 DUP2 MSTORE PUSH1 0x20 ADD PUSH2 0x1A43 DUP2 MSTORE PUSH1 0x20 ADD PUSH2 0x1A5A DUP2 MSTORE PUSH1 0x20 ADD PUSH2 0x1A63 DUP2 MSTORE PUSH1 0x20 ADD PUSH2 0x1A77 DUP2 MSTORE PUSH1 0x20 ADD PUSH2 0x1A81 DUP2 MSTORE PUSH1 0x20 ADD PUSH2 0x1A96 DUP2 MSTORE PUSH1 0x20 ADD PUSH2 0x1A9C DUP2 MSTORE PUSH1 0x20 ADD PUSH2 0x1AAA DUP2 MSTORE PUSH1 0x20 ADD PUSH2 0x1AAE DUP2 MSTORE PUSH1 0x20 ADD PUSH2 0x1AE4 DUP2 MSTORE PUSH1 0x20 ADD PUSH2 0x1AE6 DUP2 MSTORE PUSH1 0x20 ADD PUSH2 0x1B0C DUP2 MSTORE PUSH1 0x20 ADD PUSH2 0x1B1C DUP2 MSTORE PUSH1 0x20 ADD PUSH2 0x1B20 DUP2 MSTORE PUSH1 0x20 ADD PUSH2 0x1B29 DUP2 MSTORE PUSH1 0x20 ADD PUSH2 0x1B2B DUP2 MSTORE PUSH1 0x20 ADD PUSH2 0x1B54 DUP2 MSTORE PUSH1 0x20 ADD PUSH2 0x1B60 DUP2 MSTORE PUSH1 0x20 ADD PUSH2 0x1B68 DUP2 MSTORE PUSH1 0x20 ADD PUSH2 0x1B6D DUP2 MSTORE PUSH1 0x20 ADD PUSH2 0x1B76 DUP2 MSTORE PUSH1 0x20 ADD PUSH2 0x1B81 DUP2 MSTORE PUSH1 0x20 ADD PUSH2 0x1B85 DUP2 MSTORE PUSH1 0x20 ADD PUSH2 0x1B93 DUP2 MSTORE PUSH1 0x20 ADD PUSH2 0x1B9D DUP2 MSTORE PUSH1 0x20 ADD PUSH2 0x1BB5 DUP2 MSTORE PUSH1 0x20 ADD PUSH2 0x1BC2 DUP2 MSTORE PUSH1 0x20 ADD PUSH2 0x1BC4 DUP2 MSTORE PUSH1 0x20 ADD PUSH2 0x1BC5 DUP2 MSTORE PUSH1 0x20 ADD PUSH2 0x1BD8 DUP2 MSTORE PUSH1 0x20 ADD PUSH2 0x1BEE DUP2 MSTORE PUSH1 0x20 ADD PUSH2 0x1C00 DUP2 MSTORE PUSH1 0x20 ADD PUSH2 0x1C07 DUP2 MSTORE PUSH1 0x20 ADD PUSH2 0x1C23 DUP2 MSTORE PUSH1 0x20 ADD PUSH2 0x1C54 DUP2 MSTORE PUSH1 0x20 ADD PUSH2 0x1C60 DUP2 MSTORE PUSH1 0x20 ADD PUSH2 0x1C67 DUP2 MSTORE PUSH1 0x20 ADD PUSH2 0x1C6C DUP2 MSTORE PUSH1 0x20 ADD PUSH2 0x1C81 DUP2 MSTORE PUSH1 0x20 ADD PUSH2 0x1C88 DUP2 MSTORE PUSH1 0x20 ADD PUSH2 0x1C8A DUP2 MSTORE PUSH1 0x20 ADD PUSH2 0x1C8B DUP2 MSTORE PUSH1 0x20 ADD PUSH2 0x1C9A DUP2 MSTORE PUSH1 0x20 ADD PUSH2 0x1C9B DUP2 MSTORE PUSH1 0x20 ADD PUSH2 0x1CA4 DUP2 MSTORE PUSH1 0x20 ADD PUSH2 0x1CB7 DUP2 MSTORE PUSH1 0x20 ADD PUSH2 0x1CCE DUP2 MSTORE PUSH1 0x20 ADD PUSH2 0x1CD8 DUP2 MSTORE PUSH1 0x20 ADD PUSH2 0x1CD9 DUP2 MSTORE PUSH1 0x20 ADD PUSH2 0x1D0B DUP2 MSTORE PUSH1 0x20 ADD PUSH2 0x1D0E DUP2 MSTORE PUSH1 0x20 ADD PUSH2 0x1D16 DUP2 MSTORE PUSH1 0x20 ADD PUSH2 0x1D34 DUP2 MSTORE PUSH1 0x20 ADD PUSH2 0x1D36 DUP2 MSTORE PUSH1 0x20 ADD PUSH2 0x1D41 DUP2 MSTORE PUSH1 0x20 ADD PUSH2 0x1D51 DUP2 MSTORE PUSH1 0x20 ADD PUSH2 0x1D6B DUP2 MSTORE PUSH1 0x20 ADD PUSH2 0x1D76 DUP2 MSTORE PUSH1 0x20 ADD PUSH2 0x1D8F DUP2 MSTORE PUSH1 0x20 ADD PUSH2 0x1DA0 DUP2 MSTORE PUSH1 0x20 ADD PUSH2 0x1DA7 DUP2 MSTORE PUSH1 0x20 ADD PUSH2 0x1DD9 DUP2 MSTORE PUSH1 0x20 ADD PUSH2 0x1DEC DUP2 MSTORE PUSH1 0x20 ADD PUSH2 0x1E47 DUP2 MSTORE PUSH1 0x20 ADD PUSH2 0x1E4C DUP2 MSTORE PUSH1 0x20 ADD PUSH2 0x1E55 DUP2 MSTORE PUSH1 0x20 ADD PUSH2 0x1E67 DUP2 MSTORE PUSH1 0x20 ADD PUSH2 0x1E72 DUP2 MSTORE PUSH1 0x20 ADD PUSH2 0x1E78 DUP2 MSTORE PUSH1 0x20 ADD PUSH2 0x1E79 DUP2 MSTORE PUSH1 0x20 ADD PUSH2 0x1E80 DUP2 MSTORE PUSH1 0x20 ADD PUSH2 0x1E98 DUP2 MSTORE PUSH1 0x20 ADD PUSH2 0x1EDA DUP2 MSTORE PUSH1 0x20 ADD PUSH2 0x1EEA DUP2 MSTORE PUSH1 0x20 ADD PUSH2 0x1EF1 DUP2 MSTORE PUSH1 0x20 ADD PUSH2 0x1EF5 DUP2 MSTORE PUSH1 0x20 ADD PUSH2 0x1EFB DUP2 MSTORE PUSH1 0x20 ADD PUSH2 0x1F04 DUP2 MSTORE PUSH1 0x20 ADD PUSH2 0x1F0A DUP2 MSTORE PUSH1 0x20 ADD PUSH2 0x1F18 DUP2 MSTORE PUSH1 0x20 ADD PUSH2 0x1F20 DUP2 MSTORE PUSH1 0x20 ADD PUSH2 0x1F21 DUP2 MSTORE PUSH1 0x20 ADD PUSH2 0x1F24 DUP2 MSTORE PUSH1 0x20 ADD PUSH2 0x1F25 DUP2 MSTORE PUSH1 0x20 ADD PUSH2 0x1F3D DUP2 MSTORE PUSH1 0x20 ADD PUSH2 0x1F45 DUP2 MSTORE PUSH1 0x20 ADD PUSH2 0x1F5C DUP2 MSTORE PUSH1 0x20 ADD PUSH2 0x1F69 DUP2 MSTORE PUSH1 0x20 ADD PUSH2 0x1F88 DUP2 MSTORE PUSH1 0x20 ADD PUSH2 0x1F89 DUP2 MSTORE PUSH1 0x20 ADD PUSH2 0x1F9C DUP2 MSTORE PUSH1 0x20 ADD PUSH2 0x1FAF DUP2 MSTORE PUSH1 0x20 ADD PUSH2 0x1FEB DUP2 MSTORE PUSH1 0x20 ADD PUSH2 0x1FFB DUP2 MSTORE PUSH1 0x20 ADD PUSH2 0x2005 DUP2 MSTORE PUSH1 0x20 ADD PUSH2 0x203D DUP2 MSTORE PUSH1 0x20 ADD PUSH2 0x203E DUP2 MSTORE PUSH1 0x20 ADD PUSH2 0x204D DUP2 MSTORE PUSH1 0x20 ADD PUSH2 0x206B DUP2 MSTORE PUSH1 0x20 ADD PUSH2 0x2078 DUP2 MSTORE PUSH1 0x20 ADD PUSH2 0x2085 DUP2 MSTORE PUSH1 0x20 ADD PUSH2 0x2095 DUP2 MSTORE PUSH1 0x20 ADD PUSH2 0x209F DUP2 MSTORE PUSH1 0x20 ADD PUSH2 0x20A0 DUP2 MSTORE PUSH1 0x20 ADD PUSH2 0x20BD DUP2 MSTORE PUSH1 0x20 ADD PUSH2 0x20DE DUP2 MSTORE PUSH1 0x20 ADD PUSH2 0x20F4 DUP2 MSTORE PUSH1 0x20 ADD PUSH2 0x20FA DUP2 MSTORE PUSH1 0x20 ADD PUSH2 0x2108 DUP2 MSTORE PUSH1 0x20 ADD PUSH2 0x210B DUP2 MSTORE PUSH1 0x20 ADD PUSH2 0x210C DUP2 MSTORE PUSH1 0x20 ADD PUSH2 0x2110 DUP2 MSTORE PUSH1 0x20 ADD PUSH2 0x2115 DUP2 MSTORE PUSH1 0x20 ADD PUSH2 0x211D DUP2 MSTORE PUSH1 0x20 ADD PUSH2 0x2123 DUP2 MSTORE PUSH1 0x20 ADD PUSH2 0x2125 DUP2 MSTORE PUSH1 0x20 ADD PUSH2 0x2130 DUP2 MSTORE PUSH1 0x20 ADD PUSH2 0x214C DUP2 MSTORE PUSH1 0x20 ADD PUSH2 0x2168 DUP2 MSTORE PUSH1 0x20 ADD PUSH2 0x2173 DUP2 MSTORE PUSH1 0x20 ADD PUSH2 0x218D DUP2 MSTORE PUSH1 0x20 ADD PUSH2 0x218E DUP2 MSTORE PUSH1 0x20 ADD PUSH2 0x2190 DUP2 MSTORE PUSH1 0x20 ADD PUSH2 0x2194 DUP2 MSTORE PUSH1 0x20 ADD PUSH2 0x2196 DUP2 MSTORE PUSH1 0x20 ADD PUSH2 0x219A DUP2 MSTORE PUSH1 0x20 ADD PUSH2 0x21C2 DUP2 MSTORE PUSH1 0x20 ADD PUSH2 0x21D2 DUP2 MSTORE PUSH1 0x20 ADD PUSH2 0x21D5 DUP2 MSTORE PUSH1 0x20 ADD PUSH2 0x2209 DUP2 MSTORE PUSH1 0x20 ADD PUSH2 0x220B DUP2 MSTORE PUSH1 0x20 ADD PUSH2 0x220D DUP2 MSTORE PUSH1 0x20 ADD PUSH2 0x220E DUP2 MSTORE PUSH1 0x20 ADD PUSH2 0x2245 DUP2 MSTORE PUSH1 0x20 ADD PUSH2 0x2255 DUP2 MSTORE PUSH1 0x20 ADD PUSH2 0x225D DUP2 MSTORE PUSH1 0x20 ADD PUSH2 0x2268 DUP2 MSTORE PUSH1 0x20 ADD PUSH2 0x226F DUP2 MSTORE PUSH1 0x20 ADD PUSH2 0x2271 DUP2 MSTORE PUSH1 0x20 ADD PUSH2 0x2286 DUP2 MSTORE PUSH1 0x20 ADD PUSH2 0x228F DUP2 MSTORE PUSH1 0x20 ADD PUSH2 0x22A3 DUP2 MSTORE PUSH1 0x20 ADD PUSH2 0x22A5 DUP2 MSTORE PUSH1 0x20 ADD PUSH2 0x22B6 DUP2 MSTORE PUSH1 0x20 ADD PUSH2 0x22BD DUP2 MSTORE PUSH1 0x20 ADD PUSH2 0x22BE DUP2 MSTORE PUSH1 0x20 ADD PUSH2 0x22E4 DUP2 MSTORE PUSH1 0x20 ADD PUSH2 0x22ED DUP2 MSTORE PUSH1 0x20 ADD PUSH2 0x22F4 DUP2 MSTORE PUSH1 0x20 ADD PUSH2 0x231C DUP2 MSTORE PUSH1 0x20 ADD PUSH2 0x232B DUP2 MSTORE PUSH1 0x20 ADD PUSH2 0x232D DUP2 MSTORE PUSH1 0x20 ADD PUSH2 0x2347 DUP2 MSTORE PUSH1 0x20 ADD PUSH2 0x234A DUP2 MSTORE PUSH1 0x20 ADD PUSH2 0x234C DUP2 MSTORE PUSH1 0x20 ADD PUSH2 0x234E DUP2 MSTORE PUSH1 0x20 ADD PUSH2 0x234F DUP2 MSTORE PUSH1 0x20 ADD PUSH2 0x2358 DUP2 MSTORE PUSH1 0x20 ADD PUSH2 0x235A DUP2 MSTORE PUSH1 0x20 ADD PUSH2 0x235C DUP2 MSTORE PUSH1 0x20 ADD PUSH2 0x235F DUP2 MSTORE PUSH1 0x20 ADD PUSH2 0x2387 DUP2 MSTORE PUSH1 0x20 ADD PUSH2 0x238E DUP2 MSTORE PUSH1 0x20 ADD PUSH2 0x2395 DUP2 MSTORE PUSH1 0x20 ADD PUSH2 0x23A9 DUP2 MSTORE PUSH1 0x20 ADD PUSH2 0x23B5 DUP2 MSTORE PUSH1 0x20 ADD PUSH2 0x23C2 DUP2 MSTORE PUSH1 0x20 ADD PUSH2 0x23C3 DUP2 MSTORE PUSH1 0x20 ADD PUSH2 0x23D5 DUP2 MSTORE PUSH1 0x20 ADD PUSH2 0x23DC DUP2 MSTORE PUSH1 0x20 ADD PUSH2 0x2408 DUP2 MSTORE PUSH1 0x20 ADD PUSH2 0x240F DUP2 MSTORE PUSH1 0x20 ADD PUSH2 0x2417 DUP2 MSTORE PUSH1 0x20 ADD PUSH2 0x241C DUP2 MSTORE PUSH1 0x20 ADD PUSH2 0x2453 DUP2 MSTORE PUSH1 0x20 ADD PUSH2 0x2476 DUP2 MSTORE PUSH1 0x20 ADD PUSH2 0x2479 DUP2 MSTORE PUSH1 0x20 ADD PUSH2 0x2495 DUP2 MSTORE PUSH1 0x20 ADD PUSH2 0x24B1 DUP2 MSTORE PUSH1 0x20 ADD PUSH2 0x24B5 DUP2 MSTORE PUSH1 0x20 ADD PUSH2 0x24B9 DUP2 MSTORE PUSH1 0x20 ADD PUSH2 0x24C1 DUP2 MSTORE PUSH1 0x20 ADD PUSH2 0x24D1 DUP2 MSTORE PUSH1 0x20 ADD PUSH2 0x24DF DUP2 MSTORE PUSH1 0x20 ADD PUSH2 0x24E7 DUP2 MSTORE PUSH1 0x20 ADD PUSH2 0x24E9 DUP2 MSTORE PUSH1 0x20 ADD PUSH2 0x24F6 DUP2 MSTORE PUSH1 0x20 ADD PUSH2 0x24FD DUP2 MSTORE PUSH1 0x20 ADD PUSH2 0x2506 DUP2 MSTORE PUSH1 0x20 ADD PUSH2 0x2515 DUP2 MSTORE PUSH1 0x20 ADD PUSH2 0x2520 DUP2 MSTORE PUSH1 0x20 ADD PUSH2 0x256D DUP2 MSTORE PUSH1 0x20 ADD PUSH2 0x2574 DUP2 MSTORE PUSH1 0x20 ADD PUSH2 0x2582 DUP2 MSTORE PUSH1 0x20 ADD PUSH2 0x258C DUP2 MSTORE PUSH1 0x20 ADD PUSH2 0x2599 DUP2 MSTORE PUSH1 0x20 ADD PUSH2 0x25A3 DUP2 MSTORE PUSH1 0x20 ADD PUSH2 0x25BA DUP2 MSTORE PUSH1 0x20 ADD PUSH2 0x25BC DUP2 MSTORE PUSH1 0x20 ADD PUSH2 0x25C3 DUP2 MSTORE PUSH1 0x20 ADD PUSH2 0x25E4 DUP2 MSTORE PUSH1 0x20 ADD PUSH2 0x25EE DUP2 MSTORE PUSH1 0x20 ADD PUSH2 0x25F5 DUP2 MSTORE PUSH1 0x20 ADD PUSH2 0x2619 DUP2 MSTORE PUSH1 0x20 ADD PUSH2 0x261B DUP2 MSTORE PUSH1 0x20 ADD PUSH2 0x2622 DUP2 MSTORE PUSH1 0x20 ADD PUSH2 0x262A DUP2 MSTORE PUSH1 0x20 ADD PUSH2 0x263F DUP2 MSTORE PUSH1 0x20 ADD PUSH2 0x265C DUP2 MSTORE PUSH1 0x20 ADD PUSH2 0x2666 DUP2 MSTORE PUSH1 0x20 ADD PUSH2 0x2697 DUP2 MSTORE PUSH1 0x20 ADD PUSH2 0x26A0 DUP2 MSTORE PUSH1 0x20 ADD PUSH2 0x26A6 DUP2 MSTORE PUSH1 0x20 ADD PUSH2 0x26E2 DUP2 MSTORE PUSH1 0x20 ADD PUSH2 0x26EF DUP2 MSTORE POP SWAP1 POP PUSH0 JUMPDEST DUP5 PUSH1 0x1 PUSH1 0x1 PUSH1 0x40 SHL SUB AND DUP2 LT ISZERO PUSH2 0x3025 JUMPI PUSH1 0x68 DUP1 SLOAD PUSH1 0xFF PUSH1 0xA0 SHL NOT AND PUSH1 0x1 PUSH1 0xA1 SHL OR SWAP1 SSTORE PUSH0 JUMPDEST PUSH2 0x287 DUP2 LT ISZERO PUSH2 0x2E1F JUMPI DUP8 DUP8 DUP4 DUP2 DUP2 LT PUSH2 0x2DBC JUMPI PUSH2 0x2DBC PUSH2 0x4B21 JUMP JUMPDEST SWAP1 POP PUSH1 0x20 MUL ADD CALLDATALOAD DUP4 DUP3 PUSH2 0x287 DUP2 LT PUSH2 0x2DD6 JUMPI PUSH2 0x2DD6 PUSH2 0x4B21 JUMP JUMPDEST PUSH1 0x20 MUL ADD MLOAD SUB PUSH2 0x2DE9 JUMPI PUSH1 0x1 SWAP4 POP PUSH2 0x2E1F JUMP JUMPDEST PUSH2 0x2DF4 PUSH1 0x1 DUP8 PUSH2 0x4A9D JUMP JUMPDEST PUSH1 0x1 PUSH1 0x1 PUSH1 0x40 SHL SUB AND DUP3 SUB PUSH2 0x2E17 JUMPI PUSH0 SWAP4 POP DUP6 PUSH1 0x1 PUSH1 0x1 PUSH1 0x40 SHL SUB AND SWAP2 POP PUSH2 0x2E1F JUMP JUMPDEST PUSH1 0x1 ADD PUSH2 0x2DA0 JUMP JUMPDEST POP DUP3 PUSH2 0x2E6D JUMPI PUSH1 0x40 MLOAD PUSH3 0x461BCD PUSH1 0xE5 SHL DUP2 MSTORE PUSH1 0x20 PUSH1 0x4 DUP3 ADD MSTORE PUSH1 0x18 PUSH1 0x24 DUP3 ADD MSTORE PUSH32 0x4E6F7420617574686F72697A656420746F6B656E732049440000000000000000 PUSH1 0x44 DUP3 ADD MSTORE PUSH1 0x64 ADD PUSH2 0x283 JUMP JUMPDEST DUP4 PUSH1 0x1 PUSH1 0x1 PUSH1 0xA0 SHL SUB AND PUSH4 0x42842E0E PUSH2 0x2E84 PUSH2 0x3C9C JUMP JUMPDEST ADDRESS DUP11 DUP11 DUP7 DUP2 DUP2 LT PUSH2 0x2E97 JUMPI PUSH2 0x2E97 PUSH2 0x4B21 JUMP JUMPDEST PUSH1 0x40 MLOAD PUSH1 0x1 PUSH1 0x1 PUSH1 0xE0 SHL SUB NOT PUSH1 0xE0 DUP9 SWAP1 SHL AND DUP2 MSTORE PUSH1 0x1 PUSH1 0x1 PUSH1 0xA0 SHL SUB SWAP6 DUP7 AND PUSH1 0x4 DUP3 ADD MSTORE SWAP5 SWAP1 SWAP4 AND PUSH1 0x24 DUP6 ADD MSTORE POP PUSH1 0x20 SWAP1 SWAP2 MUL ADD CALLDATALOAD PUSH1 0x44 DUP3 ADD MSTORE PUSH1 0x64 ADD PUSH0 PUSH1 0x40 MLOAD DUP1 DUP4 SUB DUP2 PUSH0 DUP8 DUP1 EXTCODESIZE ISZERO DUP1 ISZERO PUSH2 0x2EEB JUMPI PUSH0 DUP1 REVERT JUMPDEST POP GAS CALL ISZERO DUP1 ISZERO PUSH2 0x2EFD JUMPI RETURNDATASIZE PUSH0 DUP1 RETURNDATACOPY RETURNDATASIZE PUSH0 REVERT JUMPDEST POP POP PUSH1 0x68 DUP1 SLOAD PUSH1 0xFF PUSH1 0xA0 SHL NOT AND PUSH1 0x1 PUSH1 0xA0 SHL OR SWAP1 SSTORE POP PUSH2 0x2F1D SWAP1 POP PUSH2 0x3C9C JUMP JUMPDEST PUSH1 0x6D PUSH0 DUP10 DUP10 DUP6 DUP2 DUP2 LT PUSH2 0x2F32 JUMPI PUSH2 0x2F32 PUSH2 0x4B21 JUMP JUMPDEST SWAP1 POP PUSH1 0x20 MUL ADD CALLDATALOAD DUP2 MSTORE PUSH1 0x20 ADD SWAP1 DUP2 MSTORE PUSH1 0x20 ADD PUSH0 KECCAK256 PUSH0 PUSH2 0x100 EXP DUP2 SLOAD DUP2 PUSH1 0x1 PUSH1 0x1 PUSH1 0xA0 SHL SUB MUL NOT AND SWAP1 DUP4 PUSH1 0x1 PUSH1 0x1 PUSH1 0xA0 SHL SUB AND MUL OR SWAP1 SSTORE POP PUSH1 0x6B PUSH0 DUP9 DUP9 DUP5 DUP2 DUP2 LT PUSH2 0x2F7E JUMPI PUSH2 0x2F7E PUSH2 0x4B21 JUMP JUMPDEST PUSH1 0x20 SWAP1 DUP2 MUL SWAP3 SWAP1 SWAP3 ADD CALLDATALOAD DUP4 MSTORE POP DUP2 ADD SWAP2 SWAP1 SWAP2 MSTORE PUSH1 0x40 ADD PUSH0 KECCAK256 SLOAD PUSH1 0xFF AND PUSH2 0x3015 JUMPI PUSH1 0x1 PUSH1 0x6B PUSH0 DUP10 DUP10 DUP6 DUP2 DUP2 LT PUSH2 0x2FB5 JUMPI PUSH2 0x2FB5 PUSH2 0x4B21 JUMP JUMPDEST SWAP1 POP PUSH1 0x20 MUL ADD CALLDATALOAD DUP2 MSTORE PUSH1 0x20 ADD SWAP1 DUP2 MSTORE PUSH1 0x20 ADD PUSH0 KECCAK256 PUSH0 PUSH2 0x100 EXP DUP2 SLOAD DUP2 PUSH1 0xFF MUL NOT AND SWAP1 DUP4 ISZERO ISZERO MUL OR SWAP1 SSTORE POP PUSH1 0x69 DUP8 DUP8 DUP4 DUP2 DUP2 LT PUSH2 0x2FF3 JUMPI PUSH2 0x2FF3 PUSH2 0x4B21 JUMP JUMPDEST DUP4 SLOAD PUSH1 0x1 DUP2 ADD DUP6 SSTORE PUSH0 SWAP5 DUP6 MSTORE PUSH1 0x20 SWAP5 DUP6 SWAP1 KECCAK256 SWAP2 SWAP1 SWAP5 MUL SWAP3 SWAP1 SWAP3 ADD CALLDATALOAD SWAP2 SWAP1 SWAP3 ADD SSTORE POP JUMPDEST PUSH2 0x301E DUP2 PUSH2 0x4BCF JUMP JUMPDEST SWAP1 POP PUSH2 0x2D7A JUMP JUMPDEST POP DUP4 PUSH1 0x6C PUSH0 PUSH2 0x3032 PUSH2 0x3C9C JUMP JUMPDEST PUSH1 0x1 PUSH1 0x1 PUSH1 0xA0 SHL SUB AND DUP2 MSTORE PUSH1 0x20 DUP2 ADD SWAP2 SWAP1 SWAP2 MSTORE PUSH1 0x40 ADD PUSH0 SWAP1 DUP2 KECCAK256 DUP1 SLOAD SWAP1 SWAP2 SWAP1 PUSH2 0x3065 SWAP1 DUP5 SWAP1 PUSH1 0x1 PUSH1 0x1 PUSH1 0x40 SHL SUB AND PUSH2 0x4BE7 JUMP JUMPDEST SWAP3 POP PUSH2 0x100 EXP DUP2 SLOAD DUP2 PUSH1 0x1 PUSH1 0x1 PUSH1 0x40 SHL SUB MUL NOT AND SWAP1 DUP4 PUSH1 0x1 PUSH1 0x1 PUSH1 0x40 SHL SUB AND MUL OR SWAP1 SSTORE POP DUP6 DUP6 PUSH1 0x40 MLOAD PUSH2 0x3099 SWAP3 SWAP2 SWAP1 PUSH2 0x4C06 JUMP JUMPDEST PUSH1 0x40 MLOAD DUP1 SWAP2 SUB SWAP1 KECCAK256 PUSH2 0x30A9 PUSH2 0x3C9C JUMP JUMPDEST PUSH1 0x1 PUSH1 0x1 PUSH1 0xA0 SHL SUB AND PUSH32 0x540CD34F06460FD67AECA9D19E0A56CD3A7C1CDE8DC2263F265B68B2EF3495D2 PUSH1 0x40 MLOAD PUSH1 0x40 MLOAD DUP1 SWAP2 SUB SWAP1 LOG3 POP POP POP POP POP POP JUMP JUMPDEST PUSH1 0x1 PUSH1 0x36 SSTORE JUMP JUMPDEST PUSH0 PUSH2 0x30F6 PUSH2 0x3D78 JUMP JUMPDEST SWAP1 POP SWAP1 JUMP JUMPDEST DUP2 ISZERO PUSH2 0x3240 JUMPI PUSH20 0xEEEEEEEEEEEEEEEEEEEEEEEEEEEEEEEEEEEEEEED NOT PUSH1 0x1 PUSH1 0x1 PUSH1 0xA0 SHL SUB DUP7 AND ADD PUSH2 0x3234 JUMPI ADDRESS PUSH1 0x1 PUSH1 0x1 PUSH1 0xA0 SHL SUB DUP6 AND SUB PUSH2 0x319B JUMPI PUSH1 0x40 MLOAD PUSH4 0x2E1A7D4D PUSH1 0xE0 SHL DUP2 MSTORE PUSH1 0x4 DUP2 ADD DUP4 SWAP1 MSTORE PUSH1 0x1 PUSH1 0x1 PUSH1 0xA0 SHL SUB DUP3 AND SWAP1 PUSH4 0x2E1A7D4D SWAP1 PUSH1 0x24 ADD PUSH0 PUSH1 0x40 MLOAD DUP1 DUP4 SUB DUP2 PUSH0 DUP8 DUP1 EXTCODESIZE ISZERO DUP1 ISZERO PUSH2 0x3175 JUMPI PUSH0 DUP1 REVERT JUMPDEST POP GAS CALL ISZERO DUP1 ISZERO PUSH2 0x3187 JUMPI RETURNDATASIZE PUSH0 DUP1 RETURNDATACOPY RETURNDATASIZE PUSH0 REVERT JUMPDEST POP POP POP POP PUSH2 0x3196 DUP4 DUP4 DUP4 PUSH2 0x3DA1 JUMP JUMPDEST PUSH2 0x3240 JUMP JUMPDEST ADDRESS PUSH1 0x1 PUSH1 0x1 PUSH1 0xA0 SHL SUB DUP5 AND SUB PUSH2 0x3229 JUMPI CALLVALUE DUP3 EQ PUSH2 0x31D4 JUMPI PUSH1 0x40 MLOAD PUSH4 0x3E085F9 PUSH1 0xE0 SHL DUP2 MSTORE CALLVALUE PUSH1 0x4 DUP3 ADD MSTORE PUSH1 0x24 DUP2 ADD DUP4 SWAP1 MSTORE PUSH1 0x44 ADD PUSH2 0x283 JUMP JUMPDEST DUP1 PUSH1 0x1 PUSH1 0x1 PUSH1 0xA0 SHL SUB AND PUSH4 0xD0E30DB0 DUP4 PUSH1 0x40 MLOAD DUP3 PUSH4 0xFFFFFFFF AND PUSH1 0xE0 SHL DUP2 MSTORE PUSH1 0x4 ADD PUSH0 PUSH1 0x40 MLOAD DUP1 DUP4 SUB DUP2 DUP6 DUP9 DUP1 EXTCODESIZE ISZERO DUP1 ISZERO PUSH2 0x320D JUMPI PUSH0 DUP1 REVERT JUMPDEST POP GAS CALL ISZERO DUP1 ISZERO PUSH2 0x321F JUMPI RETURNDATASIZE PUSH0 DUP1 RETURNDATACOPY RETURNDATASIZE PUSH0 REVERT JUMPDEST POP POP POP POP POP PUSH2 0x3240 JUMP JUMPDEST PUSH2 0x3196 DUP4 DUP4 DUP4 PUSH2 0x3DA1 JUMP JUMPDEST PUSH2 0x3240 DUP6 DUP6 DUP6 DUP6 PUSH2 0x3E64 JUMP JUMPDEST POP POP POP POP POP JUMP JUMPDEST PUSH0 PUSH2 0x30F6 DUP2 PUSH2 0x586 PUSH2 0x30ED JUMP JUMPDEST DUP2 PUSH0 SUB PUSH2 0x329A JUMPI PUSH1 0x40 MLOAD PUSH3 0x461BCD PUSH1 0xE5 SHL DUP2 MSTORE PUSH1 0x20 PUSH1 0x4 DUP3 ADD MSTORE PUSH1 0x14 PUSH1 0x24 DUP3 ADD MSTORE PUSH20 0x74696D652D756E69742063616E2774206265203 PUSH1 0x64 SHL PUSH1 0x44 DUP3 ADD MSTORE PUSH1 0x64 ADD PUSH2 0x283 JUMP JUMPDEST PUSH1 0x68 DUP1 SLOAD PUSH1 0x1 PUSH1 0xA8 SHL SWAP1 DIV PUSH1 0x1 PUSH1 0x1 PUSH1 0x40 SHL SUB AND SWAP1 PUSH1 0x1 SWAP1 PUSH1 0x15 PUSH2 0x32BE DUP4 DUP6 PUSH2 0x4BE7 JUMP JUMPDEST DUP3 SLOAD PUSH1 0x1 PUSH1 0x1 PUSH1 0x40 SHL SUB SWAP2 DUP3 AND PUSH2 0x100 SWAP4 SWAP1 SWAP4 EXP SWAP3 DUP4 MUL SWAP2 SWAP1 SWAP3 MUL NOT SWAP1 SWAP2 AND OR SWAP1 SSTORE POP PUSH1 0x40 DUP1 MLOAD PUSH1 0x80 DUP2 ADD DUP3 MSTORE DUP5 DUP2 MSTORE PUSH1 0x20 DUP1 DUP3 ADD DUP6 DUP2 MSTORE TIMESTAMP DUP4 DUP6 ADD SWAP1 DUP2 MSTORE PUSH0 PUSH1 0x60 DUP6 ADD DUP2 DUP2 MSTORE DUP8 DUP3 MSTORE PUSH1 0x6E SWAP1 SWAP5 MSTORE SWAP5 SWAP1 SWAP5 KECCAK256 SWAP3 MLOAD DUP4 SSTORE MLOAD PUSH1 0x1 DUP4 ADD SSTORE SWAP2 MLOAD PUSH1 0x2 DUP3 ADD SSTORE SWAP1 MLOAD PUSH1 0x3 SWAP1 SWAP2 ADD SSTORE DUP1 ISZERO PUSH2 0x3353 JUMPI TIMESTAMP PUSH1 0x6E PUSH0 PUSH2 0x333F PUSH1 0x1 DUP6 PUSH2 0x4AFB JUMP JUMPDEST DUP2 MSTORE PUSH1 0x20 DUP2 ADD SWAP2 SWAP1 SWAP2 MSTORE PUSH1 0x40 ADD PUSH0 KECCAK256 PUSH1 0x3 ADD SSTORE JUMPDEST POP POP POP JUMP JUMPDEST PUSH0 DUP3 DUP2 MSTORE PUSH1 0x1 PUSH1 0x20 SWAP1 DUP2 MSTORE PUSH1 0x40 DUP1 DUP4 KECCAK256 PUSH1 0x1 PUSH1 0x1 PUSH1 0xA0 SHL SUB DUP6 AND DUP5 MSTORE SWAP1 SWAP2 MSTORE SWAP1 KECCAK256 SLOAD PUSH1 0xFF AND PUSH2 0x869 JUMPI PUSH1 0x40 MLOAD PUSH4 0x43C5883 PUSH1 0xE1 SHL DUP2 MSTORE PUSH1 0x1 PUSH1 0x1 PUSH1 0xA0 SHL SUB DUP3 AND PUSH1 0x4 DUP3 ADD MSTORE PUSH1 0x24 DUP2 ADD DUP4 SWAP1 MSTORE PUSH1 0x44 ADD PUSH2 0x283 JUMP JUMPDEST PUSH2 0x33B6 DUP3 DUP3 PUSH2 0x3EBC JUMP JUMPDEST PUSH2 0x869 DUP3 DUP3 PUSH2 0x3F18 JUMP JUMPDEST PUSH2 0x33CA DUP3 DUP3 PUSH2 0x3F83 JUMP JUMPDEST PUSH0 DUP3 DUP2 MSTORE PUSH1 0x3 PUSH1 0x20 SWAP1 DUP2 MSTORE PUSH1 0x40 DUP1 DUP4 KECCAK256 PUSH1 0x1 PUSH1 0x1 PUSH1 0xA0 SHL SUB DUP6 AND DUP1 DUP6 MSTORE PUSH1 0x2 DUP3 ADD DUP1 DUP6 MSTORE DUP4 DUP7 KECCAK256 DUP1 SLOAD DUP8 MSTORE PUSH1 0x1 SWAP1 SWAP4 ADD DUP6 MSTORE SWAP3 DUP6 KECCAK256 DUP1 SLOAD PUSH1 0x1 PUSH1 0x1 PUSH1 0xA0 SHL SUB NOT AND SWAP1 SSTORE DUP5 MSTORE SWAP2 MSTORE SSTORE POP POP JUMP JUMPDEST PUSH0 PUSH2 0x3427 PUSH2 0x3422 PUSH2 0x3C9C JUMP JUMPDEST PUSH2 0x3FE4 JUMP JUMPDEST PUSH1 0x6C PUSH0 PUSH2 0x3432 PUSH2 0x3C9C JUMP JUMPDEST PUSH1 0x1 PUSH1 0x1 PUSH1 0xA0 SHL SUB AND PUSH1 0x1 PUSH1 0x1 PUSH1 0xA0 SHL SUB AND DUP2 MSTORE PUSH1 0x20 ADD SWAP1 DUP2 MSTORE PUSH1 0x20 ADD PUSH0 KECCAK256 PUSH1 0x1 ADD SLOAD PUSH2 0x345F SWAP2 SWAP1 PUSH2 0x4B0E JUMP JUMPDEST SWAP1 POP DUP1 PUSH0 SUB PUSH2 0x349D JUMPI PUSH1 0x40 MLOAD PUSH3 0x461BCD PUSH1 0xE5 SHL DUP2 MSTORE PUSH1 0x20 PUSH1 0x4 DUP3 ADD MSTORE PUSH1 0xA PUSH1 0x24 DUP3 ADD MSTORE PUSH10 0x4E6F2072657761726473 PUSH1 0xB0 SHL PUSH1 0x44 DUP3 ADD MSTORE PUSH1 0x64 ADD PUSH2 0x283 JUMP JUMPDEST TIMESTAMP PUSH1 0x6C PUSH0 PUSH2 0x34A9 PUSH2 0x3C9C JUMP JUMPDEST PUSH1 0x1 PUSH1 0x1 PUSH1 0xA0 SHL SUB AND DUP2 MSTORE PUSH1 0x20 DUP2 ADD SWAP2 SWAP1 SWAP2 MSTORE PUSH1 0x40 ADD PUSH0 SWAP1 DUP2 KECCAK256 DUP1 SLOAD PUSH1 0x1 PUSH1 0x1 PUSH1 0x80 SHL SUB SWAP4 DUP5 AND PUSH1 0x1 PUSH1 0x80 SHL MUL SWAP4 AND SWAP3 SWAP1 SWAP3 OR SWAP1 SWAP2 SSTORE PUSH1 0x6C DUP2 PUSH2 0x34EA PUSH2 0x3C9C JUMP JUMPDEST PUSH1 0x1 PUSH1 0x1 PUSH1 0xA0 SHL SUB AND DUP2 MSTORE PUSH1 0x20 DUP2 ADD SWAP2 SWAP1 SWAP2 MSTORE PUSH1 0x40 ADD PUSH0 KECCAK256 PUSH1 0x1 SWAP1 DUP2 ADD SWAP2 SWAP1 SWAP2 SSTORE PUSH1 0x68 SLOAD PUSH2 0x3528 SWAP2 SWAP1 PUSH1 0x1 PUSH1 0xA8 SHL SWAP1 DIV PUSH1 0x1 PUSH1 0x1 PUSH1 0x40 SHL SUB AND PUSH2 0x4A9D JUMP JUMPDEST PUSH1 0x6C PUSH0 PUSH2 0x3533 PUSH2 0x3C9C JUMP JUMPDEST PUSH1 0x1 PUSH1 0x1 PUSH1 0xA0 SHL SUB AND DUP2 MSTORE PUSH1 0x20 DUP2 ADD SWAP2 SWAP1 SWAP2 MSTORE PUSH1 0x40 ADD PUSH0 KECCAK256 DUP1 SLOAD PUSH1 0x1 PUSH1 0x1 PUSH1 0x40 SHL SUB SWAP3 SWAP1 SWAP3 AND PUSH1 0x1 PUSH1 0x40 SHL MUL PUSH8 0xFFFFFFFFFFFFFFFF PUSH1 0x40 SHL NOT SWAP1 SWAP3 AND SWAP2 SWAP1 SWAP2 OR SWAP1 SSTORE PUSH2 0x3586 PUSH2 0x3580 PUSH2 0x3C9C JUMP JUMPDEST DUP3 PUSH2 0x416A JUMP JUMPDEST PUSH2 0x358E PUSH2 0x3C9C JUMP JUMPDEST PUSH1 0x1 PUSH1 0x1 PUSH1 0xA0 SHL SUB AND PUSH32 0xFC30CDDEA38E2BF4D6EA7D3F9ED3B6AD7F176419F4963BD81318067A4AEE73FE DUP3 PUSH1 0x40 MLOAD PUSH2 0x35C8 SWAP2 DUP2 MSTORE PUSH1 0x20 ADD SWAP1 JUMP JUMPDEST PUSH1 0x40 MLOAD DUP1 SWAP2 SUB SWAP1 LOG2 POP JUMP JUMPDEST PUSH2 0x35DB PUSH2 0x420B JUMP JUMPDEST PUSH0 JUMPDEST DUP2 MLOAD DUP2 LT ISZERO PUSH2 0x869 JUMPI PUSH1 0x1 PUSH1 0x4 PUSH0 DUP5 DUP5 DUP2 MLOAD DUP2 LT PUSH2 0x35FD JUMPI PUSH2 0x35FD PUSH2 0x4B21 JUMP JUMPDEST PUSH1 0x20 SWAP1 DUP2 MUL SWAP2 SWAP1 SWAP2 ADD DUP2 ADD MLOAD PUSH1 0x1 PUSH1 0x1 PUSH1 0xA0 SHL SUB AND DUP3 MSTORE DUP2 ADD SWAP2 SWAP1 SWAP2 MSTORE PUSH1 0x40 ADD PUSH0 KECCAK256 DUP1 SLOAD PUSH1 0xFF NOT AND SWAP2 ISZERO ISZERO SWAP2 SWAP1 SWAP2 OR SWAP1 SSTORE PUSH1 0x1 ADD PUSH2 0x35DD JUMP JUMPDEST PUSH2 0x363E PUSH2 0x420B JUMP JUMPDEST PUSH2 0x3646 PUSH2 0x4254 JUMP JUMPDEST PUSH1 0x1 PUSH1 0x1 PUSH1 0xA0 SHL SUB DUP2 AND PUSH2 0x3693 JUMPI PUSH1 0x40 MLOAD PUSH3 0x461BCD PUSH1 0xE5 SHL DUP2 MSTORE PUSH1 0x20 PUSH1 0x4 DUP3 ADD MSTORE PUSH1 0x14 PUSH1 0x24 DUP3 ADD MSTORE PUSH20 0x636F6C6C656374696F6E2061646472657373203 PUSH1 0x64 SHL PUSH1 0x44 DUP3 ADD MSTORE PUSH1 0x64 ADD PUSH2 0x283 JUMP JUMPDEST PUSH1 0x68 DUP1 SLOAD PUSH1 0x1 PUSH1 0x1 PUSH1 0xA0 SHL SUB NOT AND PUSH1 0x1 PUSH1 0x1 PUSH1 0xA0 SHL SUB SWAP3 SWAP1 SWAP3 AND SWAP2 SWAP1 SWAP2 OR SWAP1 SSTORE JUMP JUMPDEST PUSH0 DUP1 DUP1 SLOAD PUSH2 0x36C2 SWAP1 PUSH2 0x4B9D JUMP JUMPDEST DUP1 PUSH1 0x1F ADD PUSH1 0x20 DUP1 SWAP2 DIV MUL PUSH1 0x20 ADD PUSH1 0x40 MLOAD SWAP1 DUP2 ADD PUSH1 0x40 MSTORE DUP1 SWAP3 SWAP2 SWAP1 DUP2 DUP2 MSTORE PUSH1 0x20 ADD DUP3 DUP1 SLOAD PUSH2 0x36EE SWAP1 PUSH2 0x4B9D JUMP JUMPDEST DUP1 ISZERO PUSH2 0x3739 JUMPI DUP1 PUSH1 0x1F LT PUSH2 0x3710 JUMPI PUSH2 0x100 DUP1 DUP4 SLOAD DIV MUL DUP4 MSTORE SWAP2 PUSH1 0x20 ADD SWAP2 PUSH2 0x3739 JUMP JUMPDEST DUP3 ADD SWAP2 SWAP1 PUSH0 MSTORE PUSH1 0x20 PUSH0 KECCAK256 SWAP1 JUMPDEST DUP2 SLOAD DUP2 MSTORE SWAP1 PUSH1 0x1 ADD SWAP1 PUSH1 0x20 ADD DUP1 DUP4 GT PUSH2 0x371C JUMPI DUP3 SWAP1 SUB PUSH1 0x1F AND DUP3 ADD SWAP2 JUMPDEST POP POP POP POP POP SWAP1 POP DUP2 PUSH0 SWAP1 DUP2 PUSH2 0x374E SWAP2 SWAP1 PUSH2 0x4C71 JUMP JUMPDEST POP PUSH32 0xC9C7C3FE08B88B4DF9D4D47EF47D2C43D55C025A0BA88CA442580ED9E7348A16 DUP2 DUP4 PUSH1 0x40 MLOAD PUSH2 0xBEF SWAP3 SWAP2 SWAP1 PUSH2 0x4D2B JUMP JUMPDEST PUSH0 PUSH1 0x6C PUSH0 PUSH2 0x378C PUSH2 0x3C9C JUMP JUMPDEST PUSH1 0x1 PUSH1 0x1 PUSH1 0xA0 SHL SUB AND DUP2 MSTORE PUSH1 0x20 DUP2 ADD SWAP2 SWAP1 SWAP2 MSTORE PUSH1 0x40 ADD PUSH0 SWAP1 DUP2 KECCAK256 SLOAD PUSH1 0x1 PUSH1 0x1 PUSH1 0x40 SHL SUB SWAP1 DUP2 AND SWAP3 POP DUP4 SWAP2 SWAP1 DUP3 AND SWAP1 SUB PUSH2 0x37FE JUMPI PUSH1 0x40 MLOAD PUSH3 0x461BCD PUSH1 0xE5 SHL DUP2 MSTORE PUSH1 0x20 PUSH1 0x4 DUP3 ADD MSTORE PUSH1 0x14 PUSH1 0x24 DUP3 ADD MSTORE PUSH20 0x5769746864726177696E67203020746F6B656E73 PUSH1 0x60 SHL PUSH1 0x44 DUP3 ADD MSTORE PUSH1 0x64 ADD PUSH2 0x283 JUMP JUMPDEST DUP1 PUSH1 0x1 PUSH1 0x1 PUSH1 0x40 SHL SUB AND DUP3 LT ISZERO PUSH2 0x3857 JUMPI PUSH1 0x40 MLOAD PUSH3 0x461BCD PUSH1 0xE5 SHL DUP2 MSTORE PUSH1 0x20 PUSH1 0x4 DUP3 ADD MSTORE PUSH1 0x1C PUSH1 0x24 DUP3 ADD MSTORE PUSH32 0x5769746864726177696E67206D6F7265207468616E207374616B656400000000 PUSH1 0x44 DUP3 ADD MSTORE PUSH1 0x64 ADD PUSH2 0x283 JUMP JUMPDEST PUSH1 0x68 SLOAD PUSH1 0x1 PUSH1 0x1 PUSH1 0xA0 SHL SUB AND PUSH2 0x386E PUSH2 0x184F PUSH2 0x3C9C JUMP JUMPDEST DUP2 PUSH1 0x1 PUSH1 0x1 PUSH1 0x40 SHL SUB AND DUP4 SUB PUSH2 0x39C4 JUMPI PUSH0 PUSH1 0x6A DUP1 SLOAD DUP1 PUSH1 0x20 MUL PUSH1 0x20 ADD PUSH1 0x40 MLOAD SWAP1 DUP2 ADD PUSH1 0x40 MSTORE DUP1 SWAP3 SWAP2 SWAP1 DUP2 DUP2 MSTORE PUSH1 0x20 ADD DUP3 DUP1 SLOAD DUP1 ISZERO PUSH2 0x38D3 JUMPI PUSH1 0x20 MUL DUP3 ADD SWAP2 SWAP1 PUSH0 MSTORE PUSH1 0x20 PUSH0 KECCAK256 SWAP1 JUMPDEST DUP2 SLOAD PUSH1 0x1 PUSH1 0x1 PUSH1 0xA0 SHL SUB AND DUP2 MSTORE PUSH1 0x1 SWAP1 SWAP2 ADD SWAP1 PUSH1 0x20 ADD DUP1 DUP4 GT PUSH2 0x38B5 JUMPI JUMPDEST POP POP POP POP POP SWAP1 POP PUSH0 JUMPDEST DUP2 MLOAD DUP2 LT ISZERO PUSH2 0x39C1 JUMPI PUSH2 0x38ED PUSH2 0x3C9C JUMP JUMPDEST PUSH1 0x1 PUSH1 0x1 PUSH1 0xA0 SHL SUB AND DUP3 DUP3 DUP2 MLOAD DUP2 LT PUSH2 0x3908 JUMPI PUSH2 0x3908 PUSH2 0x4B21 JUMP JUMPDEST PUSH1 0x20 MUL PUSH1 0x20 ADD ADD MLOAD PUSH1 0x1 PUSH1 0x1 PUSH1 0xA0 SHL SUB AND SUB PUSH2 0x39B9 JUMPI DUP2 PUSH1 0x1 DUP4 MLOAD PUSH2 0x392D SWAP2 SWAP1 PUSH2 0x4AFB JUMP JUMPDEST DUP2 MLOAD DUP2 LT PUSH2 0x393D JUMPI PUSH2 0x393D PUSH2 0x4B21 JUMP JUMPDEST PUSH1 0x20 MUL PUSH1 0x20 ADD ADD MLOAD PUSH1 0x6A DUP3 DUP2 SLOAD DUP2 LT PUSH2 0x3958 JUMPI PUSH2 0x3958 PUSH2 0x4B21 JUMP JUMPDEST SWAP1 PUSH0 MSTORE PUSH1 0x20 PUSH0 KECCAK256 ADD PUSH0 PUSH2 0x100 EXP DUP2 SLOAD DUP2 PUSH1 0x1 PUSH1 0x1 PUSH1 0xA0 SHL SUB MUL NOT AND SWAP1 DUP4 PUSH1 0x1 PUSH1 0x1 PUSH1 0xA0 SHL SUB AND MUL OR SWAP1 SSTORE POP PUSH1 0x6A DUP1 SLOAD DUP1 PUSH2 0x3994 JUMPI PUSH2 0x3994 PUSH2 0x4D58 JUMP JUMPDEST PUSH0 DUP3 DUP2 MSTORE PUSH1 0x20 SWAP1 KECCAK256 DUP2 ADD PUSH0 NOT SWAP1 DUP2 ADD DUP1 SLOAD PUSH1 0x1 PUSH1 0x1 PUSH1 0xA0 SHL SUB NOT AND SWAP1 SSTORE ADD SWAP1 SSTORE PUSH2 0x39C1 JUMP JUMPDEST PUSH1 0x1 ADD PUSH2 0x38DC JUMP JUMPDEST POP POP JUMPDEST DUP2 PUSH1 0x6C PUSH0 PUSH2 0x39D0 PUSH2 0x3C9C JUMP JUMPDEST PUSH1 0x1 PUSH1 0x1 PUSH1 0xA0 SHL SUB AND DUP2 MSTORE PUSH1 0x20 DUP2 ADD SWAP2 SWAP1 SWAP2 MSTORE PUSH1 0x40 ADD PUSH0 SWAP1 DUP2 KECCAK256 DUP1 SLOAD SWAP1 SWAP2 SWAP1 PUSH2 0x3A03 SWAP1 DUP5 SWAP1 PUSH1 0x1 PUSH1 0x1 PUSH1 0x40 SHL SUB AND PUSH2 0x4A9D JUMP JUMPDEST SWAP3 POP PUSH2 0x100 EXP DUP2 SLOAD DUP2 PUSH1 0x1 PUSH1 0x1 PUSH1 0x40 SHL SUB MUL NOT AND SWAP1 DUP4 PUSH1 0x1 PUSH1 0x1 PUSH1 0x40 SHL SUB AND MUL OR SWAP1 SSTORE POP PUSH0 JUMPDEST DUP3 PUSH1 0x1 PUSH1 0x1 PUSH1 0x40 SHL SUB AND DUP2 LT ISZERO PUSH2 0x3B9B JUMPI PUSH2 0x3A42 PUSH2 0x3C9C JUMP JUMPDEST PUSH1 0x1 PUSH1 0x1 PUSH1 0xA0 SHL SUB AND PUSH1 0x6D PUSH0 DUP9 DUP9 DUP6 DUP2 DUP2 LT PUSH2 0x3A60 JUMPI PUSH2 0x3A60 PUSH2 0x4B21 JUMP JUMPDEST PUSH1 0x20 SWAP1 DUP2 MUL SWAP3 SWAP1 SWAP3 ADD CALLDATALOAD DUP4 MSTORE POP DUP2 ADD SWAP2 SWAP1 SWAP2 MSTORE PUSH1 0x40 ADD PUSH0 KECCAK256 SLOAD PUSH1 0x1 PUSH1 0x1 PUSH1 0xA0 SHL SUB AND EQ PUSH2 0x3ABC JUMPI PUSH1 0x40 MLOAD PUSH3 0x461BCD PUSH1 0xE5 SHL DUP2 MSTORE PUSH1 0x20 PUSH1 0x4 DUP3 ADD MSTORE PUSH1 0xA PUSH1 0x24 DUP3 ADD MSTORE PUSH10 0x2737BA1039BA30B5B2B9 PUSH1 0xB1 SHL PUSH1 0x44 DUP3 ADD MSTORE PUSH1 0x64 ADD PUSH2 0x283 JUMP JUMPDEST PUSH0 PUSH1 0x6D PUSH0 DUP9 DUP9 DUP6 DUP2 DUP2 LT PUSH2 0x3AD2 JUMPI PUSH2 0x3AD2 PUSH2 0x4B21 JUMP JUMPDEST PUSH1 0x20 SWAP1 DUP2 MUL SWAP3 SWAP1 SWAP3 ADD CALLDATALOAD DUP4 MSTORE POP DUP2 ADD SWAP2 SWAP1 SWAP2 MSTORE PUSH1 0x40 ADD PUSH0 KECCAK256 DUP1 SLOAD PUSH1 0x1 PUSH1 0x1 PUSH1 0xA0 SHL SUB NOT AND PUSH1 0x1 PUSH1 0x1 PUSH1 0xA0 SHL SUB SWAP3 DUP4 AND OR SWAP1 SSTORE DUP3 AND PUSH4 0x42842E0E ADDRESS PUSH2 0x3B14 PUSH2 0x3C9C JUMP JUMPDEST DUP10 DUP10 DUP7 DUP2 DUP2 LT PUSH2 0x3B26 JUMPI PUSH2 0x3B26 PUSH2 0x4B21 JUMP JUMPDEST PUSH1 0x40 MLOAD PUSH1 0x1 PUSH1 0x1 PUSH1 0xE0 SHL SUB NOT PUSH1 0xE0 DUP9 SWAP1 SHL AND DUP2 MSTORE PUSH1 0x1 PUSH1 0x1 PUSH1 0xA0 SHL SUB SWAP6 DUP7 AND PUSH1 0x4 DUP3 ADD MSTORE SWAP5 SWAP1 SWAP4 AND PUSH1 0x24 DUP6 ADD MSTORE POP PUSH1 0x20 SWAP1 SWAP2 MUL ADD CALLDATALOAD PUSH1 0x44 DUP3 ADD MSTORE PUSH1 0x64 ADD PUSH0 PUSH1 0x40 MLOAD DUP1 DUP4 SUB DUP2 PUSH0 DUP8 DUP1 EXTCODESIZE ISZERO DUP1 ISZERO PUSH2 0x3B7A JUMPI PUSH0 DUP1 REVERT JUMPDEST POP GAS CALL ISZERO DUP1 ISZERO PUSH2 0x3B8C JUMPI RETURNDATASIZE PUSH0 DUP1 RETURNDATACOPY RETURNDATASIZE PUSH0 REVERT JUMPDEST POP POP POP POP DUP1 PUSH1 0x1 ADD SWAP1 POP PUSH2 0x3A29 JUMP JUMPDEST POP DUP5 DUP5 PUSH1 0x40 MLOAD PUSH2 0x3BAC SWAP3 SWAP2 SWAP1 PUSH2 0x4C06 JUMP JUMPDEST PUSH1 0x40 MLOAD DUP1 SWAP2 SUB SWAP1 KECCAK256 PUSH2 0x3BBC PUSH2 0x3C9C JUMP JUMPDEST PUSH1 0x1 PUSH1 0x1 PUSH1 0xA0 SHL SUB AND PUSH32 0x9BA0AE49142860D7EEC1F3CE54722D70B60910FACBE018CCCB1099E4E84755C PUSH1 0x40 MLOAD PUSH1 0x40 MLOAD DUP1 SWAP2 SUB SWAP1 LOG3 POP POP POP POP POP JUMP JUMPDEST PUSH1 0x60 PUSH2 0x3C1D DUP4 DUP4 PUSH1 0x40 MLOAD DUP1 PUSH1 0x60 ADD PUSH1 0x40 MSTORE DUP1 PUSH1 0x27 DUP2 MSTORE PUSH1 0x20 ADD PUSH2 0x4DEC PUSH1 0x27 SWAP2 CODECOPY PUSH2 0x4264 JUMP JUMPDEST SWAP4 SWAP3 POP POP POP JUMP JUMPDEST PUSH1 0x1 PUSH1 0x1 PUSH1 0xA0 SHL SUB DUP2 AND PUSH0 SWAP1 DUP2 MSTORE PUSH1 0x6C PUSH1 0x20 MSTORE PUSH1 0x40 DUP2 KECCAK256 SLOAD PUSH1 0x1 PUSH1 0x1 PUSH1 0x40 SHL SUB AND DUP2 SUB PUSH2 0x3C69 JUMPI POP PUSH1 0x1 PUSH1 0x1 PUSH1 0xA0 SHL SUB AND PUSH0 SWAP1 DUP2 MSTORE PUSH1 0x6C PUSH1 0x20 MSTORE PUSH1 0x40 SWAP1 KECCAK256 PUSH1 0x1 ADD SLOAD SWAP1 JUMP JUMPDEST PUSH2 0x3C72 DUP3 PUSH2 0x3FE4 JUMP JUMPDEST PUSH1 0x1 PUSH1 0x1 PUSH1 0xA0 SHL SUB DUP4 AND PUSH0 SWAP1 DUP2 MSTORE PUSH1 0x6C PUSH1 0x20 MSTORE PUSH1 0x40 SWAP1 KECCAK256 PUSH1 0x1 ADD SLOAD PUSH2 0x802 SWAP2 SWAP1 PUSH2 0x4B0E JUMP JUMPDEST SWAP2 SWAP1 POP JUMP JUMPDEST PUSH0 PUSH2 0x30F6 PUSH2 0x30ED JUMP JUMPDEST PUSH0 PUSH2 0x3CAF DUP3 PUSH2 0x3FE4 JUMP JUMPDEST PUSH1 0x1 PUSH1 0x1 PUSH1 0xA0 SHL SUB DUP4 AND PUSH0 SWAP1 DUP2 MSTORE PUSH1 0x6C PUSH1 0x20 MSTORE PUSH1 0x40 DUP2 KECCAK256 PUSH1 0x1 ADD DUP1 SLOAD SWAP3 SWAP4 POP DUP4 SWAP3 SWAP1 SWAP2 SWAP1 PUSH2 0x3CDE SWAP1 DUP5 SWAP1 PUSH2 0x4B0E JUMP JUMPDEST SWAP1 SWAP2 SSTORE POP POP PUSH1 0x1 PUSH1 0x1 PUSH1 0xA0 SHL SUB DUP3 AND PUSH0 SWAP1 DUP2 MSTORE PUSH1 0x6C PUSH1 0x20 MSTORE PUSH1 0x40 SWAP1 KECCAK256 DUP1 SLOAD PUSH1 0x1 PUSH1 0x1 PUSH1 0x80 SHL SUB TIMESTAMP DUP2 AND PUSH1 0x1 PUSH1 0x80 SHL MUL SWAP2 AND OR SWAP1 SSTORE PUSH1 0x68 SLOAD PUSH2 0x3D32 SWAP1 PUSH1 0x1 SWAP1 PUSH1 0x1 PUSH1 0x1 PUSH1 0x40 SHL SUB PUSH1 0x1 PUSH1 0xA8 SHL SWAP1 SWAP2 DIV AND PUSH2 0x4A9D JUMP JUMPDEST PUSH1 0x1 PUSH1 0x1 PUSH1 0xA0 SHL SUB SWAP1 SWAP3 AND PUSH0 SWAP1 DUP2 MSTORE PUSH1 0x6C PUSH1 0x20 MSTORE PUSH1 0x40 SWAP1 KECCAK256 DUP1 SLOAD PUSH1 0x1 PUSH1 0x1 PUSH1 0x40 SHL SUB SWAP4 SWAP1 SWAP4 AND PUSH1 0x1 PUSH1 0x40 SHL MUL PUSH8 0xFFFFFFFFFFFFFFFF PUSH1 0x40 SHL NOT SWAP1 SWAP4 AND SWAP3 SWAP1 SWAP3 OR SWAP1 SWAP2 SSTORE POP JUMP JUMPDEST CALLER PUSH0 SWAP1 DUP2 MSTORE PUSH1 0x4 PUSH1 0x20 MSTORE PUSH1 0x40 DUP2 KECCAK256 SLOAD PUSH1 0xFF AND ISZERO PUSH2 0x3D9C JUMPI POP PUSH1 0x13 NOT CALLDATASIZE ADD CALLDATALOAD PUSH1 0x60 SHR SWAP1 JUMP JUMPDEST POP CALLER SWAP1 JUMP JUMPDEST PUSH0 DUP4 PUSH1 0x1 PUSH1 0x1 PUSH1 0xA0 SHL SUB AND DUP4 PUSH1 0x40 MLOAD PUSH0 PUSH1 0x40 MLOAD DUP1 DUP4 SUB DUP2 DUP6 DUP8 GAS CALL SWAP3 POP POP POP RETURNDATASIZE DUP1 PUSH0 DUP2 EQ PUSH2 0x3DEA JUMPI PUSH1 0x40 MLOAD SWAP2 POP PUSH1 0x1F NOT PUSH1 0x3F RETURNDATASIZE ADD AND DUP3 ADD PUSH1 0x40 MSTORE RETURNDATASIZE DUP3 MSTORE RETURNDATASIZE PUSH0 PUSH1 0x20 DUP5 ADD RETURNDATACOPY PUSH2 0x3DEF JUMP JUMPDEST PUSH1 0x60 SWAP2 POP JUMPDEST POP POP SWAP1 POP DUP1 PUSH2 0x3E5E JUMPI DUP2 PUSH1 0x1 PUSH1 0x1 PUSH1 0xA0 SHL SUB AND PUSH4 0xD0E30DB0 DUP5 PUSH1 0x40 MLOAD DUP3 PUSH4 0xFFFFFFFF AND PUSH1 0xE0 SHL DUP2 MSTORE PUSH1 0x4 ADD PUSH0 PUSH1 0x40 MLOAD DUP1 DUP4 SUB DUP2 DUP6 DUP9 DUP1 EXTCODESIZE ISZERO DUP1 ISZERO PUSH2 0x3E31 JUMPI PUSH0 DUP1 REVERT JUMPDEST POP GAS CALL ISZERO DUP1 ISZERO PUSH2 0x3E43 JUMPI RETURNDATASIZE PUSH0 DUP1 RETURNDATACOPY RETURNDATASIZE PUSH0 REVERT JUMPDEST POP PUSH2 0x3E5E SWAP4 POP POP POP PUSH1 0x1 PUSH1 0x1 PUSH1 0xA0 SHL SUB DUP5 AND SWAP1 POP DUP6 DUP6 PUSH2 0x42D8 JUMP JUMPDEST POP POP POP POP JUMP JUMPDEST DUP2 PUSH1 0x1 PUSH1 0x1 PUSH1 0xA0 SHL SUB AND DUP4 PUSH1 0x1 PUSH1 0x1 PUSH1 0xA0 SHL SUB AND SUB ISZERO PUSH2 0x3E5E JUMPI ADDRESS PUSH1 0x1 PUSH1 0x1 PUSH1 0xA0 SHL SUB DUP5 AND SUB PUSH2 0x3EA7 JUMPI PUSH2 0x3EA2 PUSH1 0x1 PUSH1 0x1 PUSH1 0xA0 SHL SUB DUP6 AND DUP4 DUP4 PUSH2 0x42D8 JUMP JUMPDEST PUSH2 0x3E5E JUMP JUMPDEST PUSH2 0x3E5E PUSH1 0x1 PUSH1 0x1 PUSH1 0xA0 SHL SUB DUP6 AND DUP5 DUP5 DUP5 PUSH2 0x433B JUMP JUMPDEST PUSH0 DUP3 DUP2 MSTORE PUSH1 0x1 PUSH1 0x20 DUP2 DUP2 MSTORE PUSH1 0x40 DUP1 DUP5 KECCAK256 PUSH1 0x1 PUSH1 0x1 PUSH1 0xA0 SHL SUB DUP7 AND DUP1 DUP7 MSTORE SWAP3 MSTORE DUP1 DUP5 KECCAK256 DUP1 SLOAD PUSH1 0xFF NOT AND SWAP1 SWAP4 OR SWAP1 SWAP3 SSTORE SWAP1 MLOAD CALLER SWAP3 DUP6 SWAP2 PUSH32 0x2F8788117E7EFF1D82E926EC794901D17C78024A50270940304540A733656F0D SWAP2 SWAP1 LOG4 POP POP JUMP JUMPDEST PUSH0 DUP3 DUP2 MSTORE PUSH1 0x3 PUSH1 0x20 MSTORE PUSH1 0x40 DUP2 KECCAK256 DUP1 SLOAD SWAP2 PUSH1 0x1 SWAP2 SWAP1 PUSH2 0x3F36 DUP4 DUP6 PUSH2 0x4B0E JUMP JUMPDEST SWAP1 SWAP2 SSTORE POP POP PUSH0 SWAP3 DUP4 MSTORE PUSH1 0x3 PUSH1 0x20 SWAP1 DUP2 MSTORE PUSH1 0x40 DUP1 DUP6 KECCAK256 DUP4 DUP7 MSTORE PUSH1 0x1 DUP2 ADD DUP4 MSTORE DUP2 DUP7 KECCAK256 DUP1 SLOAD PUSH1 0x1 PUSH1 0x1 PUSH1 0xA0 SHL SUB SWAP1 SWAP7 AND PUSH1 0x1 PUSH1 0x1 PUSH1 0xA0 SHL SUB NOT SWAP1 SWAP7 AND DUP7 OR SWAP1 SSTORE SWAP4 DUP6 MSTORE PUSH1 0x2 SWAP1 SWAP4 ADD SWAP1 MSTORE SWAP2 KECCAK256 SSTORE JUMP JUMPDEST PUSH2 0x3F8D DUP3 DUP3 PUSH2 0x3358 JUMP JUMPDEST PUSH0 DUP3 DUP2 MSTORE PUSH1 0x1 PUSH1 0x20 SWAP1 DUP2 MSTORE PUSH1 0x40 DUP1 DUP4 KECCAK256 PUSH1 0x1 PUSH1 0x1 PUSH1 0xA0 SHL SUB DUP6 AND DUP1 DUP6 MSTORE SWAP3 MSTORE DUP1 DUP4 KECCAK256 DUP1 SLOAD PUSH1 0xFF NOT AND SWAP1 SSTORE MLOAD CALLER SWAP3 DUP6 SWAP2 PUSH32 0xF6391F5C32D9C69D2A47EA670B442974B53935D1EDC7FD64EB21E047A839171B SWAP2 SWAP1 LOG4 POP POP JUMP JUMPDEST PUSH1 0x1 PUSH1 0x1 PUSH1 0xA0 SHL SUB DUP2 AND PUSH0 SWAP1 DUP2 MSTORE PUSH1 0x6C PUSH1 0x20 SWAP1 DUP2 MSTORE PUSH1 0x40 DUP1 DUP4 KECCAK256 DUP2 MLOAD PUSH1 0x80 DUP2 ADD DUP4 MSTORE DUP2 SLOAD PUSH1 0x1 PUSH1 0x1 PUSH1 0x40 SHL SUB DUP1 DUP3 AND DUP4 MSTORE PUSH1 0x1 PUSH1 0x40 SHL DUP3 DIV DUP2 AND SWAP6 DUP4 ADD DUP7 SWAP1 MSTORE PUSH1 0x1 PUSH1 0x80 SHL SWAP1 SWAP2 DIV PUSH1 0x1 PUSH1 0x1 PUSH1 0x80 SHL SUB AND SWAP4 DUP3 ADD SWAP4 SWAP1 SWAP4 MSTORE PUSH1 0x1 SWAP1 SWAP2 ADD SLOAD PUSH1 0x60 DUP3 ADD MSTORE PUSH1 0x68 SLOAD SWAP1 SWAP3 SWAP2 PUSH1 0x1 PUSH1 0xA8 SHL SWAP1 SWAP2 DIV AND DUP2 JUMPDEST DUP2 DUP2 LT ISZERO PUSH2 0x4161 JUMPI PUSH0 DUP2 DUP2 MSTORE PUSH1 0x6E PUSH1 0x20 SWAP1 DUP2 MSTORE PUSH1 0x40 DUP1 DUP4 KECCAK256 DUP2 MLOAD PUSH1 0x80 DUP2 ADD DUP4 MSTORE DUP2 SLOAD DUP2 MSTORE PUSH1 0x1 DUP3 ADD SLOAD SWAP4 DUP2 ADD SWAP4 SWAP1 SWAP4 MSTORE PUSH1 0x2 DUP2 ADD SLOAD SWAP2 DUP4 ADD SWAP2 SWAP1 SWAP2 MSTORE PUSH1 0x3 ADD SLOAD PUSH1 0x60 DUP3 ADD MSTORE SWAP1 DUP5 DUP4 SUB PUSH2 0x40B8 JUMPI DUP6 PUSH1 0x40 ADD MLOAD PUSH1 0x1 PUSH1 0x1 PUSH1 0x80 SHL SUB AND PUSH2 0x40BE JUMP JUMPDEST DUP2 PUSH1 0x40 ADD MLOAD JUMPDEST SWAP1 POP PUSH0 DUP3 PUSH1 0x60 ADD MLOAD PUSH0 SUB PUSH2 0x40D2 JUMPI TIMESTAMP PUSH2 0x40D8 JUMP JUMPDEST DUP3 PUSH1 0x60 ADD MLOAD JUMPDEST SWAP1 POP PUSH0 DUP1 PUSH2 0x410C DUP10 PUSH0 ADD MLOAD PUSH1 0x1 PUSH1 0x1 PUSH1 0x40 SHL SUB AND DUP6 DUP6 PUSH2 0x40F8 SWAP2 SWAP1 PUSH2 0x4AFB JUMP JUMPDEST PUSH2 0x4102 SWAP2 SWAP1 PUSH2 0x4D6C JUMP JUMPDEST DUP7 PUSH1 0x20 ADD MLOAD PUSH2 0x4373 JUMP JUMPDEST SWAP2 POP SWAP2 POP PUSH0 DUP1 PUSH2 0x412A DUP13 DUP9 PUSH0 ADD MLOAD DUP6 PUSH2 0x4125 SWAP2 SWAP1 PUSH2 0x4D97 JUMP JUMPDEST PUSH2 0x43BA JUMP JUMPDEST SWAP2 POP SWAP2 POP DUP4 DUP1 ISZERO PUSH2 0x4138 JUMPI POP DUP2 JUMPDEST PUSH2 0x4142 JUMPI DUP12 PUSH2 0x4144 JUMP JUMPDEST DUP1 JUMPDEST SWAP12 POP POP POP POP POP POP POP POP PUSH1 0x1 DUP2 PUSH2 0x415A SWAP2 SWAP1 PUSH2 0x4B0E JUMP JUMPDEST SWAP1 POP PUSH2 0x4058 JUMP JUMPDEST POP POP POP POP SWAP2 SWAP1 POP JUMP JUMPDEST PUSH1 0x70 SLOAD DUP2 GT ISZERO PUSH2 0x41BC JUMPI PUSH1 0x40 MLOAD PUSH3 0x461BCD PUSH1 0xE5 SHL DUP2 MSTORE PUSH1 0x20 PUSH1 0x4 DUP3 ADD MSTORE PUSH1 0x18 PUSH1 0x24 DUP3 ADD MSTORE PUSH32 0x4E6F7420656E6F7567682072657761726420746F6B656E730000000000000000 PUSH1 0x44 DUP3 ADD MSTORE PUSH1 0x64 ADD PUSH2 0x283 JUMP JUMPDEST DUP1 PUSH1 0x70 PUSH0 DUP3 DUP3 SLOAD PUSH2 0x41CD SWAP2 SWAP1 PUSH2 0x4AFB JUMP JUMPDEST SWAP1 SWAP2 SSTORE POP POP PUSH1 0x6F SLOAD PUSH2 0x869 SWAP1 PUSH1 0x1 PUSH1 0x1 PUSH1 0xA0 SHL SUB AND ADDRESS DUP5 DUP5 PUSH32 0x0 PUSH2 0x30FB JUMP JUMPDEST PUSH32 0xF0C57E16840DF040F15088DC2F81FE391C3923BEC73E23A9662EFC9C229C6A00 SLOAD PUSH1 0x1 PUSH1 0x40 SHL SWAP1 DIV PUSH1 0xFF AND PUSH2 0xCD0 JUMPI PUSH1 0x40 MLOAD PUSH4 0x1AFCD79F PUSH1 0xE3 SHL DUP2 MSTORE PUSH1 0x4 ADD PUSH1 0x40 MLOAD DUP1 SWAP2 SUB SWAP1 REVERT JUMPDEST PUSH2 0x425C PUSH2 0x420B JUMP JUMPDEST PUSH2 0xCD0 PUSH2 0x43D3 JUMP JUMPDEST PUSH1 0x60 PUSH0 DUP1 DUP6 PUSH1 0x1 PUSH1 0x1 PUSH1 0xA0 SHL SUB AND DUP6 PUSH1 0x40 MLOAD PUSH2 0x4280 SWAP2 SWAP1 PUSH2 0x4DB6 JUMP JUMPDEST PUSH0 PUSH1 0x40 MLOAD DUP1 DUP4 SUB DUP2 DUP6 GAS DELEGATECALL SWAP2 POP POP RETURNDATASIZE DUP1 PUSH0 DUP2 EQ PUSH2 0x42B8 JUMPI PUSH1 0x40 MLOAD SWAP2 POP PUSH1 0x1F NOT PUSH1 0x3F RETURNDATASIZE ADD AND DUP3 ADD PUSH1 0x40 MSTORE RETURNDATASIZE DUP3 MSTORE RETURNDATASIZE PUSH0 PUSH1 0x20 DUP5 ADD RETURNDATACOPY PUSH2 0x42BD JUMP JUMPDEST PUSH1 0x60 SWAP2 POP JUMPDEST POP SWAP2 POP SWAP2 POP PUSH2 0x42CE DUP7 DUP4 DUP4 DUP8 PUSH2 0x43DB JUMP JUMPDEST SWAP7 SWAP6 POP POP POP POP POP POP JUMP JUMPDEST PUSH1 0x40 MLOAD PUSH1 0x1 PUSH1 0x1 PUSH1 0xA0 SHL SUB DUP4 AND PUSH1 0x24 DUP3 ADD MSTORE PUSH1 0x44 DUP2 ADD DUP3 SWAP1 MSTORE PUSH2 0x3353 SWAP1 DUP5 SWAP1 PUSH4 0xA9059CBB PUSH1 0xE0 SHL SWAP1 PUSH1 0x64 ADD JUMPDEST PUSH1 0x40 DUP1 MLOAD PUSH1 0x1F NOT DUP2 DUP5 SUB ADD DUP2 MSTORE SWAP2 SWAP1 MSTORE PUSH1 0x20 DUP2 ADD DUP1 MLOAD PUSH1 0x1 PUSH1 0x1 PUSH1 0xE0 SHL SUB AND PUSH1 0x1 PUSH1 0x1 PUSH1 0xE0 SHL SUB NOT SWAP1 SWAP4 AND SWAP3 SWAP1 SWAP3 OR SWAP1 SWAP2 MSTORE PUSH2 0x445B JUMP JUMPDEST PUSH1 0x40 MLOAD PUSH1 0x1 PUSH1 0x1 PUSH1 0xA0 SHL SUB DUP1 DUP6 AND PUSH1 0x24 DUP4 ADD MSTORE DUP4 AND PUSH1 0x44 DUP3 ADD MSTORE PUSH1 0x64 DUP2 ADD DUP3 SWAP1 MSTORE PUSH2 0x3E5E SWAP1 DUP6 SWAP1 PUSH4 0x23B872DD PUSH1 0xE0 SHL SWAP1 PUSH1 0x84 ADD PUSH2 0x4304 JUMP JUMPDEST PUSH0 DUP1 DUP4 PUSH0 SUB PUSH2 0x4387 JUMPI POP PUSH1 0x1 SWAP1 POP PUSH0 PUSH2 0x43B3 JUMP JUMPDEST DUP4 DUP4 MUL DUP4 DUP6 DUP3 DUP2 PUSH2 0x439A JUMPI PUSH2 0x439A PUSH2 0x4D83 JUMP JUMPDEST DIV EQ PUSH2 0x43AC JUMPI PUSH0 DUP1 SWAP3 POP SWAP3 POP POP PUSH2 0x43B3 JUMP JUMPDEST PUSH1 0x1 SWAP3 POP SWAP1 POP JUMPDEST SWAP3 POP SWAP3 SWAP1 POP JUMP JUMPDEST PUSH0 DUP1 DUP4 DUP4 ADD DUP5 DUP2 LT ISZERO PUSH2 0x43AC JUMPI PUSH0 DUP1 SWAP3 POP SWAP3 POP POP PUSH2 0x43B3 JUMP JUMPDEST PUSH2 0x30E6 PUSH2 0x420B JUMP JUMPDEST PUSH1 0x60 DUP4 ISZERO PUSH2 0x4449 JUMPI DUP3 MLOAD PUSH0 SUB PUSH2 0x4442 JUMPI PUSH1 0x1 PUSH1 0x1 PUSH1 0xA0 SHL SUB DUP6 AND EXTCODESIZE PUSH2 0x4442 JUMPI PUSH1 0x40 MLOAD PUSH3 0x461BCD PUSH1 0xE5 SHL DUP2 MSTORE PUSH1 0x20 PUSH1 0x4 DUP3 ADD MSTORE PUSH1 0x1D PUSH1 0x24 DUP3 ADD MSTORE PUSH32 0x416464726573733A2063616C6C20746F206E6F6E2D636F6E7472616374000000 PUSH1 0x44 DUP3 ADD MSTORE PUSH1 0x64 ADD PUSH2 0x283 JUMP JUMPDEST POP DUP2 PUSH2 0x4453 JUMP JUMPDEST PUSH2 0x4453 DUP4 DUP4 PUSH2 0x452C JUMP JUMPDEST SWAP5 SWAP4 POP POP POP POP JUMP JUMPDEST PUSH0 PUSH2 0x44AF DUP3 PUSH1 0x40 MLOAD DUP1 PUSH1 0x40 ADD PUSH1 0x40 MSTORE DUP1 PUSH1 0x20 DUP2 MSTORE PUSH1 0x20 ADD PUSH32 0x5361666545524332303A206C6F772D6C6576656C2063616C6C206661696C6564 DUP2 MSTORE POP DUP6 PUSH1 0x1 PUSH1 0x1 PUSH1 0xA0 SHL SUB AND PUSH2 0x4556 SWAP1 SWAP3 SWAP2 SWAP1 PUSH4 0xFFFFFFFF AND JUMP JUMPDEST DUP1 MLOAD SWAP1 SWAP2 POP ISZERO PUSH2 0x3353 JUMPI DUP1 DUP1 PUSH1 0x20 ADD SWAP1 MLOAD DUP2 ADD SWAP1 PUSH2 0x44CD SWAP2 SWAP1 PUSH2 0x4DCC JUMP JUMPDEST PUSH2 0x3353 JUMPI PUSH1 0x40 MLOAD PUSH3 0x461BCD PUSH1 0xE5 SHL DUP2 MSTORE PUSH1 0x20 PUSH1 0x4 DUP3 ADD MSTORE PUSH1 0x2A PUSH1 0x24 DUP3 ADD MSTORE PUSH32 0x5361666545524332303A204552433230206F7065726174696F6E20646964206E PUSH1 0x44 DUP3 ADD MSTORE PUSH10 0x1BDD081CDD58D8D95959 PUSH1 0xB2 SHL PUSH1 0x64 DUP3 ADD MSTORE PUSH1 0x84 ADD PUSH2 0x283 JUMP JUMPDEST DUP2 MLOAD ISZERO PUSH2 0x453C JUMPI DUP2 MLOAD DUP1 DUP4 PUSH1 0x20 ADD REVERT JUMPDEST DUP1 PUSH1 0x40 MLOAD PUSH3 0x461BCD PUSH1 0xE5 SHL DUP2 MSTORE PUSH1 0x4 ADD PUSH2 0x283 SWAP2 SWAP1 PUSH2 0x4A77 JUMP JUMPDEST PUSH1 0x60 PUSH2 0x4453 DUP5 DUP5 PUSH0 DUP6 DUP6 PUSH0 DUP1 DUP7 PUSH1 0x1 PUSH1 0x1 PUSH1 0xA0 SHL SUB AND DUP6 DUP8 PUSH1 0x40 MLOAD PUSH2 0x457B SWAP2 SWAP1 PUSH2 0x4DB6 JUMP JUMPDEST PUSH0 PUSH1 0x40 MLOAD DUP1 DUP4 SUB DUP2 DUP6 DUP8 GAS CALL SWAP3 POP POP POP RETURNDATASIZE DUP1 PUSH0 DUP2 EQ PUSH2 0x45B5 JUMPI PUSH1 0x40 MLOAD SWAP2 POP PUSH1 0x1F NOT PUSH1 0x3F RETURNDATASIZE ADD AND DUP3 ADD PUSH1 0x40 MSTORE RETURNDATASIZE DUP3 MSTORE RETURNDATASIZE PUSH0 PUSH1 0x20 DUP5 ADD RETURNDATACOPY PUSH2 0x45BA JUMP JUMPDEST PUSH1 0x60 SWAP2 POP JUMPDEST POP SWAP2 POP SWAP2 POP PUSH2 0x45CB DUP8 DUP4 DUP4 DUP8 PUSH2 0x43DB JUMP JUMPDEST SWAP8 SWAP7 POP POP POP POP POP POP POP JUMP JUMPDEST PUSH0 PUSH1 0x20 DUP3 DUP5 SUB SLT ISZERO PUSH2 0x45E6 JUMPI PUSH0 DUP1 REVERT JUMPDEST DUP2 CALLDATALOAD PUSH1 0x1 PUSH1 0x1 PUSH1 0xE0 SHL SUB NOT DUP2 AND DUP2 EQ PUSH2 0x3C1D JUMPI PUSH0 DUP1 REVERT JUMPDEST PUSH0 DUP1 DUP4 PUSH1 0x1F DUP5 ADD SLT PUSH2 0x460D JUMPI PUSH0 DUP1 REVERT JUMPDEST POP DUP2 CALLDATALOAD PUSH1 0x1 PUSH1 0x1 PUSH1 0x40 SHL SUB DUP2 GT ISZERO PUSH2 0x4623 JUMPI PUSH0 DUP1 REVERT JUMPDEST PUSH1 0x20 DUP4 ADD SWAP2 POP DUP4 PUSH1 0x20 DUP3 PUSH1 0x5 SHL DUP6 ADD ADD GT ISZERO PUSH2 0x43B3 JUMPI PUSH0 DUP1 REVERT JUMPDEST PUSH0 DUP1 PUSH1 0x20 DUP4 DUP6 SUB SLT ISZERO PUSH2 0x464E JUMPI PUSH0 DUP1 REVERT JUMPDEST DUP3 CALLDATALOAD PUSH1 0x1 PUSH1 0x1 PUSH1 0x40 SHL SUB DUP2 GT ISZERO PUSH2 0x4663 JUMPI PUSH0 DUP1 REVERT JUMPDEST PUSH2 0x466F DUP6 DUP3 DUP7 ADD PUSH2 0x45FD JUMP JUMPDEST SWAP1 SWAP7 SWAP1 SWAP6 POP SWAP4 POP POP POP POP JUMP JUMPDEST DUP1 CALLDATALOAD PUSH1 0x1 PUSH1 0x1 PUSH1 0xA0 SHL SUB DUP2 AND DUP2 EQ PUSH2 0x3C97 JUMPI PUSH0 DUP1 REVERT JUMPDEST PUSH0 DUP1 PUSH0 DUP1 PUSH0 PUSH1 0x80 DUP7 DUP9 SUB SLT ISZERO PUSH2 0x46A5 JUMPI PUSH0 DUP1 REVERT JUMPDEST PUSH2 0x46AE DUP7 PUSH2 0x467B JUMP JUMPDEST SWAP5 POP PUSH2 0x46BC PUSH1 0x20 DUP8 ADD PUSH2 0x467B JUMP JUMPDEST SWAP4 POP PUSH1 0x40 DUP7 ADD CALLDATALOAD SWAP3 POP PUSH1 0x60 DUP7 ADD CALLDATALOAD PUSH1 0x1 PUSH1 0x1 PUSH1 0x40 SHL SUB DUP2 GT ISZERO PUSH2 0x46DD JUMPI PUSH0 DUP1 REVERT JUMPDEST DUP7 ADD PUSH1 0x1F DUP2 ADD DUP9 SGT PUSH2 0x46ED JUMPI PUSH0 DUP1 REVERT JUMPDEST DUP1 CALLDATALOAD PUSH1 0x1 PUSH1 0x1 PUSH1 0x40 SHL SUB DUP2 GT ISZERO PUSH2 0x4702 JUMPI PUSH0 DUP1 REVERT JUMPDEST DUP9 PUSH1 0x20 DUP3 DUP5 ADD ADD GT ISZERO PUSH2 0x4713 JUMPI PUSH0 DUP1 REVERT JUMPDEST SWAP6 SWAP9 SWAP5 SWAP8 POP SWAP3 SWAP6 POP POP POP PUSH1 0x20 ADD SWAP2 SWAP1 JUMP JUMPDEST PUSH0 PUSH1 0x20 DUP3 DUP5 SUB SLT ISZERO PUSH2 0x4734 JUMPI PUSH0 DUP1 REVERT JUMPDEST POP CALLDATALOAD SWAP2 SWAP1 POP JUMP JUMPDEST PUSH0 DUP1 PUSH1 0x40 DUP4 DUP6 SUB SLT ISZERO PUSH2 0x474C JUMPI PUSH0 DUP1 REVERT JUMPDEST DUP3 CALLDATALOAD SWAP2 POP PUSH2 0x475C PUSH1 0x20 DUP5 ADD PUSH2 0x467B JUMP JUMPDEST SWAP1 POP SWAP3 POP SWAP3 SWAP1 POP JUMP JUMPDEST PUSH0 PUSH1 0x20 DUP3 DUP5 SUB SLT ISZERO PUSH2 0x4775 JUMPI PUSH0 DUP1 REVERT JUMPDEST PUSH2 0x3C1D DUP3 PUSH2 0x467B JUMP JUMPDEST PUSH4 0x4E487B71 PUSH1 0xE0 SHL PUSH0 MSTORE PUSH1 0x41 PUSH1 0x4 MSTORE PUSH1 0x24 PUSH0 REVERT JUMPDEST PUSH1 0x40 MLOAD PUSH1 0x1F DUP3 ADD PUSH1 0x1F NOT AND DUP2 ADD PUSH1 0x1 PUSH1 0x1 PUSH1 0x40 SHL SUB DUP2 GT DUP3 DUP3 LT OR ISZERO PUSH2 0x47BA JUMPI PUSH2 0x47BA PUSH2 0x477E JUMP JUMPDEST PUSH1 0x40 MSTORE SWAP2 SWAP1 POP JUMP JUMPDEST PUSH0 DUP3 PUSH1 0x1F DUP4 ADD SLT PUSH2 0x47D1 JUMPI PUSH0 DUP1 REVERT JUMPDEST DUP2 CALLDATALOAD PUSH1 0x1 PUSH1 0x1 PUSH1 0x40 SHL SUB DUP2 GT ISZERO PUSH2 0x47EA JUMPI PUSH2 0x47EA PUSH2 0x477E JUMP JUMPDEST PUSH2 0x47FD PUSH1 0x1F DUP3 ADD PUSH1 0x1F NOT AND PUSH1 0x20 ADD PUSH2 0x4792 JUMP JUMPDEST DUP2 DUP2 MSTORE DUP5 PUSH1 0x20 DUP4 DUP7 ADD ADD GT ISZERO PUSH2 0x4811 JUMPI PUSH0 DUP1 REVERT JUMPDEST DUP2 PUSH1 0x20 DUP6 ADD PUSH1 0x20 DUP4 ADD CALLDATACOPY PUSH0 SWAP2 DUP2 ADD PUSH1 0x20 ADD SWAP2 SWAP1 SWAP2 MSTORE SWAP4 SWAP3 POP POP POP JUMP JUMPDEST PUSH0 DUP1 PUSH0 DUP1 PUSH0 DUP1 PUSH0 PUSH1 0xE0 DUP9 DUP11 SUB SLT ISZERO PUSH2 0x4843 JUMPI PUSH0 DUP1 REVERT JUMPDEST PUSH2 0x484C DUP9 PUSH2 0x467B JUMP JUMPDEST SWAP7 POP PUSH1 0x20 DUP9 ADD CALLDATALOAD PUSH1 0x1 PUSH1 0x1 PUSH1 0x40 SHL SUB DUP2 GT ISZERO PUSH2 0x4866 JUMPI PUSH0 DUP1 REVERT JUMPDEST PUSH2 0x4872 DUP11 DUP3 DUP12 ADD PUSH2 0x47C2 JUMP JUMPDEST SWAP7 POP POP PUSH1 0x40 DUP9 ADD CALLDATALOAD PUSH1 0x1 PUSH1 0x1 PUSH1 0x40 SHL SUB DUP2 GT ISZERO PUSH2 0x488D JUMPI PUSH0 DUP1 REVERT JUMPDEST DUP9 ADD PUSH1 0x1F DUP2 ADD DUP11 SGT PUSH2 0x489D JUMPI PUSH0 DUP1 REVERT JUMPDEST DUP1 CALLDATALOAD PUSH1 0x1 PUSH1 0x1 PUSH1 0x40 SHL SUB DUP2 GT ISZERO PUSH2 0x48B6 JUMPI PUSH2 0x48B6 PUSH2 0x477E JUMP JUMPDEST DUP1 PUSH1 0x5 SHL PUSH2 0x48C6 PUSH1 0x20 DUP3 ADD PUSH2 0x4792 JUMP JUMPDEST SWAP2 DUP3 MSTORE PUSH1 0x20 DUP2 DUP5 ADD DUP2 ADD SWAP3 SWAP1 DUP2 ADD SWAP1 DUP14 DUP5 GT ISZERO PUSH2 0x48E1 JUMPI PUSH0 DUP1 REVERT JUMPDEST PUSH1 0x20 DUP6 ADD SWAP5 POP JUMPDEST DUP4 DUP6 LT ISZERO PUSH2 0x490A JUMPI PUSH2 0x48F9 DUP6 PUSH2 0x467B JUMP JUMPDEST DUP3 MSTORE PUSH1 0x20 SWAP5 DUP6 ADD SWAP5 SWAP1 SWAP2 ADD SWAP1 PUSH2 0x48E8 JUMP JUMPDEST DUP1 SWAP10 POP POP POP POP POP POP PUSH2 0x491E PUSH1 0x60 DUP10 ADD PUSH2 0x467B JUMP JUMPDEST SWAP4 POP PUSH2 0x492C PUSH1 0x80 DUP10 ADD PUSH2 0x467B JUMP JUMPDEST SWAP7 SWAP10 SWAP6 SWAP9 POP SWAP4 SWAP7 SWAP3 SWAP6 SWAP5 PUSH1 0xA0 DUP5 ADD CALLDATALOAD SWAP5 POP PUSH1 0xC0 SWAP1 SWAP4 ADD CALLDATALOAD SWAP3 SWAP2 POP POP JUMP JUMPDEST PUSH0 DUP1 PUSH1 0x40 DUP4 DUP6 SUB SLT ISZERO PUSH2 0x495A JUMPI PUSH0 DUP1 REVERT JUMPDEST POP POP DUP1 CALLDATALOAD SWAP3 PUSH1 0x20 SWAP1 SWAP2 ADD CALLDATALOAD SWAP2 POP JUMP JUMPDEST PUSH0 PUSH1 0x20 DUP3 DUP5 SUB SLT ISZERO PUSH2 0x4979 JUMPI PUSH0 DUP1 REVERT JUMPDEST DUP2 CALLDATALOAD PUSH1 0x1 PUSH1 0x1 PUSH1 0x40 SHL SUB DUP2 GT ISZERO PUSH2 0x498E JUMPI PUSH0 DUP1 REVERT JUMPDEST PUSH2 0x4453 DUP5 DUP3 DUP6 ADD PUSH2 0x47C2 JUMP JUMPDEST PUSH0 DUP2 MLOAD DUP1 DUP5 MSTORE DUP1 PUSH1 0x20 DUP5 ADD PUSH1 0x20 DUP7 ADD MCOPY PUSH0 PUSH1 0x20 DUP3 DUP7 ADD ADD MSTORE PUSH1 0x20 PUSH1 0x1F NOT PUSH1 0x1F DUP4 ADD AND DUP6 ADD ADD SWAP2 POP POP SWAP3 SWAP2 POP POP JUMP JUMPDEST PUSH0 PUSH1 0x20 DUP3 ADD PUSH1 0x20 DUP4 MSTORE DUP1 DUP5 MLOAD DUP1 DUP4 MSTORE PUSH1 0x40 DUP6 ADD SWAP2 POP PUSH1 0x40 DUP2 PUSH1 0x5 SHL DUP7 ADD ADD SWAP3 POP PUSH1 0x20 DUP7 ADD PUSH0 JUMPDEST DUP3 DUP2 LT ISZERO PUSH2 0x4A1F JUMPI PUSH1 0x3F NOT DUP8 DUP7 SUB ADD DUP5 MSTORE PUSH2 0x4A0A DUP6 DUP4 MLOAD PUSH2 0x499A JUMP JUMPDEST SWAP5 POP PUSH1 0x20 SWAP4 DUP5 ADD SWAP4 SWAP2 SWAP1 SWAP2 ADD SWAP1 PUSH1 0x1 ADD PUSH2 0x49EE JUMP JUMPDEST POP SWAP3 SWAP7 SWAP6 POP POP POP POP POP POP JUMP JUMPDEST PUSH1 0x40 DUP1 DUP3 MSTORE DUP4 MLOAD SWAP1 DUP3 ADD DUP2 SWAP1 MSTORE PUSH0 SWAP1 PUSH1 0x20 DUP6 ADD SWAP1 PUSH1 0x60 DUP5 ADD SWAP1 DUP4 JUMPDEST DUP2 DUP2 LT ISZERO PUSH2 0x4A64 JUMPI DUP4 MLOAD DUP4 MSTORE PUSH1 0x20 SWAP4 DUP5 ADD SWAP4 SWAP1 SWAP3 ADD SWAP2 PUSH1 0x1 ADD PUSH2 0x4A46 JUMP JUMPDEST POP POP PUSH1 0x20 SWAP4 SWAP1 SWAP4 ADD SWAP4 SWAP1 SWAP4 MSTORE POP SWAP3 SWAP2 POP POP JUMP JUMPDEST PUSH1 0x20 DUP2 MSTORE PUSH0 PUSH2 0x3C1D PUSH1 0x20 DUP4 ADD DUP5 PUSH2 0x499A JUMP JUMPDEST PUSH4 0x4E487B71 PUSH1 0xE0 SHL PUSH0 MSTORE PUSH1 0x11 PUSH1 0x4 MSTORE PUSH1 0x24 PUSH0 REVERT JUMPDEST PUSH1 0x1 PUSH1 0x1 PUSH1 0x40 SHL SUB DUP3 DUP2 AND DUP3 DUP3 AND SUB SWAP1 DUP2 GT ISZERO PUSH2 0x802 JUMPI PUSH2 0x802 PUSH2 0x4A89 JUMP JUMPDEST PUSH1 0x20 DUP1 DUP3 MSTORE PUSH1 0xE SWAP1 DUP3 ADD MSTORE PUSH14 0x139BDD08185D5D1A1BDC9A5E9959 PUSH1 0x92 SHL PUSH1 0x40 DUP3 ADD MSTORE PUSH1 0x60 ADD SWAP1 JUMP JUMPDEST PUSH0 PUSH1 0x20 DUP3 DUP5 SUB SLT ISZERO PUSH2 0x4AF4 JUMPI PUSH0 DUP1 REVERT JUMPDEST POP MLOAD SWAP2 SWAP1 POP JUMP JUMPDEST DUP2 DUP2 SUB DUP2 DUP2 GT ISZERO PUSH2 0x802 JUMPI PUSH2 0x802 PUSH2 0x4A89 JUMP JUMPDEST DUP1 DUP3 ADD DUP1 DUP3 GT ISZERO PUSH2 0x802 JUMPI PUSH2 0x802 PUSH2 0x4A89 JUMP JUMPDEST PUSH4 0x4E487B71 PUSH1 0xE0 SHL PUSH0 MSTORE PUSH1 0x32 PUSH1 0x4 MSTORE PUSH1 0x24 PUSH0 REVERT JUMPDEST PUSH0 DUP1 DUP4 CALLDATALOAD PUSH1 0x1E NOT DUP5 CALLDATASIZE SUB ADD DUP2 SLT PUSH2 0x4B4A JUMPI PUSH0 DUP1 REVERT JUMPDEST DUP4 ADD DUP1 CALLDATALOAD SWAP2 POP PUSH1 0x1 PUSH1 0x1 PUSH1 0x40 SHL SUB DUP3 GT ISZERO PUSH2 0x4B63 JUMPI PUSH0 DUP1 REVERT JUMPDEST PUSH1 0x20 ADD SWAP2 POP CALLDATASIZE DUP2 SWAP1 SUB DUP3 SGT ISZERO PUSH2 0x43B3 JUMPI PUSH0 DUP1 REVERT JUMPDEST DUP3 DUP5 DUP3 CALLDATACOPY PUSH1 0x60 SWAP2 SWAP1 SWAP2 SHL PUSH12 0xFFFFFFFFFFFFFFFFFFFFFFFF NOT AND SWAP2 ADD SWAP1 DUP2 MSTORE PUSH1 0x14 ADD SWAP2 SWAP1 POP JUMP JUMPDEST PUSH1 0x1 DUP2 DUP2 SHR SWAP1 DUP3 AND DUP1 PUSH2 0x4BB1 JUMPI PUSH1 0x7F DUP3 AND SWAP2 POP JUMPDEST PUSH1 0x20 DUP3 LT DUP2 SUB PUSH2 0x154B JUMPI PUSH4 0x4E487B71 PUSH1 0xE0 SHL PUSH0 MSTORE PUSH1 0x22 PUSH1 0x4 MSTORE PUSH1 0x24 PUSH0 REVERT JUMPDEST PUSH0 PUSH1 0x1 DUP3 ADD PUSH2 0x4BE0 JUMPI PUSH2 0x4BE0 PUSH2 0x4A89 JUMP JUMPDEST POP PUSH1 0x1 ADD SWAP1 JUMP JUMPDEST PUSH1 0x1 PUSH1 0x1 PUSH1 0x40 SHL SUB DUP2 DUP2 AND DUP4 DUP3 AND ADD SWAP1 DUP2 GT ISZERO PUSH2 0x802 JUMPI PUSH2 0x802 PUSH2 0x4A89 JUMP JUMPDEST PUSH0 PUSH1 0x1 PUSH1 0x1 PUSH1 0xFB SHL SUB DUP4 GT ISZERO PUSH2 0x4C1A JUMPI PUSH0 DUP1 REVERT JUMPDEST DUP3 PUSH1 0x5 SHL DUP1 DUP6 DUP5 CALLDATACOPY SWAP2 SWAP1 SWAP2 ADD SWAP4 SWAP3 POP POP POP JUMP JUMPDEST PUSH1 0x1F DUP3 GT ISZERO PUSH2 0x3353 JUMPI DUP1 PUSH0 MSTORE PUSH1 0x20 PUSH0 KECCAK256 PUSH1 0x1F DUP5 ADD PUSH1 0x5 SHR DUP2 ADD PUSH1 0x20 DUP6 LT ISZERO PUSH2 0x4C52 JUMPI POP DUP1 JUMPDEST PUSH1 0x1F DUP5 ADD PUSH1 0x5 SHR DUP3 ADD SWAP2 POP JUMPDEST DUP2 DUP2 LT ISZERO PUSH2 0x3240 JUMPI PUSH0 DUP2 SSTORE PUSH1 0x1 ADD PUSH2 0x4C5E JUMP JUMPDEST DUP2 MLOAD PUSH1 0x1 PUSH1 0x1 PUSH1 0x40 SHL SUB DUP2 GT ISZERO PUSH2 0x4C8A JUMPI PUSH2 0x4C8A PUSH2 0x477E JUMP JUMPDEST PUSH2 0x4C9E DUP2 PUSH2 0x4C98 DUP5 SLOAD PUSH2 0x4B9D JUMP JUMPDEST DUP5 PUSH2 0x4C2D JUMP JUMPDEST PUSH1 0x20 PUSH1 0x1F DUP3 GT PUSH1 0x1 DUP2 EQ PUSH2 0x4CD0 JUMPI PUSH0 DUP4 ISZERO PUSH2 0x4CB9 JUMPI POP DUP5 DUP3 ADD MLOAD JUMPDEST PUSH0 NOT PUSH1 0x3 DUP6 SWAP1 SHL SHR NOT AND PUSH1 0x1 DUP5 SWAP1 SHL OR DUP5 SSTORE PUSH2 0x3240 JUMP JUMPDEST PUSH0 DUP5 DUP2 MSTORE PUSH1 0x20 DUP2 KECCAK256 PUSH1 0x1F NOT DUP6 AND SWAP2 JUMPDEST DUP3 DUP2 LT ISZERO PUSH2 0x4CFF JUMPI DUP8 DUP6 ADD MLOAD DUP3 SSTORE PUSH1 0x20 SWAP5 DUP6 ADD SWAP5 PUSH1 0x1 SWAP1 SWAP3 ADD SWAP2 ADD PUSH2 0x4CDF JUMP JUMPDEST POP DUP5 DUP3 LT ISZERO PUSH2 0x4D1C JUMPI DUP7 DUP5 ADD MLOAD PUSH0 NOT PUSH1 0x3 DUP8 SWAP1 SHL PUSH1 0xF8 AND SHR NOT AND DUP2 SSTORE JUMPDEST POP POP POP POP PUSH1 0x1 SWAP1 DUP2 SHL ADD SWAP1 SSTORE POP JUMP JUMPDEST PUSH1 0x40 DUP2 MSTORE PUSH0 PUSH2 0x4D3D PUSH1 0x40 DUP4 ADD DUP6 PUSH2 0x499A JUMP JUMPDEST DUP3 DUP2 SUB PUSH1 0x20 DUP5 ADD MSTORE PUSH2 0x4D4F DUP2 DUP6 PUSH2 0x499A JUMP JUMPDEST SWAP6 SWAP5 POP POP POP POP POP JUMP JUMPDEST PUSH4 0x4E487B71 PUSH1 0xE0 SHL PUSH0 MSTORE PUSH1 0x31 PUSH1 0x4 MSTORE PUSH1 0x24 PUSH0 REVERT JUMPDEST DUP1 DUP3 MUL DUP2 ISZERO DUP3 DUP3 DIV DUP5 EQ OR PUSH2 0x802 JUMPI PUSH2 0x802 PUSH2 0x4A89 JUMP JUMPDEST PUSH4 0x4E487B71 PUSH1 0xE0 SHL PUSH0 MSTORE PUSH1 0x12 PUSH1 0x4 MSTORE PUSH1 0x24 PUSH0 REVERT JUMPDEST PUSH0 DUP3 PUSH2 0x4DB1 JUMPI PUSH4 0x4E487B71 PUSH1 0xE0 SHL PUSH0 MSTORE PUSH1 0x12 PUSH1 0x4 MSTORE PUSH1 0x24 PUSH0 REVERT JUMPDEST POP DIV SWAP1 JUMP JUMPDEST PUSH0 DUP3 MLOAD DUP1 PUSH1 0x20 DUP6 ADD DUP5 MCOPY PUSH0 SWAP3 ADD SWAP2 DUP3 MSTORE POP SWAP2 SWAP1 POP JUMP JUMPDEST PUSH0 PUSH1 0x20 DUP3 DUP5 SUB SLT ISZERO PUSH2 0x4DDC JUMPI PUSH0 DUP1 REVERT JUMPDEST DUP2 MLOAD DUP1 ISZERO ISZERO DUP2 EQ PUSH2 0x3C1D JUMPI PUSH0 DUP1 REVERT INVALID COINBASE PUSH5 0x6472657373 GASPRICE KECCAK256 PUSH13 0x6F772D6C6576656C2064656C65 PUSH8 0x6174652063616C6C KECCAK256 PUSH7 0x61696C6564A264 PUSH10 0x70667358221220F2BA19 EXTCODEHASH XOR LOG4 SELFDESTRUCT LOG0 DUP1 DUP1 DUP7 0xA8 DUP1 LOG3 0x21 DUP3 LOG3 PUSH10 0x451ECFDEA9CCE1461B76 0xDB PUSH11 0x250D64736F6C634300081A STOP CALLER "
		},
		"gasEstimates": {
			"creation": {
				"codeDepositCost": "4008000",
				"executionCost": "infinite",
				"totalCost": "infinite"
			},
			"external": {
				"DEFAULT_ADMIN_ROLE()": "282",
				"claimRewards()": "infinite",
				"contractType()": "286",
				"contractURI()": "infinite",
				"contractVersion()": "243",
				"depositRewardTokens(uint256)": "infinite",
				"getRewardTokenBalance()": "2359",
				"getRewardsPerUnitTime()": "4785",
				"getRoleAdmin(bytes32)": "2525",
				"getRoleMember(bytes32,uint256)": "infinite",
				"getRoleMemberCount(bytes32)": "4952",
				"getStakeInfo(address)": "infinite",
				"getTimeUnit()": "4781",
				"grantRole(bytes32,address)": "infinite",
				"hasRole(bytes32,address)": "2784",
				"hasRoleWithSwitch(bytes32,address)": "5036",
				"indexedTokens(uint256)": "4684",
				"initialize(address,string,address[],address,address,uint256,uint256)": "infinite",
				"isIndexed(uint256)": "2568",
				"isTrustedForwarder(address)": "2625",
				"multicall(bytes[])": "infinite",
				"onERC721Received(address,address,uint256,bytes)": "infinite",
				"renounceRole(bytes32,address)": "infinite",
				"revokeRole(bytes32,address)": "infinite",
				"rewardToken()": "2446",
				"setContractURI(string)": "infinite",
				"setRewardsPerUnitTime(uint256)": "infinite",
				"setTimeUnit(uint256)": "infinite",
				"stake(uint256[])": "infinite",
				"stakerAddress(uint256)": "2564",
				"stakers(address)": "4953",
				"stakersArray(uint256)": "4679",
				"stakingToken()": "2403",
				"supportsInterface(bytes4)": "470",
				"withdraw(uint256[])": "infinite",
				"withdrawRewardTokens(uint256)": "infinite"
			},
			"internal": {
				"_canSetContractURI()": "infinite",
				"_canSetStakeConditions()": "infinite",
				"_mintRewards(address,uint256)": "infinite",
				"_msgSender()": "2266",
				"_stakeMsgSender()": "infinite"
			}
		},
		"methodIdentifiers": {
			"DEFAULT_ADMIN_ROLE()": "a217fddf",
			"claimRewards()": "372500ab",
			"contractType()": "cb2ef6f7",
			"contractURI()": "e8a3d485",
			"contractVersion()": "a0a8e460",
			"depositRewardTokens(uint256)": "16c621e0",
			"getRewardTokenBalance()": "93ce5343",
			"getRewardsPerUnitTime()": "0e8b229b",
			"getRoleAdmin(bytes32)": "248a9ca3",
			"getRoleMember(bytes32,uint256)": "9010d07c",
			"getRoleMemberCount(bytes32)": "ca15c873",
			"getStakeInfo(address)": "c3453153",
			"getTimeUnit()": "d68124c7",
			"grantRole(bytes32,address)": "2f2ff15d",
			"hasRole(bytes32,address)": "91d14854",
			"hasRoleWithSwitch(bytes32,address)": "a32fa5b3",
			"indexedTokens(uint256)": "961004d3",
			"initialize(address,string,address[],address,address,uint256,uint256)": "6a5ab6e5",
			"isIndexed(uint256)": "fd48ba17",
			"isTrustedForwarder(address)": "572b6c05",
			"multicall(bytes[])": "ac9650d8",
			"onERC721Received(address,address,uint256,bytes)": "150b7a02",
			"renounceRole(bytes32,address)": "36568abe",
			"revokeRole(bytes32,address)": "d547741f",
			"rewardToken()": "f7c618c1",
			"setContractURI(string)": "938e3d7b",
			"setRewardsPerUnitTime(uint256)": "23ef2580",
			"setTimeUnit(uint256)": "6360106f",
			"stake(uint256[])": "0fbf0a93",
			"stakerAddress(uint256)": "94067045",
			"stakers(address)": "9168ae72",
			"stakersArray(uint256)": "5357e916",
			"stakingToken()": "72f702f3",
			"supportsInterface(bytes4)": "01ffc9a7",
			"withdraw(uint256[])": "983d95ce",
			"withdrawRewardTokens(uint256)": "cb43b2dd"
		}
	},
	"abi": [
		{
			"inputs": [
				{
					"internalType": "address",
					"name": "_nativeTokenWrapper",
					"type": "address"
				}
			],
			"stateMutability": "nonpayable",
			"type": "constructor"
		},
		{
			"inputs": [],
			"name": "ContractMetadataUnauthorized",
			"type": "error"
		},
		{
			"inputs": [
				{
					"internalType": "uint256",
					"name": "expected",
					"type": "uint256"
				},
				{
					"internalType": "uint256",
					"name": "actual",
					"type": "uint256"
				}
			],
			"name": "CurrencyTransferLibMismatchedValue",
			"type": "error"
		},
		{
			"inputs": [],
			"name": "InvalidInitialization",
			"type": "error"
		},
		{
			"inputs": [],
			"name": "NotInitializing",
			"type": "error"
		},
		{
			"inputs": [
				{
					"internalType": "address",
					"name": "account",
					"type": "address"
				},
				{
					"internalType": "bytes32",
					"name": "role",
					"type": "bytes32"
				}
			],
			"name": "PermissionsAlreadyGranted",
			"type": "error"
		},
		{
			"inputs": [
				{
					"internalType": "address",
					"name": "expected",
					"type": "address"
				},
				{
					"internalType": "address",
					"name": "actual",
					"type": "address"
				}
			],
			"name": "PermissionsInvalidPermission",
			"type": "error"
		},
		{
			"inputs": [
				{
					"internalType": "address",
					"name": "account",
					"type": "address"
				},
				{
					"internalType": "bytes32",
					"name": "neededRole",
					"type": "bytes32"
				}
			],
			"name": "PermissionsUnauthorizedAccount",
			"type": "error"
		},
		{
			"anonymous": false,
			"inputs": [
				{
					"indexed": false,
					"internalType": "string",
					"name": "prevURI",
					"type": "string"
				},
				{
					"indexed": false,
					"internalType": "string",
					"name": "newURI",
					"type": "string"
				}
			],
			"name": "ContractURIUpdated",
			"type": "event"
		},
		{
			"anonymous": false,
			"inputs": [
				{
					"indexed": false,
					"internalType": "uint64",
					"name": "version",
					"type": "uint64"
				}
			],
			"name": "Initialized",
			"type": "event"
		},
		{
			"anonymous": false,
			"inputs": [
				{
					"indexed": false,
					"internalType": "uint256",
					"name": "_amount",
					"type": "uint256"
				}
			],
			"name": "RewardTokensDepositedByAdmin",
			"type": "event"
		},
		{
			"anonymous": false,
			"inputs": [
				{
					"indexed": false,
					"internalType": "uint256",
					"name": "_amount",
					"type": "uint256"
				}
			],
			"name": "RewardTokensWithdrawnByAdmin",
			"type": "event"
		},
		{
			"anonymous": false,
			"inputs": [
				{
					"indexed": true,
					"internalType": "address",
					"name": "staker",
					"type": "address"
				},
				{
					"indexed": false,
					"internalType": "uint256",
					"name": "rewardAmount",
					"type": "uint256"
				}
			],
			"name": "RewardsClaimed",
			"type": "event"
		},
		{
			"anonymous": false,
			"inputs": [
				{
					"indexed": true,
					"internalType": "bytes32",
					"name": "role",
					"type": "bytes32"
				},
				{
					"indexed": true,
					"internalType": "bytes32",
					"name": "previousAdminRole",
					"type": "bytes32"
				},
				{
					"indexed": true,
					"internalType": "bytes32",
					"name": "newAdminRole",
					"type": "bytes32"
				}
			],
			"name": "RoleAdminChanged",
			"type": "event"
		},
		{
			"anonymous": false,
			"inputs": [
				{
					"indexed": true,
					"internalType": "bytes32",
					"name": "role",
					"type": "bytes32"
				},
				{
					"indexed": true,
					"internalType": "address",
					"name": "account",
					"type": "address"
				},
				{
					"indexed": true,
					"internalType": "address",
					"name": "sender",
					"type": "address"
				}
			],
			"name": "RoleGranted",
			"type": "event"
		},
		{
			"anonymous": false,
			"inputs": [
				{
					"indexed": true,
					"internalType": "bytes32",
					"name": "role",
					"type": "bytes32"
				},
				{
					"indexed": true,
					"internalType": "address",
					"name": "account",
					"type": "address"
				},
				{
					"indexed": true,
					"internalType": "address",
					"name": "sender",
					"type": "address"
				}
			],
			"name": "RoleRevoked",
			"type": "event"
		},
		{
			"anonymous": false,
			"inputs": [
				{
					"indexed": true,
					"internalType": "address",
					"name": "staker",
					"type": "address"
				},
				{
					"indexed": true,
					"internalType": "uint256[]",
					"name": "tokenIds",
					"type": "uint256[]"
				}
			],
			"name": "TokensStaked",
			"type": "event"
		},
		{
			"anonymous": false,
			"inputs": [
				{
					"indexed": true,
					"internalType": "address",
					"name": "staker",
					"type": "address"
				},
				{
					"indexed": true,
					"internalType": "uint256[]",
					"name": "tokenIds",
					"type": "uint256[]"
				}
			],
			"name": "TokensWithdrawn",
			"type": "event"
		},
		{
			"anonymous": false,
			"inputs": [
				{
					"indexed": false,
					"internalType": "uint256",
					"name": "oldRewardsPerUnitTime",
					"type": "uint256"
				},
				{
					"indexed": false,
					"internalType": "uint256",
					"name": "newRewardsPerUnitTime",
					"type": "uint256"
				}
			],
			"name": "UpdatedRewardsPerUnitTime",
			"type": "event"
		},
		{
			"anonymous": false,
			"inputs": [
				{
					"indexed": false,
					"internalType": "uint256",
					"name": "oldTimeUnit",
					"type": "uint256"
				},
				{
					"indexed": false,
					"internalType": "uint256",
					"name": "newTimeUnit",
					"type": "uint256"
				}
			],
			"name": "UpdatedTimeUnit",
			"type": "event"
		},
		{
			"inputs": [],
			"name": "DEFAULT_ADMIN_ROLE",
			"outputs": [
				{
					"internalType": "bytes32",
					"name": "",
					"type": "bytes32"
				}
			],
			"stateMutability": "view",
			"type": "function"
		},
		{
			"inputs": [],
			"name": "claimRewards",
			"outputs": [],
			"stateMutability": "nonpayable",
			"type": "function"
		},
		{
			"inputs": [],
			"name": "contractType",
			"outputs": [
				{
					"internalType": "bytes32",
					"name": "",
					"type": "bytes32"
				}
			],
			"stateMutability": "pure",
			"type": "function"
		},
		{
			"inputs": [],
			"name": "contractURI",
			"outputs": [
				{
					"internalType": "string",
					"name": "",
					"type": "string"
				}
			],
			"stateMutability": "view",
			"type": "function"
		},
		{
			"inputs": [],
			"name": "contractVersion",
			"outputs": [
				{
					"internalType": "uint8",
					"name": "",
					"type": "uint8"
				}
			],
			"stateMutability": "pure",
			"type": "function"
		},
		{
			"inputs": [
				{
					"internalType": "uint256",
					"name": "_amount",
					"type": "uint256"
				}
			],
			"name": "depositRewardTokens",
			"outputs": [],
			"stateMutability": "payable",
			"type": "function"
		},
		{
			"inputs": [],
			"name": "getRewardTokenBalance",
			"outputs": [
				{
					"internalType": "uint256",
					"name": "",
					"type": "uint256"
				}
			],
			"stateMutability": "view",
			"type": "function"
		},
		{
			"inputs": [],
			"name": "getRewardsPerUnitTime",
			"outputs": [
				{
					"internalType": "uint256",
					"name": "_rewardsPerUnitTime",
					"type": "uint256"
				}
			],
			"stateMutability": "view",
			"type": "function"
		},
		{
			"inputs": [
				{
					"internalType": "bytes32",
					"name": "role",
					"type": "bytes32"
				}
			],
			"name": "getRoleAdmin",
			"outputs": [
				{
					"internalType": "bytes32",
					"name": "",
					"type": "bytes32"
				}
			],
			"stateMutability": "view",
			"type": "function"
		},
		{
			"inputs": [
				{
					"internalType": "bytes32",
					"name": "role",
					"type": "bytes32"
				},
				{
					"internalType": "uint256",
					"name": "index",
					"type": "uint256"
				}
			],
			"name": "getRoleMember",
			"outputs": [
				{
					"internalType": "address",
					"name": "member",
					"type": "address"
				}
			],
			"stateMutability": "view",
			"type": "function"
		},
		{
			"inputs": [
				{
					"internalType": "bytes32",
					"name": "role",
					"type": "bytes32"
				}
			],
			"name": "getRoleMemberCount",
			"outputs": [
				{
					"internalType": "uint256",
					"name": "count",
					"type": "uint256"
				}
			],
			"stateMutability": "view",
			"type": "function"
		},
		{
			"inputs": [
				{
					"internalType": "address",
					"name": "_staker",
					"type": "address"
				}
			],
			"name": "getStakeInfo",
			"outputs": [
				{
					"internalType": "uint256[]",
					"name": "_tokensStaked",
					"type": "uint256[]"
				},
				{
					"internalType": "uint256",
					"name": "_rewards",
					"type": "uint256"
				}
			],
			"stateMutability": "view",
			"type": "function"
		},
		{
			"inputs": [],
			"name": "getTimeUnit",
			"outputs": [
				{
					"internalType": "uint256",
					"name": "_timeUnit",
					"type": "uint256"
				}
			],
			"stateMutability": "view",
			"type": "function"
		},
		{
			"inputs": [
				{
					"internalType": "bytes32",
					"name": "role",
					"type": "bytes32"
				},
				{
					"internalType": "address",
					"name": "account",
					"type": "address"
				}
			],
			"name": "grantRole",
			"outputs": [],
			"stateMutability": "nonpayable",
			"type": "function"
		},
		{
			"inputs": [
				{
					"internalType": "bytes32",
					"name": "role",
					"type": "bytes32"
				},
				{
					"internalType": "address",
					"name": "account",
					"type": "address"
				}
			],
			"name": "hasRole",
			"outputs": [
				{
					"internalType": "bool",
					"name": "",
					"type": "bool"
				}
			],
			"stateMutability": "view",
			"type": "function"
		},
		{
			"inputs": [
				{
					"internalType": "bytes32",
					"name": "role",
					"type": "bytes32"
				},
				{
					"internalType": "address",
					"name": "account",
					"type": "address"
				}
			],
			"name": "hasRoleWithSwitch",
			"outputs": [
				{
					"internalType": "bool",
					"name": "",
					"type": "bool"
				}
			],
			"stateMutability": "view",
			"type": "function"
		},
		{
			"inputs": [
				{
					"internalType": "uint256",
					"name": "",
					"type": "uint256"
				}
			],
			"name": "indexedTokens",
			"outputs": [
				{
					"internalType": "uint256",
					"name": "",
					"type": "uint256"
				}
			],
			"stateMutability": "view",
			"type": "function"
		},
		{
			"inputs": [
				{
					"internalType": "address",
					"name": "_defaultAdmin",
					"type": "address"
				},
				{
					"internalType": "string",
					"name": "_contractURI",
					"type": "string"
				},
				{
					"internalType": "address[]",
					"name": "_trustedForwarders",
					"type": "address[]"
				},
				{
					"internalType": "address",
					"name": "_rewardToken",
					"type": "address"
				},
				{
					"internalType": "address",
					"name": "_stakingToken",
					"type": "address"
				},
				{
					"internalType": "uint256",
					"name": "_timeUnit",
					"type": "uint256"
				},
				{
					"internalType": "uint256",
					"name": "_rewardsPerUnitTime",
					"type": "uint256"
				}
			],
			"name": "initialize",
			"outputs": [],
			"stateMutability": "nonpayable",
			"type": "function"
		},
		{
			"inputs": [
				{
					"internalType": "uint256",
					"name": "",
					"type": "uint256"
				}
			],
			"name": "isIndexed",
			"outputs": [
				{
					"internalType": "bool",
					"name": "",
					"type": "bool"
				}
			],
			"stateMutability": "view",
			"type": "function"
		},
		{
			"inputs": [
				{
					"internalType": "address",
					"name": "forwarder",
					"type": "address"
				}
			],
			"name": "isTrustedForwarder",
			"outputs": [
				{
					"internalType": "bool",
					"name": "",
					"type": "bool"
				}
			],
			"stateMutability": "view",
			"type": "function"
		},
		{
			"inputs": [
				{
					"internalType": "bytes[]",
					"name": "data",
					"type": "bytes[]"
				}
			],
			"name": "multicall",
			"outputs": [
				{
					"internalType": "bytes[]",
					"name": "results",
					"type": "bytes[]"
				}
			],
			"stateMutability": "nonpayable",
			"type": "function"
		},
		{
			"inputs": [
				{
					"internalType": "address",
					"name": "",
					"type": "address"
				},
				{
					"internalType": "address",
					"name": "",
					"type": "address"
				},
				{
					"internalType": "uint256",
					"name": "",
					"type": "uint256"
				},
				{
					"internalType": "bytes",
					"name": "",
					"type": "bytes"
				}
			],
			"name": "onERC721Received",
			"outputs": [
				{
					"internalType": "bytes4",
					"name": "",
					"type": "bytes4"
				}
			],
			"stateMutability": "view",
			"type": "function"
		},
		{
			"inputs": [
				{
					"internalType": "bytes32",
					"name": "role",
					"type": "bytes32"
				},
				{
					"internalType": "address",
					"name": "account",
					"type": "address"
				}
			],
			"name": "renounceRole",
			"outputs": [],
			"stateMutability": "nonpayable",
			"type": "function"
		},
		{
			"inputs": [
				{
					"internalType": "bytes32",
					"name": "role",
					"type": "bytes32"
				},
				{
					"internalType": "address",
					"name": "account",
					"type": "address"
				}
			],
			"name": "revokeRole",
			"outputs": [],
			"stateMutability": "nonpayable",
			"type": "function"
		},
		{
			"inputs": [],
			"name": "rewardToken",
			"outputs": [
				{
					"internalType": "address",
					"name": "",
					"type": "address"
				}
			],
			"stateMutability": "view",
			"type": "function"
		},
		{
			"inputs": [
				{
					"internalType": "string",
					"name": "_uri",
					"type": "string"
				}
			],
			"name": "setContractURI",
			"outputs": [],
			"stateMutability": "nonpayable",
			"type": "function"
		},
		{
			"inputs": [
				{
					"internalType": "uint256",
					"name": "_rewardsPerUnitTime",
					"type": "uint256"
				}
			],
			"name": "setRewardsPerUnitTime",
			"outputs": [],
			"stateMutability": "nonpayable",
			"type": "function"
		},
		{
			"inputs": [
				{
					"internalType": "uint256",
					"name": "_timeUnit",
					"type": "uint256"
				}
			],
			"name": "setTimeUnit",
			"outputs": [],
			"stateMutability": "nonpayable",
			"type": "function"
		},
		{
			"inputs": [
				{
					"internalType": "uint256[]",
					"name": "_tokenIds",
					"type": "uint256[]"
				}
			],
			"name": "stake",
			"outputs": [],
			"stateMutability": "nonpayable",
			"type": "function"
		},
		{
			"inputs": [
				{
					"internalType": "uint256",
					"name": "",
					"type": "uint256"
				}
			],
			"name": "stakerAddress",
			"outputs": [
				{
					"internalType": "address",
					"name": "",
					"type": "address"
				}
			],
			"stateMutability": "view",
			"type": "function"
		},
		{
			"inputs": [
				{
					"internalType": "address",
					"name": "",
					"type": "address"
				}
			],
			"name": "stakers",
			"outputs": [
				{
					"internalType": "uint64",
					"name": "amountStaked",
					"type": "uint64"
				},
				{
					"internalType": "uint64",
					"name": "conditionIdOflastUpdate",
					"type": "uint64"
				},
				{
					"internalType": "uint128",
					"name": "timeOfLastUpdate",
					"type": "uint128"
				},
				{
					"internalType": "uint256",
					"name": "unclaimedRewards",
					"type": "uint256"
				}
			],
			"stateMutability": "view",
			"type": "function"
		},
		{
			"inputs": [
				{
					"internalType": "uint256",
					"name": "",
					"type": "uint256"
				}
			],
			"name": "stakersArray",
			"outputs": [
				{
					"internalType": "address",
					"name": "",
					"type": "address"
				}
			],
			"stateMutability": "view",
			"type": "function"
		},
		{
			"inputs": [],
			"name": "stakingToken",
			"outputs": [
				{
					"internalType": "address",
					"name": "",
					"type": "address"
				}
			],
			"stateMutability": "view",
			"type": "function"
		},
		{
			"inputs": [
				{
					"internalType": "bytes4",
					"name": "interfaceId",
					"type": "bytes4"
				}
			],
			"name": "supportsInterface",
			"outputs": [
				{
					"internalType": "bool",
					"name": "",
					"type": "bool"
				}
			],
			"stateMutability": "view",
			"type": "function"
		},
		{
			"inputs": [
				{
					"internalType": "uint256[]",
					"name": "_tokenIds",
					"type": "uint256[]"
				}
			],
			"name": "withdraw",
			"outputs": [],
			"stateMutability": "nonpayable",
			"type": "function"
		},
		{
			"inputs": [
				{
					"internalType": "uint256",
					"name": "_amount",
					"type": "uint256"
				}
			],
			"name": "withdrawRewardTokens",
			"outputs": [],
			"stateMutability": "nonpayable",
			"type": "function"
		},
		{
			"stateMutability": "payable",
			"type": "receive"
		}
	]
}