{
	"data": {
		"bytecode": {
			"linkReferences": {},
			"object": "60e06040526004805460ff1916600117905534801561001c575f80fd5b5060405161347238038061347283398101604081905261003b91610325565b600160025583816001600160a01b03821661009d5760405162461bcd60e51b815260206004820152601460248201527f636f6c6c656374696f6e2061646472657373203000000000000000000000000060448201526064015b60405180910390fd5b5f8151116100ed5760405162461bcd60e51b815260206004820152601360248201527f4e6f20616c6c6f77656420746f6b656e206964000000000000000000000000006044820152606401610094565b8051610100906003906020840190610299565b50506001600160a01b03166080526101178761013e565b610121868661018f565b506001600160a01b0391821660a0521660c0525061048f92505050565b600180546001600160a01b038381166001600160a01b0319831681179093556040519116919082907f8292fce18fa69edf4db7b94ea2e58241df0ae57f97e0a6c9b29067028bf92d76905f90a35050565b815f036101de5760405162461bcd60e51b815260206004820152601460248201527f74696d652d756e69742063616e277420626520300000000000000000000000006044820152606401610094565b6004805461010090046001600160401b031690600190816101ff8185610457565b82546001600160401b039182166101009390930a928302919092021990911617905550604080516080810182528481526020808201858152428385019081525f60608501818152878252600a909452949094209251835551600183015591516002820155905160039091015580156102945742600a5f61028060018561047c565b815260208101919091526040015f20600301555b505050565b828054828255905f5260205f209081019282156102d2579160200282015b828111156102d25782518255916020019190600101906102b7565b506102de9291506102e2565b5090565b5b808211156102de575f81556001016102e3565b80516001600160a01b038116811461030c575f80fd5b919050565b634e487b7160e01b5f52604160045260245ffd5b5f805f805f805f60e0888a03121561033b575f80fd5b610344886102f6565b602089015160408a015191985096509450610361606089016102f6565b935061036f608089016102f6565b925061037d60a089016102f6565b60c08901519092506001600160401b03811115610398575f80fd5b8801601f81018a136103a8575f80fd5b80516001600160401b038111156103c1576103c1610311565b604051600582901b90603f8201601f191681016001600160401b03811182821017156103ef576103ef610311565b60405291825260208184018101929081018d84111561040c575f80fd5b6020850194505b8385101561042f57845180825260209586019590935001610413565b508094505050505092959891949750929550565b634e487b7160e01b5f52601160045260245ffd5b6001600160401b03818116838216019081111561047657610476610443565b92915050565b8181038181111561047657610476610443565b60805160a05160c051612f6561050d5f395f81816101a801528181610621015281816115980152818161164e01528181611f4c01526123a301525f81816105ee0152818161152e015281816115720152818161162a01528181611f28015261237f01525f81816103990152818161111b0152611ab90152612f655ff3fe608060405260043610610198575f3560e01c8063938e3d7b116100e7578063cb43b2dd11610087578063f0cfad9811610062578063f0cfad98146105be578063f7c618c1146105dd578063f9ea29cb14610610578063fd48ba1714610643575f80fd5b8063cb43b2dd1461056a578063d68124c714610589578063e8a3d4851461059d575f80fd5b8063961004d3116100c2578063961004d3146104d3578063983d95ce146104f2578063ac9650d814610511578063c34531531461053d575f80fd5b8063938e3d7b1461046c57806393ce53431461048b578063940670451461049f575f80fd5b806323ef2580116101525780636360106f1161012d5780636360106f1461036957806372f702f3146103885780638da5cb5b146103bb5780639168ae72146103d8575f80fd5b806323ef2580146102ff578063372500ab1461031e5780635357e91614610332575f80fd5b806301ffc9a7146102205780630e8b229b146102545780630fbf0a931461027657806313af403514610295578063150b7a02146102b457806316c621e0146102ec575f80fd5b3661021c57336001600160a01b037f0000000000000000000000000000000000000000000000000000000000000000161461021a5760405162461bcd60e51b815260206004820181905260248201527f63616c6c6572206e6f74206e617469766520746f6b656e20777261707065722e60448201526064015b60405180910390fd5b005b5f80fd5b34801561022b575f80fd5b5061023f61023a366004612850565b610671565b60405190151581526020015b60405180910390f35b34801561025f575f80fd5b506102686106a7565b60405190815260200161024b565b348015610281575f80fd5b5061021a6102903660046128b7565b6106ec565b3480156102a0575f80fd5b5061021a6102af36600461290b565b610724565b3480156102bf575f80fd5b506102d36102ce366004612924565b610755565b6040516001600160e01b0319909116815260200161024b565b61021a6102fa3660046129b7565b6107b0565b34801561030a575f80fd5b5061021a6103193660046129b7565b6107e6565b348015610329575f80fd5b5061021a61090a565b34801561033d575f80fd5b5061035161034c3660046129b7565b61093e565b6040516001600160a01b03909116815260200161024b565b348015610374575f80fd5b5061021a6103833660046129b7565b610966565b348015610393575f80fd5b506103517f000000000000000000000000000000000000000000000000000000000000000081565b3480156103c6575f80fd5b506001546001600160a01b0316610351565b3480156103e3575f80fd5b506104336103f236600461290b565b60086020525f9081526040902080546001909101546001600160401b0380831692600160401b810490911691600160801b9091046001600160801b03169084565b604080516001600160401b0395861681529490931660208501526001600160801b0390911691830191909152606082015260800161024b565b348015610477575f80fd5b5061021a6104863660046129e2565b610a89565b348015610496575f80fd5b50600b54610268565b3480156104aa575f80fd5b506103516104b93660046129b7565b60096020525f90815260409020546001600160a01b031681565b3480156104de575f80fd5b506102686104ed3660046129b7565b610ab7565b3480156104fd575f80fd5b5061021a61050c3660046128b7565b610ad6565b34801561051c575f80fd5b5061053061052b3660046128b7565b610b05565b60405161024b9190612ac0565b348015610548575f80fd5b5061055c61055736600461290b565b610c68565b60405161024b929190612b23565b348015610575575f80fd5b5061021a6105843660046129b7565b610e8d565b348015610594575f80fd5b50610268610ebb565b3480156105a8575f80fd5b506105b1610eff565b60405161024b9190612b6f565b3480156105c9575f80fd5b506102686105d83660046129b7565b610f8a565b3480156105e8575f80fd5b506103517f000000000000000000000000000000000000000000000000000000000000000081565b34801561061b575f80fd5b506103517f000000000000000000000000000000000000000000000000000000000000000081565b34801561064e575f80fd5b5061023f61065d3660046129b7565b60076020525f908152604090205460ff1681565b5f6001600160e01b03198216630a85bd0160e11b14806106a157506301ffc9a760e01b6001600160e01b03198316145b92915050565b5f600a5f6001600460019054906101000a90046001600160401b03166106cd9190612b95565b6001600160401b031681526020019081526020015f2060010154905090565b600280540361070d5760405162461bcd60e51b815260040161021190612bb4565b6002805561071b8282610f99565b50506001600255565b61072c611484565b610749576040516316ccb9cb60e11b815260040160405180910390fd5b610752816114b0565b50565b6004545f9060ff1660021461079e5760405162461bcd60e51b815260206004820152600f60248201526e2234b932b1ba103a3930b739b332b960891b6044820152606401610211565b50630a85bd0160e11b95945050505050565b60028054036107d15760405162461bcd60e51b815260040161021190612bb4565b600280556107de81611501565b506001600255565b6107ee611484565b61080a5760405162461bcd60e51b815260040161021190612beb565b5f600a5f6001600460019054906101000a90046001600160401b03166108309190612b95565b6001600160401b0316815260208082019290925260409081015f208151608081018352815481526001820154938101849052600282015492810192909252600301546060820152915082036108bb5760405162461bcd60e51b81526020600482015260116024820152702932bbb0b932103ab731b430b733b2b21760791b6044820152606401610211565b80516108c79083611704565b602080820151604080519182529181018490527f243c4656edc72b2c7ec8575d464d955b2f42c1b205960c6c2fb7eecda5419cf691015b60405180910390a15050565b600280540361092b5760405162461bcd60e51b815260040161021190612bb4565b60028055610937611805565b6001600255565b6006818154811061094d575f80fd5b5f918252602090912001546001600160a01b0316905081565b61096e611484565b61098a5760405162461bcd60e51b815260040161021190612beb565b5f600a5f6001600460019054906101000a90046001600160401b03166109b09190612b95565b6001600160401b031681526020019081526020015f206040518060800160405290815f820154815260200160018201548152602001600282015481526020016003820154815250509050805f01518203610a435760405162461bcd60e51b81526020600482015260146024820152732a34b6b296bab734ba103ab731b430b733b2b21760611b6044820152606401610211565b610a51828260200151611704565b805160408051918252602082018490527fd968de290ed68f978b9e4816f7d4be9ef46189fe8eeb3eeb86199e7229cf2de091016108fe565b610a91611484565b610aae57604051639f7f092560e01b815260040160405180910390fd5b6107528161192f565b60058181548110610ac6575f80fd5b5f91825260209091200154905081565b6002805403610af75760405162461bcd60e51b815260040161021190612bb4565b6002805561071b82826119fa565b6060816001600160401b03811115610b1f57610b1f6129ce565b604051908082528060200260200182016040528015610b5257816020015b6060815260200190600190039081610b3d5790505b509050335f805b84811015610c5f578115610bd857610bb630878784818110610b7d57610b7d612c13565b9050602002810190610b8f9190612c27565b86604051602001610ba293929190612c69565b604051602081830303815290604052611e34565b848281518110610bc857610bc8612c13565b6020026020010181905250610c57565b610c3930878784818110610bee57610bee612c13565b9050602002810190610c009190612c27565b8080601f0160208091040260200160405190810160405280939291908181526020018383808284375f92019190915250611e3492505050565b848281518110610c4b57610c4b612c13565b60200260200101819052505b600101610b59565b50505092915050565b60605f806005805480602002602001604051908101604052809291908181526020018280548015610cb657602002820191905f5260205f20905b815481526020019060010190808311610ca2575b505050505090505f81516001600160401b03811115610cd757610cd76129ce565b604051908082528060200260200182016040528015610d00578160200160208202803683370190505b5082519091505f805b82811015610dbb57876001600160a01b031660095f878481518110610d3057610d30612c13565b602002602001015181526020019081526020015f205f9054906101000a90046001600160a01b03166001600160a01b031614848281518110610d7457610d74612c13565b602002602001019015159081151581525050838181518110610d9857610d98612c13565b602002602001015115610db357610db0600183612c8f565b91505b600101610d09565b50806001600160401b03811115610dd457610dd46129ce565b604051908082528060200260200182016040528015610dfd578160200160208202803683370190505b5095505f805b83811015610e7757848181518110610e1d57610e1d612c13565b602002602001015115610e6f57858181518110610e3c57610e3c612c13565b6020026020010151888381518110610e5657610e56612c13565b6020908102919091010152610e6c600183612c8f565b91505b600101610e03565b50610e8188611e60565b95505050505050915091565b6002805403610eae5760405162461bcd60e51b815260040161021190612bb4565b600280556107de81611ed8565b5f600a5f6001600460019054906101000a90046001600160401b0316610ee19190612b95565b6001600160401b031681526020019081526020015f205f0154905090565b5f8054610f0b90612ca2565b80601f0160208091040260200160405190810160405280929190818152602001828054610f3790612ca2565b8015610f825780601f10610f5957610100808354040283529160200191610f82565b820191905f5260205f20905b815481529060010190602001808311610f6557829003601f168201915b505050505081565b60038181548110610ac6575f80fd5b806001600160401b0381165f03610fe55760405162461bcd60e51b815260206004820152601060248201526f5374616b696e67203020746f6b656e7360801b6044820152606401610211565b6103e9816001600160401b03161061103f5760405162461bcd60e51b815260206004820152601b60248201527f4d6178696d756d203130303020746f6b656e73206174206f6e636500000000006044820152606401610211565b6003545f90815b836001600160401b0316811015611109575f92505f5b828110156110af5786868381811061107657611076612c13565b905060200201356003828154811061109057611090612c13565b905f5260205f200154036110a757600193506110af565b60010161105c565b508215155f036111015760405162461bcd60e51b815260206004820152601860248201527f4e6f7420617574686f72697a656420746f6b656e7320494400000000000000006044820152606401610211565b600101611046565b50335f908152600860205260409020547f0000000000000000000000000000000000000000000000000000000000000000906001600160401b0316156111575761115233611f70565b611214565b6006805460018082019092557ff652222313e28459528d920b65115c16c04f3efc82aaedc97be59f3f377c0d3f018054336001600160a01b031990911681179091555f9081526008602052604090208054426001600160801b03908116600160801b0291161790556004546111db91906001600160401b0361010090910416612b95565b335f90815260086020526040902080546001600160401b0392909216600160401b0267ffffffffffffffff60401b199092169190911790555b5f5b846001600160401b03168110156113dc576004805460ff191660021790556001600160a01b0382166342842e0e61124a3390565b308a8a8681811061125d5761125d612c13565b6040516001600160e01b031960e088901b1681526001600160a01b039586166004820152949093166024850152506020909102013560448201526064015f604051808303815f87803b1580156112b1575f80fd5b505af11580156112c3573d5f803e3d5ffd5b50506004805460ff19166001179055506112dc90503390565b60095f8989858181106112f1576112f1612c13565b9050602002013581526020019081526020015f205f6101000a8154816001600160a01b0302191690836001600160a01b0316021790555060075f88888481811061133d5761133d612c13565b602090810292909201358352508101919091526040015f205460ff166113d457600160075f89898581811061137457611374612c13565b9050602002013581526020019081526020015f205f6101000a81548160ff02191690831515021790555060058787838181106113b2576113b2612c13565b83546001810185555f9485526020948590209190940292909201359190920155505b600101611216565b50335f90815260086020526040812080548692906114049084906001600160401b0316612cda565b92506101000a8154816001600160401b0302191690836001600160401b031602179055508585604051611438929190612cf9565b60405180910390206114473390565b6001600160a01b03167f540cd34f06460fd67aeca9d19e0a56cd3a7c1cde8dc2263f265b68b2ef3495d260405160405180910390a3505050505050565b5f6114976001546001600160a01b031690565b6001600160a01b0316336001600160a01b031614905090565b600180546001600160a01b038381166001600160a01b0319831681179093556040519116919082907f8292fce18fa69edf4db7b94ea2e58241df0ae57f97e0a6c9b29067028bf92d76905f90a35050565b6001546001600160a01b0316331461152b5760405162461bcd60e51b815260040161021190612beb565b5f7f00000000000000000000000000000000000000000000000000000000000000006001600160a01b031673eeeeeeeeeeeeeeeeeeeeeeeeeeeeeeeeeeeeeeee14611596577f00000000000000000000000000000000000000000000000000000000000000006115b8565b7f00000000000000000000000000000000000000000000000000000000000000005b6040516370a0823160e01b81523060048201529091505f906001600160a01b038316906370a0823190602401602060405180830381865afa1580156115ff573d5f803e3d5ffd5b505050506040513d601f19601f820116820180604052508101906116239190612d20565b90506116727f00000000000000000000000000000000000000000000000000000000000000003330867f0000000000000000000000000000000000000000000000000000000000000000612041565b6040516370a0823160e01b81523060048201525f9082906001600160a01b038516906370a0823190602401602060405180830381865afa1580156116b8573d5f803e3d5ffd5b505050506040513d601f19601f820116820180604052508101906116dc9190612d20565b6116e69190612d37565b905080600b5f8282546116f99190612c8f565b909155505050505050565b815f0361174a5760405162461bcd60e51b8152602060048201526014602482015273074696d652d756e69742063616e277420626520360641b6044820152606401610211565b6004805461010090046001600160401b0316906001908161176b8185612cda565b82546001600160401b039182166101009390930a928302919092021990911617905550604080516080810182528481526020808201858152428385019081525f60608501818152878252600a909452949094209251835551600183015591516002820155905160039091015580156118005742600a5f6117ec600185612d37565b815260208101919091526040015f20600301555b505050565b5f61180f3361218d565b335f9081526008602052604090206001015461182b9190612c8f565b9050805f036118695760405162461bcd60e51b815260206004820152600a6024820152694e6f207265776172647360b01b6044820152606401610211565b335f9081526008602052604081208054426001600160801b03908116600160801b0291161781556001908101919091556004546118b4919061010090046001600160401b0316612b95565b335f81815260086020526040902080546001600160401b0393909316600160401b0267ffffffffffffffff60401b19909316929092179091556118f79082612311565b60405181815233907ffc30cddea38e2bf4d6ea7d3f9ed3b6ad7f176419f4963bd81318067a4aee73fe9060200160405180910390a250565b5f80805461193c90612ca2565b80601f016020809104026020016040519081016040528092919081815260200182805461196890612ca2565b80156119b35780601f1061198a576101008083540402835291602001916119b3565b820191905f5260205f20905b81548152906001019060200180831161199657829003601f168201915b50505050509050815f90816119c89190612d8e565b507fc9c7c3fe08b88b4df9d4d47ef47d2c43d55c025a0ba88ca442580ed9e7348a1681836040516108fe929190612e48565b335f908152600860205260408120546001600160401b0390811691839182169003611a5e5760405162461bcd60e51b81526020600482015260146024820152735769746864726177696e67203020746f6b656e7360601b6044820152606401610211565b806001600160401b0316821015611ab75760405162461bcd60e51b815260206004820152601c60248201527f5769746864726177696e67206d6f7265207468616e207374616b6564000000006044820152606401610211565b7f0000000000000000000000000000000000000000000000000000000000000000611ae133611f70565b816001600160401b03168303611c30575f6006805480602002602001604051908101604052809291908181526020018280548015611b4657602002820191905f5260205f20905b81546001600160a01b03168152600190910190602001808311611b28575b505050505090505f5b8151811015611c2d57336001600160a01b0316828281518110611b7457611b74612c13565b60200260200101516001600160a01b031603611c25578160018351611b999190612d37565b81518110611ba957611ba9612c13565b602002602001015160068281548110611bc457611bc4612c13565b905f5260205f20015f6101000a8154816001600160a01b0302191690836001600160a01b031602179055506006805480611c0057611c00612e75565b5f8281526020902081015f1990810180546001600160a01b0319169055019055611c2d565b600101611b4f565b50505b335f9081526008602052604081208054849290611c579084906001600160401b0316612b95565b92506101000a8154816001600160401b0302191690836001600160401b031602179055505f5b826001600160401b0316811015611dd8573360095f888885818110611ca457611ca4612c13565b602090810292909201358352508101919091526040015f20546001600160a01b031614611d005760405162461bcd60e51b815260206004820152600a6024820152692737ba1039ba30b5b2b960b11b6044820152606401610211565b5f60095f888885818110611d1657611d16612c13565b602090810292909201358352508101919091526040015f2080546001600160a01b0319166001600160a01b0392831617905582166342842e0e3033898986818110611d6357611d63612c13565b6040516001600160e01b031960e088901b1681526001600160a01b039586166004820152949093166024850152506020909102013560448201526064015f604051808303815f87803b158015611db7575f80fd5b505af1158015611dc9573d5f803e3d5ffd5b50505050806001019050611c7d565b508484604051611de9929190612cf9565b6040518091039020611df83390565b6001600160a01b03167f09ba0ae49142860d7eec1f3ce54722d70b60910facbe018cccb1099e4e84755c60405160405180910390a35050505050565b6060611e598383604051806060016040528060278152602001612f09602791396123cb565b9392505050565b6001600160a01b0381165f908152600860205260408120546001600160401b03168103611ea557506001600160a01b03165f9081526008602052604090206001015490565b611eae8261218d565b6001600160a01b0383165f908152600860205260409020600101546106a19190612c8f565b919050565b6001546001600160a01b03163314611f025760405162461bcd60e51b815260040161021190612beb565b600b548111611f1e5780600b54611f199190612d37565b611f20565b5f5b600b556107527f00000000000000000000000000000000000000000000000000000000000000003033847f0000000000000000000000000000000000000000000000000000000000000000612041565b5f611f7a8261218d565b6001600160a01b0383165f90815260086020526040812060010180549293508392909190611fa9908490612c8f565b90915550506001600160a01b0382165f90815260086020526040902080546001600160801b03428116600160801b029116179055600454611ffb906001906001600160401b0361010090910416612b95565b6001600160a01b039092165f90815260086020526040902080546001600160401b0393909316600160401b0267ffffffffffffffff60401b199093169290921790915550565b81156121865773eeeeeeeeeeeeeeeeeeeeeeeeeeeeeeeeeeeeeeed196001600160a01b0386160161217a57306001600160a01b038516036120e157604051632e1a7d4d60e01b8152600481018390526001600160a01b03821690632e1a7d4d906024015f604051808303815f87803b1580156120bb575f80fd5b505af11580156120cd573d5f803e3d5ffd5b505050506120dc83838361243f565b612186565b306001600160a01b0384160361216f5734821461211a576040516303e085f960e01b815234600482015260248101839052604401610211565b806001600160a01b031663d0e30db0836040518263ffffffff1660e01b81526004015f604051808303818588803b158015612153575f80fd5b505af1158015612165573d5f803e3d5ffd5b5050505050612186565b6120dc83838361243f565b61218685858585612502565b5050505050565b6001600160a01b0381165f908152600860209081526040808320815160808101835281546001600160401b038082168352600160401b82048116958301869052600160801b9091046001600160801b031693820193909352600190910154606082015260045490929161010090910416815b81811015612308575f818152600a602090815260408083208151608081018352815481526001820154938101939093526002810154918301919091526003015460608201529084830361225f5785604001516001600160801b0316612265565b81604001515b90505f82606001515f03612279574261227f565b82606001515b90505f806122b3895f01516001600160401b0316858561229f9190612d37565b6122a99190612e89565b866020015161255a565b915091505f806122d18c885f0151856122cc9190612eb4565b6125a1565b915091508380156122df5750815b6122e9578b6122eb565b805b9b50505050505050506001816123019190612c8f565b90506121ff565b50505050919050565b600b548111156123635760405162461bcd60e51b815260206004820152601860248201527f4e6f7420656e6f7567682072657761726420746f6b656e7300000000000000006044820152606401610211565b80600b5f8282546123749190612d37565b909155506123c790507f00000000000000000000000000000000000000000000000000000000000000003084847f0000000000000000000000000000000000000000000000000000000000000000612041565b5050565b60605f80856001600160a01b0316856040516123e79190612ed3565b5f60405180830381855af49150503d805f811461241f576040519150601f19603f3d011682016040523d82523d5f602084013e612424565b606091505b5091509150612435868383876125ba565b9695505050505050565b5f836001600160a01b0316836040515f6040518083038185875af1925050503d805f8114612488576040519150601f19603f3d011682016040523d82523d5f602084013e61248d565b606091505b50509050806124fc57816001600160a01b031663d0e30db0846040518263ffffffff1660e01b81526004015f604051808303818588803b1580156124cf575f80fd5b505af11580156124e1573d5f803e3d5ffd5b506124fc935050506001600160a01b0384169050858561263a565b50505050565b816001600160a01b0316836001600160a01b031603156124fc57306001600160a01b03841603612545576125406001600160a01b038516838361263a565b6124fc565b6124fc6001600160a01b03851684848461269d565b5f80835f0361256e5750600190505f61259a565b8383028385828161258157612581612ea0565b0414612593575f80925092505061259a565b6001925090505b9250929050565b5f8083830184811015612593575f80925092505061259a565b606083156126285782515f03612621576001600160a01b0385163b6126215760405162461bcd60e51b815260206004820152601d60248201527f416464726573733a2063616c6c20746f206e6f6e2d636f6e74726163740000006044820152606401610211565b5081612632565b61263283836126d5565b949350505050565b6040516001600160a01b03831660248201526044810182905261180090849063a9059cbb60e01b906064015b60408051601f198184030181529190526020810180516001600160e01b03166001600160e01b0319909316929092179091526126ff565b6040516001600160a01b03808516602483015283166044820152606481018290526124fc9085906323b872dd60e01b90608401612666565b8151156126e55781518083602001fd5b8060405162461bcd60e51b81526004016102119190612b6f565b5f612753826040518060400160405280602081526020017f5361666545524332303a206c6f772d6c6576656c2063616c6c206661696c6564815250856001600160a01b03166127d09092919063ffffffff16565b80519091501561180057808060200190518101906127719190612ee9565b6118005760405162461bcd60e51b815260206004820152602a60248201527f5361666545524332303a204552433230206f7065726174696f6e20646964206e6044820152691bdd081cdd58d8d9595960b21b6064820152608401610211565b606061263284845f85855f80866001600160a01b031685876040516127f59190612ed3565b5f6040518083038185875af1925050503d805f811461282f576040519150601f19603f3d011682016040523d82523d5f602084013e612834565b606091505b5091509150612845878383876125ba565b979650505050505050565b5f60208284031215612860575f80fd5b81356001600160e01b031981168114611e59575f80fd5b5f8083601f840112612887575f80fd5b5081356001600160401b0381111561289d575f80fd5b6020830191508360208260051b850101111561259a575f80fd5b5f80602083850312156128c8575f80fd5b82356001600160401b038111156128dd575f80fd5b6128e985828601612877565b90969095509350505050565b80356001600160a01b0381168114611ed3575f80fd5b5f6020828403121561291b575f80fd5b611e59826128f5565b5f805f805f60808688031215612938575f80fd5b612941866128f5565b945061294f602087016128f5565b93506040860135925060608601356001600160401b03811115612970575f80fd5b8601601f81018813612980575f80fd5b80356001600160401b03811115612995575f80fd5b8860208284010111156129a6575f80fd5b959894975092955050506020019190565b5f602082840312156129c7575f80fd5b5035919050565b634e487b7160e01b5f52604160045260245ffd5b5f602082840312156129f2575f80fd5b81356001600160401b03811115612a07575f80fd5b8201601f81018413612a17575f80fd5b80356001600160401b03811115612a3057612a306129ce565b604051601f8201601f19908116603f011681016001600160401b0381118282101715612a5e57612a5e6129ce565b604052818152828201602001861015612a75575f80fd5b816020840160208301375f91810160200191909152949350505050565b5f81518084528060208401602086015e5f602082860101526020601f19601f83011685010191505092915050565b5f602082016020835280845180835260408501915060408160051b8601019250602086015f5b82811015612b1757603f19878603018452612b02858351612a92565b94506020938401939190910190600101612ae6565b50929695505050505050565b604080825283519082018190525f9060208501906060840190835b81811015612b5c578351835260209384019390920191600101612b3e565b5050602093909301939093525092915050565b602081525f611e596020830184612a92565b634e487b7160e01b5f52601160045260245ffd5b6001600160401b0382811682821603908111156106a1576106a1612b81565b6020808252601f908201527f5265656e7472616e637947756172643a207265656e7472616e742063616c6c00604082015260600190565b6020808252600e908201526d139bdd08185d5d1a1bdc9a5e995960921b604082015260600190565b634e487b7160e01b5f52603260045260245ffd5b5f808335601e19843603018112612c3c575f80fd5b8301803591506001600160401b03821115612c55575f80fd5b60200191503681900382131561259a575f80fd5b8284823760609190911b6bffffffffffffffffffffffff19169101908152601401919050565b808201808211156106a1576106a1612b81565b600181811c90821680612cb657607f821691505b602082108103612cd457634e487b7160e01b5f52602260045260245ffd5b50919050565b6001600160401b0381811683821601908111156106a1576106a1612b81565b5f6001600160fb1b03831115612d0d575f80fd5b8260051b80858437919091019392505050565b5f60208284031215612d30575f80fd5b5051919050565b818103818111156106a1576106a1612b81565b601f82111561180057805f5260205f20601f840160051c81016020851015612d6f5750805b601f840160051c820191505b81811015612186575f8155600101612d7b565b81516001600160401b03811115612da757612da76129ce565b612dbb81612db58454612ca2565b84612d4a565b6020601f821160018114612ded575f8315612dd65750848201515b5f19600385901b1c1916600184901b178455612186565b5f84815260208120601f198516915b82811015612e1c5787850151825560209485019460019092019101612dfc565b5084821015612e3957868401515f19600387901b60f8161c191681555b50505050600190811b01905550565b604081525f612e5a6040830185612a92565b8281036020840152612e6c8185612a92565b95945050505050565b634e487b7160e01b5f52603160045260245ffd5b80820281158282048414176106a1576106a1612b81565b634e487b7160e01b5f52601260045260245ffd5b5f82612ece57634e487b7160e01b5f52601260045260245ffd5b500490565b5f82518060208501845e5f920191825250919050565b5f60208284031215612ef9575f80fd5b81518015158114611e59575f80fdfe416464726573733a206c6f772d6c6576656c2064656c65676174652063616c6c206661696c6564a2646970667358221220f5e1fd2496f0afa0328a6933903d41e344edbe237f12b3cbd1be947415461d8e64736f6c634300081a0033",
			"opcodes": "PUSH1 0xE0 PUSH1 0x40 MSTORE PUSH1 0x4 DUP1 SLOAD PUSH1 0xFF NOT AND PUSH1 0x1 OR SWAP1 SSTORE CALLVALUE DUP1 ISZERO PUSH2 0x1C JUMPI PUSH0 DUP1 REVERT JUMPDEST POP PUSH1 0x40 MLOAD PUSH2 0x3472 CODESIZE SUB DUP1 PUSH2 0x3472 DUP4 CODECOPY DUP2 ADD PUSH1 0x40 DUP2 SWAP1 MSTORE PUSH2 0x3B SWAP2 PUSH2 0x325 JUMP JUMPDEST PUSH1 0x1 PUSH1 0x2 SSTORE DUP4 DUP2 PUSH1 0x1 PUSH1 0x1 PUSH1 0xA0 SHL SUB DUP3 AND PUSH2 0x9D JUMPI PUSH1 0x40 MLOAD PUSH3 0x461BCD PUSH1 0xE5 SHL DUP2 MSTORE PUSH1 0x20 PUSH1 0x4 DUP3 ADD MSTORE PUSH1 0x14 PUSH1 0x24 DUP3 ADD MSTORE PUSH32 0x636F6C6C656374696F6E20616464726573732030000000000000000000000000 PUSH1 0x44 DUP3 ADD MSTORE PUSH1 0x64 ADD JUMPDEST PUSH1 0x40 MLOAD DUP1 SWAP2 SUB SWAP1 REVERT JUMPDEST PUSH0 DUP2 MLOAD GT PUSH2 0xED JUMPI PUSH1 0x40 MLOAD PUSH3 0x461BCD PUSH1 0xE5 SHL DUP2 MSTORE PUSH1 0x20 PUSH1 0x4 DUP3 ADD MSTORE PUSH1 0x13 PUSH1 0x24 DUP3 ADD MSTORE PUSH32 0x4E6F20616C6C6F77656420746F6B656E20696400000000000000000000000000 PUSH1 0x44 DUP3 ADD MSTORE PUSH1 0x64 ADD PUSH2 0x94 JUMP JUMPDEST DUP1 MLOAD PUSH2 0x100 SWAP1 PUSH1 0x3 SWAP1 PUSH1 0x20 DUP5 ADD SWAP1 PUSH2 0x299 JUMP JUMPDEST POP POP PUSH1 0x1 PUSH1 0x1 PUSH1 0xA0 SHL SUB AND PUSH1 0x80 MSTORE PUSH2 0x117 DUP8 PUSH2 0x13E JUMP JUMPDEST PUSH2 0x121 DUP7 DUP7 PUSH2 0x18F JUMP JUMPDEST POP PUSH1 0x1 PUSH1 0x1 PUSH1 0xA0 SHL SUB SWAP2 DUP3 AND PUSH1 0xA0 MSTORE AND PUSH1 0xC0 MSTORE POP PUSH2 0x48F SWAP3 POP POP POP JUMP JUMPDEST PUSH1 0x1 DUP1 SLOAD PUSH1 0x1 PUSH1 0x1 PUSH1 0xA0 SHL SUB DUP4 DUP2 AND PUSH1 0x1 PUSH1 0x1 PUSH1 0xA0 SHL SUB NOT DUP4 AND DUP2 OR SWAP1 SWAP4 SSTORE PUSH1 0x40 MLOAD SWAP2 AND SWAP2 SWAP1 DUP3 SWAP1 PUSH32 0x8292FCE18FA69EDF4DB7B94EA2E58241DF0AE57F97E0A6C9B29067028BF92D76 SWAP1 PUSH0 SWAP1 LOG3 POP POP JUMP JUMPDEST DUP2 PUSH0 SUB PUSH2 0x1DE JUMPI PUSH1 0x40 MLOAD PUSH3 0x461BCD PUSH1 0xE5 SHL DUP2 MSTORE PUSH1 0x20 PUSH1 0x4 DUP3 ADD MSTORE PUSH1 0x14 PUSH1 0x24 DUP3 ADD MSTORE PUSH32 0x74696D652D756E69742063616E27742062652030000000000000000000000000 PUSH1 0x44 DUP3 ADD MSTORE PUSH1 0x64 ADD PUSH2 0x94 JUMP JUMPDEST PUSH1 0x4 DUP1 SLOAD PUSH2 0x100 SWAP1 DIV PUSH1 0x1 PUSH1 0x1 PUSH1 0x40 SHL SUB AND SWAP1 PUSH1 0x1 SWAP1 DUP2 PUSH2 0x1FF DUP2 DUP6 PUSH2 0x457 JUMP JUMPDEST DUP3 SLOAD PUSH1 0x1 PUSH1 0x1 PUSH1 0x40 SHL SUB SWAP2 DUP3 AND PUSH2 0x100 SWAP4 SWAP1 SWAP4 EXP SWAP3 DUP4 MUL SWAP2 SWAP1 SWAP3 MUL NOT SWAP1 SWAP2 AND OR SWAP1 SSTORE POP PUSH1 0x40 DUP1 MLOAD PUSH1 0x80 DUP2 ADD DUP3 MSTORE DUP5 DUP2 MSTORE PUSH1 0x20 DUP1 DUP3 ADD DUP6 DUP2 MSTORE TIMESTAMP DUP4 DUP6 ADD SWAP1 DUP2 MSTORE PUSH0 PUSH1 0x60 DUP6 ADD DUP2 DUP2 MSTORE DUP8 DUP3 MSTORE PUSH1 0xA SWAP1 SWAP5 MSTORE SWAP5 SWAP1 SWAP5 KECCAK256 SWAP3 MLOAD DUP4 SSTORE MLOAD PUSH1 0x1 DUP4 ADD SSTORE SWAP2 MLOAD PUSH1 0x2 DUP3 ADD SSTORE SWAP1 MLOAD PUSH1 0x3 SWAP1 SWAP2 ADD SSTORE DUP1 ISZERO PUSH2 0x294 JUMPI TIMESTAMP PUSH1 0xA PUSH0 PUSH2 0x280 PUSH1 0x1 DUP6 PUSH2 0x47C JUMP JUMPDEST DUP2 MSTORE PUSH1 0x20 DUP2 ADD SWAP2 SWAP1 SWAP2 MSTORE PUSH1 0x40 ADD PUSH0 KECCAK256 PUSH1 0x3 ADD SSTORE JUMPDEST POP POP POP JUMP JUMPDEST DUP3 DUP1 SLOAD DUP3 DUP3 SSTORE SWAP1 PUSH0 MSTORE PUSH1 0x20 PUSH0 KECCAK256 SWAP1 DUP2 ADD SWAP3 DUP3 ISZERO PUSH2 0x2D2 JUMPI SWAP2 PUSH1 0x20 MUL DUP3 ADD JUMPDEST DUP3 DUP2 GT ISZERO PUSH2 0x2D2 JUMPI DUP3 MLOAD DUP3 SSTORE SWAP2 PUSH1 0x20 ADD SWAP2 SWAP1 PUSH1 0x1 ADD SWAP1 PUSH2 0x2B7 JUMP JUMPDEST POP PUSH2 0x2DE SWAP3 SWAP2 POP PUSH2 0x2E2 JUMP JUMPDEST POP SWAP1 JUMP JUMPDEST JUMPDEST DUP1 DUP3 GT ISZERO PUSH2 0x2DE JUMPI PUSH0 DUP2 SSTORE PUSH1 0x1 ADD PUSH2 0x2E3 JUMP JUMPDEST DUP1 MLOAD PUSH1 0x1 PUSH1 0x1 PUSH1 0xA0 SHL SUB DUP2 AND DUP2 EQ PUSH2 0x30C JUMPI PUSH0 DUP1 REVERT JUMPDEST SWAP2 SWAP1 POP JUMP JUMPDEST PUSH4 0x4E487B71 PUSH1 0xE0 SHL PUSH0 MSTORE PUSH1 0x41 PUSH1 0x4 MSTORE PUSH1 0x24 PUSH0 REVERT JUMPDEST PUSH0 DUP1 PUSH0 DUP1 PUSH0 DUP1 PUSH0 PUSH1 0xE0 DUP9 DUP11 SUB SLT ISZERO PUSH2 0x33B JUMPI PUSH0 DUP1 REVERT JUMPDEST PUSH2 0x344 DUP9 PUSH2 0x2F6 JUMP JUMPDEST PUSH1 0x20 DUP10 ADD MLOAD PUSH1 0x40 DUP11 ADD MLOAD SWAP2 SWAP9 POP SWAP7 POP SWAP5 POP PUSH2 0x361 PUSH1 0x60 DUP10 ADD PUSH2 0x2F6 JUMP JUMPDEST SWAP4 POP PUSH2 0x36F PUSH1 0x80 DUP10 ADD PUSH2 0x2F6 JUMP JUMPDEST SWAP3 POP PUSH2 0x37D PUSH1 0xA0 DUP10 ADD PUSH2 0x2F6 JUMP JUMPDEST PUSH1 0xC0 DUP10 ADD MLOAD SWAP1 SWAP3 POP PUSH1 0x1 PUSH1 0x1 PUSH1 0x40 SHL SUB DUP2 GT ISZERO PUSH2 0x398 JUMPI PUSH0 DUP1 REVERT JUMPDEST DUP9 ADD PUSH1 0x1F DUP2 ADD DUP11 SGT PUSH2 0x3A8 JUMPI PUSH0 DUP1 REVERT JUMPDEST DUP1 MLOAD PUSH1 0x1 PUSH1 0x1 PUSH1 0x40 SHL SUB DUP2 GT ISZERO PUSH2 0x3C1 JUMPI PUSH2 0x3C1 PUSH2 0x311 JUMP JUMPDEST PUSH1 0x40 MLOAD PUSH1 0x5 DUP3 SWAP1 SHL SWAP1 PUSH1 0x3F DUP3 ADD PUSH1 0x1F NOT AND DUP2 ADD PUSH1 0x1 PUSH1 0x1 PUSH1 0x40 SHL SUB DUP2 GT DUP3 DUP3 LT OR ISZERO PUSH2 0x3EF JUMPI PUSH2 0x3EF PUSH2 0x311 JUMP JUMPDEST PUSH1 0x40 MSTORE SWAP2 DUP3 MSTORE PUSH1 0x20 DUP2 DUP5 ADD DUP2 ADD SWAP3 SWAP1 DUP2 ADD DUP14 DUP5 GT ISZERO PUSH2 0x40C JUMPI PUSH0 DUP1 REVERT JUMPDEST PUSH1 0x20 DUP6 ADD SWAP5 POP JUMPDEST DUP4 DUP6 LT ISZERO PUSH2 0x42F JUMPI DUP5 MLOAD DUP1 DUP3 MSTORE PUSH1 0x20 SWAP6 DUP7 ADD SWAP6 SWAP1 SWAP4 POP ADD PUSH2 0x413 JUMP JUMPDEST POP DUP1 SWAP5 POP POP POP POP POP SWAP3 SWAP6 SWAP9 SWAP2 SWAP5 SWAP8 POP SWAP3 SWAP6 POP JUMP JUMPDEST PUSH4 0x4E487B71 PUSH1 0xE0 SHL PUSH0 MSTORE PUSH1 0x11 PUSH1 0x4 MSTORE PUSH1 0x24 PUSH0 REVERT JUMPDEST PUSH1 0x1 PUSH1 0x1 PUSH1 0x40 SHL SUB DUP2 DUP2 AND DUP4 DUP3 AND ADD SWAP1 DUP2 GT ISZERO PUSH2 0x476 JUMPI PUSH2 0x476 PUSH2 0x443 JUMP JUMPDEST SWAP3 SWAP2 POP POP JUMP JUMPDEST DUP2 DUP2 SUB DUP2 DUP2 GT ISZERO PUSH2 0x476 JUMPI PUSH2 0x476 PUSH2 0x443 JUMP JUMPDEST PUSH1 0x80 MLOAD PUSH1 0xA0 MLOAD PUSH1 0xC0 MLOAD PUSH2 0x2F65 PUSH2 0x50D PUSH0 CODECOPY PUSH0 DUP2 DUP2 PUSH2 0x1A8 ADD MSTORE DUP2 DUP2 PUSH2 0x621 ADD MSTORE DUP2 DUP2 PUSH2 0x1598 ADD MSTORE DUP2 DUP2 PUSH2 0x164E ADD MSTORE DUP2 DUP2 PUSH2 0x1F4C ADD MSTORE PUSH2 0x23A3 ADD MSTORE PUSH0 DUP2 DUP2 PUSH2 0x5EE ADD MSTORE DUP2 DUP2 PUSH2 0x152E ADD MSTORE DUP2 DUP2 PUSH2 0x1572 ADD MSTORE DUP2 DUP2 PUSH2 0x162A ADD MSTORE DUP2 DUP2 PUSH2 0x1F28 ADD MSTORE PUSH2 0x237F ADD MSTORE PUSH0 DUP2 DUP2 PUSH2 0x399 ADD MSTORE DUP2 DUP2 PUSH2 0x111B ADD MSTORE PUSH2 0x1AB9 ADD MSTORE PUSH2 0x2F65 PUSH0 RETURN INVALID PUSH1 0x80 PUSH1 0x40 MSTORE PUSH1 0x4 CALLDATASIZE LT PUSH2 0x198 JUMPI PUSH0 CALLDATALOAD PUSH1 0xE0 SHR DUP1 PUSH4 0x938E3D7B GT PUSH2 0xE7 JUMPI DUP1 PUSH4 0xCB43B2DD GT PUSH2 0x87 JUMPI DUP1 PUSH4 0xF0CFAD98 GT PUSH2 0x62 JUMPI DUP1 PUSH4 0xF0CFAD98 EQ PUSH2 0x5BE JUMPI DUP1 PUSH4 0xF7C618C1 EQ PUSH2 0x5DD JUMPI DUP1 PUSH4 0xF9EA29CB EQ PUSH2 0x610 JUMPI DUP1 PUSH4 0xFD48BA17 EQ PUSH2 0x643 JUMPI PUSH0 DUP1 REVERT JUMPDEST DUP1 PUSH4 0xCB43B2DD EQ PUSH2 0x56A JUMPI DUP1 PUSH4 0xD68124C7 EQ PUSH2 0x589 JUMPI DUP1 PUSH4 0xE8A3D485 EQ PUSH2 0x59D JUMPI PUSH0 DUP1 REVERT JUMPDEST DUP1 PUSH4 0x961004D3 GT PUSH2 0xC2 JUMPI DUP1 PUSH4 0x961004D3 EQ PUSH2 0x4D3 JUMPI DUP1 PUSH4 0x983D95CE EQ PUSH2 0x4F2 JUMPI DUP1 PUSH4 0xAC9650D8 EQ PUSH2 0x511 JUMPI DUP1 PUSH4 0xC3453153 EQ PUSH2 0x53D JUMPI PUSH0 DUP1 REVERT JUMPDEST DUP1 PUSH4 0x938E3D7B EQ PUSH2 0x46C JUMPI DUP1 PUSH4 0x93CE5343 EQ PUSH2 0x48B JUMPI DUP1 PUSH4 0x94067045 EQ PUSH2 0x49F JUMPI PUSH0 DUP1 REVERT JUMPDEST DUP1 PUSH4 0x23EF2580 GT PUSH2 0x152 JUMPI DUP1 PUSH4 0x6360106F GT PUSH2 0x12D JUMPI DUP1 PUSH4 0x6360106F EQ PUSH2 0x369 JUMPI DUP1 PUSH4 0x72F702F3 EQ PUSH2 0x388 JUMPI DUP1 PUSH4 0x8DA5CB5B EQ PUSH2 0x3BB JUMPI DUP1 PUSH4 0x9168AE72 EQ PUSH2 0x3D8 JUMPI PUSH0 DUP1 REVERT JUMPDEST DUP1 PUSH4 0x23EF2580 EQ PUSH2 0x2FF JUMPI DUP1 PUSH4 0x372500AB EQ PUSH2 0x31E JUMPI DUP1 PUSH4 0x5357E916 EQ PUSH2 0x332 JUMPI PUSH0 DUP1 REVERT JUMPDEST DUP1 PUSH4 0x1FFC9A7 EQ PUSH2 0x220 JUMPI DUP1 PUSH4 0xE8B229B EQ PUSH2 0x254 JUMPI DUP1 PUSH4 0xFBF0A93 EQ PUSH2 0x276 JUMPI DUP1 PUSH4 0x13AF4035 EQ PUSH2 0x295 JUMPI DUP1 PUSH4 0x150B7A02 EQ PUSH2 0x2B4 JUMPI DUP1 PUSH4 0x16C621E0 EQ PUSH2 0x2EC JUMPI PUSH0 DUP1 REVERT JUMPDEST CALLDATASIZE PUSH2 0x21C JUMPI CALLER PUSH1 0x1 PUSH1 0x1 PUSH1 0xA0 SHL SUB PUSH32 0x0 AND EQ PUSH2 0x21A JUMPI PUSH1 0x40 MLOAD PUSH3 0x461BCD PUSH1 0xE5 SHL DUP2 MSTORE PUSH1 0x20 PUSH1 0x4 DUP3 ADD DUP2 SWAP1 MSTORE PUSH1 0x24 DUP3 ADD MSTORE PUSH32 0x63616C6C6572206E6F74206E617469766520746F6B656E20777261707065722E PUSH1 0x44 DUP3 ADD MSTORE PUSH1 0x64 ADD JUMPDEST PUSH1 0x40 MLOAD DUP1 SWAP2 SUB SWAP1 REVERT JUMPDEST STOP JUMPDEST PUSH0 DUP1 REVERT JUMPDEST CALLVALUE DUP1 ISZERO PUSH2 0x22B JUMPI PUSH0 DUP1 REVERT JUMPDEST POP PUSH2 0x23F PUSH2 0x23A CALLDATASIZE PUSH1 0x4 PUSH2 0x2850 JUMP JUMPDEST PUSH2 0x671 JUMP JUMPDEST PUSH1 0x40 MLOAD SWAP1 ISZERO ISZERO DUP2 MSTORE PUSH1 0x20 ADD JUMPDEST PUSH1 0x40 MLOAD DUP1 SWAP2 SUB SWAP1 RETURN JUMPDEST CALLVALUE DUP1 ISZERO PUSH2 0x25F JUMPI PUSH0 DUP1 REVERT JUMPDEST POP PUSH2 0x268 PUSH2 0x6A7 JUMP JUMPDEST PUSH1 0x40 MLOAD SWAP1 DUP2 MSTORE PUSH1 0x20 ADD PUSH2 0x24B JUMP JUMPDEST CALLVALUE DUP1 ISZERO PUSH2 0x281 JUMPI PUSH0 DUP1 REVERT JUMPDEST POP PUSH2 0x21A PUSH2 0x290 CALLDATASIZE PUSH1 0x4 PUSH2 0x28B7 JUMP JUMPDEST PUSH2 0x6EC JUMP JUMPDEST CALLVALUE DUP1 ISZERO PUSH2 0x2A0 JUMPI PUSH0 DUP1 REVERT JUMPDEST POP PUSH2 0x21A PUSH2 0x2AF CALLDATASIZE PUSH1 0x4 PUSH2 0x290B JUMP JUMPDEST PUSH2 0x724 JUMP JUMPDEST CALLVALUE DUP1 ISZERO PUSH2 0x2BF JUMPI PUSH0 DUP1 REVERT JUMPDEST POP PUSH2 0x2D3 PUSH2 0x2CE CALLDATASIZE PUSH1 0x4 PUSH2 0x2924 JUMP JUMPDEST PUSH2 0x755 JUMP JUMPDEST PUSH1 0x40 MLOAD PUSH1 0x1 PUSH1 0x1 PUSH1 0xE0 SHL SUB NOT SWAP1 SWAP2 AND DUP2 MSTORE PUSH1 0x20 ADD PUSH2 0x24B JUMP JUMPDEST PUSH2 0x21A PUSH2 0x2FA CALLDATASIZE PUSH1 0x4 PUSH2 0x29B7 JUMP JUMPDEST PUSH2 0x7B0 JUMP JUMPDEST CALLVALUE DUP1 ISZERO PUSH2 0x30A JUMPI PUSH0 DUP1 REVERT JUMPDEST POP PUSH2 0x21A PUSH2 0x319 CALLDATASIZE PUSH1 0x4 PUSH2 0x29B7 JUMP JUMPDEST PUSH2 0x7E6 JUMP JUMPDEST CALLVALUE DUP1 ISZERO PUSH2 0x329 JUMPI PUSH0 DUP1 REVERT JUMPDEST POP PUSH2 0x21A PUSH2 0x90A JUMP JUMPDEST CALLVALUE DUP1 ISZERO PUSH2 0x33D JUMPI PUSH0 DUP1 REVERT JUMPDEST POP PUSH2 0x351 PUSH2 0x34C CALLDATASIZE PUSH1 0x4 PUSH2 0x29B7 JUMP JUMPDEST PUSH2 0x93E JUMP JUMPDEST PUSH1 0x40 MLOAD PUSH1 0x1 PUSH1 0x1 PUSH1 0xA0 SHL SUB SWAP1 SWAP2 AND DUP2 MSTORE PUSH1 0x20 ADD PUSH2 0x24B JUMP JUMPDEST CALLVALUE DUP1 ISZERO PUSH2 0x374 JUMPI PUSH0 DUP1 REVERT JUMPDEST POP PUSH2 0x21A PUSH2 0x383 CALLDATASIZE PUSH1 0x4 PUSH2 0x29B7 JUMP JUMPDEST PUSH2 0x966 JUMP JUMPDEST CALLVALUE DUP1 ISZERO PUSH2 0x393 JUMPI PUSH0 DUP1 REVERT JUMPDEST POP PUSH2 0x351 PUSH32 0x0 DUP2 JUMP JUMPDEST CALLVALUE DUP1 ISZERO PUSH2 0x3C6 JUMPI PUSH0 DUP1 REVERT JUMPDEST POP PUSH1 0x1 SLOAD PUSH1 0x1 PUSH1 0x1 PUSH1 0xA0 SHL SUB AND PUSH2 0x351 JUMP JUMPDEST CALLVALUE DUP1 ISZERO PUSH2 0x3E3 JUMPI PUSH0 DUP1 REVERT JUMPDEST POP PUSH2 0x433 PUSH2 0x3F2 CALLDATASIZE PUSH1 0x4 PUSH2 0x290B JUMP JUMPDEST PUSH1 0x8 PUSH1 0x20 MSTORE PUSH0 SWAP1 DUP2 MSTORE PUSH1 0x40 SWAP1 KECCAK256 DUP1 SLOAD PUSH1 0x1 SWAP1 SWAP2 ADD SLOAD PUSH1 0x1 PUSH1 0x1 PUSH1 0x40 SHL SUB DUP1 DUP4 AND SWAP3 PUSH1 0x1 PUSH1 0x40 SHL DUP2 DIV SWAP1 SWAP2 AND SWAP2 PUSH1 0x1 PUSH1 0x80 SHL SWAP1 SWAP2 DIV PUSH1 0x1 PUSH1 0x1 PUSH1 0x80 SHL SUB AND SWAP1 DUP5 JUMP JUMPDEST PUSH1 0x40 DUP1 MLOAD PUSH1 0x1 PUSH1 0x1 PUSH1 0x40 SHL SUB SWAP6 DUP7 AND DUP2 MSTORE SWAP5 SWAP1 SWAP4 AND PUSH1 0x20 DUP6 ADD MSTORE PUSH1 0x1 PUSH1 0x1 PUSH1 0x80 SHL SUB SWAP1 SWAP2 AND SWAP2 DUP4 ADD SWAP2 SWAP1 SWAP2 MSTORE PUSH1 0x60 DUP3 ADD MSTORE PUSH1 0x80 ADD PUSH2 0x24B JUMP JUMPDEST CALLVALUE DUP1 ISZERO PUSH2 0x477 JUMPI PUSH0 DUP1 REVERT JUMPDEST POP PUSH2 0x21A PUSH2 0x486 CALLDATASIZE PUSH1 0x4 PUSH2 0x29E2 JUMP JUMPDEST PUSH2 0xA89 JUMP JUMPDEST CALLVALUE DUP1 ISZERO PUSH2 0x496 JUMPI PUSH0 DUP1 REVERT JUMPDEST POP PUSH1 0xB SLOAD PUSH2 0x268 JUMP JUMPDEST CALLVALUE DUP1 ISZERO PUSH2 0x4AA JUMPI PUSH0 DUP1 REVERT JUMPDEST POP PUSH2 0x351 PUSH2 0x4B9 CALLDATASIZE PUSH1 0x4 PUSH2 0x29B7 JUMP JUMPDEST PUSH1 0x9 PUSH1 0x20 MSTORE PUSH0 SWAP1 DUP2 MSTORE PUSH1 0x40 SWAP1 KECCAK256 SLOAD PUSH1 0x1 PUSH1 0x1 PUSH1 0xA0 SHL SUB AND DUP2 JUMP JUMPDEST CALLVALUE DUP1 ISZERO PUSH2 0x4DE JUMPI PUSH0 DUP1 REVERT JUMPDEST POP PUSH2 0x268 PUSH2 0x4ED CALLDATASIZE PUSH1 0x4 PUSH2 0x29B7 JUMP JUMPDEST PUSH2 0xAB7 JUMP JUMPDEST CALLVALUE DUP1 ISZERO PUSH2 0x4FD JUMPI PUSH0 DUP1 REVERT JUMPDEST POP PUSH2 0x21A PUSH2 0x50C CALLDATASIZE PUSH1 0x4 PUSH2 0x28B7 JUMP JUMPDEST PUSH2 0xAD6 JUMP JUMPDEST CALLVALUE DUP1 ISZERO PUSH2 0x51C JUMPI PUSH0 DUP1 REVERT JUMPDEST POP PUSH2 0x530 PUSH2 0x52B CALLDATASIZE PUSH1 0x4 PUSH2 0x28B7 JUMP JUMPDEST PUSH2 0xB05 JUMP JUMPDEST PUSH1 0x40 MLOAD PUSH2 0x24B SWAP2 SWAP1 PUSH2 0x2AC0 JUMP JUMPDEST CALLVALUE DUP1 ISZERO PUSH2 0x548 JUMPI PUSH0 DUP1 REVERT JUMPDEST POP PUSH2 0x55C PUSH2 0x557 CALLDATASIZE PUSH1 0x4 PUSH2 0x290B JUMP JUMPDEST PUSH2 0xC68 JUMP JUMPDEST PUSH1 0x40 MLOAD PUSH2 0x24B SWAP3 SWAP2 SWAP1 PUSH2 0x2B23 JUMP JUMPDEST CALLVALUE DUP1 ISZERO PUSH2 0x575 JUMPI PUSH0 DUP1 REVERT JUMPDEST POP PUSH2 0x21A PUSH2 0x584 CALLDATASIZE PUSH1 0x4 PUSH2 0x29B7 JUMP JUMPDEST PUSH2 0xE8D JUMP JUMPDEST CALLVALUE DUP1 ISZERO PUSH2 0x594 JUMPI PUSH0 DUP1 REVERT JUMPDEST POP PUSH2 0x268 PUSH2 0xEBB JUMP JUMPDEST CALLVALUE DUP1 ISZERO PUSH2 0x5A8 JUMPI PUSH0 DUP1 REVERT JUMPDEST POP PUSH2 0x5B1 PUSH2 0xEFF JUMP JUMPDEST PUSH1 0x40 MLOAD PUSH2 0x24B SWAP2 SWAP1 PUSH2 0x2B6F JUMP JUMPDEST CALLVALUE DUP1 ISZERO PUSH2 0x5C9 JUMPI PUSH0 DUP1 REVERT JUMPDEST POP PUSH2 0x268 PUSH2 0x5D8 CALLDATASIZE PUSH1 0x4 PUSH2 0x29B7 JUMP JUMPDEST PUSH2 0xF8A JUMP JUMPDEST CALLVALUE DUP1 ISZERO PUSH2 0x5E8 JUMPI PUSH0 DUP1 REVERT JUMPDEST POP PUSH2 0x351 PUSH32 0x0 DUP2 JUMP JUMPDEST CALLVALUE DUP1 ISZERO PUSH2 0x61B JUMPI PUSH0 DUP1 REVERT JUMPDEST POP PUSH2 0x351 PUSH32 0x0 DUP2 JUMP JUMPDEST CALLVALUE DUP1 ISZERO PUSH2 0x64E JUMPI PUSH0 DUP1 REVERT JUMPDEST POP PUSH2 0x23F PUSH2 0x65D CALLDATASIZE PUSH1 0x4 PUSH2 0x29B7 JUMP JUMPDEST PUSH1 0x7 PUSH1 0x20 MSTORE PUSH0 SWAP1 DUP2 MSTORE PUSH1 0x40 SWAP1 KECCAK256 SLOAD PUSH1 0xFF AND DUP2 JUMP JUMPDEST PUSH0 PUSH1 0x1 PUSH1 0x1 PUSH1 0xE0 SHL SUB NOT DUP3 AND PUSH4 0xA85BD01 PUSH1 0xE1 SHL EQ DUP1 PUSH2 0x6A1 JUMPI POP PUSH4 0x1FFC9A7 PUSH1 0xE0 SHL PUSH1 0x1 PUSH1 0x1 PUSH1 0xE0 SHL SUB NOT DUP4 AND EQ JUMPDEST SWAP3 SWAP2 POP POP JUMP JUMPDEST PUSH0 PUSH1 0xA PUSH0 PUSH1 0x1 PUSH1 0x4 PUSH1 0x1 SWAP1 SLOAD SWAP1 PUSH2 0x100 EXP SWAP1 DIV PUSH1 0x1 PUSH1 0x1 PUSH1 0x40 SHL SUB AND PUSH2 0x6CD SWAP2 SWAP1 PUSH2 0x2B95 JUMP JUMPDEST PUSH1 0x1 PUSH1 0x1 PUSH1 0x40 SHL SUB AND DUP2 MSTORE PUSH1 0x20 ADD SWAP1 DUP2 MSTORE PUSH1 0x20 ADD PUSH0 KECCAK256 PUSH1 0x1 ADD SLOAD SWAP1 POP SWAP1 JUMP JUMPDEST PUSH1 0x2 DUP1 SLOAD SUB PUSH2 0x70D JUMPI PUSH1 0x40 MLOAD PUSH3 0x461BCD PUSH1 0xE5 SHL DUP2 MSTORE PUSH1 0x4 ADD PUSH2 0x211 SWAP1 PUSH2 0x2BB4 JUMP JUMPDEST PUSH1 0x2 DUP1 SSTORE PUSH2 0x71B DUP3 DUP3 PUSH2 0xF99 JUMP JUMPDEST POP POP PUSH1 0x1 PUSH1 0x2 SSTORE JUMP JUMPDEST PUSH2 0x72C PUSH2 0x1484 JUMP JUMPDEST PUSH2 0x749 JUMPI PUSH1 0x40 MLOAD PUSH4 0x16CCB9CB PUSH1 0xE1 SHL DUP2 MSTORE PUSH1 0x4 ADD PUSH1 0x40 MLOAD DUP1 SWAP2 SUB SWAP1 REVERT JUMPDEST PUSH2 0x752 DUP2 PUSH2 0x14B0 JUMP JUMPDEST POP JUMP JUMPDEST PUSH1 0x4 SLOAD PUSH0 SWAP1 PUSH1 0xFF AND PUSH1 0x2 EQ PUSH2 0x79E JUMPI PUSH1 0x40 MLOAD PUSH3 0x461BCD PUSH1 0xE5 SHL DUP2 MSTORE PUSH1 0x20 PUSH1 0x4 DUP3 ADD MSTORE PUSH1 0xF PUSH1 0x24 DUP3 ADD MSTORE PUSH15 0x2234B932B1BA103A3930B739B332B9 PUSH1 0x89 SHL PUSH1 0x44 DUP3 ADD MSTORE PUSH1 0x64 ADD PUSH2 0x211 JUMP JUMPDEST POP PUSH4 0xA85BD01 PUSH1 0xE1 SHL SWAP6 SWAP5 POP POP POP POP POP JUMP JUMPDEST PUSH1 0x2 DUP1 SLOAD SUB PUSH2 0x7D1 JUMPI PUSH1 0x40 MLOAD PUSH3 0x461BCD PUSH1 0xE5 SHL DUP2 MSTORE PUSH1 0x4 ADD PUSH2 0x211 SWAP1 PUSH2 0x2BB4 JUMP JUMPDEST PUSH1 0x2 DUP1 SSTORE PUSH2 0x7DE DUP2 PUSH2 0x1501 JUMP JUMPDEST POP PUSH1 0x1 PUSH1 0x2 SSTORE JUMP JUMPDEST PUSH2 0x7EE PUSH2 0x1484 JUMP JUMPDEST PUSH2 0x80A JUMPI PUSH1 0x40 MLOAD PUSH3 0x461BCD PUSH1 0xE5 SHL DUP2 MSTORE PUSH1 0x4 ADD PUSH2 0x211 SWAP1 PUSH2 0x2BEB JUMP JUMPDEST PUSH0 PUSH1 0xA PUSH0 PUSH1 0x1 PUSH1 0x4 PUSH1 0x1 SWAP1 SLOAD SWAP1 PUSH2 0x100 EXP SWAP1 DIV PUSH1 0x1 PUSH1 0x1 PUSH1 0x40 SHL SUB AND PUSH2 0x830 SWAP2 SWAP1 PUSH2 0x2B95 JUMP JUMPDEST PUSH1 0x1 PUSH1 0x1 PUSH1 0x40 SHL SUB AND DUP2 MSTORE PUSH1 0x20 DUP1 DUP3 ADD SWAP3 SWAP1 SWAP3 MSTORE PUSH1 0x40 SWAP1 DUP2 ADD PUSH0 KECCAK256 DUP2 MLOAD PUSH1 0x80 DUP2 ADD DUP4 MSTORE DUP2 SLOAD DUP2 MSTORE PUSH1 0x1 DUP3 ADD SLOAD SWAP4 DUP2 ADD DUP5 SWAP1 MSTORE PUSH1 0x2 DUP3 ADD SLOAD SWAP3 DUP2 ADD SWAP3 SWAP1 SWAP3 MSTORE PUSH1 0x3 ADD SLOAD PUSH1 0x60 DUP3 ADD MSTORE SWAP2 POP DUP3 SUB PUSH2 0x8BB JUMPI PUSH1 0x40 MLOAD PUSH3 0x461BCD PUSH1 0xE5 SHL DUP2 MSTORE PUSH1 0x20 PUSH1 0x4 DUP3 ADD MSTORE PUSH1 0x11 PUSH1 0x24 DUP3 ADD MSTORE PUSH17 0x2932BBB0B932103AB731B430B733B2B217 PUSH1 0x79 SHL PUSH1 0x44 DUP3 ADD MSTORE PUSH1 0x64 ADD PUSH2 0x211 JUMP JUMPDEST DUP1 MLOAD PUSH2 0x8C7 SWAP1 DUP4 PUSH2 0x1704 JUMP JUMPDEST PUSH1 0x20 DUP1 DUP3 ADD MLOAD PUSH1 0x40 DUP1 MLOAD SWAP2 DUP3 MSTORE SWAP2 DUP2 ADD DUP5 SWAP1 MSTORE PUSH32 0x243C4656EDC72B2C7EC8575D464D955B2F42C1B205960C6C2FB7EECDA5419CF6 SWAP2 ADD JUMPDEST PUSH1 0x40 MLOAD DUP1 SWAP2 SUB SWAP1 LOG1 POP POP JUMP JUMPDEST PUSH1 0x2 DUP1 SLOAD SUB PUSH2 0x92B JUMPI PUSH1 0x40 MLOAD PUSH3 0x461BCD PUSH1 0xE5 SHL DUP2 MSTORE PUSH1 0x4 ADD PUSH2 0x211 SWAP1 PUSH2 0x2BB4 JUMP JUMPDEST PUSH1 0x2 DUP1 SSTORE PUSH2 0x937 PUSH2 0x1805 JUMP JUMPDEST PUSH1 0x1 PUSH1 0x2 SSTORE JUMP JUMPDEST PUSH1 0x6 DUP2 DUP2 SLOAD DUP2 LT PUSH2 0x94D JUMPI PUSH0 DUP1 REVERT JUMPDEST PUSH0 SWAP2 DUP3 MSTORE PUSH1 0x20 SWAP1 SWAP2 KECCAK256 ADD SLOAD PUSH1 0x1 PUSH1 0x1 PUSH1 0xA0 SHL SUB AND SWAP1 POP DUP2 JUMP JUMPDEST PUSH2 0x96E PUSH2 0x1484 JUMP JUMPDEST PUSH2 0x98A JUMPI PUSH1 0x40 MLOAD PUSH3 0x461BCD PUSH1 0xE5 SHL DUP2 MSTORE PUSH1 0x4 ADD PUSH2 0x211 SWAP1 PUSH2 0x2BEB JUMP JUMPDEST PUSH0 PUSH1 0xA PUSH0 PUSH1 0x1 PUSH1 0x4 PUSH1 0x1 SWAP1 SLOAD SWAP1 PUSH2 0x100 EXP SWAP1 DIV PUSH1 0x1 PUSH1 0x1 PUSH1 0x40 SHL SUB AND PUSH2 0x9B0 SWAP2 SWAP1 PUSH2 0x2B95 JUMP JUMPDEST PUSH1 0x1 PUSH1 0x1 PUSH1 0x40 SHL SUB AND DUP2 MSTORE PUSH1 0x20 ADD SWAP1 DUP2 MSTORE PUSH1 0x20 ADD PUSH0 KECCAK256 PUSH1 0x40 MLOAD DUP1 PUSH1 0x80 ADD PUSH1 0x40 MSTORE SWAP1 DUP2 PUSH0 DUP3 ADD SLOAD DUP2 MSTORE PUSH1 0x20 ADD PUSH1 0x1 DUP3 ADD SLOAD DUP2 MSTORE PUSH1 0x20 ADD PUSH1 0x2 DUP3 ADD SLOAD DUP2 MSTORE PUSH1 0x20 ADD PUSH1 0x3 DUP3 ADD SLOAD DUP2 MSTORE POP POP SWAP1 POP DUP1 PUSH0 ADD MLOAD DUP3 SUB PUSH2 0xA43 JUMPI PUSH1 0x40 MLOAD PUSH3 0x461BCD PUSH1 0xE5 SHL DUP2 MSTORE PUSH1 0x20 PUSH1 0x4 DUP3 ADD MSTORE PUSH1 0x14 PUSH1 0x24 DUP3 ADD MSTORE PUSH20 0x2A34B6B296BAB734BA103AB731B430B733B2B217 PUSH1 0x61 SHL PUSH1 0x44 DUP3 ADD MSTORE PUSH1 0x64 ADD PUSH2 0x211 JUMP JUMPDEST PUSH2 0xA51 DUP3 DUP3 PUSH1 0x20 ADD MLOAD PUSH2 0x1704 JUMP JUMPDEST DUP1 MLOAD PUSH1 0x40 DUP1 MLOAD SWAP2 DUP3 MSTORE PUSH1 0x20 DUP3 ADD DUP5 SWAP1 MSTORE PUSH32 0xD968DE290ED68F978B9E4816F7D4BE9EF46189FE8EEB3EEB86199E7229CF2DE0 SWAP2 ADD PUSH2 0x8FE JUMP JUMPDEST PUSH2 0xA91 PUSH2 0x1484 JUMP JUMPDEST PUSH2 0xAAE JUMPI PUSH1 0x40 MLOAD PUSH4 0x9F7F0925 PUSH1 0xE0 SHL DUP2 MSTORE PUSH1 0x4 ADD PUSH1 0x40 MLOAD DUP1 SWAP2 SUB SWAP1 REVERT JUMPDEST PUSH2 0x752 DUP2 PUSH2 0x192F JUMP JUMPDEST PUSH1 0x5 DUP2 DUP2 SLOAD DUP2 LT PUSH2 0xAC6 JUMPI PUSH0 DUP1 REVERT JUMPDEST PUSH0 SWAP2 DUP3 MSTORE PUSH1 0x20 SWAP1 SWAP2 KECCAK256 ADD SLOAD SWAP1 POP DUP2 JUMP JUMPDEST PUSH1 0x2 DUP1 SLOAD SUB PUSH2 0xAF7 JUMPI PUSH1 0x40 MLOAD PUSH3 0x461BCD PUSH1 0xE5 SHL DUP2 MSTORE PUSH1 0x4 ADD PUSH2 0x211 SWAP1 PUSH2 0x2BB4 JUMP JUMPDEST PUSH1 0x2 DUP1 SSTORE PUSH2 0x71B DUP3 DUP3 PUSH2 0x19FA JUMP JUMPDEST PUSH1 0x60 DUP2 PUSH1 0x1 PUSH1 0x1 PUSH1 0x40 SHL SUB DUP2 GT ISZERO PUSH2 0xB1F JUMPI PUSH2 0xB1F PUSH2 0x29CE JUMP JUMPDEST PUSH1 0x40 MLOAD SWAP1 DUP1 DUP3 MSTORE DUP1 PUSH1 0x20 MUL PUSH1 0x20 ADD DUP3 ADD PUSH1 0x40 MSTORE DUP1 ISZERO PUSH2 0xB52 JUMPI DUP2 PUSH1 0x20 ADD JUMPDEST PUSH1 0x60 DUP2 MSTORE PUSH1 0x20 ADD SWAP1 PUSH1 0x1 SWAP1 SUB SWAP1 DUP2 PUSH2 0xB3D JUMPI SWAP1 POP JUMPDEST POP SWAP1 POP CALLER PUSH0 DUP1 JUMPDEST DUP5 DUP2 LT ISZERO PUSH2 0xC5F JUMPI DUP2 ISZERO PUSH2 0xBD8 JUMPI PUSH2 0xBB6 ADDRESS DUP8 DUP8 DUP5 DUP2 DUP2 LT PUSH2 0xB7D JUMPI PUSH2 0xB7D PUSH2 0x2C13 JUMP JUMPDEST SWAP1 POP PUSH1 0x20 MUL DUP2 ADD SWAP1 PUSH2 0xB8F SWAP2 SWAP1 PUSH2 0x2C27 JUMP JUMPDEST DUP7 PUSH1 0x40 MLOAD PUSH1 0x20 ADD PUSH2 0xBA2 SWAP4 SWAP3 SWAP2 SWAP1 PUSH2 0x2C69 JUMP JUMPDEST PUSH1 0x40 MLOAD PUSH1 0x20 DUP2 DUP4 SUB SUB DUP2 MSTORE SWAP1 PUSH1 0x40 MSTORE PUSH2 0x1E34 JUMP JUMPDEST DUP5 DUP3 DUP2 MLOAD DUP2 LT PUSH2 0xBC8 JUMPI PUSH2 0xBC8 PUSH2 0x2C13 JUMP JUMPDEST PUSH1 0x20 MUL PUSH1 0x20 ADD ADD DUP2 SWAP1 MSTORE POP PUSH2 0xC57 JUMP JUMPDEST PUSH2 0xC39 ADDRESS DUP8 DUP8 DUP5 DUP2 DUP2 LT PUSH2 0xBEE JUMPI PUSH2 0xBEE PUSH2 0x2C13 JUMP JUMPDEST SWAP1 POP PUSH1 0x20 MUL DUP2 ADD SWAP1 PUSH2 0xC00 SWAP2 SWAP1 PUSH2 0x2C27 JUMP JUMPDEST DUP1 DUP1 PUSH1 0x1F ADD PUSH1 0x20 DUP1 SWAP2 DIV MUL PUSH1 0x20 ADD PUSH1 0x40 MLOAD SWAP1 DUP2 ADD PUSH1 0x40 MSTORE DUP1 SWAP4 SWAP3 SWAP2 SWAP1 DUP2 DUP2 MSTORE PUSH1 0x20 ADD DUP4 DUP4 DUP1 DUP3 DUP5 CALLDATACOPY PUSH0 SWAP3 ADD SWAP2 SWAP1 SWAP2 MSTORE POP PUSH2 0x1E34 SWAP3 POP POP POP JUMP JUMPDEST DUP5 DUP3 DUP2 MLOAD DUP2 LT PUSH2 0xC4B JUMPI PUSH2 0xC4B PUSH2 0x2C13 JUMP JUMPDEST PUSH1 0x20 MUL PUSH1 0x20 ADD ADD DUP2 SWAP1 MSTORE POP JUMPDEST PUSH1 0x1 ADD PUSH2 0xB59 JUMP JUMPDEST POP POP POP SWAP3 SWAP2 POP POP JUMP JUMPDEST PUSH1 0x60 PUSH0 DUP1 PUSH1 0x5 DUP1 SLOAD DUP1 PUSH1 0x20 MUL PUSH1 0x20 ADD PUSH1 0x40 MLOAD SWAP1 DUP2 ADD PUSH1 0x40 MSTORE DUP1 SWAP3 SWAP2 SWAP1 DUP2 DUP2 MSTORE PUSH1 0x20 ADD DUP3 DUP1 SLOAD DUP1 ISZERO PUSH2 0xCB6 JUMPI PUSH1 0x20 MUL DUP3 ADD SWAP2 SWAP1 PUSH0 MSTORE PUSH1 0x20 PUSH0 KECCAK256 SWAP1 JUMPDEST DUP2 SLOAD DUP2 MSTORE PUSH1 0x20 ADD SWAP1 PUSH1 0x1 ADD SWAP1 DUP1 DUP4 GT PUSH2 0xCA2 JUMPI JUMPDEST POP POP POP POP POP SWAP1 POP PUSH0 DUP2 MLOAD PUSH1 0x1 PUSH1 0x1 PUSH1 0x40 SHL SUB DUP2 GT ISZERO PUSH2 0xCD7 JUMPI PUSH2 0xCD7 PUSH2 0x29CE JUMP JUMPDEST PUSH1 0x40 MLOAD SWAP1 DUP1 DUP3 MSTORE DUP1 PUSH1 0x20 MUL PUSH1 0x20 ADD DUP3 ADD PUSH1 0x40 MSTORE DUP1 ISZERO PUSH2 0xD00 JUMPI DUP2 PUSH1 0x20 ADD PUSH1 0x20 DUP3 MUL DUP1 CALLDATASIZE DUP4 CALLDATACOPY ADD SWAP1 POP JUMPDEST POP DUP3 MLOAD SWAP1 SWAP2 POP PUSH0 DUP1 JUMPDEST DUP3 DUP2 LT ISZERO PUSH2 0xDBB JUMPI DUP8 PUSH1 0x1 PUSH1 0x1 PUSH1 0xA0 SHL SUB AND PUSH1 0x9 PUSH0 DUP8 DUP5 DUP2 MLOAD DUP2 LT PUSH2 0xD30 JUMPI PUSH2 0xD30 PUSH2 0x2C13 JUMP JUMPDEST PUSH1 0x20 MUL PUSH1 0x20 ADD ADD MLOAD DUP2 MSTORE PUSH1 0x20 ADD SWAP1 DUP2 MSTORE PUSH1 0x20 ADD PUSH0 KECCAK256 PUSH0 SWAP1 SLOAD SWAP1 PUSH2 0x100 EXP SWAP1 DIV PUSH1 0x1 PUSH1 0x1 PUSH1 0xA0 SHL SUB AND PUSH1 0x1 PUSH1 0x1 PUSH1 0xA0 SHL SUB AND EQ DUP5 DUP3 DUP2 MLOAD DUP2 LT PUSH2 0xD74 JUMPI PUSH2 0xD74 PUSH2 0x2C13 JUMP JUMPDEST PUSH1 0x20 MUL PUSH1 0x20 ADD ADD SWAP1 ISZERO ISZERO SWAP1 DUP2 ISZERO ISZERO DUP2 MSTORE POP POP DUP4 DUP2 DUP2 MLOAD DUP2 LT PUSH2 0xD98 JUMPI PUSH2 0xD98 PUSH2 0x2C13 JUMP JUMPDEST PUSH1 0x20 MUL PUSH1 0x20 ADD ADD MLOAD ISZERO PUSH2 0xDB3 JUMPI PUSH2 0xDB0 PUSH1 0x1 DUP4 PUSH2 0x2C8F JUMP JUMPDEST SWAP2 POP JUMPDEST PUSH1 0x1 ADD PUSH2 0xD09 JUMP JUMPDEST POP DUP1 PUSH1 0x1 PUSH1 0x1 PUSH1 0x40 SHL SUB DUP2 GT ISZERO PUSH2 0xDD4 JUMPI PUSH2 0xDD4 PUSH2 0x29CE JUMP JUMPDEST PUSH1 0x40 MLOAD SWAP1 DUP1 DUP3 MSTORE DUP1 PUSH1 0x20 MUL PUSH1 0x20 ADD DUP3 ADD PUSH1 0x40 MSTORE DUP1 ISZERO PUSH2 0xDFD JUMPI DUP2 PUSH1 0x20 ADD PUSH1 0x20 DUP3 MUL DUP1 CALLDATASIZE DUP4 CALLDATACOPY ADD SWAP1 POP JUMPDEST POP SWAP6 POP PUSH0 DUP1 JUMPDEST DUP4 DUP2 LT ISZERO PUSH2 0xE77 JUMPI DUP5 DUP2 DUP2 MLOAD DUP2 LT PUSH2 0xE1D JUMPI PUSH2 0xE1D PUSH2 0x2C13 JUMP JUMPDEST PUSH1 0x20 MUL PUSH1 0x20 ADD ADD MLOAD ISZERO PUSH2 0xE6F JUMPI DUP6 DUP2 DUP2 MLOAD DUP2 LT PUSH2 0xE3C JUMPI PUSH2 0xE3C PUSH2 0x2C13 JUMP JUMPDEST PUSH1 0x20 MUL PUSH1 0x20 ADD ADD MLOAD DUP9 DUP4 DUP2 MLOAD DUP2 LT PUSH2 0xE56 JUMPI PUSH2 0xE56 PUSH2 0x2C13 JUMP JUMPDEST PUSH1 0x20 SWAP1 DUP2 MUL SWAP2 SWAP1 SWAP2 ADD ADD MSTORE PUSH2 0xE6C PUSH1 0x1 DUP4 PUSH2 0x2C8F JUMP JUMPDEST SWAP2 POP JUMPDEST PUSH1 0x1 ADD PUSH2 0xE03 JUMP JUMPDEST POP PUSH2 0xE81 DUP9 PUSH2 0x1E60 JUMP JUMPDEST SWAP6 POP POP POP POP POP POP SWAP2 POP SWAP2 JUMP JUMPDEST PUSH1 0x2 DUP1 SLOAD SUB PUSH2 0xEAE JUMPI PUSH1 0x40 MLOAD PUSH3 0x461BCD PUSH1 0xE5 SHL DUP2 MSTORE PUSH1 0x4 ADD PUSH2 0x211 SWAP1 PUSH2 0x2BB4 JUMP JUMPDEST PUSH1 0x2 DUP1 SSTORE PUSH2 0x7DE DUP2 PUSH2 0x1ED8 JUMP JUMPDEST PUSH0 PUSH1 0xA PUSH0 PUSH1 0x1 PUSH1 0x4 PUSH1 0x1 SWAP1 SLOAD SWAP1 PUSH2 0x100 EXP SWAP1 DIV PUSH1 0x1 PUSH1 0x1 PUSH1 0x40 SHL SUB AND PUSH2 0xEE1 SWAP2 SWAP1 PUSH2 0x2B95 JUMP JUMPDEST PUSH1 0x1 PUSH1 0x1 PUSH1 0x40 SHL SUB AND DUP2 MSTORE PUSH1 0x20 ADD SWAP1 DUP2 MSTORE PUSH1 0x20 ADD PUSH0 KECCAK256 PUSH0 ADD SLOAD SWAP1 POP SWAP1 JUMP JUMPDEST PUSH0 DUP1 SLOAD PUSH2 0xF0B SWAP1 PUSH2 0x2CA2 JUMP JUMPDEST DUP1 PUSH1 0x1F ADD PUSH1 0x20 DUP1 SWAP2 DIV MUL PUSH1 0x20 ADD PUSH1 0x40 MLOAD SWAP1 DUP2 ADD PUSH1 0x40 MSTORE DUP1 SWAP3 SWAP2 SWAP1 DUP2 DUP2 MSTORE PUSH1 0x20 ADD DUP3 DUP1 SLOAD PUSH2 0xF37 SWAP1 PUSH2 0x2CA2 JUMP JUMPDEST DUP1 ISZERO PUSH2 0xF82 JUMPI DUP1 PUSH1 0x1F LT PUSH2 0xF59 JUMPI PUSH2 0x100 DUP1 DUP4 SLOAD DIV MUL DUP4 MSTORE SWAP2 PUSH1 0x20 ADD SWAP2 PUSH2 0xF82 JUMP JUMPDEST DUP3 ADD SWAP2 SWAP1 PUSH0 MSTORE PUSH1 0x20 PUSH0 KECCAK256 SWAP1 JUMPDEST DUP2 SLOAD DUP2 MSTORE SWAP1 PUSH1 0x1 ADD SWAP1 PUSH1 0x20 ADD DUP1 DUP4 GT PUSH2 0xF65 JUMPI DUP3 SWAP1 SUB PUSH1 0x1F AND DUP3 ADD SWAP2 JUMPDEST POP POP POP POP POP DUP2 JUMP JUMPDEST PUSH1 0x3 DUP2 DUP2 SLOAD DUP2 LT PUSH2 0xAC6 JUMPI PUSH0 DUP1 REVERT JUMPDEST DUP1 PUSH1 0x1 PUSH1 0x1 PUSH1 0x40 SHL SUB DUP2 AND PUSH0 SUB PUSH2 0xFE5 JUMPI PUSH1 0x40 MLOAD PUSH3 0x461BCD PUSH1 0xE5 SHL DUP2 MSTORE PUSH1 0x20 PUSH1 0x4 DUP3 ADD MSTORE PUSH1 0x10 PUSH1 0x24 DUP3 ADD MSTORE PUSH16 0x5374616B696E67203020746F6B656E73 PUSH1 0x80 SHL PUSH1 0x44 DUP3 ADD MSTORE PUSH1 0x64 ADD PUSH2 0x211 JUMP JUMPDEST PUSH2 0x3E9 DUP2 PUSH1 0x1 PUSH1 0x1 PUSH1 0x40 SHL SUB AND LT PUSH2 0x103F JUMPI PUSH1 0x40 MLOAD PUSH3 0x461BCD PUSH1 0xE5 SHL DUP2 MSTORE PUSH1 0x20 PUSH1 0x4 DUP3 ADD MSTORE PUSH1 0x1B PUSH1 0x24 DUP3 ADD MSTORE PUSH32 0x4D6178696D756D203130303020746F6B656E73206174206F6E63650000000000 PUSH1 0x44 DUP3 ADD MSTORE PUSH1 0x64 ADD PUSH2 0x211 JUMP JUMPDEST PUSH1 0x3 SLOAD PUSH0 SWAP1 DUP2 JUMPDEST DUP4 PUSH1 0x1 PUSH1 0x1 PUSH1 0x40 SHL SUB AND DUP2 LT ISZERO PUSH2 0x1109 JUMPI PUSH0 SWAP3 POP PUSH0 JUMPDEST DUP3 DUP2 LT ISZERO PUSH2 0x10AF JUMPI DUP7 DUP7 DUP4 DUP2 DUP2 LT PUSH2 0x1076 JUMPI PUSH2 0x1076 PUSH2 0x2C13 JUMP JUMPDEST SWAP1 POP PUSH1 0x20 MUL ADD CALLDATALOAD PUSH1 0x3 DUP3 DUP2 SLOAD DUP2 LT PUSH2 0x1090 JUMPI PUSH2 0x1090 PUSH2 0x2C13 JUMP JUMPDEST SWAP1 PUSH0 MSTORE PUSH1 0x20 PUSH0 KECCAK256 ADD SLOAD SUB PUSH2 0x10A7 JUMPI PUSH1 0x1 SWAP4 POP PUSH2 0x10AF JUMP JUMPDEST PUSH1 0x1 ADD PUSH2 0x105C JUMP JUMPDEST POP DUP3 ISZERO ISZERO PUSH0 SUB PUSH2 0x1101 JUMPI PUSH1 0x40 MLOAD PUSH3 0x461BCD PUSH1 0xE5 SHL DUP2 MSTORE PUSH1 0x20 PUSH1 0x4 DUP3 ADD MSTORE PUSH1 0x18 PUSH1 0x24 DUP3 ADD MSTORE PUSH32 0x4E6F7420617574686F72697A656420746F6B656E732049440000000000000000 PUSH1 0x44 DUP3 ADD MSTORE PUSH1 0x64 ADD PUSH2 0x211 JUMP JUMPDEST PUSH1 0x1 ADD PUSH2 0x1046 JUMP JUMPDEST POP CALLER PUSH0 SWAP1 DUP2 MSTORE PUSH1 0x8 PUSH1 0x20 MSTORE PUSH1 0x40 SWAP1 KECCAK256 SLOAD PUSH32 0x0 SWAP1 PUSH1 0x1 PUSH1 0x1 PUSH1 0x40 SHL SUB AND ISZERO PUSH2 0x1157 JUMPI PUSH2 0x1152 CALLER PUSH2 0x1F70 JUMP JUMPDEST PUSH2 0x1214 JUMP JUMPDEST PUSH1 0x6 DUP1 SLOAD PUSH1 0x1 DUP1 DUP3 ADD SWAP1 SWAP3 SSTORE PUSH32 0xF652222313E28459528D920B65115C16C04F3EFC82AAEDC97BE59F3F377C0D3F ADD DUP1 SLOAD CALLER PUSH1 0x1 PUSH1 0x1 PUSH1 0xA0 SHL SUB NOT SWAP1 SWAP2 AND DUP2 OR SWAP1 SWAP2 SSTORE PUSH0 SWAP1 DUP2 MSTORE PUSH1 0x8 PUSH1 0x20 MSTORE PUSH1 0x40 SWAP1 KECCAK256 DUP1 SLOAD TIMESTAMP PUSH1 0x1 PUSH1 0x1 PUSH1 0x80 SHL SUB SWAP1 DUP2 AND PUSH1 0x1 PUSH1 0x80 SHL MUL SWAP2 AND OR SWAP1 SSTORE PUSH1 0x4 SLOAD PUSH2 0x11DB SWAP2 SWAP1 PUSH1 0x1 PUSH1 0x1 PUSH1 0x40 SHL SUB PUSH2 0x100 SWAP1 SWAP2 DIV AND PUSH2 0x2B95 JUMP JUMPDEST CALLER PUSH0 SWAP1 DUP2 MSTORE PUSH1 0x8 PUSH1 0x20 MSTORE PUSH1 0x40 SWAP1 KECCAK256 DUP1 SLOAD PUSH1 0x1 PUSH1 0x1 PUSH1 0x40 SHL SUB SWAP3 SWAP1 SWAP3 AND PUSH1 0x1 PUSH1 0x40 SHL MUL PUSH8 0xFFFFFFFFFFFFFFFF PUSH1 0x40 SHL NOT SWAP1 SWAP3 AND SWAP2 SWAP1 SWAP2 OR SWAP1 SSTORE JUMPDEST PUSH0 JUMPDEST DUP5 PUSH1 0x1 PUSH1 0x1 PUSH1 0x40 SHL SUB AND DUP2 LT ISZERO PUSH2 0x13DC JUMPI PUSH1 0x4 DUP1 SLOAD PUSH1 0xFF NOT AND PUSH1 0x2 OR SWAP1 SSTORE PUSH1 0x1 PUSH1 0x1 PUSH1 0xA0 SHL SUB DUP3 AND PUSH4 0x42842E0E PUSH2 0x124A CALLER SWAP1 JUMP JUMPDEST ADDRESS DUP11 DUP11 DUP7 DUP2 DUP2 LT PUSH2 0x125D JUMPI PUSH2 0x125D PUSH2 0x2C13 JUMP JUMPDEST PUSH1 0x40 MLOAD PUSH1 0x1 PUSH1 0x1 PUSH1 0xE0 SHL SUB NOT PUSH1 0xE0 DUP9 SWAP1 SHL AND DUP2 MSTORE PUSH1 0x1 PUSH1 0x1 PUSH1 0xA0 SHL SUB SWAP6 DUP7 AND PUSH1 0x4 DUP3 ADD MSTORE SWAP5 SWAP1 SWAP4 AND PUSH1 0x24 DUP6 ADD MSTORE POP PUSH1 0x20 SWAP1 SWAP2 MUL ADD CALLDATALOAD PUSH1 0x44 DUP3 ADD MSTORE PUSH1 0x64 ADD PUSH0 PUSH1 0x40 MLOAD DUP1 DUP4 SUB DUP2 PUSH0 DUP8 DUP1 EXTCODESIZE ISZERO DUP1 ISZERO PUSH2 0x12B1 JUMPI PUSH0 DUP1 REVERT JUMPDEST POP GAS CALL ISZERO DUP1 ISZERO PUSH2 0x12C3 JUMPI RETURNDATASIZE PUSH0 DUP1 RETURNDATACOPY RETURNDATASIZE PUSH0 REVERT JUMPDEST POP POP PUSH1 0x4 DUP1 SLOAD PUSH1 0xFF NOT AND PUSH1 0x1 OR SWAP1 SSTORE POP PUSH2 0x12DC SWAP1 POP CALLER SWAP1 JUMP JUMPDEST PUSH1 0x9 PUSH0 DUP10 DUP10 DUP6 DUP2 DUP2 LT PUSH2 0x12F1 JUMPI PUSH2 0x12F1 PUSH2 0x2C13 JUMP JUMPDEST SWAP1 POP PUSH1 0x20 MUL ADD CALLDATALOAD DUP2 MSTORE PUSH1 0x20 ADD SWAP1 DUP2 MSTORE PUSH1 0x20 ADD PUSH0 KECCAK256 PUSH0 PUSH2 0x100 EXP DUP2 SLOAD DUP2 PUSH1 0x1 PUSH1 0x1 PUSH1 0xA0 SHL SUB MUL NOT AND SWAP1 DUP4 PUSH1 0x1 PUSH1 0x1 PUSH1 0xA0 SHL SUB AND MUL OR SWAP1 SSTORE POP PUSH1 0x7 PUSH0 DUP9 DUP9 DUP5 DUP2 DUP2 LT PUSH2 0x133D JUMPI PUSH2 0x133D PUSH2 0x2C13 JUMP JUMPDEST PUSH1 0x20 SWAP1 DUP2 MUL SWAP3 SWAP1 SWAP3 ADD CALLDATALOAD DUP4 MSTORE POP DUP2 ADD SWAP2 SWAP1 SWAP2 MSTORE PUSH1 0x40 ADD PUSH0 KECCAK256 SLOAD PUSH1 0xFF AND PUSH2 0x13D4 JUMPI PUSH1 0x1 PUSH1 0x7 PUSH0 DUP10 DUP10 DUP6 DUP2 DUP2 LT PUSH2 0x1374 JUMPI PUSH2 0x1374 PUSH2 0x2C13 JUMP JUMPDEST SWAP1 POP PUSH1 0x20 MUL ADD CALLDATALOAD DUP2 MSTORE PUSH1 0x20 ADD SWAP1 DUP2 MSTORE PUSH1 0x20 ADD PUSH0 KECCAK256 PUSH0 PUSH2 0x100 EXP DUP2 SLOAD DUP2 PUSH1 0xFF MUL NOT AND SWAP1 DUP4 ISZERO ISZERO MUL OR SWAP1 SSTORE POP PUSH1 0x5 DUP8 DUP8 DUP4 DUP2 DUP2 LT PUSH2 0x13B2 JUMPI PUSH2 0x13B2 PUSH2 0x2C13 JUMP JUMPDEST DUP4 SLOAD PUSH1 0x1 DUP2 ADD DUP6 SSTORE PUSH0 SWAP5 DUP6 MSTORE PUSH1 0x20 SWAP5 DUP6 SWAP1 KECCAK256 SWAP2 SWAP1 SWAP5 MUL SWAP3 SWAP1 SWAP3 ADD CALLDATALOAD SWAP2 SWAP1 SWAP3 ADD SSTORE POP JUMPDEST PUSH1 0x1 ADD PUSH2 0x1216 JUMP JUMPDEST POP CALLER PUSH0 SWAP1 DUP2 MSTORE PUSH1 0x8 PUSH1 0x20 MSTORE PUSH1 0x40 DUP2 KECCAK256 DUP1 SLOAD DUP7 SWAP3 SWAP1 PUSH2 0x1404 SWAP1 DUP5 SWAP1 PUSH1 0x1 PUSH1 0x1 PUSH1 0x40 SHL SUB AND PUSH2 0x2CDA JUMP JUMPDEST SWAP3 POP PUSH2 0x100 EXP DUP2 SLOAD DUP2 PUSH1 0x1 PUSH1 0x1 PUSH1 0x40 SHL SUB MUL NOT AND SWAP1 DUP4 PUSH1 0x1 PUSH1 0x1 PUSH1 0x40 SHL SUB AND MUL OR SWAP1 SSTORE POP DUP6 DUP6 PUSH1 0x40 MLOAD PUSH2 0x1438 SWAP3 SWAP2 SWAP1 PUSH2 0x2CF9 JUMP JUMPDEST PUSH1 0x40 MLOAD DUP1 SWAP2 SUB SWAP1 KECCAK256 PUSH2 0x1447 CALLER SWAP1 JUMP JUMPDEST PUSH1 0x1 PUSH1 0x1 PUSH1 0xA0 SHL SUB AND PUSH32 0x540CD34F06460FD67AECA9D19E0A56CD3A7C1CDE8DC2263F265B68B2EF3495D2 PUSH1 0x40 MLOAD PUSH1 0x40 MLOAD DUP1 SWAP2 SUB SWAP1 LOG3 POP POP POP POP POP POP JUMP JUMPDEST PUSH0 PUSH2 0x1497 PUSH1 0x1 SLOAD PUSH1 0x1 PUSH1 0x1 PUSH1 0xA0 SHL SUB AND SWAP1 JUMP JUMPDEST PUSH1 0x1 PUSH1 0x1 PUSH1 0xA0 SHL SUB AND CALLER PUSH1 0x1 PUSH1 0x1 PUSH1 0xA0 SHL SUB AND EQ SWAP1 POP SWAP1 JUMP JUMPDEST PUSH1 0x1 DUP1 SLOAD PUSH1 0x1 PUSH1 0x1 PUSH1 0xA0 SHL SUB DUP4 DUP2 AND PUSH1 0x1 PUSH1 0x1 PUSH1 0xA0 SHL SUB NOT DUP4 AND DUP2 OR SWAP1 SWAP4 SSTORE PUSH1 0x40 MLOAD SWAP2 AND SWAP2 SWAP1 DUP3 SWAP1 PUSH32 0x8292FCE18FA69EDF4DB7B94EA2E58241DF0AE57F97E0A6C9B29067028BF92D76 SWAP1 PUSH0 SWAP1 LOG3 POP POP JUMP JUMPDEST PUSH1 0x1 SLOAD PUSH1 0x1 PUSH1 0x1 PUSH1 0xA0 SHL SUB AND CALLER EQ PUSH2 0x152B JUMPI PUSH1 0x40 MLOAD PUSH3 0x461BCD PUSH1 0xE5 SHL DUP2 MSTORE PUSH1 0x4 ADD PUSH2 0x211 SWAP1 PUSH2 0x2BEB JUMP JUMPDEST PUSH0 PUSH32 0x0 PUSH1 0x1 PUSH1 0x1 PUSH1 0xA0 SHL SUB AND PUSH20 0xEEEEEEEEEEEEEEEEEEEEEEEEEEEEEEEEEEEEEEEE EQ PUSH2 0x1596 JUMPI PUSH32 0x0 PUSH2 0x15B8 JUMP JUMPDEST PUSH32 0x0 JUMPDEST PUSH1 0x40 MLOAD PUSH4 0x70A08231 PUSH1 0xE0 SHL DUP2 MSTORE ADDRESS PUSH1 0x4 DUP3 ADD MSTORE SWAP1 SWAP2 POP PUSH0 SWAP1 PUSH1 0x1 PUSH1 0x1 PUSH1 0xA0 SHL SUB DUP4 AND SWAP1 PUSH4 0x70A08231 SWAP1 PUSH1 0x24 ADD PUSH1 0x20 PUSH1 0x40 MLOAD DUP1 DUP4 SUB DUP2 DUP7 GAS STATICCALL ISZERO DUP1 ISZERO PUSH2 0x15FF JUMPI RETURNDATASIZE PUSH0 DUP1 RETURNDATACOPY RETURNDATASIZE PUSH0 REVERT JUMPDEST POP POP POP POP PUSH1 0x40 MLOAD RETURNDATASIZE PUSH1 0x1F NOT PUSH1 0x1F DUP3 ADD AND DUP3 ADD DUP1 PUSH1 0x40 MSTORE POP DUP2 ADD SWAP1 PUSH2 0x1623 SWAP2 SWAP1 PUSH2 0x2D20 JUMP JUMPDEST SWAP1 POP PUSH2 0x1672 PUSH32 0x0 CALLER ADDRESS DUP7 PUSH32 0x0 PUSH2 0x2041 JUMP JUMPDEST PUSH1 0x40 MLOAD PUSH4 0x70A08231 PUSH1 0xE0 SHL DUP2 MSTORE ADDRESS PUSH1 0x4 DUP3 ADD MSTORE PUSH0 SWAP1 DUP3 SWAP1 PUSH1 0x1 PUSH1 0x1 PUSH1 0xA0 SHL SUB DUP6 AND SWAP1 PUSH4 0x70A08231 SWAP1 PUSH1 0x24 ADD PUSH1 0x20 PUSH1 0x40 MLOAD DUP1 DUP4 SUB DUP2 DUP7 GAS STATICCALL ISZERO DUP1 ISZERO PUSH2 0x16B8 JUMPI RETURNDATASIZE PUSH0 DUP1 RETURNDATACOPY RETURNDATASIZE PUSH0 REVERT JUMPDEST POP POP POP POP PUSH1 0x40 MLOAD RETURNDATASIZE PUSH1 0x1F NOT PUSH1 0x1F DUP3 ADD AND DUP3 ADD DUP1 PUSH1 0x40 MSTORE POP DUP2 ADD SWAP1 PUSH2 0x16DC SWAP2 SWAP1 PUSH2 0x2D20 JUMP JUMPDEST PUSH2 0x16E6 SWAP2 SWAP1 PUSH2 0x2D37 JUMP JUMPDEST SWAP1 POP DUP1 PUSH1 0xB PUSH0 DUP3 DUP3 SLOAD PUSH2 0x16F9 SWAP2 SWAP1 PUSH2 0x2C8F JUMP JUMPDEST SWAP1 SWAP2 SSTORE POP POP POP POP POP POP JUMP JUMPDEST DUP2 PUSH0 SUB PUSH2 0x174A JUMPI PUSH1 0x40 MLOAD PUSH3 0x461BCD PUSH1 0xE5 SHL DUP2 MSTORE PUSH1 0x20 PUSH1 0x4 DUP3 ADD MSTORE PUSH1 0x14 PUSH1 0x24 DUP3 ADD MSTORE PUSH20 0x74696D652D756E69742063616E2774206265203 PUSH1 0x64 SHL PUSH1 0x44 DUP3 ADD MSTORE PUSH1 0x64 ADD PUSH2 0x211 JUMP JUMPDEST PUSH1 0x4 DUP1 SLOAD PUSH2 0x100 SWAP1 DIV PUSH1 0x1 PUSH1 0x1 PUSH1 0x40 SHL SUB AND SWAP1 PUSH1 0x1 SWAP1 DUP2 PUSH2 0x176B DUP2 DUP6 PUSH2 0x2CDA JUMP JUMPDEST DUP3 SLOAD PUSH1 0x1 PUSH1 0x1 PUSH1 0x40 SHL SUB SWAP2 DUP3 AND PUSH2 0x100 SWAP4 SWAP1 SWAP4 EXP SWAP3 DUP4 MUL SWAP2 SWAP1 SWAP3 MUL NOT SWAP1 SWAP2 AND OR SWAP1 SSTORE POP PUSH1 0x40 DUP1 MLOAD PUSH1 0x80 DUP2 ADD DUP3 MSTORE DUP5 DUP2 MSTORE PUSH1 0x20 DUP1 DUP3 ADD DUP6 DUP2 MSTORE TIMESTAMP DUP4 DUP6 ADD SWAP1 DUP2 MSTORE PUSH0 PUSH1 0x60 DUP6 ADD DUP2 DUP2 MSTORE DUP8 DUP3 MSTORE PUSH1 0xA SWAP1 SWAP5 MSTORE SWAP5 SWAP1 SWAP5 KECCAK256 SWAP3 MLOAD DUP4 SSTORE MLOAD PUSH1 0x1 DUP4 ADD SSTORE SWAP2 MLOAD PUSH1 0x2 DUP3 ADD SSTORE SWAP1 MLOAD PUSH1 0x3 SWAP1 SWAP2 ADD SSTORE DUP1 ISZERO PUSH2 0x1800 JUMPI TIMESTAMP PUSH1 0xA PUSH0 PUSH2 0x17EC PUSH1 0x1 DUP6 PUSH2 0x2D37 JUMP JUMPDEST DUP2 MSTORE PUSH1 0x20 DUP2 ADD SWAP2 SWAP1 SWAP2 MSTORE PUSH1 0x40 ADD PUSH0 KECCAK256 PUSH1 0x3 ADD SSTORE JUMPDEST POP POP POP JUMP JUMPDEST PUSH0 PUSH2 0x180F CALLER PUSH2 0x218D JUMP JUMPDEST CALLER PUSH0 SWAP1 DUP2 MSTORE PUSH1 0x8 PUSH1 0x20 MSTORE PUSH1 0x40 SWAP1 KECCAK256 PUSH1 0x1 ADD SLOAD PUSH2 0x182B SWAP2 SWAP1 PUSH2 0x2C8F JUMP JUMPDEST SWAP1 POP DUP1 PUSH0 SUB PUSH2 0x1869 JUMPI PUSH1 0x40 MLOAD PUSH3 0x461BCD PUSH1 0xE5 SHL DUP2 MSTORE PUSH1 0x20 PUSH1 0x4 DUP3 ADD MSTORE PUSH1 0xA PUSH1 0x24 DUP3 ADD MSTORE PUSH10 0x4E6F2072657761726473 PUSH1 0xB0 SHL PUSH1 0x44 DUP3 ADD MSTORE PUSH1 0x64 ADD PUSH2 0x211 JUMP JUMPDEST CALLER PUSH0 SWAP1 DUP2 MSTORE PUSH1 0x8 PUSH1 0x20 MSTORE PUSH1 0x40 DUP2 KECCAK256 DUP1 SLOAD TIMESTAMP PUSH1 0x1 PUSH1 0x1 PUSH1 0x80 SHL SUB SWAP1 DUP2 AND PUSH1 0x1 PUSH1 0x80 SHL MUL SWAP2 AND OR DUP2 SSTORE PUSH1 0x1 SWAP1 DUP2 ADD SWAP2 SWAP1 SWAP2 SSTORE PUSH1 0x4 SLOAD PUSH2 0x18B4 SWAP2 SWAP1 PUSH2 0x100 SWAP1 DIV PUSH1 0x1 PUSH1 0x1 PUSH1 0x40 SHL SUB AND PUSH2 0x2B95 JUMP JUMPDEST CALLER PUSH0 DUP2 DUP2 MSTORE PUSH1 0x8 PUSH1 0x20 MSTORE PUSH1 0x40 SWAP1 KECCAK256 DUP1 SLOAD PUSH1 0x1 PUSH1 0x1 PUSH1 0x40 SHL SUB SWAP4 SWAP1 SWAP4 AND PUSH1 0x1 PUSH1 0x40 SHL MUL PUSH8 0xFFFFFFFFFFFFFFFF PUSH1 0x40 SHL NOT SWAP1 SWAP4 AND SWAP3 SWAP1 SWAP3 OR SWAP1 SWAP2 SSTORE PUSH2 0x18F7 SWAP1 DUP3 PUSH2 0x2311 JUMP JUMPDEST PUSH1 0x40 MLOAD DUP2 DUP2 MSTORE CALLER SWAP1 PUSH32 0xFC30CDDEA38E2BF4D6EA7D3F9ED3B6AD7F176419F4963BD81318067A4AEE73FE SWAP1 PUSH1 0x20 ADD PUSH1 0x40 MLOAD DUP1 SWAP2 SUB SWAP1 LOG2 POP JUMP JUMPDEST PUSH0 DUP1 DUP1 SLOAD PUSH2 0x193C SWAP1 PUSH2 0x2CA2 JUMP JUMPDEST DUP1 PUSH1 0x1F ADD PUSH1 0x20 DUP1 SWAP2 DIV MUL PUSH1 0x20 ADD PUSH1 0x40 MLOAD SWAP1 DUP2 ADD PUSH1 0x40 MSTORE DUP1 SWAP3 SWAP2 SWAP1 DUP2 DUP2 MSTORE PUSH1 0x20 ADD DUP3 DUP1 SLOAD PUSH2 0x1968 SWAP1 PUSH2 0x2CA2 JUMP JUMPDEST DUP1 ISZERO PUSH2 0x19B3 JUMPI DUP1 PUSH1 0x1F LT PUSH2 0x198A JUMPI PUSH2 0x100 DUP1 DUP4 SLOAD DIV MUL DUP4 MSTORE SWAP2 PUSH1 0x20 ADD SWAP2 PUSH2 0x19B3 JUMP JUMPDEST DUP3 ADD SWAP2 SWAP1 PUSH0 MSTORE PUSH1 0x20 PUSH0 KECCAK256 SWAP1 JUMPDEST DUP2 SLOAD DUP2 MSTORE SWAP1 PUSH1 0x1 ADD SWAP1 PUSH1 0x20 ADD DUP1 DUP4 GT PUSH2 0x1996 JUMPI DUP3 SWAP1 SUB PUSH1 0x1F AND DUP3 ADD SWAP2 JUMPDEST POP POP POP POP POP SWAP1 POP DUP2 PUSH0 SWAP1 DUP2 PUSH2 0x19C8 SWAP2 SWAP1 PUSH2 0x2D8E JUMP JUMPDEST POP PUSH32 0xC9C7C3FE08B88B4DF9D4D47EF47D2C43D55C025A0BA88CA442580ED9E7348A16 DUP2 DUP4 PUSH1 0x40 MLOAD PUSH2 0x8FE SWAP3 SWAP2 SWAP1 PUSH2 0x2E48 JUMP JUMPDEST CALLER PUSH0 SWAP1 DUP2 MSTORE PUSH1 0x8 PUSH1 0x20 MSTORE PUSH1 0x40 DUP2 KECCAK256 SLOAD PUSH1 0x1 PUSH1 0x1 PUSH1 0x40 SHL SUB SWAP1 DUP2 AND SWAP2 DUP4 SWAP2 DUP3 AND SWAP1 SUB PUSH2 0x1A5E JUMPI PUSH1 0x40 MLOAD PUSH3 0x461BCD PUSH1 0xE5 SHL DUP2 MSTORE PUSH1 0x20 PUSH1 0x4 DUP3 ADD MSTORE PUSH1 0x14 PUSH1 0x24 DUP3 ADD MSTORE PUSH20 0x5769746864726177696E67203020746F6B656E73 PUSH1 0x60 SHL PUSH1 0x44 DUP3 ADD MSTORE PUSH1 0x64 ADD PUSH2 0x211 JUMP JUMPDEST DUP1 PUSH1 0x1 PUSH1 0x1 PUSH1 0x40 SHL SUB AND DUP3 LT ISZERO PUSH2 0x1AB7 JUMPI PUSH1 0x40 MLOAD PUSH3 0x461BCD PUSH1 0xE5 SHL DUP2 MSTORE PUSH1 0x20 PUSH1 0x4 DUP3 ADD MSTORE PUSH1 0x1C PUSH1 0x24 DUP3 ADD MSTORE PUSH32 0x5769746864726177696E67206D6F7265207468616E207374616B656400000000 PUSH1 0x44 DUP3 ADD MSTORE PUSH1 0x64 ADD PUSH2 0x211 JUMP JUMPDEST PUSH32 0x0 PUSH2 0x1AE1 CALLER PUSH2 0x1F70 JUMP JUMPDEST DUP2 PUSH1 0x1 PUSH1 0x1 PUSH1 0x40 SHL SUB AND DUP4 SUB PUSH2 0x1C30 JUMPI PUSH0 PUSH1 0x6 DUP1 SLOAD DUP1 PUSH1 0x20 MUL PUSH1 0x20 ADD PUSH1 0x40 MLOAD SWAP1 DUP2 ADD PUSH1 0x40 MSTORE DUP1 SWAP3 SWAP2 SWAP1 DUP2 DUP2 MSTORE PUSH1 0x20 ADD DUP3 DUP1 SLOAD DUP1 ISZERO PUSH2 0x1B46 JUMPI PUSH1 0x20 MUL DUP3 ADD SWAP2 SWAP1 PUSH0 MSTORE PUSH1 0x20 PUSH0 KECCAK256 SWAP1 JUMPDEST DUP2 SLOAD PUSH1 0x1 PUSH1 0x1 PUSH1 0xA0 SHL SUB AND DUP2 MSTORE PUSH1 0x1 SWAP1 SWAP2 ADD SWAP1 PUSH1 0x20 ADD DUP1 DUP4 GT PUSH2 0x1B28 JUMPI JUMPDEST POP POP POP POP POP SWAP1 POP PUSH0 JUMPDEST DUP2 MLOAD DUP2 LT ISZERO PUSH2 0x1C2D JUMPI CALLER PUSH1 0x1 PUSH1 0x1 PUSH1 0xA0 SHL SUB AND DUP3 DUP3 DUP2 MLOAD DUP2 LT PUSH2 0x1B74 JUMPI PUSH2 0x1B74 PUSH2 0x2C13 JUMP JUMPDEST PUSH1 0x20 MUL PUSH1 0x20 ADD ADD MLOAD PUSH1 0x1 PUSH1 0x1 PUSH1 0xA0 SHL SUB AND SUB PUSH2 0x1C25 JUMPI DUP2 PUSH1 0x1 DUP4 MLOAD PUSH2 0x1B99 SWAP2 SWAP1 PUSH2 0x2D37 JUMP JUMPDEST DUP2 MLOAD DUP2 LT PUSH2 0x1BA9 JUMPI PUSH2 0x1BA9 PUSH2 0x2C13 JUMP JUMPDEST PUSH1 0x20 MUL PUSH1 0x20 ADD ADD MLOAD PUSH1 0x6 DUP3 DUP2 SLOAD DUP2 LT PUSH2 0x1BC4 JUMPI PUSH2 0x1BC4 PUSH2 0x2C13 JUMP JUMPDEST SWAP1 PUSH0 MSTORE PUSH1 0x20 PUSH0 KECCAK256 ADD PUSH0 PUSH2 0x100 EXP DUP2 SLOAD DUP2 PUSH1 0x1 PUSH1 0x1 PUSH1 0xA0 SHL SUB MUL NOT AND SWAP1 DUP4 PUSH1 0x1 PUSH1 0x1 PUSH1 0xA0 SHL SUB AND MUL OR SWAP1 SSTORE POP PUSH1 0x6 DUP1 SLOAD DUP1 PUSH2 0x1C00 JUMPI PUSH2 0x1C00 PUSH2 0x2E75 JUMP JUMPDEST PUSH0 DUP3 DUP2 MSTORE PUSH1 0x20 SWAP1 KECCAK256 DUP2 ADD PUSH0 NOT SWAP1 DUP2 ADD DUP1 SLOAD PUSH1 0x1 PUSH1 0x1 PUSH1 0xA0 SHL SUB NOT AND SWAP1 SSTORE ADD SWAP1 SSTORE PUSH2 0x1C2D JUMP JUMPDEST PUSH1 0x1 ADD PUSH2 0x1B4F JUMP JUMPDEST POP POP JUMPDEST CALLER PUSH0 SWAP1 DUP2 MSTORE PUSH1 0x8 PUSH1 0x20 MSTORE PUSH1 0x40 DUP2 KECCAK256 DUP1 SLOAD DUP5 SWAP3 SWAP1 PUSH2 0x1C57 SWAP1 DUP5 SWAP1 PUSH1 0x1 PUSH1 0x1 PUSH1 0x40 SHL SUB AND PUSH2 0x2B95 JUMP JUMPDEST SWAP3 POP PUSH2 0x100 EXP DUP2 SLOAD DUP2 PUSH1 0x1 PUSH1 0x1 PUSH1 0x40 SHL SUB MUL NOT AND SWAP1 DUP4 PUSH1 0x1 PUSH1 0x1 PUSH1 0x40 SHL SUB AND MUL OR SWAP1 SSTORE POP PUSH0 JUMPDEST DUP3 PUSH1 0x1 PUSH1 0x1 PUSH1 0x40 SHL SUB AND DUP2 LT ISZERO PUSH2 0x1DD8 JUMPI CALLER PUSH1 0x9 PUSH0 DUP9 DUP9 DUP6 DUP2 DUP2 LT PUSH2 0x1CA4 JUMPI PUSH2 0x1CA4 PUSH2 0x2C13 JUMP JUMPDEST PUSH1 0x20 SWAP1 DUP2 MUL SWAP3 SWAP1 SWAP3 ADD CALLDATALOAD DUP4 MSTORE POP DUP2 ADD SWAP2 SWAP1 SWAP2 MSTORE PUSH1 0x40 ADD PUSH0 KECCAK256 SLOAD PUSH1 0x1 PUSH1 0x1 PUSH1 0xA0 SHL SUB AND EQ PUSH2 0x1D00 JUMPI PUSH1 0x40 MLOAD PUSH3 0x461BCD PUSH1 0xE5 SHL DUP2 MSTORE PUSH1 0x20 PUSH1 0x4 DUP3 ADD MSTORE PUSH1 0xA PUSH1 0x24 DUP3 ADD MSTORE PUSH10 0x2737BA1039BA30B5B2B9 PUSH1 0xB1 SHL PUSH1 0x44 DUP3 ADD MSTORE PUSH1 0x64 ADD PUSH2 0x211 JUMP JUMPDEST PUSH0 PUSH1 0x9 PUSH0 DUP9 DUP9 DUP6 DUP2 DUP2 LT PUSH2 0x1D16 JUMPI PUSH2 0x1D16 PUSH2 0x2C13 JUMP JUMPDEST PUSH1 0x20 SWAP1 DUP2 MUL SWAP3 SWAP1 SWAP3 ADD CALLDATALOAD DUP4 MSTORE POP DUP2 ADD SWAP2 SWAP1 SWAP2 MSTORE PUSH1 0x40 ADD PUSH0 KECCAK256 DUP1 SLOAD PUSH1 0x1 PUSH1 0x1 PUSH1 0xA0 SHL SUB NOT AND PUSH1 0x1 PUSH1 0x1 PUSH1 0xA0 SHL SUB SWAP3 DUP4 AND OR SWAP1 SSTORE DUP3 AND PUSH4 0x42842E0E ADDRESS CALLER DUP10 DUP10 DUP7 DUP2 DUP2 LT PUSH2 0x1D63 JUMPI PUSH2 0x1D63 PUSH2 0x2C13 JUMP JUMPDEST PUSH1 0x40 MLOAD PUSH1 0x1 PUSH1 0x1 PUSH1 0xE0 SHL SUB NOT PUSH1 0xE0 DUP9 SWAP1 SHL AND DUP2 MSTORE PUSH1 0x1 PUSH1 0x1 PUSH1 0xA0 SHL SUB SWAP6 DUP7 AND PUSH1 0x4 DUP3 ADD MSTORE SWAP5 SWAP1 SWAP4 AND PUSH1 0x24 DUP6 ADD MSTORE POP PUSH1 0x20 SWAP1 SWAP2 MUL ADD CALLDATALOAD PUSH1 0x44 DUP3 ADD MSTORE PUSH1 0x64 ADD PUSH0 PUSH1 0x40 MLOAD DUP1 DUP4 SUB DUP2 PUSH0 DUP8 DUP1 EXTCODESIZE ISZERO DUP1 ISZERO PUSH2 0x1DB7 JUMPI PUSH0 DUP1 REVERT JUMPDEST POP GAS CALL ISZERO DUP1 ISZERO PUSH2 0x1DC9 JUMPI RETURNDATASIZE PUSH0 DUP1 RETURNDATACOPY RETURNDATASIZE PUSH0 REVERT JUMPDEST POP POP POP POP DUP1 PUSH1 0x1 ADD SWAP1 POP PUSH2 0x1C7D JUMP JUMPDEST POP DUP5 DUP5 PUSH1 0x40 MLOAD PUSH2 0x1DE9 SWAP3 SWAP2 SWAP1 PUSH2 0x2CF9 JUMP JUMPDEST PUSH1 0x40 MLOAD DUP1 SWAP2 SUB SWAP1 KECCAK256 PUSH2 0x1DF8 CALLER SWAP1 JUMP JUMPDEST PUSH1 0x1 PUSH1 0x1 PUSH1 0xA0 SHL SUB AND PUSH32 0x9BA0AE49142860D7EEC1F3CE54722D70B60910FACBE018CCCB1099E4E84755C PUSH1 0x40 MLOAD PUSH1 0x40 MLOAD DUP1 SWAP2 SUB SWAP1 LOG3 POP POP POP POP POP JUMP JUMPDEST PUSH1 0x60 PUSH2 0x1E59 DUP4 DUP4 PUSH1 0x40 MLOAD DUP1 PUSH1 0x60 ADD PUSH1 0x40 MSTORE DUP1 PUSH1 0x27 DUP2 MSTORE PUSH1 0x20 ADD PUSH2 0x2F09 PUSH1 0x27 SWAP2 CODECOPY PUSH2 0x23CB JUMP JUMPDEST SWAP4 SWAP3 POP POP POP JUMP JUMPDEST PUSH1 0x1 PUSH1 0x1 PUSH1 0xA0 SHL SUB DUP2 AND PUSH0 SWAP1 DUP2 MSTORE PUSH1 0x8 PUSH1 0x20 MSTORE PUSH1 0x40 DUP2 KECCAK256 SLOAD PUSH1 0x1 PUSH1 0x1 PUSH1 0x40 SHL SUB AND DUP2 SUB PUSH2 0x1EA5 JUMPI POP PUSH1 0x1 PUSH1 0x1 PUSH1 0xA0 SHL SUB AND PUSH0 SWAP1 DUP2 MSTORE PUSH1 0x8 PUSH1 0x20 MSTORE PUSH1 0x40 SWAP1 KECCAK256 PUSH1 0x1 ADD SLOAD SWAP1 JUMP JUMPDEST PUSH2 0x1EAE DUP3 PUSH2 0x218D JUMP JUMPDEST PUSH1 0x1 PUSH1 0x1 PUSH1 0xA0 SHL SUB DUP4 AND PUSH0 SWAP1 DUP2 MSTORE PUSH1 0x8 PUSH1 0x20 MSTORE PUSH1 0x40 SWAP1 KECCAK256 PUSH1 0x1 ADD SLOAD PUSH2 0x6A1 SWAP2 SWAP1 PUSH2 0x2C8F JUMP JUMPDEST SWAP2 SWAP1 POP JUMP JUMPDEST PUSH1 0x1 SLOAD PUSH1 0x1 PUSH1 0x1 PUSH1 0xA0 SHL SUB AND CALLER EQ PUSH2 0x1F02 JUMPI PUSH1 0x40 MLOAD PUSH3 0x461BCD PUSH1 0xE5 SHL DUP2 MSTORE PUSH1 0x4 ADD PUSH2 0x211 SWAP1 PUSH2 0x2BEB JUMP JUMPDEST PUSH1 0xB SLOAD DUP2 GT PUSH2 0x1F1E JUMPI DUP1 PUSH1 0xB SLOAD PUSH2 0x1F19 SWAP2 SWAP1 PUSH2 0x2D37 JUMP JUMPDEST PUSH2 0x1F20 JUMP JUMPDEST PUSH0 JUMPDEST PUSH1 0xB SSTORE PUSH2 0x752 PUSH32 0x0 ADDRESS CALLER DUP5 PUSH32 0x0 PUSH2 0x2041 JUMP JUMPDEST PUSH0 PUSH2 0x1F7A DUP3 PUSH2 0x218D JUMP JUMPDEST PUSH1 0x1 PUSH1 0x1 PUSH1 0xA0 SHL SUB DUP4 AND PUSH0 SWAP1 DUP2 MSTORE PUSH1 0x8 PUSH1 0x20 MSTORE PUSH1 0x40 DUP2 KECCAK256 PUSH1 0x1 ADD DUP1 SLOAD SWAP3 SWAP4 POP DUP4 SWAP3 SWAP1 SWAP2 SWAP1 PUSH2 0x1FA9 SWAP1 DUP5 SWAP1 PUSH2 0x2C8F JUMP JUMPDEST SWAP1 SWAP2 SSTORE POP POP PUSH1 0x1 PUSH1 0x1 PUSH1 0xA0 SHL SUB DUP3 AND PUSH0 SWAP1 DUP2 MSTORE PUSH1 0x8 PUSH1 0x20 MSTORE PUSH1 0x40 SWAP1 KECCAK256 DUP1 SLOAD PUSH1 0x1 PUSH1 0x1 PUSH1 0x80 SHL SUB TIMESTAMP DUP2 AND PUSH1 0x1 PUSH1 0x80 SHL MUL SWAP2 AND OR SWAP1 SSTORE PUSH1 0x4 SLOAD PUSH2 0x1FFB SWAP1 PUSH1 0x1 SWAP1 PUSH1 0x1 PUSH1 0x1 PUSH1 0x40 SHL SUB PUSH2 0x100 SWAP1 SWAP2 DIV AND PUSH2 0x2B95 JUMP JUMPDEST PUSH1 0x1 PUSH1 0x1 PUSH1 0xA0 SHL SUB SWAP1 SWAP3 AND PUSH0 SWAP1 DUP2 MSTORE PUSH1 0x8 PUSH1 0x20 MSTORE PUSH1 0x40 SWAP1 KECCAK256 DUP1 SLOAD PUSH1 0x1 PUSH1 0x1 PUSH1 0x40 SHL SUB SWAP4 SWAP1 SWAP4 AND PUSH1 0x1 PUSH1 0x40 SHL MUL PUSH8 0xFFFFFFFFFFFFFFFF PUSH1 0x40 SHL NOT SWAP1 SWAP4 AND SWAP3 SWAP1 SWAP3 OR SWAP1 SWAP2 SSTORE POP JUMP JUMPDEST DUP2 ISZERO PUSH2 0x2186 JUMPI PUSH20 0xEEEEEEEEEEEEEEEEEEEEEEEEEEEEEEEEEEEEEEED NOT PUSH1 0x1 PUSH1 0x1 PUSH1 0xA0 SHL SUB DUP7 AND ADD PUSH2 0x217A JUMPI ADDRESS PUSH1 0x1 PUSH1 0x1 PUSH1 0xA0 SHL SUB DUP6 AND SUB PUSH2 0x20E1 JUMPI PUSH1 0x40 MLOAD PUSH4 0x2E1A7D4D PUSH1 0xE0 SHL DUP2 MSTORE PUSH1 0x4 DUP2 ADD DUP4 SWAP1 MSTORE PUSH1 0x1 PUSH1 0x1 PUSH1 0xA0 SHL SUB DUP3 AND SWAP1 PUSH4 0x2E1A7D4D SWAP1 PUSH1 0x24 ADD PUSH0 PUSH1 0x40 MLOAD DUP1 DUP4 SUB DUP2 PUSH0 DUP8 DUP1 EXTCODESIZE ISZERO DUP1 ISZERO PUSH2 0x20BB JUMPI PUSH0 DUP1 REVERT JUMPDEST POP GAS CALL ISZERO DUP1 ISZERO PUSH2 0x20CD JUMPI RETURNDATASIZE PUSH0 DUP1 RETURNDATACOPY RETURNDATASIZE PUSH0 REVERT JUMPDEST POP POP POP POP PUSH2 0x20DC DUP4 DUP4 DUP4 PUSH2 0x243F JUMP JUMPDEST PUSH2 0x2186 JUMP JUMPDEST ADDRESS PUSH1 0x1 PUSH1 0x1 PUSH1 0xA0 SHL SUB DUP5 AND SUB PUSH2 0x216F JUMPI CALLVALUE DUP3 EQ PUSH2 0x211A JUMPI PUSH1 0x40 MLOAD PUSH4 0x3E085F9 PUSH1 0xE0 SHL DUP2 MSTORE CALLVALUE PUSH1 0x4 DUP3 ADD MSTORE PUSH1 0x24 DUP2 ADD DUP4 SWAP1 MSTORE PUSH1 0x44 ADD PUSH2 0x211 JUMP JUMPDEST DUP1 PUSH1 0x1 PUSH1 0x1 PUSH1 0xA0 SHL SUB AND PUSH4 0xD0E30DB0 DUP4 PUSH1 0x40 MLOAD DUP3 PUSH4 0xFFFFFFFF AND PUSH1 0xE0 SHL DUP2 MSTORE PUSH1 0x4 ADD PUSH0 PUSH1 0x40 MLOAD DUP1 DUP4 SUB DUP2 DUP6 DUP9 DUP1 EXTCODESIZE ISZERO DUP1 ISZERO PUSH2 0x2153 JUMPI PUSH0 DUP1 REVERT JUMPDEST POP GAS CALL ISZERO DUP1 ISZERO PUSH2 0x2165 JUMPI RETURNDATASIZE PUSH0 DUP1 RETURNDATACOPY RETURNDATASIZE PUSH0 REVERT JUMPDEST POP POP POP POP POP PUSH2 0x2186 JUMP JUMPDEST PUSH2 0x20DC DUP4 DUP4 DUP4 PUSH2 0x243F JUMP JUMPDEST PUSH2 0x2186 DUP6 DUP6 DUP6 DUP6 PUSH2 0x2502 JUMP JUMPDEST POP POP POP POP POP JUMP JUMPDEST PUSH1 0x1 PUSH1 0x1 PUSH1 0xA0 SHL SUB DUP2 AND PUSH0 SWAP1 DUP2 MSTORE PUSH1 0x8 PUSH1 0x20 SWAP1 DUP2 MSTORE PUSH1 0x40 DUP1 DUP4 KECCAK256 DUP2 MLOAD PUSH1 0x80 DUP2 ADD DUP4 MSTORE DUP2 SLOAD PUSH1 0x1 PUSH1 0x1 PUSH1 0x40 SHL SUB DUP1 DUP3 AND DUP4 MSTORE PUSH1 0x1 PUSH1 0x40 SHL DUP3 DIV DUP2 AND SWAP6 DUP4 ADD DUP7 SWAP1 MSTORE PUSH1 0x1 PUSH1 0x80 SHL SWAP1 SWAP2 DIV PUSH1 0x1 PUSH1 0x1 PUSH1 0x80 SHL SUB AND SWAP4 DUP3 ADD SWAP4 SWAP1 SWAP4 MSTORE PUSH1 0x1 SWAP1 SWAP2 ADD SLOAD PUSH1 0x60 DUP3 ADD MSTORE PUSH1 0x4 SLOAD SWAP1 SWAP3 SWAP2 PUSH2 0x100 SWAP1 SWAP2 DIV AND DUP2 JUMPDEST DUP2 DUP2 LT ISZERO PUSH2 0x2308 JUMPI PUSH0 DUP2 DUP2 MSTORE PUSH1 0xA PUSH1 0x20 SWAP1 DUP2 MSTORE PUSH1 0x40 DUP1 DUP4 KECCAK256 DUP2 MLOAD PUSH1 0x80 DUP2 ADD DUP4 MSTORE DUP2 SLOAD DUP2 MSTORE PUSH1 0x1 DUP3 ADD SLOAD SWAP4 DUP2 ADD SWAP4 SWAP1 SWAP4 MSTORE PUSH1 0x2 DUP2 ADD SLOAD SWAP2 DUP4 ADD SWAP2 SWAP1 SWAP2 MSTORE PUSH1 0x3 ADD SLOAD PUSH1 0x60 DUP3 ADD MSTORE SWAP1 DUP5 DUP4 SUB PUSH2 0x225F JUMPI DUP6 PUSH1 0x40 ADD MLOAD PUSH1 0x1 PUSH1 0x1 PUSH1 0x80 SHL SUB AND PUSH2 0x2265 JUMP JUMPDEST DUP2 PUSH1 0x40 ADD MLOAD JUMPDEST SWAP1 POP PUSH0 DUP3 PUSH1 0x60 ADD MLOAD PUSH0 SUB PUSH2 0x2279 JUMPI TIMESTAMP PUSH2 0x227F JUMP JUMPDEST DUP3 PUSH1 0x60 ADD MLOAD JUMPDEST SWAP1 POP PUSH0 DUP1 PUSH2 0x22B3 DUP10 PUSH0 ADD MLOAD PUSH1 0x1 PUSH1 0x1 PUSH1 0x40 SHL SUB AND DUP6 DUP6 PUSH2 0x229F SWAP2 SWAP1 PUSH2 0x2D37 JUMP JUMPDEST PUSH2 0x22A9 SWAP2 SWAP1 PUSH2 0x2E89 JUMP JUMPDEST DUP7 PUSH1 0x20 ADD MLOAD PUSH2 0x255A JUMP JUMPDEST SWAP2 POP SWAP2 POP PUSH0 DUP1 PUSH2 0x22D1 DUP13 DUP9 PUSH0 ADD MLOAD DUP6 PUSH2 0x22CC SWAP2 SWAP1 PUSH2 0x2EB4 JUMP JUMPDEST PUSH2 0x25A1 JUMP JUMPDEST SWAP2 POP SWAP2 POP DUP4 DUP1 ISZERO PUSH2 0x22DF JUMPI POP DUP2 JUMPDEST PUSH2 0x22E9 JUMPI DUP12 PUSH2 0x22EB JUMP JUMPDEST DUP1 JUMPDEST SWAP12 POP POP POP POP POP POP POP POP PUSH1 0x1 DUP2 PUSH2 0x2301 SWAP2 SWAP1 PUSH2 0x2C8F JUMP JUMPDEST SWAP1 POP PUSH2 0x21FF JUMP JUMPDEST POP POP POP POP SWAP2 SWAP1 POP JUMP JUMPDEST PUSH1 0xB SLOAD DUP2 GT ISZERO PUSH2 0x2363 JUMPI PUSH1 0x40 MLOAD PUSH3 0x461BCD PUSH1 0xE5 SHL DUP2 MSTORE PUSH1 0x20 PUSH1 0x4 DUP3 ADD MSTORE PUSH1 0x18 PUSH1 0x24 DUP3 ADD MSTORE PUSH32 0x4E6F7420656E6F7567682072657761726420746F6B656E730000000000000000 PUSH1 0x44 DUP3 ADD MSTORE PUSH1 0x64 ADD PUSH2 0x211 JUMP JUMPDEST DUP1 PUSH1 0xB PUSH0 DUP3 DUP3 SLOAD PUSH2 0x2374 SWAP2 SWAP1 PUSH2 0x2D37 JUMP JUMPDEST SWAP1 SWAP2 SSTORE POP PUSH2 0x23C7 SWAP1 POP PUSH32 0x0 ADDRESS DUP5 DUP5 PUSH32 0x0 PUSH2 0x2041 JUMP JUMPDEST POP POP JUMP JUMPDEST PUSH1 0x60 PUSH0 DUP1 DUP6 PUSH1 0x1 PUSH1 0x1 PUSH1 0xA0 SHL SUB AND DUP6 PUSH1 0x40 MLOAD PUSH2 0x23E7 SWAP2 SWAP1 PUSH2 0x2ED3 JUMP JUMPDEST PUSH0 PUSH1 0x40 MLOAD DUP1 DUP4 SUB DUP2 DUP6 GAS DELEGATECALL SWAP2 POP POP RETURNDATASIZE DUP1 PUSH0 DUP2 EQ PUSH2 0x241F JUMPI PUSH1 0x40 MLOAD SWAP2 POP PUSH1 0x1F NOT PUSH1 0x3F RETURNDATASIZE ADD AND DUP3 ADD PUSH1 0x40 MSTORE RETURNDATASIZE DUP3 MSTORE RETURNDATASIZE PUSH0 PUSH1 0x20 DUP5 ADD RETURNDATACOPY PUSH2 0x2424 JUMP JUMPDEST PUSH1 0x60 SWAP2 POP JUMPDEST POP SWAP2 POP SWAP2 POP PUSH2 0x2435 DUP7 DUP4 DUP4 DUP8 PUSH2 0x25BA JUMP JUMPDEST SWAP7 SWAP6 POP POP POP POP POP POP JUMP JUMPDEST PUSH0 DUP4 PUSH1 0x1 PUSH1 0x1 PUSH1 0xA0 SHL SUB AND DUP4 PUSH1 0x40 MLOAD PUSH0 PUSH1 0x40 MLOAD DUP1 DUP4 SUB DUP2 DUP6 DUP8 GAS CALL SWAP3 POP POP POP RETURNDATASIZE DUP1 PUSH0 DUP2 EQ PUSH2 0x2488 JUMPI PUSH1 0x40 MLOAD SWAP2 POP PUSH1 0x1F NOT PUSH1 0x3F RETURNDATASIZE ADD AND DUP3 ADD PUSH1 0x40 MSTORE RETURNDATASIZE DUP3 MSTORE RETURNDATASIZE PUSH0 PUSH1 0x20 DUP5 ADD RETURNDATACOPY PUSH2 0x248D JUMP JUMPDEST PUSH1 0x60 SWAP2 POP JUMPDEST POP POP SWAP1 POP DUP1 PUSH2 0x24FC JUMPI DUP2 PUSH1 0x1 PUSH1 0x1 PUSH1 0xA0 SHL SUB AND PUSH4 0xD0E30DB0 DUP5 PUSH1 0x40 MLOAD DUP3 PUSH4 0xFFFFFFFF AND PUSH1 0xE0 SHL DUP2 MSTORE PUSH1 0x4 ADD PUSH0 PUSH1 0x40 MLOAD DUP1 DUP4 SUB DUP2 DUP6 DUP9 DUP1 EXTCODESIZE ISZERO DUP1 ISZERO PUSH2 0x24CF JUMPI PUSH0 DUP1 REVERT JUMPDEST POP GAS CALL ISZERO DUP1 ISZERO PUSH2 0x24E1 JUMPI RETURNDATASIZE PUSH0 DUP1 RETURNDATACOPY RETURNDATASIZE PUSH0 REVERT JUMPDEST POP PUSH2 0x24FC SWAP4 POP POP POP PUSH1 0x1 PUSH1 0x1 PUSH1 0xA0 SHL SUB DUP5 AND SWAP1 POP DUP6 DUP6 PUSH2 0x263A JUMP JUMPDEST POP POP POP POP JUMP JUMPDEST DUP2 PUSH1 0x1 PUSH1 0x1 PUSH1 0xA0 SHL SUB AND DUP4 PUSH1 0x1 PUSH1 0x1 PUSH1 0xA0 SHL SUB AND SUB ISZERO PUSH2 0x24FC JUMPI ADDRESS PUSH1 0x1 PUSH1 0x1 PUSH1 0xA0 SHL SUB DUP5 AND SUB PUSH2 0x2545 JUMPI PUSH2 0x2540 PUSH1 0x1 PUSH1 0x1 PUSH1 0xA0 SHL SUB DUP6 AND DUP4 DUP4 PUSH2 0x263A JUMP JUMPDEST PUSH2 0x24FC JUMP JUMPDEST PUSH2 0x24FC PUSH1 0x1 PUSH1 0x1 PUSH1 0xA0 SHL SUB DUP6 AND DUP5 DUP5 DUP5 PUSH2 0x269D JUMP JUMPDEST PUSH0 DUP1 DUP4 PUSH0 SUB PUSH2 0x256E JUMPI POP PUSH1 0x1 SWAP1 POP PUSH0 PUSH2 0x259A JUMP JUMPDEST DUP4 DUP4 MUL DUP4 DUP6 DUP3 DUP2 PUSH2 0x2581 JUMPI PUSH2 0x2581 PUSH2 0x2EA0 JUMP JUMPDEST DIV EQ PUSH2 0x2593 JUMPI PUSH0 DUP1 SWAP3 POP SWAP3 POP POP PUSH2 0x259A JUMP JUMPDEST PUSH1 0x1 SWAP3 POP SWAP1 POP JUMPDEST SWAP3 POP SWAP3 SWAP1 POP JUMP JUMPDEST PUSH0 DUP1 DUP4 DUP4 ADD DUP5 DUP2 LT ISZERO PUSH2 0x2593 JUMPI PUSH0 DUP1 SWAP3 POP SWAP3 POP POP PUSH2 0x259A JUMP JUMPDEST PUSH1 0x60 DUP4 ISZERO PUSH2 0x2628 JUMPI DUP3 MLOAD PUSH0 SUB PUSH2 0x2621 JUMPI PUSH1 0x1 PUSH1 0x1 PUSH1 0xA0 SHL SUB DUP6 AND EXTCODESIZE PUSH2 0x2621 JUMPI PUSH1 0x40 MLOAD PUSH3 0x461BCD PUSH1 0xE5 SHL DUP2 MSTORE PUSH1 0x20 PUSH1 0x4 DUP3 ADD MSTORE PUSH1 0x1D PUSH1 0x24 DUP3 ADD MSTORE PUSH32 0x416464726573733A2063616C6C20746F206E6F6E2D636F6E7472616374000000 PUSH1 0x44 DUP3 ADD MSTORE PUSH1 0x64 ADD PUSH2 0x211 JUMP JUMPDEST POP DUP2 PUSH2 0x2632 JUMP JUMPDEST PUSH2 0x2632 DUP4 DUP4 PUSH2 0x26D5 JUMP JUMPDEST SWAP5 SWAP4 POP POP POP POP JUMP JUMPDEST PUSH1 0x40 MLOAD PUSH1 0x1 PUSH1 0x1 PUSH1 0xA0 SHL SUB DUP4 AND PUSH1 0x24 DUP3 ADD MSTORE PUSH1 0x44 DUP2 ADD DUP3 SWAP1 MSTORE PUSH2 0x1800 SWAP1 DUP5 SWAP1 PUSH4 0xA9059CBB PUSH1 0xE0 SHL SWAP1 PUSH1 0x64 ADD JUMPDEST PUSH1 0x40 DUP1 MLOAD PUSH1 0x1F NOT DUP2 DUP5 SUB ADD DUP2 MSTORE SWAP2 SWAP1 MSTORE PUSH1 0x20 DUP2 ADD DUP1 MLOAD PUSH1 0x1 PUSH1 0x1 PUSH1 0xE0 SHL SUB AND PUSH1 0x1 PUSH1 0x1 PUSH1 0xE0 SHL SUB NOT SWAP1 SWAP4 AND SWAP3 SWAP1 SWAP3 OR SWAP1 SWAP2 MSTORE PUSH2 0x26FF JUMP JUMPDEST PUSH1 0x40 MLOAD PUSH1 0x1 PUSH1 0x1 PUSH1 0xA0 SHL SUB DUP1 DUP6 AND PUSH1 0x24 DUP4 ADD MSTORE DUP4 AND PUSH1 0x44 DUP3 ADD MSTORE PUSH1 0x64 DUP2 ADD DUP3 SWAP1 MSTORE PUSH2 0x24FC SWAP1 DUP6 SWAP1 PUSH4 0x23B872DD PUSH1 0xE0 SHL SWAP1 PUSH1 0x84 ADD PUSH2 0x2666 JUMP JUMPDEST DUP2 MLOAD ISZERO PUSH2 0x26E5 JUMPI DUP2 MLOAD DUP1 DUP4 PUSH1 0x20 ADD REVERT JUMPDEST DUP1 PUSH1 0x40 MLOAD PUSH3 0x461BCD PUSH1 0xE5 SHL DUP2 MSTORE PUSH1 0x4 ADD PUSH2 0x211 SWAP2 SWAP1 PUSH2 0x2B6F JUMP JUMPDEST PUSH0 PUSH2 0x2753 DUP3 PUSH1 0x40 MLOAD DUP1 PUSH1 0x40 ADD PUSH1 0x40 MSTORE DUP1 PUSH1 0x20 DUP2 MSTORE PUSH1 0x20 ADD PUSH32 0x5361666545524332303A206C6F772D6C6576656C2063616C6C206661696C6564 DUP2 MSTORE POP DUP6 PUSH1 0x1 PUSH1 0x1 PUSH1 0xA0 SHL SUB AND PUSH2 0x27D0 SWAP1 SWAP3 SWAP2 SWAP1 PUSH4 0xFFFFFFFF AND JUMP JUMPDEST DUP1 MLOAD SWAP1 SWAP2 POP ISZERO PUSH2 0x1800 JUMPI DUP1 DUP1 PUSH1 0x20 ADD SWAP1 MLOAD DUP2 ADD SWAP1 PUSH2 0x2771 SWAP2 SWAP1 PUSH2 0x2EE9 JUMP JUMPDEST PUSH2 0x1800 JUMPI PUSH1 0x40 MLOAD PUSH3 0x461BCD PUSH1 0xE5 SHL DUP2 MSTORE PUSH1 0x20 PUSH1 0x4 DUP3 ADD MSTORE PUSH1 0x2A PUSH1 0x24 DUP3 ADD MSTORE PUSH32 0x5361666545524332303A204552433230206F7065726174696F6E20646964206E PUSH1 0x44 DUP3 ADD MSTORE PUSH10 0x1BDD081CDD58D8D95959 PUSH1 0xB2 SHL PUSH1 0x64 DUP3 ADD MSTORE PUSH1 0x84 ADD PUSH2 0x211 JUMP JUMPDEST PUSH1 0x60 PUSH2 0x2632 DUP5 DUP5 PUSH0 DUP6 DUP6 PUSH0 DUP1 DUP7 PUSH1 0x1 PUSH1 0x1 PUSH1 0xA0 SHL SUB AND DUP6 DUP8 PUSH1 0x40 MLOAD PUSH2 0x27F5 SWAP2 SWAP1 PUSH2 0x2ED3 JUMP JUMPDEST PUSH0 PUSH1 0x40 MLOAD DUP1 DUP4 SUB DUP2 DUP6 DUP8 GAS CALL SWAP3 POP POP POP RETURNDATASIZE DUP1 PUSH0 DUP2 EQ PUSH2 0x282F JUMPI PUSH1 0x40 MLOAD SWAP2 POP PUSH1 0x1F NOT PUSH1 0x3F RETURNDATASIZE ADD AND DUP3 ADD PUSH1 0x40 MSTORE RETURNDATASIZE DUP3 MSTORE RETURNDATASIZE PUSH0 PUSH1 0x20 DUP5 ADD RETURNDATACOPY PUSH2 0x2834 JUMP JUMPDEST PUSH1 0x60 SWAP2 POP JUMPDEST POP SWAP2 POP SWAP2 POP PUSH2 0x2845 DUP8 DUP4 DUP4 DUP8 PUSH2 0x25BA JUMP JUMPDEST SWAP8 SWAP7 POP POP POP POP POP POP POP JUMP JUMPDEST PUSH0 PUSH1 0x20 DUP3 DUP5 SUB SLT ISZERO PUSH2 0x2860 JUMPI PUSH0 DUP1 REVERT JUMPDEST DUP2 CALLDATALOAD PUSH1 0x1 PUSH1 0x1 PUSH1 0xE0 SHL SUB NOT DUP2 AND DUP2 EQ PUSH2 0x1E59 JUMPI PUSH0 DUP1 REVERT JUMPDEST PUSH0 DUP1 DUP4 PUSH1 0x1F DUP5 ADD SLT PUSH2 0x2887 JUMPI PUSH0 DUP1 REVERT JUMPDEST POP DUP2 CALLDATALOAD PUSH1 0x1 PUSH1 0x1 PUSH1 0x40 SHL SUB DUP2 GT ISZERO PUSH2 0x289D JUMPI PUSH0 DUP1 REVERT JUMPDEST PUSH1 0x20 DUP4 ADD SWAP2 POP DUP4 PUSH1 0x20 DUP3 PUSH1 0x5 SHL DUP6 ADD ADD GT ISZERO PUSH2 0x259A JUMPI PUSH0 DUP1 REVERT JUMPDEST PUSH0 DUP1 PUSH1 0x20 DUP4 DUP6 SUB SLT ISZERO PUSH2 0x28C8 JUMPI PUSH0 DUP1 REVERT JUMPDEST DUP3 CALLDATALOAD PUSH1 0x1 PUSH1 0x1 PUSH1 0x40 SHL SUB DUP2 GT ISZERO PUSH2 0x28DD JUMPI PUSH0 DUP1 REVERT JUMPDEST PUSH2 0x28E9 DUP6 DUP3 DUP7 ADD PUSH2 0x2877 JUMP JUMPDEST SWAP1 SWAP7 SWAP1 SWAP6 POP SWAP4 POP POP POP POP JUMP JUMPDEST DUP1 CALLDATALOAD PUSH1 0x1 PUSH1 0x1 PUSH1 0xA0 SHL SUB DUP2 AND DUP2 EQ PUSH2 0x1ED3 JUMPI PUSH0 DUP1 REVERT JUMPDEST PUSH0 PUSH1 0x20 DUP3 DUP5 SUB SLT ISZERO PUSH2 0x291B JUMPI PUSH0 DUP1 REVERT JUMPDEST PUSH2 0x1E59 DUP3 PUSH2 0x28F5 JUMP JUMPDEST PUSH0 DUP1 PUSH0 DUP1 PUSH0 PUSH1 0x80 DUP7 DUP9 SUB SLT ISZERO PUSH2 0x2938 JUMPI PUSH0 DUP1 REVERT JUMPDEST PUSH2 0x2941 DUP7 PUSH2 0x28F5 JUMP JUMPDEST SWAP5 POP PUSH2 0x294F PUSH1 0x20 DUP8 ADD PUSH2 0x28F5 JUMP JUMPDEST SWAP4 POP PUSH1 0x40 DUP7 ADD CALLDATALOAD SWAP3 POP PUSH1 0x60 DUP7 ADD CALLDATALOAD PUSH1 0x1 PUSH1 0x1 PUSH1 0x40 SHL SUB DUP2 GT ISZERO PUSH2 0x2970 JUMPI PUSH0 DUP1 REVERT JUMPDEST DUP7 ADD PUSH1 0x1F DUP2 ADD DUP9 SGT PUSH2 0x2980 JUMPI PUSH0 DUP1 REVERT JUMPDEST DUP1 CALLDATALOAD PUSH1 0x1 PUSH1 0x1 PUSH1 0x40 SHL SUB DUP2 GT ISZERO PUSH2 0x2995 JUMPI PUSH0 DUP1 REVERT JUMPDEST DUP9 PUSH1 0x20 DUP3 DUP5 ADD ADD GT ISZERO PUSH2 0x29A6 JUMPI PUSH0 DUP1 REVERT JUMPDEST SWAP6 SWAP9 SWAP5 SWAP8 POP SWAP3 SWAP6 POP POP POP PUSH1 0x20 ADD SWAP2 SWAP1 JUMP JUMPDEST PUSH0 PUSH1 0x20 DUP3 DUP5 SUB SLT ISZERO PUSH2 0x29C7 JUMPI PUSH0 DUP1 REVERT JUMPDEST POP CALLDATALOAD SWAP2 SWAP1 POP JUMP JUMPDEST PUSH4 0x4E487B71 PUSH1 0xE0 SHL PUSH0 MSTORE PUSH1 0x41 PUSH1 0x4 MSTORE PUSH1 0x24 PUSH0 REVERT JUMPDEST PUSH0 PUSH1 0x20 DUP3 DUP5 SUB SLT ISZERO PUSH2 0x29F2 JUMPI PUSH0 DUP1 REVERT JUMPDEST DUP2 CALLDATALOAD PUSH1 0x1 PUSH1 0x1 PUSH1 0x40 SHL SUB DUP2 GT ISZERO PUSH2 0x2A07 JUMPI PUSH0 DUP1 REVERT JUMPDEST DUP3 ADD PUSH1 0x1F DUP2 ADD DUP5 SGT PUSH2 0x2A17 JUMPI PUSH0 DUP1 REVERT JUMPDEST DUP1 CALLDATALOAD PUSH1 0x1 PUSH1 0x1 PUSH1 0x40 SHL SUB DUP2 GT ISZERO PUSH2 0x2A30 JUMPI PUSH2 0x2A30 PUSH2 0x29CE JUMP JUMPDEST PUSH1 0x40 MLOAD PUSH1 0x1F DUP3 ADD PUSH1 0x1F NOT SWAP1 DUP2 AND PUSH1 0x3F ADD AND DUP2 ADD PUSH1 0x1 PUSH1 0x1 PUSH1 0x40 SHL SUB DUP2 GT DUP3 DUP3 LT OR ISZERO PUSH2 0x2A5E JUMPI PUSH2 0x2A5E PUSH2 0x29CE JUMP JUMPDEST PUSH1 0x40 MSTORE DUP2 DUP2 MSTORE DUP3 DUP3 ADD PUSH1 0x20 ADD DUP7 LT ISZERO PUSH2 0x2A75 JUMPI PUSH0 DUP1 REVERT JUMPDEST DUP2 PUSH1 0x20 DUP5 ADD PUSH1 0x20 DUP4 ADD CALLDATACOPY PUSH0 SWAP2 DUP2 ADD PUSH1 0x20 ADD SWAP2 SWAP1 SWAP2 MSTORE SWAP5 SWAP4 POP POP POP POP JUMP JUMPDEST PUSH0 DUP2 MLOAD DUP1 DUP5 MSTORE DUP1 PUSH1 0x20 DUP5 ADD PUSH1 0x20 DUP7 ADD MCOPY PUSH0 PUSH1 0x20 DUP3 DUP7 ADD ADD MSTORE PUSH1 0x20 PUSH1 0x1F NOT PUSH1 0x1F DUP4 ADD AND DUP6 ADD ADD SWAP2 POP POP SWAP3 SWAP2 POP POP JUMP JUMPDEST PUSH0 PUSH1 0x20 DUP3 ADD PUSH1 0x20 DUP4 MSTORE DUP1 DUP5 MLOAD DUP1 DUP4 MSTORE PUSH1 0x40 DUP6 ADD SWAP2 POP PUSH1 0x40 DUP2 PUSH1 0x5 SHL DUP7 ADD ADD SWAP3 POP PUSH1 0x20 DUP7 ADD PUSH0 JUMPDEST DUP3 DUP2 LT ISZERO PUSH2 0x2B17 JUMPI PUSH1 0x3F NOT DUP8 DUP7 SUB ADD DUP5 MSTORE PUSH2 0x2B02 DUP6 DUP4 MLOAD PUSH2 0x2A92 JUMP JUMPDEST SWAP5 POP PUSH1 0x20 SWAP4 DUP5 ADD SWAP4 SWAP2 SWAP1 SWAP2 ADD SWAP1 PUSH1 0x1 ADD PUSH2 0x2AE6 JUMP JUMPDEST POP SWAP3 SWAP7 SWAP6 POP POP POP POP POP POP JUMP JUMPDEST PUSH1 0x40 DUP1 DUP3 MSTORE DUP4 MLOAD SWAP1 DUP3 ADD DUP2 SWAP1 MSTORE PUSH0 SWAP1 PUSH1 0x20 DUP6 ADD SWAP1 PUSH1 0x60 DUP5 ADD SWAP1 DUP4 JUMPDEST DUP2 DUP2 LT ISZERO PUSH2 0x2B5C JUMPI DUP4 MLOAD DUP4 MSTORE PUSH1 0x20 SWAP4 DUP5 ADD SWAP4 SWAP1 SWAP3 ADD SWAP2 PUSH1 0x1 ADD PUSH2 0x2B3E JUMP JUMPDEST POP POP PUSH1 0x20 SWAP4 SWAP1 SWAP4 ADD SWAP4 SWAP1 SWAP4 MSTORE POP SWAP3 SWAP2 POP POP JUMP JUMPDEST PUSH1 0x20 DUP2 MSTORE PUSH0 PUSH2 0x1E59 PUSH1 0x20 DUP4 ADD DUP5 PUSH2 0x2A92 JUMP JUMPDEST PUSH4 0x4E487B71 PUSH1 0xE0 SHL PUSH0 MSTORE PUSH1 0x11 PUSH1 0x4 MSTORE PUSH1 0x24 PUSH0 REVERT JUMPDEST PUSH1 0x1 PUSH1 0x1 PUSH1 0x40 SHL SUB DUP3 DUP2 AND DUP3 DUP3 AND SUB SWAP1 DUP2 GT ISZERO PUSH2 0x6A1 JUMPI PUSH2 0x6A1 PUSH2 0x2B81 JUMP JUMPDEST PUSH1 0x20 DUP1 DUP3 MSTORE PUSH1 0x1F SWAP1 DUP3 ADD MSTORE PUSH32 0x5265656E7472616E637947756172643A207265656E7472616E742063616C6C00 PUSH1 0x40 DUP3 ADD MSTORE PUSH1 0x60 ADD SWAP1 JUMP JUMPDEST PUSH1 0x20 DUP1 DUP3 MSTORE PUSH1 0xE SWAP1 DUP3 ADD MSTORE PUSH14 0x139BDD08185D5D1A1BDC9A5E9959 PUSH1 0x92 SHL PUSH1 0x40 DUP3 ADD MSTORE PUSH1 0x60 ADD SWAP1 JUMP JUMPDEST PUSH4 0x4E487B71 PUSH1 0xE0 SHL PUSH0 MSTORE PUSH1 0x32 PUSH1 0x4 MSTORE PUSH1 0x24 PUSH0 REVERT JUMPDEST PUSH0 DUP1 DUP4 CALLDATALOAD PUSH1 0x1E NOT DUP5 CALLDATASIZE SUB ADD DUP2 SLT PUSH2 0x2C3C JUMPI PUSH0 DUP1 REVERT JUMPDEST DUP4 ADD DUP1 CALLDATALOAD SWAP2 POP PUSH1 0x1 PUSH1 0x1 PUSH1 0x40 SHL SUB DUP3 GT ISZERO PUSH2 0x2C55 JUMPI PUSH0 DUP1 REVERT JUMPDEST PUSH1 0x20 ADD SWAP2 POP CALLDATASIZE DUP2 SWAP1 SUB DUP3 SGT ISZERO PUSH2 0x259A JUMPI PUSH0 DUP1 REVERT JUMPDEST DUP3 DUP5 DUP3 CALLDATACOPY PUSH1 0x60 SWAP2 SWAP1 SWAP2 SHL PUSH12 0xFFFFFFFFFFFFFFFFFFFFFFFF NOT AND SWAP2 ADD SWAP1 DUP2 MSTORE PUSH1 0x14 ADD SWAP2 SWAP1 POP JUMP JUMPDEST DUP1 DUP3 ADD DUP1 DUP3 GT ISZERO PUSH2 0x6A1 JUMPI PUSH2 0x6A1 PUSH2 0x2B81 JUMP JUMPDEST PUSH1 0x1 DUP2 DUP2 SHR SWAP1 DUP3 AND DUP1 PUSH2 0x2CB6 JUMPI PUSH1 0x7F DUP3 AND SWAP2 POP JUMPDEST PUSH1 0x20 DUP3 LT DUP2 SUB PUSH2 0x2CD4 JUMPI PUSH4 0x4E487B71 PUSH1 0xE0 SHL PUSH0 MSTORE PUSH1 0x22 PUSH1 0x4 MSTORE PUSH1 0x24 PUSH0 REVERT JUMPDEST POP SWAP2 SWAP1 POP JUMP JUMPDEST PUSH1 0x1 PUSH1 0x1 PUSH1 0x40 SHL SUB DUP2 DUP2 AND DUP4 DUP3 AND ADD SWAP1 DUP2 GT ISZERO PUSH2 0x6A1 JUMPI PUSH2 0x6A1 PUSH2 0x2B81 JUMP JUMPDEST PUSH0 PUSH1 0x1 PUSH1 0x1 PUSH1 0xFB SHL SUB DUP4 GT ISZERO PUSH2 0x2D0D JUMPI PUSH0 DUP1 REVERT JUMPDEST DUP3 PUSH1 0x5 SHL DUP1 DUP6 DUP5 CALLDATACOPY SWAP2 SWAP1 SWAP2 ADD SWAP4 SWAP3 POP POP POP JUMP JUMPDEST PUSH0 PUSH1 0x20 DUP3 DUP5 SUB SLT ISZERO PUSH2 0x2D30 JUMPI PUSH0 DUP1 REVERT JUMPDEST POP MLOAD SWAP2 SWAP1 POP JUMP JUMPDEST DUP2 DUP2 SUB DUP2 DUP2 GT ISZERO PUSH2 0x6A1 JUMPI PUSH2 0x6A1 PUSH2 0x2B81 JUMP JUMPDEST PUSH1 0x1F DUP3 GT ISZERO PUSH2 0x1800 JUMPI DUP1 PUSH0 MSTORE PUSH1 0x20 PUSH0 KECCAK256 PUSH1 0x1F DUP5 ADD PUSH1 0x5 SHR DUP2 ADD PUSH1 0x20 DUP6 LT ISZERO PUSH2 0x2D6F JUMPI POP DUP1 JUMPDEST PUSH1 0x1F DUP5 ADD PUSH1 0x5 SHR DUP3 ADD SWAP2 POP JUMPDEST DUP2 DUP2 LT ISZERO PUSH2 0x2186 JUMPI PUSH0 DUP2 SSTORE PUSH1 0x1 ADD PUSH2 0x2D7B JUMP JUMPDEST DUP2 MLOAD PUSH1 0x1 PUSH1 0x1 PUSH1 0x40 SHL SUB DUP2 GT ISZERO PUSH2 0x2DA7 JUMPI PUSH2 0x2DA7 PUSH2 0x29CE JUMP JUMPDEST PUSH2 0x2DBB DUP2 PUSH2 0x2DB5 DUP5 SLOAD PUSH2 0x2CA2 JUMP JUMPDEST DUP5 PUSH2 0x2D4A JUMP JUMPDEST PUSH1 0x20 PUSH1 0x1F DUP3 GT PUSH1 0x1 DUP2 EQ PUSH2 0x2DED JUMPI PUSH0 DUP4 ISZERO PUSH2 0x2DD6 JUMPI POP DUP5 DUP3 ADD MLOAD JUMPDEST PUSH0 NOT PUSH1 0x3 DUP6 SWAP1 SHL SHR NOT AND PUSH1 0x1 DUP5 SWAP1 SHL OR DUP5 SSTORE PUSH2 0x2186 JUMP JUMPDEST PUSH0 DUP5 DUP2 MSTORE PUSH1 0x20 DUP2 KECCAK256 PUSH1 0x1F NOT DUP6 AND SWAP2 JUMPDEST DUP3 DUP2 LT ISZERO PUSH2 0x2E1C JUMPI DUP8 DUP6 ADD MLOAD DUP3 SSTORE PUSH1 0x20 SWAP5 DUP6 ADD SWAP5 PUSH1 0x1 SWAP1 SWAP3 ADD SWAP2 ADD PUSH2 0x2DFC JUMP JUMPDEST POP DUP5 DUP3 LT ISZERO PUSH2 0x2E39 JUMPI DUP7 DUP5 ADD MLOAD PUSH0 NOT PUSH1 0x3 DUP8 SWAP1 SHL PUSH1 0xF8 AND SHR NOT AND DUP2 SSTORE JUMPDEST POP POP POP POP PUSH1 0x1 SWAP1 DUP2 SHL ADD SWAP1 SSTORE POP JUMP JUMPDEST PUSH1 0x40 DUP2 MSTORE PUSH0 PUSH2 0x2E5A PUSH1 0x40 DUP4 ADD DUP6 PUSH2 0x2A92 JUMP JUMPDEST DUP3 DUP2 SUB PUSH1 0x20 DUP5 ADD MSTORE PUSH2 0x2E6C DUP2 DUP6 PUSH2 0x2A92 JUMP JUMPDEST SWAP6 SWAP5 POP POP POP POP POP JUMP JUMPDEST PUSH4 0x4E487B71 PUSH1 0xE0 SHL PUSH0 MSTORE PUSH1 0x31 PUSH1 0x4 MSTORE PUSH1 0x24 PUSH0 REVERT JUMPDEST DUP1 DUP3 MUL DUP2 ISZERO DUP3 DUP3 DIV DUP5 EQ OR PUSH2 0x6A1 JUMPI PUSH2 0x6A1 PUSH2 0x2B81 JUMP JUMPDEST PUSH4 0x4E487B71 PUSH1 0xE0 SHL PUSH0 MSTORE PUSH1 0x12 PUSH1 0x4 MSTORE PUSH1 0x24 PUSH0 REVERT JUMPDEST PUSH0 DUP3 PUSH2 0x2ECE JUMPI PUSH4 0x4E487B71 PUSH1 0xE0 SHL PUSH0 MSTORE PUSH1 0x12 PUSH1 0x4 MSTORE PUSH1 0x24 PUSH0 REVERT JUMPDEST POP DIV SWAP1 JUMP JUMPDEST PUSH0 DUP3 MLOAD DUP1 PUSH1 0x20 DUP6 ADD DUP5 MCOPY PUSH0 SWAP3 ADD SWAP2 DUP3 MSTORE POP SWAP2 SWAP1 POP JUMP JUMPDEST PUSH0 PUSH1 0x20 DUP3 DUP5 SUB SLT ISZERO PUSH2 0x2EF9 JUMPI PUSH0 DUP1 REVERT JUMPDEST DUP2 MLOAD DUP1 ISZERO ISZERO DUP2 EQ PUSH2 0x1E59 JUMPI PUSH0 DUP1 REVERT INVALID COINBASE PUSH5 0x6472657373 GASPRICE KECCAK256 PUSH13 0x6F772D6C6576656C2064656C65 PUSH8 0x6174652063616C6C KECCAK256 PUSH7 0x61696C6564A264 PUSH10 0x70667358221220F5E1FD 0x24 SWAP7 CREATE 0xAF LOG0 ORIGIN DUP11 PUSH10 0x33903D41E344EDBE237F SLT 0xB3 0xCB 0xD1 0xBE SWAP5 PUSH21 0x15461D8E64736F6C634300081A0033000000000000 "
		},
		"gasEstimates": {
			"creation": {
				"codeDepositCost": "2426600",
				"executionCost": "infinite",
				"totalCost": "infinite"
			},
			"external": {
				"claimRewards()": "infinite",
				"contractURI()": "infinite",
				"depositRewardTokens(uint256)": "infinite",
				"getRewardTokenBalance()": "2359",
				"getRewardsPerUnitTime()": "4762",
				"getStakeInfo(address)": "infinite",
				"getTimeUnit()": "4782",
				"indexedTokens(uint256)": "4617",
				"isIndexed(uint256)": "2546",
				"multicall(bytes[])": "infinite",
				"nativeTokenWrapper()": "infinite",
				"onERC721Received(address,address,uint256,bytes)": "infinite",
				"owner()": "2419",
				"rewardToken()": "infinite",
				"setContractURI(string)": "infinite",
				"setOwner(address)": "28449",
				"setRewardsPerUnitTime(uint256)": "infinite",
				"setTimeUnit(uint256)": "infinite",
				"stake(uint256[])": "infinite",
				"stakerAddress(uint256)": "2564",
				"stakers(address)": "4953",
				"stakersArray(uint256)": "4701",
				"stakingToken()": "infinite",
				"stakingTokenAllowedId(uint256)": "4616",
				"supportsInterface(bytes4)": "447",
				"withdraw(uint256[])": "infinite",
				"withdrawRewardTokens(uint256)": "infinite"
			},
			"internal": {
				"_canSetContractURI()": "infinite",
				"_canSetOwner()": "2196",
				"_canSetStakeConditions()": "infinite",
				"_depositRewardTokens(uint256)": "infinite",
				"_mintRewards(address,uint256)": "infinite",
				"_withdrawRewardTokens(uint256)": "infinite"
			}
		},
		"methodIdentifiers": {
			"claimRewards()": "372500ab",
			"contractURI()": "e8a3d485",
			"depositRewardTokens(uint256)": "16c621e0",
			"getRewardTokenBalance()": "93ce5343",
			"getRewardsPerUnitTime()": "0e8b229b",
			"getStakeInfo(address)": "c3453153",
			"getTimeUnit()": "d68124c7",
			"indexedTokens(uint256)": "961004d3",
			"isIndexed(uint256)": "fd48ba17",
			"multicall(bytes[])": "ac9650d8",
			"nativeTokenWrapper()": "f9ea29cb",
			"onERC721Received(address,address,uint256,bytes)": "150b7a02",
			"owner()": "8da5cb5b",
			"rewardToken()": "f7c618c1",
			"setContractURI(string)": "938e3d7b",
			"setOwner(address)": "13af4035",
			"setRewardsPerUnitTime(uint256)": "23ef2580",
			"setTimeUnit(uint256)": "6360106f",
			"stake(uint256[])": "0fbf0a93",
			"stakerAddress(uint256)": "94067045",
			"stakers(address)": "9168ae72",
			"stakersArray(uint256)": "5357e916",
			"stakingToken()": "72f702f3",
			"stakingTokenAllowedId(uint256)": "f0cfad98",
			"supportsInterface(bytes4)": "01ffc9a7",
			"withdraw(uint256[])": "983d95ce",
			"withdrawRewardTokens(uint256)": "cb43b2dd"
		}
	},
	"abi": [
		{
			"inputs": [
				{
					"internalType": "address",
					"name": "_defaultAdmin",
					"type": "address"
				},
				{
					"internalType": "uint256",
					"name": "_timeUnit",
					"type": "uint256"
				},
				{
					"internalType": "uint256",
					"name": "_rewardsPerUnitTime",
					"type": "uint256"
				},
				{
					"internalType": "address",
					"name": "_stakingToken",
					"type": "address"
				},
				{
					"internalType": "address",
					"name": "_rewardToken",
					"type": "address"
				},
				{
					"internalType": "address",
					"name": "_nativeTokenWrapper",
					"type": "address"
				},
				{
					"internalType": "uint256[]",
					"name": "_stakingTokenAllowedId",
					"type": "uint256[]"
				}
			],
			"stateMutability": "nonpayable",
			"type": "constructor"
		},
		{
			"inputs": [],
			"name": "ContractMetadataUnauthorized",
			"type": "error"
		},
		{
			"inputs": [
				{
					"internalType": "uint256",
					"name": "expected",
					"type": "uint256"
				},
				{
					"internalType": "uint256",
					"name": "actual",
					"type": "uint256"
				}
			],
			"name": "CurrencyTransferLibMismatchedValue",
			"type": "error"
		},
		{
			"inputs": [],
			"name": "OwnableUnauthorized",
			"type": "error"
		},
		{
			"anonymous": false,
			"inputs": [
				{
					"indexed": false,
					"internalType": "string",
					"name": "prevURI",
					"type": "string"
				},
				{
					"indexed": false,
					"internalType": "string",
					"name": "newURI",
					"type": "string"
				}
			],
			"name": "ContractURIUpdated",
			"type": "event"
		},
		{
			"anonymous": false,
			"inputs": [
				{
					"indexed": true,
					"internalType": "address",
					"name": "prevOwner",
					"type": "address"
				},
				{
					"indexed": true,
					"internalType": "address",
					"name": "newOwner",
					"type": "address"
				}
			],
			"name": "OwnerUpdated",
			"type": "event"
		},
		{
			"anonymous": false,
			"inputs": [
				{
					"indexed": true,
					"internalType": "address",
					"name": "staker",
					"type": "address"
				},
				{
					"indexed": false,
					"internalType": "uint256",
					"name": "rewardAmount",
					"type": "uint256"
				}
			],
			"name": "RewardsClaimed",
			"type": "event"
		},
		{
			"anonymous": false,
			"inputs": [
				{
					"indexed": true,
					"internalType": "address",
					"name": "staker",
					"type": "address"
				},
				{
					"indexed": true,
					"internalType": "uint256[]",
					"name": "tokenIds",
					"type": "uint256[]"
				}
			],
			"name": "TokensStaked",
			"type": "event"
		},
		{
			"anonymous": false,
			"inputs": [
				{
					"indexed": true,
					"internalType": "address",
					"name": "staker",
					"type": "address"
				},
				{
					"indexed": true,
					"internalType": "uint256[]",
					"name": "tokenIds",
					"type": "uint256[]"
				}
			],
			"name": "TokensWithdrawn",
			"type": "event"
		},
		{
			"anonymous": false,
			"inputs": [
				{
					"indexed": false,
					"internalType": "uint256",
					"name": "oldRewardsPerUnitTime",
					"type": "uint256"
				},
				{
					"indexed": false,
					"internalType": "uint256",
					"name": "newRewardsPerUnitTime",
					"type": "uint256"
				}
			],
			"name": "UpdatedRewardsPerUnitTime",
			"type": "event"
		},
		{
			"anonymous": false,
			"inputs": [
				{
					"indexed": false,
					"internalType": "uint256",
					"name": "oldTimeUnit",
					"type": "uint256"
				},
				{
					"indexed": false,
					"internalType": "uint256",
					"name": "newTimeUnit",
					"type": "uint256"
				}
			],
			"name": "UpdatedTimeUnit",
			"type": "event"
		},
		{
			"inputs": [],
			"name": "claimRewards",
			"outputs": [],
			"stateMutability": "nonpayable",
			"type": "function"
		},
		{
			"inputs": [],
			"name": "contractURI",
			"outputs": [
				{
					"internalType": "string",
					"name": "",
					"type": "string"
				}
			],
			"stateMutability": "view",
			"type": "function"
		},
		{
			"inputs": [
				{
					"internalType": "uint256",
					"name": "_amount",
					"type": "uint256"
				}
			],
			"name": "depositRewardTokens",
			"outputs": [],
			"stateMutability": "payable",
			"type": "function"
		},
		{
			"inputs": [],
			"name": "getRewardTokenBalance",
			"outputs": [
				{
					"internalType": "uint256",
					"name": "",
					"type": "uint256"
				}
			],
			"stateMutability": "view",
			"type": "function"
		},
		{
			"inputs": [],
			"name": "getRewardsPerUnitTime",
			"outputs": [
				{
					"internalType": "uint256",
					"name": "_rewardsPerUnitTime",
					"type": "uint256"
				}
			],
			"stateMutability": "view",
			"type": "function"
		},
		{
			"inputs": [
				{
					"internalType": "address",
					"name": "_staker",
					"type": "address"
				}
			],
			"name": "getStakeInfo",
			"outputs": [
				{
					"internalType": "uint256[]",
					"name": "_tokensStaked",
					"type": "uint256[]"
				},
				{
					"internalType": "uint256",
					"name": "_rewards",
					"type": "uint256"
				}
			],
			"stateMutability": "view",
			"type": "function"
		},
		{
			"inputs": [],
			"name": "getTimeUnit",
			"outputs": [
				{
					"internalType": "uint256",
					"name": "_timeUnit",
					"type": "uint256"
				}
			],
			"stateMutability": "view",
			"type": "function"
		},
		{
			"inputs": [
				{
					"internalType": "uint256",
					"name": "",
					"type": "uint256"
				}
			],
			"name": "indexedTokens",
			"outputs": [
				{
					"internalType": "uint256",
					"name": "",
					"type": "uint256"
				}
			],
			"stateMutability": "view",
			"type": "function"
		},
		{
			"inputs": [
				{
					"internalType": "uint256",
					"name": "",
					"type": "uint256"
				}
			],
			"name": "isIndexed",
			"outputs": [
				{
					"internalType": "bool",
					"name": "",
					"type": "bool"
				}
			],
			"stateMutability": "view",
			"type": "function"
		},
		{
			"inputs": [
				{
					"internalType": "bytes[]",
					"name": "data",
					"type": "bytes[]"
				}
			],
			"name": "multicall",
			"outputs": [
				{
					"internalType": "bytes[]",
					"name": "results",
					"type": "bytes[]"
				}
			],
			"stateMutability": "nonpayable",
			"type": "function"
		},
		{
			"inputs": [],
			"name": "nativeTokenWrapper",
			"outputs": [
				{
					"internalType": "address",
					"name": "",
					"type": "address"
				}
			],
			"stateMutability": "view",
			"type": "function"
		},
		{
			"inputs": [
				{
					"internalType": "address",
					"name": "",
					"type": "address"
				},
				{
					"internalType": "address",
					"name": "",
					"type": "address"
				},
				{
					"internalType": "uint256",
					"name": "",
					"type": "uint256"
				},
				{
					"internalType": "bytes",
					"name": "",
					"type": "bytes"
				}
			],
			"name": "onERC721Received",
			"outputs": [
				{
					"internalType": "bytes4",
					"name": "",
					"type": "bytes4"
				}
			],
			"stateMutability": "view",
			"type": "function"
		},
		{
			"inputs": [],
			"name": "owner",
			"outputs": [
				{
					"internalType": "address",
					"name": "",
					"type": "address"
				}
			],
			"stateMutability": "view",
			"type": "function"
		},
		{
			"inputs": [],
			"name": "rewardToken",
			"outputs": [
				{
					"internalType": "address",
					"name": "",
					"type": "address"
				}
			],
			"stateMutability": "view",
			"type": "function"
		},
		{
			"inputs": [
				{
					"internalType": "string",
					"name": "_uri",
					"type": "string"
				}
			],
			"name": "setContractURI",
			"outputs": [],
			"stateMutability": "nonpayable",
			"type": "function"
		},
		{
			"inputs": [
				{
					"internalType": "address",
					"name": "_newOwner",
					"type": "address"
				}
			],
			"name": "setOwner",
			"outputs": [],
			"stateMutability": "nonpayable",
			"type": "function"
		},
		{
			"inputs": [
				{
					"internalType": "uint256",
					"name": "_rewardsPerUnitTime",
					"type": "uint256"
				}
			],
			"name": "setRewardsPerUnitTime",
			"outputs": [],
			"stateMutability": "nonpayable",
			"type": "function"
		},
		{
			"inputs": [
				{
					"internalType": "uint256",
					"name": "_timeUnit",
					"type": "uint256"
				}
			],
			"name": "setTimeUnit",
			"outputs": [],
			"stateMutability": "nonpayable",
			"type": "function"
		},
		{
			"inputs": [
				{
					"internalType": "uint256[]",
					"name": "_tokenIds",
					"type": "uint256[]"
				}
			],
			"name": "stake",
			"outputs": [],
			"stateMutability": "nonpayable",
			"type": "function"
		},
		{
			"inputs": [
				{
					"internalType": "uint256",
					"name": "",
					"type": "uint256"
				}
			],
			"name": "stakerAddress",
			"outputs": [
				{
					"internalType": "address",
					"name": "",
					"type": "address"
				}
			],
			"stateMutability": "view",
			"type": "function"
		},
		{
			"inputs": [
				{
					"internalType": "address",
					"name": "",
					"type": "address"
				}
			],
			"name": "stakers",
			"outputs": [
				{
					"internalType": "uint64",
					"name": "amountStaked",
					"type": "uint64"
				},
				{
					"internalType": "uint64",
					"name": "conditionIdOflastUpdate",
					"type": "uint64"
				},
				{
					"internalType": "uint128",
					"name": "timeOfLastUpdate",
					"type": "uint128"
				},
				{
					"internalType": "uint256",
					"name": "unclaimedRewards",
					"type": "uint256"
				}
			],
			"stateMutability": "view",
			"type": "function"
		},
		{
			"inputs": [
				{
					"internalType": "uint256",
					"name": "",
					"type": "uint256"
				}
			],
			"name": "stakersArray",
			"outputs": [
				{
					"internalType": "address",
					"name": "",
					"type": "address"
				}
			],
			"stateMutability": "view",
			"type": "function"
		},
		{
			"inputs": [],
			"name": "stakingToken",
			"outputs": [
				{
					"internalType": "address",
					"name": "",
					"type": "address"
				}
			],
			"stateMutability": "view",
			"type": "function"
		},
		{
			"inputs": [
				{
					"internalType": "uint256",
					"name": "",
					"type": "uint256"
				}
			],
			"name": "stakingTokenAllowedId",
			"outputs": [
				{
					"internalType": "uint256",
					"name": "",
					"type": "uint256"
				}
			],
			"stateMutability": "view",
			"type": "function"
		},
		{
			"inputs": [
				{
					"internalType": "bytes4",
					"name": "interfaceId",
					"type": "bytes4"
				}
			],
			"name": "supportsInterface",
			"outputs": [
				{
					"internalType": "bool",
					"name": "",
					"type": "bool"
				}
			],
			"stateMutability": "view",
			"type": "function"
		},
		{
			"inputs": [
				{
					"internalType": "uint256[]",
					"name": "_tokenIds",
					"type": "uint256[]"
				}
			],
			"name": "withdraw",
			"outputs": [],
			"stateMutability": "nonpayable",
			"type": "function"
		},
		{
			"inputs": [
				{
					"internalType": "uint256",
					"name": "_amount",
					"type": "uint256"
				}
			],
			"name": "withdrawRewardTokens",
			"outputs": [],
			"stateMutability": "nonpayable",
			"type": "function"
		},
		{
			"stateMutability": "payable",
			"type": "receive"
		}
	]
}